:100000000C9462000C948A000C948A000C948A0070
:100010000C948A000C948A000C948A000C948A0038
:100020000C948A000C948A000C948A000C948A0028
:100030000C948A000C948A000C948A000C948A0018
:100040000C94CE070C948A000C949C070C947607B1
:100050000C948A000C948A000C948A000C948A00F8
:100060000C9418080C948A0000000000240027005B
:100070002A0000000000250028002B0000000000DE
:1000800023002600290004040404040404040202DA
:100090000202020203030303030301020408102007
:1000A0004080010204081020010204081020000012
:1000B0000008000201000003040700000000000027
:1000C0000000460911241FBECFEFD8E0DEBFCDBF30
:1000D00011E0A0E0B1E0E6E4F5E102C005900D9288
:1000E000A23EB107D9F724E0A2EEB1E001C01D9213
:1000F000A03DB207E1F710E0C2E6D0E004C02197CE
:10010000FE010E94960AC136D107C9F70E94A409D0
:100110000C94A10A0C940000CF92DF92EF92FF9210
:100120000F931F93CF93DF936C017A018B01C0E093
:10013000D0E0CE15DF0589F0D8016D918D01D60193
:10014000ED91FC910190F081E02DC6010995892B7C
:1001500011F47E0102C02196ECCFC701DF91CF914F
:100160001F910F91FF90EF90DF90CF900895E09155
:100170001104F0911204309729F010920A041092A1
:10018000090409940895CF93DF93AC01E09113041F
:10019000F09114043097F1F090910C0480910B04CD
:1001A0009817C0F090E0292F30E02617370754F455
:1001B000D901AA58BC4FEA01C20FD31F88818C9382
:1001C0009F5FF1CF10920C0460930B04CB01DF9181
:1001D000CF910994DF91CF910895FC01538D448D07
:1001E000252F30E0842F90E0821B930B541710F0E2
:1001F000CF96089501970895FC01918D828D9817EF
:1002000061F0828DDF01A80FB11D5D968C91928DFA
:100210009F5F9F73928F90E008958FEF9FEF0895F7
:10022000FC01918D828D981731F0828DE80FF11DC0
:10023000858D90E008958FEF9FEF0895FC01918DDB
:10024000228D892F90E0805C9F4F821B91098F73D4
:100250009927089585E194E00E941E0121E0892BF1
:1002600009F420E0822F0895FC01848DDF01A80F9E
:10027000B11DA35ABF4F2C91848D90E001968F73CE
:100280009927848FA689B7892C93A089B1898C91ED
:1002900080648C93938D848D981306C00288F389B3
:1002A000E02D80818F7D80830895EF92FF920F93E0
:1002B0001F93CF93DF93EC0181E0888F9B8D8C8D12
:1002C000981305C0E889F989808185FD24C0F62E40
:1002D0000B8D10E00F5F1F4F0F731127E02E8C8DD9
:1002E000E8120CC00FB607FCFACFE889F9898081C3
:1002F00085FFF5CFCE010E943401F1CF8B8DFE0139
:10030000E80FF11DE35AFF4FF0820B8FEA89FB895A
:100310008081806207C0EE89FF896083E889F9895E
:1003200080818064808381E090E0DF91CF911F9194
:100330000F91FF90EF900895CF93DF93EC01888D9C
:100340008823C9F0EA89FB89808185FD05C0A889D9
:10035000B9898C9186FD0FC00FB607FCF5CF80815F
:1003600085FFF2CFA889B9898C9185FFEDCFCE01A9
:100370000E943401E7CFDF91CF91089580E090E0B3
:10038000892B29F00E942A0181110C940000089504
:10039000833081F028F4813099F08230A1F0089503
:1003A0008730A9F08830B9F08430D1F48091800092
:1003B0008F7D03C0809180008F77809380000895A7
:1003C00084B58F7702C084B58F7D84BD08958091F8
:1003D000B0008F7703C08091B0008F7D8093B00014
:1003E0000895CF93DF93282F30E0F901E255FF4FB6
:1003F0008491F901E656FF4FD491F901EA57FF4F76
:10040000C491CC2391F081110E94C801EC2FF0E03F
:10041000EE0FFF1FE458FF4FA591B491EC91ED232F
:1004200081E090E021F480E002C080E090E0DF9184
:10043000CF910895FC0180810E94F1010895FC0193
:1004400081810E94F10108951F93CF93DF93282F9C
:1004500030E0F901E255FF4F8491F901E656FF4F74
:10046000D491F901EA57FF4FC491CC23C9F0162F5C
:1004700081110E94C801EC2FF0E0EE0FFF1FEE5833
:10048000FF4FA591B4918FB7F894111105C09C91BD
:10049000ED2FE095E92302C0EC91ED2BEC938FBF9B
:1004A000DF91CF911F910895CF93DF9390E0FC01EE
:1004B000E656FF4F2491FC01EA57FF4F84918823B1
:1004C00061F190E0880F991FFC01E859FF4FC59139
:1004D000D491FC01EE58FF4FA591B491611109C070
:1004E0009FB7F8948881209582238883EC912E23EE
:1004F0000BC0623061F49FB7F8943881822F8095E9
:1005000083238883EC912E2B2C939FBF06C08FB73B
:10051000F894E8812E2B28838FBFDF91CF91089527
:10052000CF93DF93FC01C081DFB7F89461E08C2F9B
:100530000E94540260E08C2F0E942402DFBFDF91F2
:10054000CF910895FC01628180810C945402CF9375
:10055000DF93FC01C181DFB7F89461E08C2F0E942A
:10056000540260E08C2F0E942402DFBFDF91CF9104
:100570000895FC01628181810C94540283309105BD
:1005800028F0880F991F04970197F1F70895CF93EA
:10059000DF93CEEBD4E0EA85FB85CE0109958B8114
:1005A00090E00E94BE02EE81FF81CE0109958B8111
:1005B00090E00E94BE02EC85FD85CE0109958B81FD
:1005C00090E00E94BE02E885F985CE0109958B81F5
:1005D00090E0DF91CF910C94BE023FB7F8948091E8
:1005E000020490910304A0910404B091050426B57F
:1005F000A89B05C02F3F19F00196A11DB11D3FBF5B
:10060000BA2FA92F982F8827820F911DA11DB11DE8
:10061000BC01CD0143E0660F771F881F991F4A95E3
:10062000D1F708958F929F92AF92BF92CF92DF92AF
:10063000EF92FF926B017C010E94ED024B015C0185
:10064000C114D104E104F104F1F00E94ED02DC01D7
:10065000CB0188199909AA09BB09883E9340A105D5
:10066000B10570F321E0C21AD108E108F10888EE63
:10067000880E83E0981EA11CB11CC114D104E104B2
:10068000F10419F7DDCFFF90EF90DF90CF90BF908E
:10069000AF909F908F9008952FB7F8946091FE03CC
:1006A0007091FF0380910004909101042FBF089581
:1006B0000F931F93CF93DF93EC0188859985892B46
:1006C00019F40E94ED0202C00E944C030C811D81AE
:1006D0002E813F81DC01CB01801B910BA20BB30B60
:1006E00080959095A095B0958827B7FD839599271B
:1006F000AA27BB27DF91CF911F910F91089585ED18
:100700008093BC008091BC0084FDFCCF1092080453
:1007100008954091B603262F30E0240F311D213279
:100720003105DCF4209108042430C9F4FC0180E098
:1007300090E0861758F43091B6032191DC01AA5657
:10074000BC4FA30FB11D2C930196F3CF8091B6033C
:10075000680F6093B60380E0089581E0089582E019
:1007600008950895E0910C0480910B04E81730F48B
:10077000F0E0EA58FC4F808190E008958FEF9FEF02
:10078000089590910C0480910B04981750F4E92F70
:10079000F0E0EA58FC4F208130E09F5F90930C041A
:1007A00002C02FEF3FEFC901089580910B0490E044
:1007B00020910C04821B91090895CF93DF9300D000
:1007C000CDB7DEB7CB01642F49835A830E948903DA
:1007D0004981842F5A81952F0F900F90DF91CF91EF
:1007E0000895CF93DF931F92CDB7DEB7698361E0A1
:1007F000CE0101960E94890381E090E00F90DF9185
:10080000CF910895089580E090E00895CF92DF920F
:10081000EF92FF920F931F93CF93DF93CDB7DEB785
:100820002A970FB6F894DEBF0FBECDBF082F809178
:10083000C2049091C304A0E0B0E089839A83AB83A3
:10084000BC8381E090E09A8789870E944C03C9802D
:10085000DA80EB80FC80DC01CB018C0D9D1DAE1D90
:10086000BF1D8D839E83AF83B88718E0E091C804D5
:10087000F091C9048EEB94E0099507FF05C0E09163
:10088000C604F091C70404C0E091C404F091C5040B
:100890008EEB94E009958091C10490E00E94BE0225
:1008A000E091CA04F091CB048EEB94E0099580911D
:1008B000C10490E00E94BE02000FCE0101960E948A
:1008C0005803882329F00E94C70282E090E039C0D3
:1008D000115061F6E091C804F091C9048EEB94E0E8
:1008E0000995E091C604F091C7048EEB94E0099558
:1008F0008091C10490E00E94BE02E091CA04F09190
:10090000CB048EEB94E00995E091CE04F091CF04F6
:100910008EEB94E00995811107C0CE0101960E94EB
:100920005803882389F3CFCFE091CC04F091CD0414
:100930008EEB94E0099521E090E0811101C020E068
:10094000822F2A960FB6F894DEBF0FBECDBFDF917F
:10095000CF911F910F91FF90EF90DF90CF9008956E
:10096000CF92DF92EF92FF921F93CF93DF93CDB799
:10097000DEB72A970FB6F894DEBF0FBECDBF182F93
:100980004091C2045091C30460E070E049835A83EF
:100990006B837C8381E090E09A8789870E944C0377
:1009A000C980DA80EB80FC80DC01CB018C0D9D1DC1
:1009B000AE1DBF1D8D839E83AF83B887CE01019688
:1009C0000E945803811117C0E091C404F091C5043E
:1009D0008EEB94E009958091C10490E00E94BE02E4
:1009E000812F0E940604009749F0019711F40E949C
:1009F000C7020E94C70282E090E002C080E090E05F
:100A00002A960FB6F894DEBF0FBECDBFDF91CF910F
:100A10001F91FF90EF90DF90CF9008958F929F925B
:100A2000AF92BF92EF92FF920F931F93CF93DF93FA
:100A3000CDB7DEB72A970FB6F894DEBF0FBECDBF95
:100A40008C01E62EFC0110828091C2049091C304B7
:100A5000A0E0B0E089839A83AB83BC8381E090E01F
:100A60009A8789870E944C0389809A80AB80BC80DA
:100A7000DC01CB01880D991DAA1DBB1D8D839E83B2
:100A8000AF83B88788E0F82EF8018081880F8083D3
:100A9000E091C804F091C9048EEB94E00995E091CF
:100AA000C604F091C7048EEB94E009958091C104CF
:100AB00090E00E94BE02E091CA04F091CB048EEB5C
:100AC00094E009958091C10490E00E94BE02E091FB
:100AD000CE04F091CF048EEB94E0099581110BC008
:100AE000CE0101960E945803882389F30E94C70211
:100AF00082E090E04DC0E091CC04F091CD048EEB0B
:100B000094E00995882321F0F80180818160808339
:100B1000FA94F110B9CFE091C804F091C9048EEBBA
:100B200094E00995EE2029F0E091C404F091C50409
:100B300004C0E091C604F091C7048EEB94E00995DF
:100B40008091C10490E00E94BE02E091CA04F0913D
:100B5000CB048EEB94E009958091C10490E00E9453
:100B6000BE02E091CE04F091CF048EEB94E00995A3
:100B7000811107C0CE0101960E945803882389F392
:100B8000B5CF8091C10490E00E94BE0280E090E069
:100B90002A960FB6F894DEBF0FBECDBFDF91CF917E
:100BA0001F910F91FF90EF90BF90AF909F908F900B
:100BB0000895009769F0FC0101900020E9F7319752
:100BC000AF01481B590BBC0185E194E00C948C00EB
:100BD00080E090E008958F929F92AF92BF920F9322
:100BE0001F93CF93DF93CDB7DEB7A1970FB6F894DD
:100BF000DEBF0FBECDBF19A2423008F44AE08E011D
:100C00000F5D1F4F842E912CA12CB12CA5019401B6
:100C10000E94740AE62FB901CA0101501109EA3095
:100C200014F4E05D01C0E95CD801EC93232B242B84
:100C3000252B61F7C8010E94D905A1960FB6F8943B
:100C4000DEBF0FBECDBFDF91CF911F910F91BF903F
:100C5000AF909F908F900895CF93DF930E94D90516
:100C6000EC0184E291E00E94D9058C0F9D1FDF9179
:100C7000CF910895CF92DF92EF92FF920F931F933F
:100C8000CF93DF9360E08DE00E9424020DE513E036
:100C9000F8018FEF819393E0E637F907D9F7C0E0C9
:100CA000D0E080910B0490E020910C04821B91090C
:100CB0001816190664F4C931D10549F082EB94E0A5
:100CC0000E94C103F80181938F012196EACF8091A0
:100CD0005D03803109F0BAC081E090E090935C033D
:100CE00080935B0380915E0390E08F3F910509F450
:100CF000B9C08C38910511F480E491E090935A03C7
:100D0000809359032297E0E4F3E0CF0180549340AD
:100D10008C179D0714F41192F8CF87E291E00E949E
:100D2000D9056E010D2E000CEE08FF08D7FF14C088
:100D3000E0911504F09116040190F081E02D6DE230
:100D400085E194E0099566277727CB016C197D0929
:100D50008E099F094AE003C04AE0C701B6010E941C
:100D6000EB0581E391E00E942C0689E491E00E946A
:100D7000D9058FE5E82E83E0F82E00E413E0C801E2
:100D8000805493408C179D076CF4F70161917F01AB
:100D9000F80161938F0170E080E090E04AE00E94EA
:100DA000EB05EDCF85E291E00E94D90580915903D2
:100DB00090915A03E2EEF1E09F01225E3140281744
:100DC000390714F41192F8CF80E20E94B00400E4D5
:100DD00013E0C801805493408C179D0734F4F80148
:100DE00081918F010E940604F4CF0E94C70268EC33
:100DF00070E080E090E00E94120381E20E94B00463
:100E0000C2EED1E08091590390915A0301979E015F
:100E1000225E31402817390734F461E0CE010E9488
:100E20000E052196EFCF60E08E519E4F0E940E0579
:100E30000E94C70261E08DE0DF91CF911F910F9179
:100E4000FF90EF90DF90CF900C94240280E691E029
:100E5000DF91CF911F910F91FF90EF90DF90CF9096
:100E60000C942C06DF91CF911F910F91FF90EF9082
:100E7000DF90CF9008950F931F93CF93DF938091CE
:100E80005B0390915C03892B39F187E891E00E9424
:100E9000D905C2EED1E02091590330915A03CE0119
:100EA000825E9140821793077CF48E01699182EBF8
:100EB00094E00E94F103F801608170E080E090E02E
:100EC0004AE00E94EB05E7CF85E291E0DF91CF9108
:100ED0001F910F910C94D90589EA91E0DF91CF9190
:100EE0001F910F910C942C060E949C0A1F920F9246
:100EF0000FB60F9211242F933F934F935F936F93ED
:100F00007F938F939F93AF93BF93EF93FF9385E16D
:100F100094E00E943401FF91EF91BF91AF919F91B6
:100F20008F917F916F915F914F913F912F910F9092
:100F30000FBE0F901F9018951F920F920FB60F9231
:100F400011242F938F939F93EF93FF93E0912504A8
:100F5000F09126048081E0912B04F0912C0482FD15
:100F600012C0908180912E048F5F8F7320912F0487
:100F7000821751F0E0912E04F0E0EB5EFB4F958F6D
:100F800080932E0401C08081FF91EF919F918F91FA
:100F90002F910F900FBE0F901F9018951F920F92D8
:100FA0000FB60F9211242F933F938F939F93AF937C
:100FB000BF938091FE039091FF03A0910004B09134
:100FC00001043091FD0326E0230F2D3720F4029613
:100FD000A11DB11D05C029E8230F0396A11DB11D58
:100FE0002093FD038093FE039093FF03A0930004DE
:100FF000B09301048091020490910304A091040431
:10100000B09105040196A11DB11D80930204909337
:101010000304A0930404B0930504BF91AF919F9182
:101020008F913F912F910F900FBE0F901F901895A9
:101030001F920F920FB60F9211242F933F934F934D
:101040005F936F937F938F939F93AF93BF93EF9330
:10105000FF938091B900887F803609F49CC068F5C1
:10106000883209F45BC090F4803109F454C038F43C
:10107000882309F4F6C0883009F44DC0F6C08831E1
:1010800009F44CC0803209F45DC0EFC0803409F42B
:1010900068C048F4803309F455C0883309F0E5C0CE
:1010A0008093D903D8C0803509F44FC0883509F43E
:1010B0005DC0883409F0D9C0D6C0883909F4C7C0EA
:1010C000A8F4883709F467C038F4883609F463C097
:1010D000803709F460C0C9C0883809F4B8C08039C5
:1010E00009F45FC0803809F0C0C05BC0803B09F4E0
:1010F00086C038F4803A09F466C0883A09F47FC0A3
:10110000B4C0803C09F4A7C0883C09F4A4C0883B63
:1011100009F48AC0AAC08091FC0310C09091FB031F
:101120008091FA03981770F5E091FB0381E08E0F30
:101130008093FB03F0E0E652FC4F80818093BB007C
:1011400085EC86C08093D9038EC0E091FB0381E0DB
:101150008E0F8093FB038091BB00F0E0E652FC4FC2
:1011600080839091FB038091FA036EC0E091FB03B2
:1011700081E08E0F8093FB038091BB00F0E0E6528C
:10118000FC4F80838091070481116DC081E08093C2
:10119000060484EA61C083E0809308041092D803B7
:1011A000CFCF8091D803803208F051C0E091D803AE
:1011B00081E08E0F8093D8038091BB00F0E0E8546B
:1011C000FC4F8083BDCF85EC8093BC001092080457
:1011D0008091D803803230F4E091D803F0E0E854F5
:1011E000FC4F10826091D80370E0E0910D04F09103
:1011F0000E0488EB93E009951092D80336C084E082
:10120000809308041092B7031092B603E0910F0484
:10121000F091100409958091B603811105C081E019
:101220008093B60310929603E091B70381E08E0F8E
:101230008093B703F0E0EA56FC4F80818093BB00B7
:101240009091B7038091B603981708F479CF85E899
:101250008093BC000AC085EC8093BC001092080407
:1012600004C01092D9030E947F03FF91EF91BF91B8
:10127000AF919F918F917F916F915F914F913F912E
:101280002F910F900FBE0F901F901895E5E1F4E09D
:101290001382128288EE93E0A0E0B0E0848395830D
:1012A000A683B78324E031E03183208325EC30E04E
:1012B0003587248724EC30E03787268720EC30E020
:1012C000318B208B21EC30E0338B228B22EC30E011
:1012D000358B248B26EC30E0378B268B118E128ECB
:1012E000138E148EE2EBF4E01382128284839583D2
:1012F000A683B78386E191E091838083EEEBF4E0EF
:1013000085E0808386E0818312828AE0838384E69D
:1013100090E09583848380E992E09783868382EAD4
:1013200092E09187808787EA92E09387828789EBB2
:1013300092E0958784878AE192E0978786878FE19C
:1013400092E0918B808B0895789484B5826084BDFF
:1013500084B5816084BD85B5826085BD85B58160B9
:1013600085BD80916E00816080936E001092810037
:1013700080918100826080938100809181008160F2
:1013800080938100809180008160809380008091B3
:10139000B10084608093B1008091B000816080933F
:1013A000B00080917A00846080937A0080917A0006
:1013B000826080937A0080917A008E7F80937A0099
:1013C00080917A00806880937A001092C100E09149
:1013D0002504F091260482E08083E0912104F091BD
:1013E00022041082E0912304F091240487E6808394
:1013F00010922D04E0912904F0912A0486E0808364
:10140000E0912704F0912804808180618083E0913D
:101410002704F0912804808188608083E09127046C
:10142000F0912804808180688083E0912704F09106
:10143000280480818F7D808380E48093BA0087EBCD
:1014400090E09093100480930F0483EC90E09093CD
:101450000E0480930D0410920C0410920B04109251
:101460000A04109209041092080481E08093070492
:101470001092060461E082E10E94240261E083E1AF
:101480000E9424028091B9008E7F8093B9008091E0
:10149000B9008D7F8093B90080E28093B80085E425
:1014A0008093BC0085E08093C1040E94C7028BE357
:1014B00097E090931204809311048AE396E090934E
:1014C0001404809313048FEC91E00E942C0661E0D9
:1014D0008DE00E94540264E670E080E090E00E949B
:1014E00012030E94BE01F7CFA1E21A2EAA1BBB1B5A
:1014F000FD010DC0AA1FBB1FEE1FFF1FA217B307E0
:10150000E407F50720F0A21BB30BE40BF50B661FF5
:10151000771F881F991F1A9469F7609570958095B9
:1015200090959B01AC01BD01CF010895EE0FFF1F07
:101530000590F491E02D099481E090E0F8940C94EA
:06154000A10AF894FFCFA0
:101546000000000055018C00ED009C011E01FC000E
:10155600100100000000F103DD030304B103D5030D
:10156600C103B2030D0A005265636965766564209E
:1015760000206279746573206F662064617461204F
:1015860066726F6D204242420053656E64696E67F3
:10159600206461746120746F20694D54513A2000B3
:1015A6002A2A2A756E6B6E6F776E20493243206445
:1015B6006576696365205752495445207265717591
:1015C6006573742A2A2A00526573706F6E64696E99
:1015D6006720746F204242422077697468204D412B
:1015E6004720646174613A20002A2A2A756E6B6E60
:1015F6006F776E20493243206465766963652052B1
:1016060045414420726571756573742A2A2A0073F0
:1016160074617274696E67204D41472074657374F6
:021626000000C2
:107800000C94343C0C94513C0C94513C0C94513CE1
:107810000C94513C0C94513C0C94513C0C94513CB4
:107820000C94513C0C94513C0C94513C0C94513CA4
:107830000C94513C0C94513C0C94513C0C94513C94
:107840000C94513C0C94513C0C94513C0C94513C84
:107850000C94513C0C94513C0C94513C0C94513C74
:107860000C94513C0C94513C11241FBECFEFD8E036
:10787000DEBFCDBF11E0A0E0B1E0EAE8FFE702C063
:1078800005900D92A230B107D9F712E0A2E0B1E065
:1078900001C01D92AD30B107E1F70E942D3D0C945F
:1078A000C33F0C94003C982F95959595959595958B
:1078B000905D8F708A307CF0282F295A8091C0000B
:1078C00085FFFCCF9093C6008091C00085FFFCCF60
:1078D0002093C6000895282F205DF0CF982F809127
:1078E000C00085FFFCCF9093C6000895EF92FF92F1
:1078F0000F931F93EE24FF2487018091C00087FD22
:1079000017C00894E11CF11C011D111D81E2E8164D
:1079100081EAF80687E0080780E0180770F3E09135
:107920000401F091050109958091C00087FFE9CF1E
:107930008091C6001F910F91FF90EF9008950E94D3
:10794000763C982F8091C00085FFFCCF9093C600B5
:1079500091362CF490330CF09053892F089597555D
:10796000892F08951F930E949F3C182F0E949F3CCF
:107970001295107F810F1F9108951F93182F882350
:1079800021F00E94763C1150E1F71F9108951F935A
:10799000182F0E94763C803249F0809103018F5F5E
:1079A000809303018530C1F01F9108958091C0003C
:1079B00085FFFCCF84E18093C6008091C00085FFE5
:1079C000FCCF1093C6008091C00085FFFCCF80E102
:1079D0008093C6001F910895E0910401F091050184
:1079E00009951F9108950E94763C803241F0809164
:1079F00003018F5F80930301853081F008958091AA
:107A0000C00085FFFCCF84E18093C6008091C00058
:107A100085FFFCCF80E18093C6000895E0910401CA
:107A2000F09105010995089548EC50E08823A1F0F4
:107A30002D9A28EE33E0FA013197F1F721503040CA
:107A4000D1F72D9828EE33E0FA013197F1F7215064
:107A50003040D1F7815061F708953F924F925F9285
:107A60006F927F928F929F92AF92BF92CF92DF924E
:107A7000EF92FF920F931F93CF93DF93000082E06A
:107A80008093C00080E18093C4001092C50088E11B
:107A90008093C10086E08093C2005098589A259A3E
:107AA00081E00E94143D24E1F22E9EE1E92E85E959
:107AB000D82E0FE0C02E10E1B12EAA24A394B1E479
:107AC0009B2EA6E58A2EF2E57F2EE0E26E2E79E46B
:107AD000572E63E5462E50E5352E0E94763C8033C6
:107AE000B1F18133B9F1803409F46FC0813409F404
:107AF00076C0823409F485C0853409F488C08035A5
:107B000031F1823521F1813511F1853509F485C0D6
:107B1000863509F48DC0843609F496C0843709F49B
:107B200003C1853709F472C1863709F466C08091B4
:107B300003018F5F80930301853079F6E0910401A2
:107B4000F091050109950E94763C803351F60E9420
:107B5000F33CC3CF0E94763C803249F78091C0004D
:107B600085FFFCCFF092C6008091C00085FFFCCF5E
:107B70009092C6008091C00085FFFCCF8092C60025
:107B80008091C00085FFFCCF7092C6008091C0003C
:107B900085FFFCCF6092C6008091C00085FFFCCFBE
:107BA0005092C6008091C00085FFFCCF4092C60075
:107BB0008091C00085FFFCCF3092C6008091C0004C
:107BC00085FFFCCFB092C60088CF0E94763C8638F5
:107BD00008F4BDCF0E94763C0E94F33C7ECF0E9409
:107BE000763C803809F49CC0813809F40BC1823896
:107BF00009F430C1883909F48FC080E00E94C73C85
:107C00006CCF84E10E94BD3C0E94F33C66CF85E0CE
:107C10000E94BD3C0E94F33C60CF0E94763C809362
:107C200006010E94763C809307010E94F33C55CFE9
:107C30000E94763C803309F411C183E00E94BD3C70
:107C400080E00E94C73C49CF0E94763C80930902A5
:107C50000E94763C8093080280910C028E7F809374
:107C60000C020E94763C853409F409C18091080217
:107C700090910902892B89F000E010E00E94763C87
:107C8000F801E85FFE4F80830F5F1F4F809108026D
:107C9000909109020817190788F30E94763C8032F8
:107CA00009F045CF80910C0280FFF5C0609106017C
:107CB00070910701660F771F7093070160930601AB
:107CC000A0910802B09109021097C9F0E8E0F1E034
:107CD0009B01AD014E0F5F1FF999FECF32BD21BD53
:107CE000819180BDFA9AF99A2F5F3F4FE417F5070B
:107CF00099F76A0F7B1F70930701609306018091CB
:107D0000C00085FFFCCFF092C6008091C00085FFC7
:107D1000FCCFB092C600E1CE83E00E94C73CDDCE2E
:107D200082E00E94C73CD9CE0E94763C8093090233
:107D30000E94763C80930802809106019091070191
:107D4000880F991F90930701809306010E94763C4B
:107D5000853409F49AC080910C028E7F80930C02C6
:107D60000E94763C803209F0B8CE8091C00085FF39
:107D7000FCCFF092C600A0910802B09109021097C2
:107D8000C1F180910C02082F0170182F1695117007
:107D9000E0910601F0910701AF014F5F5F4FBA011B
:107DA00020E030E00023B1F4112339F49491809164
:107DB000C00085FFFCCF9093C6002F5F3F4FCB01E3
:107DC0000196FA012A173B0780F4BC014F5F5F4F11
:107DD000002351F3F999FECFF2BDE1BDF89A90B5B9
:107DE0008091C00085FFFCCFE6CF709307016093C0
:107DF00006018091C00085FDE5CE8091C00085FF21
:107E0000F8CFE0CE81E00E94C73C67CE0E94763C6E
:107E1000803209F08CCE8091C00085FFFCCFF092BB
:107E2000C6008091C00085FFFCCFE092C600809123
:107E3000C00085FFFCCFD092C6008091C00085FFB6
:107E4000FCCFC092C6008091C00085FFFCCFB092ED
:107E5000C60043CE80E10E94C73C3FCE0E94763CE4
:107E60000E94763C182F0E94763C112309F483C0AF
:107E7000113009F484C08FE00E94C73C2ECE80915F
:107E80000C02816080930C02F1CE80910C02816023
:107E900080930C0265CF809107018823880F880B9F
:107EA0008A2180930B028091060190910701880F2F
:107EB000991F90930701809306018091080280FF2B
:107EC00009C08091080290910902019690930902DD
:107ED00080930802F894F999FECF1127E0910601EA
:107EE000F0910701C8E0D1E0809108029091090269
:107EF000103091F40091570001700130D9F303E084
:107F000000935700E8950091570001700130D9F3B4
:107F100001E100935700E8950990199000915700EE
:107F200001700130D9F301E000935700E8951395F3
:107F3000103498F011270091570001700130D9F3E7
:107F400005E000935700E89500915700017001305B
:107F5000D9F301E100935700E8953296029709F0B2
:107F6000C7CF103011F00296E5CF11248091C000E8
:107F700085FFC5CEC8CE8EE10E94C73CAECD85E957
:0A7F80000E94C73CAACDF894FFCF81
:027F8A00800075
:040000030000780081
:00000001FF