:100000000C9462000C948A000C948A000C948A0070
:100010000C948A000C948A000C948A000C948A0038
:100020000C948A000C948A000C948A000C948A0028
:100030000C948A000C948A000C948A000C948A0018
:100040000C94AC030C948A000C9471020C944B0237
:100050000C948A000C948A000C948A000C948A00F8
:100060000C9417090C948A0000000000240027005B
:100070002A0000000000250028002B0000000000DE
:1000800023002600290004040404040404040202DA
:100090000202020203030303030301020408102007
:1000A0004080010204081020010204081020000012
:1000B0000008000201000003040700000000000027
:1000C0000000450A11241FBECFEFD8E0DEBFCDBF30
:1000D00012E0A0E0B1E0ECE9F7E102C005900D927A
:1000E000A830B107D9F724E0A8E0B2E001C01D9222
:1000F000A232B207E1F710E0C2E6D0E004C02197D7
:10010000FE010E94C10BC136D107C9F70E94CB0A7C
:100110000C94CC0B0C940000CF92DF92EF92FF92E4
:100120000F931F93CF93DF936C017A018B01C0E093
:10013000D0E0CE15DF0589F0D8016D918D01D60193
:10014000ED91FC910190F081E02DC6010995892B7C
:1001500011F47E0102C02196ECCFC701DF91CF914F
:100160001F910F91FF90EF90DF90CF900895FC01C9
:10017000918D828D981761F0828DDF01A80FB11DDE
:100180005D968C91928D9F5F9F73928F90E0089502
:100190008FEF9FEF0895FC01918D828D981731F0BC
:1001A000828DE80FF11D858D90E008958FEF9FEF10
:1001B0000895FC01918D228D892F90E0805C9F4FE6
:1001C000821B91098F739927089587E192E00E941D
:1001D000D90021E0892B09F420E0822F0895FC0149
:1001E000848DDF01A80FB11DA35ABF4F2C91848DC0
:1001F00090E001968F739927848FA689B7892C93F5
:10020000A089B1898C9180648C93938D848D98138F
:1002100006C00288F389E02D80818F7D8083089558
:10022000EF92FF920F931F93CF93DF93EC0181E046
:10023000888F9B8D8C8D981305C0E889F989808102
:1002400085FD24C0F62E0B8D10E00F5F1F4F0F733E
:100250001127E02E8C8DE8120CC00FB607FCFACFE8
:10026000E889F989808185FFF5CFCE010E94EF00F2
:10027000F1CF8B8DFE01E80FF11DE35AFF4FF082A5
:100280000B8FEA89FB898081806207C0EE89FF8934
:100290006083E889F98980818064808381E090E0CF
:1002A000DF91CF911F910F91FF90EF900895CF9321
:1002B000DF93EC01888D8823C9F0EA89FB8980816E
:1002C00085FD05C0A889B9898C9186FD0FC00FB640
:1002D00007FCF5CF808185FFF2CFA889B9898C9181
:1002E00085FFEDCFCE010E94EF00E7CFDF91CF91E8
:1002F000089580E090E0892B29F00E94E5008111AB
:100300000C9400000895833081F028F4813099F036
:100310008230A1F008958730A9F08830B9F0843098
:10032000D1F4809180008F7D03C0809180008F7711
:1003300080938000089584B58F7702C084B58F7D47
:1003400084BD08958091B0008F7703C08091B00084
:100350008F7D8093B0000895009769F0FC010190B3
:100360000020E9F73197AF01481B590BBC0187E129
:1003700092E00C948C0080E090E008950E94C70BFE
:100380000C94AC018F929F92AF92BF92CF92DF926A
:10039000EF92FF920F931F93CF93DF93CDB7DEB70A
:1003A000A1970FB6F894DEBF0FBECDBF6C01990FB9
:1003B000EE08FF08F7FE31C0E0911702F091180235
:1003C0000190F081E02D6DE287E192E009958C01CA
:1003D00022273327A9012C193D094E095F0919A2CB
:1003E000CE0181967C019AE0892E912CA12CB12C12
:1003F000CA01B901A50194010E949F0B605DF7013C
:1004000062937F01211531054105510589F7CF011F
:100410000E94AC01800F911F1DC0A701960119A277
:100420008E010F5D1F4F8AE0C82ED12CE12CF12CDC
:10043000CA01B901A70196010E949F0B605DF801F6
:1004400062938F01211531054105510589F7CF01CF
:100450000E94AC01A1960FB6F894DEBF0FBECDBFCF
:10046000DF91CF911F910F91FF90EF90DF90CF9090
:10047000BF90AF909F908F900895CF93DF930E948D
:10048000AC01EC0180E291E00E94AC018C0F9D1F59
:10049000DF91CF9108951F920F920FB60F92112402
:1004A0002F933F934F935F936F937F938F939F937C
:1004B000AF93BF93EF93FF9387E192E00E94EF0029
:1004C000FF91EF91BF91AF919F918F917F916F912C
:1004D0005F914F913F912F910F900FBE0F901F9002
:1004E00018951F920F920FB60F9211242F938F938E
:1004F0009F93EF93FF93E0912702F0912802808170
:10050000E0912D02F0912E0282FD12C09081809127
:1005100030028F5F8F7320913102821751F0E0918A
:100520003002F0E0E95EFD4F958F8093300201C00C
:100530008081FF91EF919F918F912F910F900FBE2E
:100540000F901F901895CF93DF93282F30E0F9017B
:10055000E255FF4F8491F901E656FF4FD491F9011E
:10056000EA57FF4FC491CC2391F081110E9483017F
:10057000EC2FF0E0EE0FFF1FE458FF4FA591B49170
:10058000EC91ED2381E090E021F480E002C080E076
:1005900090E0DF91CF9108951F93CF93DF93282FA1
:1005A00030E0F901E255FF4F8491F901E656FF4F23
:1005B000D491F901EA57FF4FC491CC23C9F0162F0B
:1005C00081110E948301EC2FF0E0EE0FFF1FEE5827
:1005D000FF4FA591B4918FB7F894111105C09C916C
:1005E000ED2FE095E92302C0EC91ED2BEC938FBF4A
:1005F000DF91CF911F910895CF93DF9390E0FC019D
:10060000E656FF4F2491FC01EA57FF4F849188235F
:1006100061F190E0880F991FFC01E859FF4FC591E7
:10062000D491FC01EE58FF4FA591B491611109C01E
:100630009FB7F8948881209582238883EC912E239C
:100640000BC0623061F49FB7F8943881822F809597
:1006500083238883EC912E2B2C939FBF06C08FB7EA
:10066000F894E8812E2B28838FBFDF91CF910895D6
:100670008330910528F0880F991F04970197F1F7AF
:1006800008953FB7F8948091E9029091EA02A09111
:10069000EB02B091EC0226B5A89B05C02F3F19F0E4
:1006A0000196A11DB11D3FBFBA2FA92F982F8827F2
:1006B000820F911DA11DB11DBC01CD0143E0660F4C
:1006C000771F881F991F4A95D1F708958F929F929F
:1006D000AF92BF92CF92DF92EF92FF926B017C01BB
:1006E0000E9441034B015C01C114D104E104F104F7
:1006F000F1F00E944103DC01CB0188199909AA0994
:10070000BB09883E9340A105B10570F321E0C21AF0
:10071000D108E108F10888EE880E83E0981EA11C3C
:10072000B11CC114D104E104F10419F7DDCFFF902D
:10073000EF90DF90CF90BF90AF909F908F900895F3
:100740002FB7F8946091E5027091E6028091E7027C
:100750009091E8022FBF08951F920F920FB60F924B
:1007600011242F933F938F939F93AF93BF938091C7
:10077000E5029091E602A091E702B091E802309183
:10078000E40226E0230F2D3720F40296A11DB11DAF
:1007900005C029E8230F0396A11DB11D2093E40293
:1007A0008093E5029093E602A093E702B093E802FB
:1007B0008091E9029091EA02A091EB02B091EC02E3
:1007C0000196A11DB11D8093E9029093EA02A093C6
:1007D000EB02B093EC02BF91AF919F918F913F914B
:1007E0002F910F900FBE0F901F9018958F929F9290
:1007F000AF92BF92CF92DF92EF92FF920F931F932F
:10080000CF93DF93CDB7DEB72A970FB6F894DEBF4C
:100810000FBECDBF8C017B01C42EDB011C92FC01FD
:1008200084819581A0E0B0E089839A83AB83BC8307
:1008300081E090E09A8789870E94A00389809A804E
:10084000AB80BC80DC01CB01880D991DAA1DBB1DAE
:100850008D839E83AF83B88788E0D82ED7018C9193
:10086000880F8C93D8011A96ED91FC911B97C801C3
:100870000995D8011896ED91FC911997C801099531
:10088000F801838190E00E943803D8011C96ED9115
:10089000FC911D97C8010995F801838190E00E94A1
:1008A0003803D8015096ED91FC915197C8010995F4
:1008B00081110CC0CE0101960E94E306882389F3C2
:1008C000C8010E94BF0682E090E04DC0D8011E968C
:1008D000ED91FC911F97C8010995882321F0F7013C
:1008E000808181608083DA94D110B8CFD8011A96C4
:1008F000ED91FC911B97C8010995D801CC2029F0F6
:100900001696ED91FC91179704C01896ED91FC9105
:100910001997C8010995F801838190E00E94380376
:10092000D8011C96ED91FC911D97C8010995F8011D
:10093000838190E00E943803D8015096ED91FC919C
:100940005197C8010995811107C0CE0101960E94F7
:10095000E306882389F3B4CFF801838190E00E94F5
:10096000380380E090E02A960FB6F894DEBF0FBE01
:10097000CDBFDF91CF911F910F91FF90EF90DF904E
:10098000CF90BF90AF909F908F9008958F929F923D
:10099000AF92BF92EF92FF920F931F93CF93DF938B
:1009A000CDB7DEB72A970FB6F894DEBF0FBECDBF26
:1009B0008C01E62EDC0114968D919C911597A0E098
:1009C000B0E089839A83AB83BC8381E090E09A870F
:1009D00089870E94A00389809A80AB80BC80DC015B
:1009E000CB01880D991DAA1DBB1D8D839E83AF83EE
:1009F000B88788E0F82ED8011A96ED91FC911B97E4
:100A0000C8010995D801E7FE05C01896ED91FC9143
:100A1000199704C01696ED91FC911797C801099596
:100A2000F801838190E00E943803D8011C96ED9173
:100A3000FC911D97C8010995F801838190E00E94FF
:100A40003803EE0CCE0101960E94E306882331F0B4
:100A5000C8010E94BF0682E090E03AC0FA94F1100B
:100A6000CACFD8011A96ED91FC911B97C801099540
:100A7000D8011896ED91FC911997C8010995F801D4
:100A8000838190E00E943803D8011C96ED91FC917F
:100A90001D97C8010995D8015096ED91FC91519789
:100AA000C8010995811107C0CE0101960E94E30695
:100AB000882389F3CDCFD8011E96ED91FC911F9725
:100AC000C801099521E090E0811101C020E0822F4A
:100AD0002A960FB6F894DEBF0FBECDBFDF91CF913F
:100AE0001F910F91FF90EF90BF90AF909F908F90CC
:100AF000089585ED8093BC008091BC0084FDFCCFFF
:100B000010920A0208954091DB03262F30E0240F53
:100B1000311D21323105DCF420910A022430C9F460
:100B2000FC0180E090E0861758F43091DB032191BE
:100B3000DC01A554BC4FA30FB11D2C930196F3CF3C
:100B40008091DB03680F6093DB0380E0089581E010
:100B5000089582E00895E0911302F0911402309715
:100B600029F010920C0210920B0209940895CF9371
:100B7000DF93AC01E0911502F09116023097F1F08D
:100B800090910E0280910D029817C0F090E0292FED
:100B900030E02617370754F4D901A556BC4FEA01B7
:100BA000C20FD31F88818C939F5FF1CF10920E02EA
:100BB00060930D02CB01DF91CF910994DF91CF912A
:100BC00008950895E0910E0280910D02E81730F427
:100BD000F0E0E556FC4F808190E008958FEF9FEFA5
:100BE000089590910E0280910D02981750F4E92F0C
:100BF000F0E0E556FC4F208130E09F5F90930E02BD
:100C000002C02FEF3FEFC901089580910D0290E0DF
:100C100020910E02821B91090895CF93DF9300D09B
:100C2000CDB7DEB7CB01642F49835A830E94830579
:100C30004981842F5A81952F0F900F90DF91CF918A
:100C40000895CF93DF931F92CDB7DEB7698361E03C
:100C5000CE0101960E94830581E090E00F90DF9124
:100C6000CF910895FC0181810E94A3020895FC01A7
:100C700080810E94A3020895FC01628181810C940D
:100C8000FC02FC01628180810C94FC02CF93DF9313
:100C9000FC01C181DFB7F89461E08C2F0E94FC0257
:100CA00060E08C2F0E94CC02DFBFDF91CF910895CE
:100CB000CF93DF93FC01C081DFB7F89461E08C2F04
:100CC0000E94FC0260E08C2F0E94CC02DFBFDF910B
:100CD000CF910895CF93DF93809181039091820308
:100CE00020917F0330918003892BC1F0232B09F0E1
:100CF00040C080917D0390917E03892BD1F5CDEE8C
:100D0000D2E0688184EB92E00E942106199283E090
:100D1000C530D807B1F785E391E016C080917D0317
:100D200090917E03232BA1F0892B19F5CDE1D3E01F
:100D3000688184EB92E00E942106199283E0C5331A
:100D4000D807B1F785E591E0DF91CF910C94C00110
:100D5000892B79F0CDE4D3E0688184EB92E00E94A6
:100D60002106199283E0C536D807B1F789E791E0EB
:100D7000EBCF89E991E0DF91CF910C943D02CF93C5
:100D8000DF93EC01EA85FB8509958B8190E00E9459
:100D90003803EE81FF81CE0109958B8190E00E949E
:100DA0003803EC85FD85CE0109958B8190E00E948A
:100DB0003803E885F985CE0109958B8190E0DF91B4
:100DC000CF910C9438030F931F93CF93DF93EC01D3
:100DD00088859985892B19F40E94410302C00E94DD
:100DE000A0030C811D812E813F81DC01CB01801B82
:100DF000910BA20BB30B80959095A095B095882789
:100E0000B7FD83959927AA27BB27DF91CF911F9123
:100E10000F9108958F929F92AF92BF92FF920F937E
:100E20001F93CF93DF93CDB7DEB72A970FB6F89411
:100E3000DEBF0FBECDBF8C01F62EDC0114968D9166
:100E40009C911597A0E0B0E089839A83AB83BC8323
:100E500081E090E09A8789870E94A00389809A8028
:100E6000AB80BC80DC01CB01880D991DAA1DBB1D88
:100E70008D839E83AF83B887CE0101960E94E306DF
:100E800081111AC0D8011696ED91FC911797C801EF
:100E90000995F801838190E00E9438036F2DC80105
:100EA0000E94C604009759F0019719F4C8010E94E6
:100EB000BF06C8010E94BF0682E090E002C080E049
:100EC00090E02A960FB6F894DEBF0FBECDBFDF913B
:100ED000CF911F910F91FF90BF90AF909F908F90F7
:100EE0000895EF92FF920F931F93CF93DF9303E840
:100EF00013E0F8018FEF819393E0EB39F907D9F70D
:100F0000C0E0D0E080910D0290E020910E02821BA3
:100F100091091816190664F4C831D10549F084EB1B
:100F200092E00E94F105F80181938F012196EACFAA
:100F3000809183038B3209F070C081E090E0909340
:100F40008203809381031092800310927F0310929A
:100F50007E0310927D03809184038F3F09F460C16A
:100F6000E5E0F3E0119283E0ED31F807D9F70DEEFB
:100F700012E0F801119293E0E530F907D9F7A4E8FF
:100F8000B3E0E5E0F3E0CF01855093408C179D0777
:100F90001CF48D918193F7CF8FEB91E00E94C001FB
:100FA000CE010E94C20189EC91E00E94C00166E579
:100FB00082ED92E00E940A0725E0E22E23E0F22E65
:100FC000C701855093408C179D0744F4F701619148
:100FD0007F0182ED92E00E94C604F2CF82ED92E0A2
:100FE0000E94BF0662E070E080E090E00E9466032D
:100FF00067E582ED92E00E940A0741E0B80182EDC8
:1010000092E00E94F6030F5F1F4FF3E004301F07CA
:10101000A1F740E064E073E072C08A3209F07DC05D
:10102000109282031092810381E090E090938003FC
:1010300080937F0310927E0310927D03809184033E
:101040008F3F09F4EDC0E5E3F3E0119283E0ED3466
:10105000F807D9F70DE113E0F801119293E0E533B9
:10106000F907D9F7A4E8B3E0E5E3F3E0CF0185534E
:1010700093408C179D071CF48D918193F7CF8FEBD4
:1010800091E00E94C001CE010E94C20189EC91E072
:101090000E94C00164E582ED92E00E940A0795E398
:1010A000E92E93E0F92EC701855393408C179D07D5
:1010B00044F4F70161917F0182ED92E00E94C60441
:1010C000F2CF82ED92E00E94BF0662E070E080E025
:1010D00090E00E94660365E582ED92E00E940A07B7
:1010E00041E0B80182ED92E00E94F6030F5F1F4FCE
:1010F000F3E004331F07A1F740E064E373E082EDFF
:1011000092E00E94F60382ED92E0DF91CF911F9171
:101110000F91FF90EF900C94BF06803109F076C0DC
:1011200010928203109281031092800310927F0329
:1011300081E090E090937E0380937D03809184030F
:101140008F3F09F46DC0E5E6F3E0119283E0ED37DF
:10115000F807D9F70DE413E0F801119293E0E536B2
:10116000F907D9F7A4E8B3E0E5E6F3E0CF01855647
:1011700093408C179D071CF48D918193F7CF8FEBD3
:1011800091E00E94C001CE010E94C20189EC91E071
:101190000E94C00160E280EC92E00E940A0785E6AE
:1011A000E82E83E0F82EC701855693408C179D07E3
:1011B00044F4F70161917F0180EC92E00E94C60443
:1011C000F2CF80EC92E00E94BF0662E070E080E027
:1011D00090E00E94660361E280EC92E00E940A07C0
:1011E00041E0B80180EC92E00E94F6030F5F1F4FD0
:1011F000F3E004361F07A1F740E064E673E080ECFB
:1012000092E00E94F60380EC92E07FCF81EE91E0C5
:10121000DF91CF911F910F91FF90EF900C943D02C1
:10122000DF91CF911F910F91FF90EF9008951F9242
:101230000F920FB60F9211242F933F934F935F930A
:101240006F937F938F939F93AF93BF93EF93FF938E
:101250008091B900887F803609F49CC068F5883297
:1012600009F45BC090F4803109F454C038F4882349
:1012700009F4F6C0883009F44DC0F6C0883109F48D
:101280004CC0803209F45DC0EFC0803409F468C0FE
:1012900048F4803309F455C0883309F0E5C08093E1
:1012A000FE03D8C0803509F44FC0883509F45DC00D
:1012B000883409F0D9C0D6C0883909F4C7C0A8F469
:1012C000883709F467C038F4883609F463C080377A
:1012D00009F460C0C9C0883809F4B8C0803909F47D
:1012E0005FC0803809F0C0C05BC0803B09F486C095
:1012F00038F4803A09F466C0883A09F47FC0B4C073
:10130000803C09F4A7C0883C09F4A4C0883B09F4D8
:101310008AC0AAC08091210410C0909120048091BD
:101320001F04981770F5E091200481E08E0F8093E0
:101330002004F0E0E150FC4F80818093BB0085ECFD
:1013400086C08093FE038EC0E091200481E08E0F62
:10135000809320048091BB00F0E0E150FC4F80833B
:101360009091200480911F046EC0E091200481E0E0
:101370008E0F809320048091BB00F0E0E150FC4F81
:1013800080838091090281116DC081E08093080201
:1013900084EA61C083E080930A021092FD03CFCFFC
:1013A0008091FD03803208F051C0E091FD0381E09F
:1013B0008E0F8093FD038091BB00F0E0E352FC4F61
:1013C0008083BDCF85EC8093BC0010920A0280918F
:1013D000FD03803230F4E091FD03F0E0E352FC4F76
:1013E00010826091FD0370E0E0910F02F091100215
:1013F0008DED93E009951092FD0336C084E0809353
:101400000A021092DC031092DB03E0911102F091CA
:10141000120209958091DB03811105C081E0809360
:10142000DB031092BB03E091DC0381E08E0F80931D
:10143000DC03F0E0E554FC4F80818093BB00909189
:10144000DC038091DB03981708F479CF85E880935B
:10145000BC000AC085EC8093BC0010920A0204C054
:101460001092FE030E947905FF91EF91BF91AF9119
:101470009F918F917F916F915F914F913F912F91AC
:101480000F900FBE0F901F901895EF92FF920F9341
:101490001F93CF93DF93E7E1F2E01382128288EE8D
:1014A00093E0A0E0B0E084839583A683B78324E033
:1014B00031E03183208325EC30E03587248724EC2C
:1014C00030E03787268720EC30E0318B208B21EC11
:1014D00030E0338B228B22EC30E0358B248B26ECF2
:1014E00030E0378B268B118E128E138E148EE4EB28
:1014F000F2E01382128284839583A683B78384E10A
:1015000091E091838083E2EDF2E085E0808386E0E4
:10151000818312828AE0F82EF38204E610E01583BC
:101520000483C8E5D6E0D783C683A1E4B6E0B187DB
:10153000A08766E476E0738762874CE356E05587C0
:10154000448727E336E03787268782E396E0918B4E
:10155000808BE0ECF2E00F2EF3E0EF2EF02DE08236
:101560006894EE24E2F8E1821282F3821583048308
:10157000D783C683B187A0877387628755874487DF
:1015800037872687918B808BDF91CF911F910F91A9
:10159000FF90EF900895789484B5826084BD84B5FF
:1015A000816084BD85B5826085BD85B5816085BD5E
:1015B00080916E00816080936E0010928100809116
:1015C000810082608093810080918100816080939E
:1015D0008100809180008160809380008091B100C3
:1015E00084608093B1008091B00081608093B000EE
:1015F00080917A00846080937A0080917A00826082
:1016000080937A0080917A008E7F80937A00809117
:101610007A00806880937A001092C100E0912702DE
:10162000F091280282E08083E0912302F09124026D
:101630001082E0912502F091260287E680831092C5
:101640002F02E0912B02F0912C0286E08083E09142
:101650002902F0912A02808180618083E091290231
:10166000F0912A02808188608083E0912902F091C4
:101670002A02808180688083E0912902F0912A0209
:1016800080818F7D808380E48093BA008BEA95E02F
:10169000909312028093110287EB95E090931002D1
:1016A00080930F0210920E0210920D0210920C0203
:1016B00010920B0210920A0281E0809309021092AC
:1016C000080261E082E10E94CC0261E083E10E94B5
:1016D000CC028091B9008E7F8093B9008091B900CF
:1016E0008D7F8093B90080E28093B80085E4809379
:1016F000BC0085E08093D5028093C30282ED92E026
:101700000E94BF0680EC92E00E94BF068AE696E047
:10171000909314028093130281E797E0909316024E
:101720008093150283E291E00E943D0264E670E03E
:1017300080E090E00E9466030E947901F7CFA1E269
:101740001A2EAA1BBB1BFD010DC0AA1FBB1FEE1F3B
:10175000FF1FA217B307E407F50720F0A21BB30B86
:10176000E40BF50B661F771F881F991F1A9469F702
:1017700060957095809590959B01AC01BD01CF015E
:101780000895EE0FFF1F0590F491E02D099481E07C
:0C17900090E0F8940C94CC0BF894FFCF80
:10179C000000000010018C00D900B700CB005701ED
:1017AC000000000021060D060506F105E205E10525
:1017BC000D0A007374617274696E67204550532072
:1017CC007465737400526573706F6E64696E672014
:1017DC00746F204242422077697468204550532030
:1017EC006461746100526573706F6E64696E67201A
:1017FC00746F2042424220776974682042415454ED
:10180C00455259206461746100526573706F6E6447
:10181C00696E6720746F2042424220776974682099
:10182C004D41472064617461002A2A2A756E6B6EE3
:10183C006F776E2049324320646576696365205268
:10184C0045414420726571756573742A2A2A0052C9
:10185C006563696576656420002062797465732020
:10186C006F6620646174612066726F6D2042424223
:10187C00002A2A2A756E6B6E6F776E2049324320D0
:10188C0064657669636520575249544520726571C9
:08189C00756573742A2A2A0005
:00000001FF
