:100000000C9462000C948A000C948A000C948A0070
:100010000C948A000C948A000C948A000C948A0038
:100020000C948A000C948A000C948A000C948A0028
:100030000C948A000C948A000C948A000C948A0018
:100040000C94E8050C948A000C9478030C945203E9
:100050000C948A000C948A000C948A000C948A00F8
:100060000C9491080C948A000000000024002700E2
:100070002A0000000000250028002B0000000000DE
:1000800023002600290004040404040404040202DA
:100090000202020203030303030301020408102007
:1000A0004080010204081020010204081020000012
:1000B0000008000201000003040700000000000027
:1000C0000000BF0911241FBECFEFD8E0DEBFCDBFB7
:1000D00012E0A0E0B1E0E0E3F6E102C005900D928D
:1000E000A830B107D9F723E0A8E0B2E001C01D9223
:1000F000AA37B207E1F710E0C2E6D0E004C02197CA
:10010000FE010E940B0BC136D107C9F70E941D0AE0
:100110000C94160B0C940000CF92DF92EF92FF929A
:100120000F931F93CF93DF936C017A018B01C0E093
:10013000D0E0CE15DF0589F0D8016D918D01D60193
:10014000ED91FC910190F081E02DC6010995892B7C
:1001500011F47E0102C02196ECCFC701DF91CF914F
:100160001F910F91FF90EF90DF90CF900895FC01C9
:10017000538D448D252F30E0842F90E0821B930B0C
:10018000541710F0CF96089501970895FC01918DB2
:10019000828D981761F0828DDF01A80FB11D5D96E9
:1001A0008C91928D9F5F9F73928F90E008958FEF57
:1001B0009FEF0895FC01918D828D981731F0828D0B
:1001C000E80FF11D858D90E008958FEF9FEF089562
:1001D000FC01918D228D892F90E0805C9F4F821BC6
:1001E00091098F739927089587E192E00E94E800B2
:1001F00021E0892B09F420E0822F0895FC01848DF1
:10020000DF01A80FB11DA35ABF4F2C91848D90E040
:1002100001968F739927848FA689B7892C93A0891B
:10022000B1898C9180648C93938D848D981306C0D2
:100230000288F389E02D80818F7D80830895EF927D
:10024000FF920F931F93CF93DF93EC0181E0888F90
:100250009B8D8C8D981305C0E889F989808185FD77
:1002600024C0F62E0B8D10E00F5F1F4F0F73112768
:10027000E02E8C8DE8120CC00FB607FCFACFE8898F
:10028000F989808185FFF5CFCE010E94FE00F1CF74
:100290008B8DFE01E80FF11DE35AFF4FF0820B8FAB
:1002A000EA89FB898081806207C0EE89FF896083CB
:1002B000E889F98980818064808381E090E0DF9122
:1002C000CF911F910F91FF90EF900895CF93DF93FF
:1002D000EC01888D8823C9F0EA89FB89808185FD3E
:1002E00005C0A889B9898C9186FD0FC00FB607FC9F
:1002F000F5CF808185FFF2CFA889B9898C9185FFE0
:10030000EDCFCE010E94FE00E7CFDF91CF9108959F
:1003100080E090E0892B29F00E94F40081110C9478
:1003200000000895833081F028F4813099F0823004
:10033000A1F008958730A9F08830B9F08430D1F465
:10034000809180008F7D03C0809180008F778093A3
:100350008000089584B58F7702C084B58F7D84BDF9
:1003600008958091B0008F7703C08091B0008F7D99
:100370008093B0000895CF93DF93282F30E0F901E8
:10038000E255FF4F8491F901E656FF4FD491F901F0
:10039000EA57FF4FC491CC2391F081110E94920142
:1003A000EC2FF0E0EE0FFF1FE458FF4FA591B49142
:1003B000EC91ED2381E090E021F480E002C080E048
:1003C00090E0DF91CF910895FC0180810E94BB01F4
:1003D0000895FC0181810E94BB0108951F93CF9372
:1003E000DF93282F30E0F901E255FF4F8491F901A6
:1003F000E656FF4FD491F901EA57FF4FC491CC2341
:10040000C9F0162F81110E949201EC2FF0E0EE0F3F
:10041000FF1FEE58FF4FA591B4918FB7F8941111BB
:1004200005C09C91ED2FE095E92302C0EC91ED2BE6
:10043000EC938FBFDF91CF911F910895CF93DF93FE
:1004400090E0FC01E656FF4F2491FC01EA57FF4F74
:100450008491882361F190E0880F991FFC01E8598D
:10046000FF4FC591D491FC01EE58FF4FA591B49177
:10047000611109C09FB7F8948881209582238883F1
:10048000EC912E230BC0623061F49FB7F894388151
:10049000822F809583238883EC912E2B2C939FBFF2
:1004A00006C08FB7F894E8812E2B28838FBFDF9189
:1004B000CF910895CF93DF93FC01C081DFB7F8940B
:1004C00061E08C2F0E941E0260E08C2F0E94EE01E2
:1004D000DFBFDF91CF910895FC01628180810C9490
:1004E0001E02CF93DF93FC01C181DFB7F89461E076
:1004F0008C2F0E941E0260E08C2F0E94EE01DFBF55
:10050000DF91CF910895FC01628181810C941E02DC
:100510008330910528F0880F991F04970197F1F710
:100520000895009769F0FC0101900020E9F73197E8
:10053000AF01481B590BBC0187E192E00C948C0081
:1005400080E090E008950E94110BCF93DF93C0EC00
:10055000D2E0EA85FB85CE0109958B8190E00E946F
:100560008802EE81FF81CE0109958B8190E00E9487
:100570008802EC85FD85CE0109958B8190E00E9473
:100580008802E885F985CE0109958B8190E0DF919D
:10059000CF910C9488020C9491028F929F92AF920B
:1005A000BF920F931F93CF93DF93CDB7DEB7A19781
:1005B0000FB6F894DEBF0FBECDBF19A2423008F4CB
:1005C0004AE08E010F5D1F4F842E912CA12CB12C7F
:1005D000A50194010E94E90AE62FB901CA01015060
:1005E0001109EA3014F4E05D01C0E95CD801EC9334
:1005F000232B242B252B61F7C8010E949102A19681
:100600000FB6F894DEBF0FBECDBFDF91CF911F9123
:100610000F91BF90AF909F908F900895CF93DF93ED
:100620000E949102EC0184E291E00E9491028C0F01
:100630009D1FDF91CF910895CF92DF92EF92FF92AD
:10064000CF93DF936C01990FEE08FF08F7FE1FC0F0
:10065000E0911702F09118020190F081E02D6DE217
:1006600087E192E00995EC0166277727CB016C19A9
:100670007D098E099F094AE00E94CD028C0F9D1FC3
:10068000DF91CF91FF90EF90DF90CF9008954AE0F7
:10069000C701B601DF91CF91FF90EF90DF90CF902F
:1006A0000C94CD021F920F920FB60F9211242F932C
:1006B0003F934F935F936F937F938F939F93AF93EA
:1006C000BF93EF93FF9387E192E00E94FE00FF91BA
:1006D000EF91BF91AF919F918F917F916F915F91BA
:1006E0004F913F912F910F900FBE0F901F90189533
:1006F0001F920F920FB60F9211242F938F939F93F7
:10070000EF93FF93E0912702F09128028081E0911E
:100710002D02F0912E0282FD12C090818091300254
:100720008F5F8F7320913102821751F0E091300278
:10073000F0E0E95EFD4F958F8093300201C080812B
:10074000FF91EF919F918F912F910F900FBE0F907E
:100750001F9018953FB7F8948091D7029091D802D6
:10076000A091D902B091DA0226B5A89B05C02F3F0F
:1007700019F00196A11DB11D3FBFBA2FA92F982FC7
:100780008827820F911DA11DB11DBC01CD0143E041
:10079000660F771F881F991F4A95D1F708958F928A
:1007A0009F92AF92BF92CF92DF92EF92FF926B0136
:1007B0007C010E94AA034B015C01C114D104E10435
:1007C000F104F1F00E94AA03DC01CB018819990918
:1007D000AA09BB09883E9340A105B10570F321E049
:1007E000C21AD108E108F10888EE880E83E0981E4D
:1007F000A11CB11CC114D104E104F10419F7DDCF2F
:10080000FF90EF90DF90CF90BF90AF909F908F9030
:1008100008952FB7F8946091D3027091D40280911B
:10082000D5029091D6022FBF0895CF92DF92EF921A
:10083000FF920F931F93CF93DF93CDB7DEB72A9725
:100840000FB6F894DEBF0FBECDBF082F8091C40253
:100850009091C502A0E0B0E089839A83AB83BC830A
:1008600081E090E09A8789870E940904C980DA8034
:10087000EB80FC80DC01CB018C0D9D1DAE1DBF1DEE
:100880008D839E83AF83B88718E0E091CA02F09110
:10089000CB0280EC92E0099507FF05C0E091C80209
:1008A000F091C90204C0E091C602F091C70280EC49
:1008B00092E009958091C30290E00E948802E09145
:1008C000CC02F091CD0280EC92E009958091C302B8
:1008D00090E00E948802000FCE0101960E946A08F3
:1008E000882329F00E94A50282E090E039C01150CF
:1008F00061F6E091CA02F091CB0280EC92E009959A
:10090000E091C802F091C90280EC92E009958091D3
:10091000C30290E00E948802E091CC02F091CD02E7
:1009200080EC92E00995E091D002F091D10280EC48
:1009300092E00995811107C0CE0101960E946A08D4
:10094000882389F3CFCFE091CE02F091CF0280ECE3
:1009500092E0099521E090E0811101C020E0822F12
:100960002A960FB6F894DEBF0FBECDBFDF91CF91B0
:100970001F910F91FF90EF90DF90CF900895CF924D
:10098000DF92EF92FF921F93CF93DF93CDB7DEB745
:100990002A970FB6F894DEBF0FBECDBF182F409137
:1009A000C4025091C50260E070E049835A836B83B2
:1009B0007C8381E090E09A8789870E940904C9803E
:1009C000DA80EB80FC80DC01CB018C0D9D1DAE1D1F
:1009D000BF1D8D839E83AF83B887CE0101960E9491
:1009E0006A08811117C0E091C602F091C70280EC3D
:1009F00092E009958091C30290E00E948802812FC5
:100A00000E941504009749F0019711F40E94A50275
:100A10000E94A50282E090E002C080E090E02A9669
:100A20000FB6F894DEBF0FBECDBFDF91CF911F91FF
:100A3000FF90EF90DF90CF9008958F929F92AF92AA
:100A4000BF92EF92FF920F931F93CF93DF93CDB797
:100A5000DEB72A970FB6F894DEBF0FBECDBF8C016C
:100A6000E62EFC0110828091C4029091C502A0E0A4
:100A7000B0E089839A83AB83BC8381E090E09A875E
:100A800089870E94090489809A80AB80BC80DC0140
:100A9000CB01880D991DAA1DBB1D8D839E83AF833D
:100AA000B88788E0F82EF8018081880F8083E09174
:100AB000CA02F091CB0280EC92E00995E091C80265
:100AC000F091C90280EC92E009958091C30290E018
:100AD0000E948802E091CC02F091CD0280EC92E07D
:100AE00009958091C30290E00E948802E091D002B3
:100AF000F091D10280EC92E0099581110BC0CE01FA
:100B000001960E946A08882389F30E94A50282E068
:100B100090E04DC0E091CE02F091CF0280EC92E0E7
:100B20000995882321F0F801808181608083FA94FF
:100B3000F110B9CFE091CA02F091CB0280EC92E0C3
:100B40000995EE2029F0E091C602F091C70204C099
:100B5000E091C802F091C90280EC92E00995809181
:100B6000C30290E00E948802E091CC02F091CD0295
:100B700080EC92E009958091C30290E00E94880287
:100B8000E091D002F091D10280EC92E009958111C0
:100B900007C0CE0101960E946A08882389F3B5CF69
:100BA0008091C30290E00E94880280E090E02A9643
:100BB0000FB6F894DEBF0FBECDBFDF91CF911F916E
:100BC0000F91FF90EF90BF90AF909F908F900895FE
:100BD0001F920F920FB60F9211242F933F938F9372
:100BE0009F93AF93BF938091D3029091D402A09131
:100BF000D502B091D6023091D20226E0230F2D37D4
:100C000020F40296A11DB11D05C029E8230F03960B
:100C1000A11DB11D2093D2028093D3029093D402E0
:100C2000A093D502B093D6028091D7029091D802BA
:100C3000A091D902B091DA020196A11DB11D809355
:100C4000D7029093D802A093D902B093DA02BF9151
:100C5000AF919F918F913F912F910F900FBE0F9069
:100C60001F90189585ED8093BC008091BC0084FD99
:100C7000FCCF10920A02089540913303262F30E0F2
:100C8000240F311D21323105DCF420910A02243079
:100C9000C9F4FC0180E090E0861758F430913303EA
:100CA0002191DC01AD5EBC4FA30FB11D2C930196C9
:100CB000F3CF80913303680F6093330380E008958E
:100CC00081E0089582E00895E0911302F09114020A
:100CD000309729F010920C0210920B02099408959B
:100CE000CF93DF93AC01E0911502F091160230979B
:100CF000F1F090910E0280910D029817C0F090E0F3
:100D0000292F30E02617370754F4D901AD50BD4FD5
:100D1000EA01C20FD31F88818C939F5FF1CF10929D
:100D20000E0260930D02CB01DF91CF910994DF9108
:100D3000CF9108950895E0910E0280910D02E81779
:100D400030F4F0E0ED50FD4F808190E008958FEF9A
:100D50009FEF089590910E0280910D02981750F424
:100D6000E92FF0E0ED50FD4F208130E09F5F909340
:100D70000E0202C02FEF3FEFC901089580910D02CE
:100D800090E020910E02821B91090895CF93DF938A
:100D900000D0CDB7DEB7CB01642F49835A830E94C0
:100DA0003C064981842F5A81952F0F900F90DF9137
:100DB000CF910895CF93DF931F92CDB7DEB76983AC
:100DC00061E0CE0101960E943C0681E090E00F9028
:100DD000DF91CF910895089580E090E00895CF933A
:100DE000DF932091ED023091EE028091EB02909121
:100DF000EC02232B89F0892B19F5CBEDD2E0688129
:100E000084EB92E00E94DA06199282E0CF3DD80787
:100E1000B1F789E391E010C0892B91F0C3EED2E0E5
:100E2000688184EB92E00E94DA06199282E0C73E64
:100E3000D807B1F789E591E0DF91CF910C94CB020F
:100E40008DE791E0DF91CF910C940E03EF92FF922A
:100E50000F931F93CF93DF938FEF8093EF028093D5
:100E6000F0028093F1028093F2020FEE12E0C0E0F4
:100E7000D0E080910D0290E020910E02821B91093A
:100E80001816190664F4C430D10549F084EB92E0D9
:100E90000E94AA06F80181938F012196EACF8091E2
:100EA000EF028B3209F07BC081E090E09093EE027C
:100EB0008093ED021092EC021092EB028091F0020E
:100EC0008F3F09F400C121971092DF021092E002D7
:100ED0001092E1021092E2021092DB021092DC0208
:100EE0001092DD021092DE0283EA91E00E94CB02B2
:100EF000CE010E941C038DEA91E00E940E0385EC56
:100F000091E00E94CB0280EFE82E82E0F82E0FEDF8
:100F100012E0C8018F5D92408C179D076CF4F701B9
:100F200061917F01F80161938F0170E080E090E0B2
:100F30004AE00E94CD02EDCF85E291E00E94CB0213
:100F400086E50E94BF040FED12E0C8018F5D92405C
:100F50008C179D0734F4F80181918F010E941504CC
:100F6000F4CF0E94A50268EC70E080E090E00E945F
:100F7000CF0387E50E94BF0461E08BED92E00E9401
:100F80001D0561E08CED92E00E941D0561E08DED94
:100F900092E00E941D0560E08EED92E080C08A32F2
:100FA00009F087C01092EE021092ED0281E090E00D
:100FB0009093EC028093EB028091F0028F3F09F452
:100FC00082C021971092E7021092E8021092E90283
:100FD0001092EA021092E3021092E4021092E502EB
:100FE0001092E6021C161D0684F48093E702C130BD
:100FF000D10559F08091F1028093E802C330D10508
:1010000021F48091F2028093E90283EA91E00E9448
:10101000CB02CE010E941C038DEA91E00E940E03D8
:1010200085EC91E00E94CB0284E50E94BF0407EEAC
:1010300012E0C801875E92408C179D077CF478010E
:10104000F80181918F010E941504F701608170E021
:1010500080E090E04AE00E94CD02EBCF85E291E093
:101060000E94CB020E94A50268EC70E080E090E054
:101070000E94CF0385E50E94BF0461E083EE92E009
:101080000E941D0561E084EE92E00E941D0561E072
:1010900085EE92E00E941D0560E086EE92E00E94DF
:1010A0001D05DF91CF911F910F91FF90EF900C9450
:1010B000A50281EE91E0DF91CF911F910F91FF90FA
:1010C000EF900C940E03DF91CF911F910F91FF9041
:1010D000EF9008950F931F93CF93DF93EC018885D2
:1010E0009985892B19F40E94AA0302C00E94090461
:1010F0000C811D812E813F81DC01CB01801B910B76
:10110000A20BB30B80959095A095B0958827B7FD5D
:1011100083959927AA27BB27DF91CF911F910F9124
:1011200008951F920F920FB60F9211242F933F93A1
:101130004F935F936F937F938F939F93AF93BF93DF
:10114000EF93FF938091B900887F803609F49CC0AB
:1011500068F5883209F45BC090F4803109F454C01A
:1011600038F4882309F4F6C0883009F44DC0F6C07D
:10117000883109F44CC0803209F45DC0EFC080347E
:1011800009F468C048F4803309F455C0883309F085
:10119000E5C080935603D8C0803509F44FC0883528
:1011A00009F45DC0883409F0D9C0D6C0883909F483
:1011B000C7C0A8F4883709F467C038F4883609F442
:1011C00063C0803709F460C0C9C0883809F4B8C06A
:1011D000803909F45FC0803809F0C0C05BC0803B33
:1011E00009F486C038F4803A09F466C0883A09F4F4
:1011F0007FC0B4C0803C09F4A7C0883C09F4A4C0F7
:10120000883B09F48AC0AAC08091790310C09091EC
:10121000780380917703981770F5E091780381E067
:101220008E0F80937803F0E0E95AFC4F8081809321
:10123000BB0085EC86C0809356038EC0E091780396
:1012400081E08E0F809378038091BB00F0E0E95A33
:10125000FC4F808390917803809177036EC0E0917A
:10126000780381E08E0F809378038091BB00F0E0DB
:10127000E95AFC4F80838091090281116DC081E0A1
:101280008093080284EA61C083E080930A0210928E
:101290005503CFCF80915503803208F051C0E091C3
:1012A000550381E08E0F809355038091BB00F0E0E1
:1012B000EB5CFC4F8083BDCF85EC8093BC0010922B
:1012C0000A0280915503803230F4E0915503F0E03A
:1012D000EB5CFC4F10826091550370E0E0910F02CF
:1012E000F091100285E393E009951092550336C002
:1012F00084E080930A021092340310923303E09149
:101300001102F0911202099580913303811105C0F9
:1013100081E08093330310921303E091340381E062
:101320008E0F80933403F0E0ED5EFC4F808180935C
:10133000BB009091340380913303981708F479CF60
:1013400085E88093BC000AC085EC8093BC001092B5
:101350000A0204C0109256030E943206FF91EF91D8
:10136000BF91AF919F918F917F916F915F914F91BD
:101370003F912F910F900FBE0F901F901895E7E1AE
:10138000F2E01382128288EE93E0A0E0B0E0848362
:101390009583A683B78324E031E03183208325EC55
:1013A00030E03587248724EC30E03787268720EC2F
:1013B00030E0318B208B21EC30E0338B228B22EC20
:1013C00030E0358B248B26EC30E0378B268B118E6A
:1013D000128E138E148EE4EBF2E013821282848359
:1013E0009583A683B78386E191E091838083E0ECC7
:1013F000F2E085E0808386E0818312828AE0838345
:1014000084E690E0958384838AE592E097838683DF
:101410008CE692E09187808781E792E093878287CC
:1014200083E892E09587848784EE91E097878687AA
:1014300089EE91E0918B808B0895789484B58260D9
:1014400084BD84B5816084BD85B5826085BD85B568
:10145000816085BD80916E00816080936E001092E6
:101460008100809181008260809381008091810061
:1014700081608093810080918000816080938000F2
:101480008091B10084608093B1008091B000816050
:101490008093B00080917A00846080937A0080917C
:1014A0007A00826080937A0080917A008E7F8093A8
:1014B0007A0080917A00806880937A001092C1004F
:1014C000E0912702F091280282E08083E0912302DC
:1014D000F09124021082E0912502F091260287E625
:1014E000808310922F02E0912B02F0912C0286E073
:1014F0008083E0912902F0912A02808180618083BB
:10150000E0912902F0912A02808188608083E09135
:101510002902F0912A02808180688083E09129026B
:10152000F0912A0280818F7D808380E48093BA00CD
:1015300084E696E0909312028093110280E796E091
:101540009093100280930F0210920E0210920D02DF
:1015500010920C0210920B0210920A0281E080930A
:1015600009021092080261E082E10E94EE0161E04E
:1015700083E10E94EE018091B9008E7F8093B900D3
:101580008091B9008D7F8093B90080E28093B8008C
:1015900085E48093BC0085E08093C3020E94A5028D
:1015A0008FEE96E0909314028093130286E297E008
:1015B000909316028093150287E291E00E940E0339
:1015C00064E670E080E090E00E94CF030E94880112
:1015D000F7CFA1E21A2EAA1BBB1BFD010DC0AA1F4B
:1015E000BB1FEE1FFF1FA217B307E407F50720F08C
:1015F000A21BB30BE40BF50B661F771F881F991F07
:101600001A9469F760957095809590959B01AC014F
:10161000BD01CF010895EE0FFF1F0590F491E02D5D
:10162000099481E090E0F8940C94160BF894FFCFA5
:10163000000000001F018C00B7006601E800C60032
:10164000DA0000000000DA06C606EC069A06BE06BE
:10165000AA069B060D0A007374617274696E672096
:10166000455053207465737400526573706F6E64D7
:10167000696E6720746F2042424220776974682047
:10168000455053206461746100526573706F6E64DD
:10169000696E6720746F2042424220776974682027
:1016A000424154544552592064617461002A2A2AE7
:1016B000756E6B6E6F776E20493243206465766974
:1016C0006365205245414420726571756573742AC3
:1016D0002A2A005265636965766564200020627974
:1016E000746573206F6620646174612066726F6D2B
:1016F000204242420052656C6179696E67206461E4
:10170000746120746F204550532F424154543A2045
:10171000002A2A2A756E6B6E6F776E20493243203D
:101720006465766963652057524954452072657136
:08173000756573742A2A2A0072
:00000001FF
