:1000000094C10000C2C10000C0C10000BEC1000018
:10001000BCC10000BAC10000B8C10000B6C10000F8
:10002000B4C10000B2C10000B0C10000AEC1000008
:10003000ACC10000AAC10000A8C10000A6C1000018
:10004000A4C10000A2C10000A0C100009EC1000028
:100050009CC100009AC1000098C10000DEC70000EA
:1000600094C10000A4C7000079C700008EC1000041
:100070008CC100008AC1000088C1000086C1000058
:1000800084C1000082C1000080C100007EC1000068
:100090007CC100007AC1000078C1000076C1000078
:1000A00074C1000072C1000070C100006EC1000088
:1000B0006CC100006AC1000068C1000066C1000098
:1000C00064C1000062C1000060C100005EC10000A8
:1000D0005CC100005AC1000058C1000056C10000B8
:1000E00054C10000F301F601E501E901ED012D0223
:1000F000FA01FE01040208020C02120216021A02A0
:100100002D02200224022802005EBCE2613FDD8352
:10011000C29C7E20A3FD1F419DC3217FFCA2401EE7
:100120005F01E3BD3E6082DC237D9FC1421CFEA0D7
:10013000E1BF5D0380DE3C62BEE0025CDF81633DC7
:100140007C22C09E1D43A1FF4618FAA427799BC5B7
:1001500084DA3866E5BB5907DB856739BAE40658A7
:100160001947A5FB7826C49A653BD987045AB8E697
:10017000A7F91B45C6987A24F8A6441A99C7257B87
:100180003A6486D85B05E7B98CD2306EEDB3510F77
:100190004E10F2AC2F7193CD114FADF3702ECC9267
:1001A000D38D6F31B2EC0E50AFF1134DCE90722C57
:1001B0006D33D18F0C52B0EE326C8ED0530DEFB147
:1001C000F0AE4C1291CF2D73CA947628ABF5174937
:1001D0000856B4EA6937D58B5709EBB536688AD427
:1001E00095CB2977F4AA4816E9B7550B88D6346A17
:1001F0002B7597C94A14F6A8742AC896154BA9F707
:10020000B6E80A54D7896B35000021002400270086
:100210002A002D0030003300010100000401070115
:100220000A0100002200250028002B002E003100CA
:10023000340002010000050108010B0100000A0B57
:1002400002090C0D0E080703040100000000000065
:10025000000000000000000000000000000000009E
:10026000000000000000000012111000000000005B
:10027000000000000000000000000000000000007E
:100280000000000020002300260029002C002F0081
:100290003200000100000301060109010505050502
:1002A000070508080808020202020A0A08080404EE
:1002B000040401010101010101010303030303031C
:1002C0000303040707070C0C0C0C0C0C0C0C0202AB
:1002D000020206060606060606060B0B0B0B0B0BA8
:1002E0000B0B010210202008081020401020408035
:1002F00002010201080402010102040810204080EA
:100300008040201008040201800402018040201077
:1003100008040201080402010102040810204080C0
:100320000102040810204080570811241FBECFEF9F
:10033000D1E2DEBFCDBF00E00CBF12E0A0E0B2E032
:10034000EAEBF8E100E00BBF02C007900D92A83E77
:10035000B107D9F723E0A8EEB2E001C01D92AF3A91
:10036000B207E1F711E0C5E9D1E000E006C021974E
:100370000109802FFE010E94890AC439D10780E05B
:100380000807A9F712D70C945B0C3ACE0895CF93C7
:10039000C82FE9E4F2E04491EFEEF2E02491E9EABB
:1003A000F2E09491992309F46BC0442309F455C0F9
:1003B00050E0FA013197E231F10508F04EC088278C
:1003C000EE58FF4F8F4F0C94890A809180008F77F1
:1003D00007C0809180008F7D03C080918000877F5F
:1003E000809380003AC084B58F7702C084B58F7D3A
:1003F00084BD33C08091B0008F7703C08091B0007E
:100400008F7D8093B00029C0809190008F7707C0C6
:10041000809190008F7D03C080919000877F8093B2
:1004200090001BC08091A0008F7707C08091A00032
:100430008F7D03C08091A000877F8093A0000DC0B6
:10044000309120013F7707C0309120013F7D03C0EC
:1004500030912001377F30932001E92FF0E0EE0F3B
:10046000FF1FEE5DFD4FA591B4918FB7F894EC910D
:10047000C11103C020952E2301C02E2B2C938FBFBA
:10048000CF910895CF92DF92EF92FF920F931F9337
:10049000CF93DF936C017A018B01C0E0D0E0CE15E1
:1004A000DF0589F0D8016D918D01D601ED91FC91A8
:1004B0000190F081E02DC6011995892B11F47E0180
:1004C00002C02196ECCFC701DF91CF911F910F9110
:1004D000FF90EF90DF90CF900895FC01918D828D79
:1004E000981761F0828DDF01A80FB11D5D968C9188
:1004F000928D9F5F9F73928F90E008958FEF9FEF93
:100500000895FC01918D828D981731F0828DE80F4E
:10051000F11D858D90E008958FEF9FEF0895FC0108
:10052000918D228D892F90E0805C9F4F821B9109D5
:100530008F739927089581EF92E0F1DF21E0892BF5
:1005400009F420E0822F0895FC01848DDF01A80FBB
:10055000B11DA35ABF4F2C91848D90E001968F73EB
:100560009927848FA689B7892C93A089B1898C910A
:1005700080648C93938D848D981306C00288F389D0
:10058000E02D80818F7D80830895EF92FF920F93FD
:100590001F93CF93DF93EC0181E0888F9B8D8C8D2F
:1005A000981305C0E889F989808185FD23C0F62E5E
:1005B0000B8D10E00F5F1F4F0F731127E02E8C8DF6
:1005C000E8120BC00FB607FCFACFE889F9898081E1
:1005D00085FFF5CFCE01B8DFF2CF8B8DFE01E80F9E
:1005E000F11DE35AFF4FF0820B8FEA89FB8980816E
:1005F000806207C0EE89FF896083E889F98980817C
:100600008064808381E090E0DF91CF911F910F9112
:10061000FF90EF900895CF93DF93EC01888D8823AE
:10062000C1F0EA89FB89808185FD05C0A889B98967
:100630008C9186FD0EC00FB607FCF5CF808185FF3B
:10064000F2CFA889B9898C9185FFEDCFCE017CDFEF
:10065000E8CFDF91CF91089580E090E0892B19F0E9
:100660006ADF811125C080E090E0892B41F080E0B5
:1006700090E0892B21F00E94000081111CC080E0D5
:1006800090E0892B41F080E090E0892B21F00E94DE
:100690000000811113C080E090E0892BA1F080E080
:1006A00090E0892B81F00E94000081110AC008951A
:1006B0000E940000D8CF0E940000E1CF0E940000FD
:1006C000EACF0C9400000895CF93DF9390E0FC01F3
:1006D000EE51FD4F2491FC01E456FD4F8491882397
:1006E00061F190E0880F991FFC01E85FFD4FC59113
:1006F000D491FC01EE5DFD4FA591B491611109C04B
:100700009FB7F8948881209582238883EC912E23CB
:100710000BC0623061F49FB7F8943881822F8095C6
:1007200083238883EC912E2B2C939FBF06C08FB719
:10073000F894E8812E2B28838FBFDF91CF91089505
:100740003FB7F8948091ED029091EE02A091EF02F4
:10075000B091F00226B5A89B05C02F3F19F0019675
:10076000A11DB11D3FBFBA2FA92F982F8827820F37
:10077000911DA11DB11DBC01CD0142E0660F771F87
:10078000881F991F4A95D1F708958F929F92AF9233
:10079000BF92CF92DF92EF92FF926B017C01D0DF8C
:1007A0004B015C01C114D104E104F104E9F0C8DF9C
:1007B000DC01CB0188199909AA09BB09883E93403D
:1007C000A105B10578F321E0C21AD108E108F108CA
:1007D00088EE880E83E0981EA11CB11CC114D104C0
:1007E000E104F10421F7DECFFF90EF90DF90CF908E
:1007F000BF90AF909F908F900895DC01E0E0615032
:1008000038F08D91E827F0E0E85FFE4FE491F7CFF4
:100810008E2F0895FC0190810180F281E02DF894E3
:100820008181892B81832281892F809528232283AE
:10083000A7E0B0E01197F1F7218182238183A3E241
:10084000B0E01197F1F780817894EFECF0E0319708
:10085000F1F7982381E009F480E00895FC0190818C
:100860000180F281E02D892F809560FF12C0F894FD
:100870002281822382838181892B8183A3E2B0E05C
:100880001197F1F78281982B9283789487ED90E00D
:1008900011C0F8942281822382838181892B8183F4
:1008A000AFEFB0E01197F1F78281982B92837894A3
:1008B0008FE090E00197F1F70895CF92DF92EF92E9
:1008C000FF920F931F93CF93DF931F92CDB7DEB7A5
:1008D0006C01E62E08E010E0FF24F39461E08F2D18
:1008E0008E2109F460E0C6014983B8DFFF0C015096
:1008F000110949810115110589F7411115C0F894B5
:10090000D6011196ED91FC91129791818C91809571
:10091000892381831196ED91FC91129792818C919C
:1009200080958923828378940F90DF91CF911F91D6
:100930000F91FF90EF90DF90CF900895CF92DF92CC
:10094000EF92FF920F931F93CF93DF931F92CDB738
:10095000DEB78C01F62E40E065E57983AEDFCF2C63
:100960007981D72E760188E0E80EF11CF6016191BD
:100970006F0140E0C801A1DFCE14DF04B9F70F908A
:10098000DF91CF911F910F91FF90EF90DF90CF906B
:100990000895FC0190810180F281E02DF89481811D
:1009A000292F20958223818378948DE743E050E0BE
:1009B000815021F1DA011197F1F730813923C1F328
:1009C000F8948281822382838181892B8183789428
:1009D000ABE7B7E01197F1F7F894818128232183E1
:1009E000A3E1B1E01197F1F78081982381E009F04C
:1009F00080E07894E3E6F6E03197F1F70895AF925E
:100A0000BF92CF92DF92EF92FF920F931F93CF93FB
:100A1000DF93EC018B018091930390919403B9DFF4
:100A2000882381F1BE01809193039091940386DF26
:100A300040E06EEB80919303909194033EDFE801D8
:100A4000680189E0C80ED11CA0909303B090940374
:100A500088E0E82EF12C01E010E0C501DBDE811119
:100A6000102B000F81E0E81AF108B9F71993CC15A3
:100A7000DD0551F780919303909194038ADF91E013
:100A8000813009F090E0892FDF91CF911F910F9174
:100A9000FF90EF90DF90CF90BF90AF900895CF93ED
:100AA000DF93CDB7DEB729970FB6F894DEBF0FBE40
:100AB000CDBFFC012081203109F1BE016F5F7F4F66
:100AC0009EDF882371F068E0CE01019696DE99855D
:100AD000891307C008C0803458F08F3569F08F370C
:100AE00069F080E00CC08D818F33A9F78AE007C0E0
:100AF0008F31B9F789E003C08BE001C08CE0299603
:100B00000FB6F894DEBF0FBECDBFDF91CF91089531
:100B1000AF92BF92CF92DF92EF92FF920F931F930B
:100B2000CF93DF931F92CDB7DEB75C01D62EE72EB1
:100B3000FC018585811104C0C5012BDF811106C030
:100B4000F50113861586148680E061C040E060EFF1
:100B5000C501B3DE01E0F12CC12C11E0C5015ADE64
:100B6000682FC501698356DE6981613019F48130CF
:100B7000B9F432C04F2D50E068131BC0F5018385D6
:100B8000181730F4E40FF51F8381802349F402C065
:100B9000181731F060E0193058F4F501148708C0D7
:100BA000F501EF0DF11D8381802B838361E009C086
:100BB000C12EF501E40FF51F9381802F80958923C5
:100BC0008383C5014BDE1F5F000F11F4F39401E036
:100BD000F7E0FF1508F0C2CF113408F4B1CFF501EA
:100BE000C386C11002C081E08587F5018381882317
:100BF00009F4A6CFD5011396ED2DFE2D9501255FA5
:100C00003F4F8D918193A217B307D9F781E00F90E1
:100C1000DF91CF911F910F91FF90EF90DF90CF90D8
:100C2000BF90AF9008950F931F93CF93DF93CDB7ED
:100C3000DEB761970FB6F894DEBF0FBECDBF082FA9
:100C4000E0919303F0919403138615861486DF01D7
:100C50001B9633961E92AE17BF07E1F710E0BE0158
:100C6000665F7F4F809193039091940351DF8823B7
:100C700061F0101307C067E0CE010A96BEDD9989C6
:100C8000891741F01F5F011750F760E070E08EEFA9
:100C900092EC4EC0BE016F5F7F4FCE010A96AFDE71
:100CA000882309F442C068E0CE010196A6DD99854B
:100CB00089133BC0698188E0689FB00111248A8153
:100CC000282F30E0322F2227330F330F330F262BFC
:100CD000372B8A85803139F5688570E08F81AB01CB
:100CE000481B5109CA019695982F88279795879593
:100CF000DBD360517109207F53E0220F331F5A95D7
:100D0000E1F7620F731F613854EE75070CF4BDCF25
:100D1000072E000C880B990BAFD420E030E040E0A8
:100D20005CE35ED505C0B901EECF60E874EEEBCFB1
:100D300061960FB6F894DEBF0FBECDBFDF91CF91A5
:100D40001F910F910895009761F0FC010190002020
:100D5000E9F73197AF01481B590BBC0181EF92E0D5
:100D600091CB80E090E008958F929F92AF92BF92D6
:100D70000F931F93CF93DF93CDB7DEB7A1970FB635
:100D8000F894DEBF0FBECDBF19A2423008F44AE08E
:100D90008E010F5D1F4F842E912CA12CB12CA5012B
:100DA000940195D3E62FB901CA0101501109EA3027
:100DB00014F4E05D01C0E95CD801EC93232B242BF3
:100DC000252B69F7C801BFDFA1960FB6F894DEBFE7
:100DD0000FBECDBFDF91CF911F910F91BF90AF900C
:100DE0009F908F9008954F925F926F927F928F9213
:100DF0009F92AF92BF92CF92DF92EF92FF926B01E0
:100E00007C019B01AC014FD5882319F086E192E06B
:100E100018C046015701E894B7F82FEF3FEF4FE7AE
:100E20005FE7C501B4013FD581110EC02FEF3FEF41
:100E30004FE75FE7C501B401EDD318162CF48AE142
:100E400092E081DF7C0177C02FEF3FEF4FE75FE457
:100E5000C701B601C1D418161CF48EE192E0F1CF9F
:100E60002FEF3FEF4FE75FECC701B601D3D387FD0C
:100E7000F4CF20E030E0A901C701B601CBD387FF52
:100E800011C0E091F102F091F2020190F081E02DA9
:100E90006DE281EF92E019955C01F7FAF094F7F8B2
:100EA000F09402C0A12CB12C2AE037ED43EA5BE3B9
:100EB000C701B6014BD32B013C01B0D36B017C01C0
:100EC000D9D39B01AC01C301B2013FD32B013C013B
:100ED0004AE0C701B60148DF7C01EA0CFB1C89E649
:100EE00092E031DFE80EF91E20E030E040E251E40C
:100EF000C301B20175D42B013C0190D34B01A12C4D
:100F0000B12C4AE0C501B4012FDFE80EF91EC5017E
:100F1000B401B0D39B01AC01C301B20116D320E0F0
:100F200030E040E251E45CD479D380E090E04AE0E4
:100F30001BDFE80EF91E82E292E005DF8E0D9F1D99
:100F4000FF90EF90DF90CF90BF90AF909F908F90E9
:100F50007F906F905F904F900895A9D41F920F9249
:100F60000FB60F9211240BB60F922F933F934F930E
:100F70005F936F937F938F939F93AF93BF93EF9301
:100F8000FF9381EF92E0E0DAFF91EF91BF91AF9193
:100F90009F918F917F916F915F914F913F912F9191
:100FA0000F900BBE0F900FBE0F901F9018951F92C1
:100FB0000F920FB60F9211240BB60F922F938F93AF
:100FC0009F93EF93FF93E0910103F09102038081DF
:100FD000E0910703F091080382FD12C09081809197
:100FE0000A038F5F8F7320910B03821751F0E091FA
:100FF0000A03F0E0EF50FD4F958F80930A0301C084
:101000008081FF91EF919F918F912F910F900BBE57
:101010000F900FBE0F901F9018951F920F920FB652
:101020000F9211242F933F938F939F93AF93BF936E
:101030008091E9029091EA02A091EB02B091EC025A
:101040003091E80223E0230F2D3720F40196A11DF3
:10105000B11D05C026E8230F0296A11DB11D2093E6
:10106000E8028093E9029093EA02A093EB02B09326
:10107000EC028091ED029091EE02A091EF02B0910E
:10108000F0020196A11DB11D8093ED029093EE0236
:10109000A093EF02B093F002BF91AF919F918F9117
:1010A0003F912F910F900FBE0F901F9018951092A7
:1010B000F4021092F30288EE93E0A0E0B0E0809397
:1010C000F5029093F602A093F702B093F8028AE03B
:1010D00092E09093F2028093F10285EC90E090937D
:1010E000FE028093FD0284EC90E0909300038093D5
:1010F000FF0280EC90E0909302038093010381EC67
:1011000090E0909304038093030382EC90E090932B
:1011100006038093050386EC90E090930803809388
:10112000070310920A0310920B0310920C03109203
:101130000D0360E088E1C8DAEAEFF2E0E491E093C1
:10114000A103E4EBF2E0E491F0E0EE0FFF1FEE57B5
:10115000FD4F859194919093A3038093A2031092E5
:10116000AC031092AE031092AD03ECEAF3E01292DE
:1011700083E0E43AF807D9F786EC91E09093A00376
:1011800080939F0381EA93E0909394038093930369
:101190001092920310928E0389E080938F0381E076
:1011A00080939003809391030895CF93DF93CDB7FD
:1011B000DEB761970FB6F894DEBF0FBECDBF78944F
:1011C00084B5826084BD84B5816084BD85B582604C
:1011D00085BD85B5816085BD80916E0081608093FD
:1011E0006E00109281008091810082608093810066
:1011F0008091810081608093810080918000816076
:10120000809380008091B10084608093B1008091D0
:10121000B00081608093B0008091910082608093E3
:101220009100809191008160809391008091900065
:101230008160809390008091A10082608093A100E2
:101240008091A10081608093A1008091A0008160C5
:101250008093A00080912101826080932101809180
:101260002101816080932101809120018160809320
:10127000200180917A00846080937A0080917A00C6
:10128000826080937A0080917A00816080937A00F6
:1012900080917A00806880937A001092C100E0917A
:1012A0000103F091020382E08083E091FD02F0915E
:1012B000FE021082E091FF02F091000380E1808342
:1012C00010920903E0910503F091060386E0808304
:1012D000E0910303F0910403808180618083E091B9
:1012E0000303F0910403808188608083E09103030D
:1012F000F0910403808180688083E0910303F09182
:10130000040380818F7D808361E08DE0DDD961E021
:101310008DE0DAD985E292E016DD82E292E013DD1B
:10132000E0919303F0919403138615861486DF01F0
:101330001B9633961E92AE17BF07E1F710929203E9
:1013400011E0BE01665F7F4F8091930390919403FB
:10135000DFDB882309F448C067E0CE010A964DDA46
:1013600099898913EECF80918E03811122C08091DB
:101370009303909194030DDBBE01665F7F4F8091D4
:10138000930390919403DADA40E064EB8091930345
:101390009091940392DA80919303909194033ADAB6
:1013A000082F8091930390919403F3DA002309F4BA
:1013B00078C0BE016F5F7F4FCE010A9620DB00919F
:1013C0008F03CE010A966BDB801718F480918F0390
:1013D00003C0CE010A9663DB80938F038091920352
:1013E0008F5F80939203ADCF60E08DE06DD981E097
:1013F0000E94C70180E592E0A6DC80919303909162
:101400009403C7DA40E06CEC8091930390919403CD
:1014100054DA40918E0364E4809193039091940395
:101420004CDA809190038823A1F0E0918F03E9507A
:10143000E33040F4F0E0EE0FFF1FE050FE4F60811C
:10144000718102C06EEE72E0072E000C880B990BC2
:101450009CD98BE692E077DC82E292E074DC80E754
:1014600092E071DC80E0DFDBBEDC8EE892E06BDCDA
:1014700081E0D9DBB8DC8CEA92E065DC82E0D3DB8A
:10148000B2DC8AEC92E05FDC83E0CDDBACDC80E0B8
:101490000E94C70168EE73E080E090E076D9DCD866
:1014A000A6CF10938E0385CF97FB072E16F40094DA
:1014B00006D077FD08D035D007FC05D03EF49095D6
:1014C00081959F4F0895709561957F4F0895A1E292
:1014D0001A2EAA1BBB1BFD010DC0AA1FBB1FEE1FAE
:1014E000FF1FA217B307E407F50720F0A21BB30BF9
:1014F000E40BF50B661F771F881F991F1A9469F775
:1015000060957095809590959B01AC01BD01CF01D0
:101510000895EE0FFF1F881F8BBF0790F691E02DF7
:101520001994AA1BBB1B51E107C0AA1FBB1FA6171A
:10153000B70710F0A61BB70B881F991F5A95A9F77C
:1015400080959095BC01CD0108955058BB27AA27DE
:101550000ED008C1F9D030F0FED020F031F49F3F1A
:1015600011F41EF4EEC00EF4E095E7FBE4C0E92FA1
:101570000AD180F3BA17620773078407950718F03A
:1015800071F49EF522C10EF4E0950B2EBA2FA02D1A
:101590000B01B90190010C01CA01A0011124FF2720
:1015A000591B99F0593F50F4503E68F11A16F0401B
:1015B000A22F232F342F4427585FF3CF469537951A
:1015C0002795A795F0405395C9F77EF41F16BA0BDF
:1015D000620B730B840BBAF09150A1F0FF0FBB1F8D
:1015E000661F771F881FC2F70EC0BA0F621F731FD6
:1015F000841F48F4879577956795B795F7959E3F33
:1016000008F0B3CF9395880F08F09927EE0F9795C0
:10161000879508956CD008F481E00895BCD088F0D7
:101620009F5790F0B92F9927B751A0F0D1F0660FCE
:10163000771F881F991F1AF0BA95C9F712C0B130E9
:1016400081F0C3D0B1E00895C0C0672F782F8827FC
:10165000B85F39F0B93FCCF3869577956795B39528
:10166000D9F73EF490958095709561957F4F8F4F97
:101670009F4F0895E89409C097FB3EF4909580959C
:10168000709561957F4F8F4F9F4F9923A9F0F92F48
:1016900096E9BB279395F695879577956795B795C6
:1016A000F111F8CFFAF4BB0F11F460FF1BC06F5FAC
:1016B0007F4F8F4F9F4F16C0882311F096E911C0BE
:1016C000772321F09EE8872F762F05C0662371F0DF
:1016D00096E8862F70E060E02AF09A95660F771FF3
:1016E000881FDAF7880F9695879597F90895990FCF
:1016F0000008550FAA0BE0E8FEEF16161706E807DC
:10170000F907C0F012161306E407F50798F0621BFC
:10171000730B840B950B39F40A2661F0232B242BD1
:10172000252B21F408950A2609F4A140A6958FEFF0
:10173000811D811D089597F99F6780E870E060E042
:1017400008959FEF80EC089500240A94161617065A
:1017500018060906089500240A94121613061406A2
:1017600005060895092E0394000C11F4882352F005
:10177000BB0F40F4BF2B11F460FF04C06F5F7F4FBD
:101780008F4F9F4F089557FD9058440F551F59F0A4
:101790005F3F71F04795880F97FB991F61F09F3F5E
:1017A00079F087950895121613061406551FF2CF87
:1017B0004695F1DF08C0161617061806991FF1CFD7
:1017C00086957105610508940895E894BB276627FE
:1017D0007727CB0197F908958ADF08F48FEF0895F2
:1017E0000BD0C0CFB1DF28F0B6DF18F0952309F099
:1017F000A2CFA7CF1124EACFC6DFA0F3959FD1F3E4
:10180000950F50E0551F629FF001729FBB27F00DAE
:10181000B11D639FAA27F00DB11DAA1F649F662703
:10182000B00DA11D661F829F2227B00DA11D621F52
:10183000739FB00DA11D621F839FA00D611D221F0C
:10184000749F3327A00D611D231F849F600D211DF0
:10185000822F762F6A2F11249F5750408AF0E1F093
:1018600088234AF0EE0FFF1FBB1F661F771F881FDC
:1018700091505040A9F79E3F510570F05CCFA6CF24
:101880005F3FECF3983EDCF3869577956795B795C7
:10189000F795E7959F5FC1F7FE2B880F911D9695F1
:1018A000879597F9089523DF880B990B089581E0B8
:0A18B00090E0F89400C0F894FFCF18
:1018BA005E00BC00770100000000C50242028F02F0
:1018CA006D0281020B036E616E00696E66006F76AF
:1018DA0066000D0A0044616C6C61732054656D707A
:1018EA006572617475726520494320436F6E747224
:1018FA006F6C204C6962726172792044656D6F0069
:10190A0052657175657374696E672074656D70656B
:10191A00726174757265732E2E2E00444F4E450007
:10192A0054656D706572617475726520666F722098
:10193A0044657669636520312069733A20005465ED
:10194A006D706572617475726520666F7220446588
:10195A007669636520322069733A200054656D7098
:10196A006572617475726520666F72204465766966
:10197A00636520332069733A200054656D7065727F
:10198A00617475726520666F722044657669636555
:08199A0020342069733A20009B
:00000001FF
