:10000000FAC10000E0C60000B3C6000086C60000CA
:1000100059C600002CC60000FFC50000D2C5000074
:10002000A5C5000019C2000017C2000015C20000DB
:1000300013C2000011C200000FC200000DC2000078
:100040000BC2000009C2000007C2000005C2000088
:1000500003C2000001C20000FFC100003DC5000056
:10006000FBC10000C8C300009DC30000F5C1000033
:10007000F3C10000F1C10000EFC10000EDC10000BC
:10008000EBC10000E9C10000E7C10000E5C10000CC
:10009000E3C10000E1C10000DFC10000DDC10000DC
:1000A000DBC10000D9C10000D7C10000D5C10000EC
:1000B000D3C10000D1C10000CFC10000CDC10000FC
:1000C000CBC10000C9C10000C7C10000C5C100000C
:1000D000C3C10000C1C10000BFC10000BDC100001C
:1000E000BBC1000060046304520456045A049A041D
:1000F00067046B047104750479047F048304870426
:100100009A048D049104950400000A0B02090C0D59
:100110000E080703040100000000000000000000BA
:1001200000000000000000000000000000000000CF
:10013000000000001211100000000000000000008C
:1001400000000000000000000000000000002B0381
:10015000F42041890036400A1D806010622C00089E
:100160002B03F42041890036400A1D806010622C68
:1001700033082B03F42041890036400A1D806010AB
:10018000622C22081B03416027520007400A1E8090
:100190006013A92C223A1D03A1204EA50013400A8A
:1001A0001E806027522C22481E03D0009D49004526
:1001B000400A2080604EA52C22482B03340275256E
:1001C00007FF400A1B80609D492C220F0203680133
:1001D0003A9304D5400A1E806009D50C221F0603FD
:1001E0004501D7DC076E400A2D80600EBF0C222E21
:1001F0008A036001555502AD400A50806020000C12
:1002000022C82B03A1E010C70009400A1D8060042A
:10021000322C22042703A1E010C70006400A1D80EB
:100220006004322C22072B03F42041890036400A57
:100230001D806010622C23081B03416027520007B9
:10024000400A1E806013A92C233A1D03A1204EA54D
:100250000013400A1E806027522C23481E03D00042
:100260009D490045400A2080604EA52C23482B0361
:100270003402752507FF400A1B80609D492C230F1F
:10028000020368013A9304D5400A1E806009D50C28
:10029000231F06034501D7DC076E400A2D80600E40
:1002A000BF0C232E8A036001555502AD400A5080D1
:1002B0006020000C23C8510368003A93013D2C11C3
:1002C00028806009D52C2108C803392068DC006B20
:1002D0002A082A806013A92C2108C8039C00D1B7E2
:1002E00000D4290429806027522C2108B8039C00DF
:1002F000D1B700D428822980604EA52C2108A803FC
:100300009C00D1B700D428412980609D492C210848
:1003100098039C00D1B700D4282029806009D50C0F
:10032000210898039600DA7400DC281F2980600AEF
:100330003D0C210800002200250028002B002E0083
:100340003100340002010000050108010B0100002A
:100350002100240027002A002D0030003300010175
:100360000000040107010A01050505050705080845
:100370000808020202020A0A08080404040401012F
:100380000101010101010303030303030303040744
:1003900007070C0C0C0C0C0C0C0C020202020606DB
:1003A0000606060606060B0B0B0B0B0B0B0B0102CE
:1003B0001020200808102040102040800201020177
:1003C000080402010102040810204080804020102F
:1003D0000804020180040201804020100804020188
:1003E00008040201010204081020408001020408F0
:1003F000102040801D1311241FBECFEFD1E2DEBFBD
:10040000CDBF00E00CBF13E0A0E0B2E0EAEFFDE2F8
:1004100000E00BBF02C007900D92A03EB107D9F7D4
:1004200027E0A0EEB3E001C01D92AE36B207E1F7BF
:1004300011E0CBEFD1E000E006C021970109802F49
:10044000FE010E94B913CA3FD10780E00807A9F74F
:100450000E943A0E0C94FB16D3CDFC01918D828D37
:10046000981761F0828DDF01A80FB11D5D968C9108
:10047000928D9F5F9F73928F90E008958FEF9FEF13
:100480000895FC01918D828D981731F0828DE80FCF
:10049000F11D858D90E008958FEF9FEF0895FC0189
:1004A000918D228D892F90E0805C9F4F821B910956
:1004B0008F73992708958DE295E0F1DF21E0892B74
:1004C00009F420E0822F0895FC01848DDF01A80F3C
:1004D000B11DA35ABF4F2C91848D90E001968F736C
:1004E0009927848FA689B7892C93A089B1898C918B
:1004F00080648C93938D848D981306C00288F38951
:10050000E02D80818F7D80830895EF92FF920F937D
:100510001F93CF93DF93EC0181E0888F9B8D8C8DAF
:10052000981305C0E889F989808185FD23C0F62EDE
:100530000B8D10E00F5F1F4F0F731127E02E8C8D76
:10054000E8120BC00FB607FCFACFE889F989808161
:1005500085FFF5CFCE01B8DFF2CF8B8DFE01E80F1E
:10056000F11DE35AFF4FF0820B8FEA89FB898081EE
:10057000806207C0EE89FF896083E889F9898081FC
:100580008064808381E090E0DF91CF911F910F9193
:10059000FF90EF900895CF93DF93EC01888D88232F
:1005A000C1F0EA89FB89808185FD05C0A889B989E8
:1005B0008C9186FD0EC00FB607FCF5CF808185FFBC
:1005C000F2CFA889B9898C9185FFEDCFCE017CDF70
:1005D000E8CFDF91CF91089580E090E0892B19F06A
:1005E0006ADF811125C080E090E0892B41F080E036
:1005F00090E0892B21F00E94000081111CC080E056
:1006000090E0892B41F080E090E0892B21F00E945E
:100610000000811113C080E090E0892BA1F080E000
:1006200090E0892B81F00E94000081110AC008959A
:100630000E940000D8CF0E940000E1CF0E9400007D
:10064000EACF0C94000008953FB7F8948091E70337
:100650009091E803A091E903B091EA0326B5A89B25
:1006600005C02F3F19F00196A11DB11D3FBFBA2F44
:10067000A92F982F8827820F911DA11DB11DBC01A4
:10068000CD0142E0660F771F881F991F4A95D1F769
:10069000089508950895413041F4FC01E95BFF4F4E
:1006A00081E0DB012C919081291380E00895089569
:1006B00008958CB5962F93708C7F892B8CBD9DB53A
:1006C00062FB882780F9692F6E7F682B6DBD0895C6
:1006D0008CB5837F682B6CBD08958CB5611102C009
:1006E000806201C08F7D8CBD08959FB7F894809182
:1006F000E103882319F081508093E1038091E103A5
:10070000811105C08CB58F7B8CBD1092E0039FBF1B
:1007100008958CB58F778CBD08958CB580688CBD9D
:1007200008956EBD00000DB407FEFDCF8EB508958F
:10073000CF93DF93462FFC01E05BFE4F20E030E0DB
:100740005081B9016F5F7F4F541323C0EC01C90181
:10075000880F991F820F931F805B9E4F49E050E0E6
:10076000421B530B9A01220F331F420F531F9B0151
:10077000220F331F620F731F605B7E4F6C0F7D1F54
:100780008C0F9D1F0E94EA15C359DE4F188281E02D
:1007900006C09B0133966A30710591F680E0DF91C7
:1007A000CF9108951F920F920FB60F9211240BB69E
:1007B0000F922F933F934F935F936F937F938F93FA
:1007C0009F93AF93BF93EF93FF938DE295E07CDE11
:1007D000FF91EF91BF91AF919F918F917F916F9119
:1007E0005F914F913F912F910F900BBE0F900FBED5
:1007F0000F901F9018951F920F920FB60F92112411
:100800000BB60F922F938F939F93EF93FF93E091EB
:100810003D05F0913E058081E0914305F09144054E
:1008200082FD12C09081809146058F5F8F73209169
:100830004705821751F0E0914605F0E0E35DFA4F7D
:10084000958F8093460501C08081FF91EF919F9124
:100850008F912F910F900BBE0F900FBE0F901F9096
:100860001895362F90E0FC01E85FFE4F4491FC01A3
:10087000E255FC4F2491FC01E859FC4F94919923D7
:1008800009F46BC0442309F455C050E0FA013197D4
:10089000E231F10508F04EC08827EE58FF4F8F4F28
:1008A0000C94B913809180008F7707C080918000ED
:1008B0008F7D03C080918000877F809380003AC045
:1008C00084B58F7702C084B58F7D84BD33C080919D
:1008D000B0008F7703C08091B0008F7D8093B0000F
:1008E00029C0809190008F7707C0809190008F7D04
:1008F00003C080919000877F809390001BC08091FF
:10090000A0008F7707C08091A0008F7D03C08091E9
:10091000A000877F8093A0000DC0809120018F7779
:1009200007C0809120018F7D03C080912001877FC7
:1009300080932001E92FF0E0EE0FFF1FEC5CFC4FED
:10094000A591B4918FB7F894EC91311103C0209523
:100950002E2301C02E2B2C938FBF0895CF92DF92B0
:10096000EF92FF920F931F93CF93DF931F921F92EB
:10097000CDB7DEB78C01D62EF42EEFB6F89460E03A
:10098000DC0116968C9129835A836BDFF8018281F2
:100990009381DC01ED91FC916D2D6F770190F081D9
:1009A000E02D1995CF2C5A81D52E2981F20EFC14F9
:1009B00079F0F80182819381DC01ED91FC91019045
:1009C000F081E02D60E01995F60181936F01EFCF82
:1009D00061E0D80116968C9144DFEFBE0F900F9026
:1009E000DF91CF911F910F91FF90EF90DF90CF900B
:1009F0000895CF93CFB7F8948091E103811120C07F
:100A0000EDE9F3E08491E3EEF3E09491E82FF0E078
:100A1000EE0FFF1FE25BFC4FA591B491EC91E9232F
:100A200019F461E085E31DDF85E3E2D68CB58061D2
:100A30008CBD8CB580648CBD84E3DAD683E3D8D6D4
:100A40008091E1038F5F8093E103CFBFCF91089541
:100A50008F929F92AF92BF92CF92DF92EF92FF92CE
:100A60006B017C01F1DD4B015C01C114D104E10497
:100A7000F104E9F0E9DDDC01CB0188199909AA0943
:100A8000BB09883E9340A105B10578F321E0C21A65
:100A9000D108E108F10888EE880E83E0981EA11CB9
:100AA000B11CC114D104E104F10421F7DECFFF90A1
:100AB000EF90DF90CF90BF90AF909F908F90089570
:100AC0002FB7F8946091E3037091E4038091E503FC
:100AD0009091E6032FBF08951F920F920FB60F92C9
:100AE00011242F933F938F939F93AF93BF93809144
:100AF000E3039091E403A091E503B091E603309104
:100B0000E20323E0230F2D3720F40196A11DB11D30
:100B100005C026E8230F0296A11DB11D2093E20314
:100B20008093E3039093E403A093E503B093E6037B
:100B30008091E7039091E803A091E903B091EA0363
:100B40000196A11DB11D8093E7039093E803A09344
:100B5000E903B093EA03BF91AF919F918F913F91C9
:100B60002F910F900FBE0F901F9018951F920F920C
:100B70000FB60F9211240BB60F922F933F934F9302
:100B80005F936F937F938F939F93AF93BF93EF93F5
:100B9000FF93E0910E02F0910F021995FF91EF91F2
:100BA000BF91AF919F918F917F916F915F914F9185
:100BB0003F912F910F900BBE0F900FBE0F901F9083
:100BC00018951F920F920FB60F9211240BB60F9229
:100BD0002F933F934F935F936F937F938F939F9345
:100BE000AF93BF93EF93FF93E0910C02F0910D024E
:100BF0001995FF91EF91BF91AF919F918F917F9147
:100C00006F915F914F913F912F910F900BBE0F907D
:100C10000FBE0F901F9018951F920F920FB60F9254
:100C200011240BB60F922F933F934F935F936F93C3
:100C30007F938F939F93AF93BF93EF93FF93E09135
:100C40000202F09103021995FF91EF91BF91AF91CC
:100C50009F918F917F916F915F914F913F912F91D4
:100C60000F900BBE0F900FBE0F901F9018951F9204
:100C70000F920FB60F9211240BB60F922F933F9342
:100C80004F935F936F937F938F939F93AF93BF9394
:100C9000EF93FF93E0910002F09101021995FF910B
:100CA000EF91BF91AF919F918F917F916F915F91E4
:100CB0004F913F912F910F900BBE0F900FBE0F9051
:100CC0001F9018951F920F920FB60F9211240BB61A
:100CD0000F922F933F934F935F936F937F938F93D5
:100CE0009F93AF93BF93EF93FF93E0910A02F0912C
:100CF0000B021995FF91EF91BF91AF919F918F9149
:100D00007F916F915F914F913F912F910F900BBE0B
:100D10000F900FBE0F901F9018951F920F920FB655
:100D20000F9211240BB60F922F933F934F935F9323
:100D30006F937F938F939F93AF93BF93EF93FF93A3
:100D4000E0910802F09109021995FF91EF91BF918E
:100D5000AF919F918F917F916F915F914F913F9153
:100D60002F910F900BBE0F900FBE0F901F901895F4
:100D70001F920F920FB60F9211240BB60F922F9362
:100D80003F934F935F936F937F938F939F93AF9313
:100D9000BF93EF93FF93E0910602F091070219953C
:100DA000FF91EF91BF91AF919F918F917F916F9143
:100DB0005F914F913F912F910F900BBE0F900FBEFF
:100DC0000F901F9018951F920F920FB60F9211243B
:100DD0000BB60F922F933F934F935F936F937F9335
:100DE0008F939F93AF93BF93EF93FF93E091040290
:100DF000F09105021995FF91EF91BF91AF919F91ED
:100E00008F917F916F915F914F913F912F910F90B3
:100E10000BBE0F900FBE0F901F9018952FB7F89430
:100E2000FC01138616AE2FBF0895CF92DF92EF928A
:100E3000FF920F931F93CF93DF931F921F92CDB713
:100E4000DEB78C01D62EF42EEFB6F89460E0DC010C
:100E500016968C9129835A8304DDF801828193814F
:100E6000DC01ED91FC916D2D60680190F081E02D29
:100E70001995CF2C5A81D52E2981F20EFC1471F0D0
:100E8000F80182819381D6016D916D01DC01ED91B4
:100E9000FC910190F081E02D1995F0CF61E0F8010F
:100EA0008681DFDCEFBE0F900F90DF91CF911F9115
:100EB0000F91FF90EF90DF90CF9008951F93CF9305
:100EC000DF93EC011B858FAD181B1C3308F01BE36F
:100ED0004FAD50E0445F5F4F4C0F5D1F212F6FE718
:100EE000CE01A3DF8FAD180F1FAFDF91CF911F9100
:100EF0000895EF92FF920F931F93CF93DF931F926A
:100F0000CDB7DEB77C01162F0FB7F89460E0DC0197
:100F100016968C914983A5DCF70182819381DC01CF
:100F2000ED91FC91612F60680190F081E02D1995A1
:100F3000F70182819381DC01ED91FC910190F081B8
:100F4000E02D4981642F199561E0F701868189DCE4
:100F50000FBF0F90DF91CF911F910F91FF90EF90F6
:100F60000895CF93DF93EC014D81446067E0C1DFCA
:100F700081E08C83DF91CF910895CF93DF93EC01D3
:100F800042E068E0B6DF40E068E0CE01DF91CF915B
:100F9000B0CFCF93DF93EC019FAD8B85981710F402
:100FA000CE018CDF4B856EE3CE01A3DF8C818230D6
:100FB00059F04D81486067E0CE019BDF82E08C8371
:100FC000CE01DF91CF91D9CFDF91CF910895FF92DC
:100FD0000F931F93CF93DF93EC018C818230E9F361
:100FE0000FB7F8948FB7F8941B861FAE8FBF4423BA
:100FF000D9F08B85242F30E0F901E80FF11DF3972C
:1010000098F4142FFFB6F8948B8590E00C96A90104
:101010008C0F9D1F0E94EA154B85410F4B87FFBE29
:10102000CE01B7DF81E001C080E00FBFDF91CF913B
:101030001F910F91FF900895FF920F931F93CF93ED
:10104000DF931F92CDB7DEB78C01F42E462F6CE3F1
:1010500050DF40E86DE3C8014CDF81E289834F2D0A
:101060006AE3C80146DF41E0BE016F5F7F4FC80100
:10107000AEDFF80184818230E1F30F90DF91CF91F0
:101080001F910F91FF9008950F931F93CF93DF93BC
:101090008C01EB0148816CE12CDF49816FE1C801D3
:1010A00028DFAE014E5F5F4F26E060E2C801BDDE83
:1010B000AE01485F5F4F23E06CE2C801B6DE4B85AE
:1010C00068E5C80116DF4C8569E6C80112DFAE018C
:1010D000435F5F4F25E06EE6C801DF91CF911F911E
:1010E0000F91A3CE0F931F93CF93DF93EC01162F95
:1010F0000FB7F89460E08E81B4DB8A819B81DC01BC
:10110000ED91FC91612F6F770190F081E02D1995A1
:101110008A819B81DC01ED91FC910190F081E02DB1
:1011200060E01995182F61E08E819BDB0FBF812F46
:10113000DF91CF911F910F91089568E4D3CF2F9243
:101140003F924F925F926F927F928F929F92AF9257
:10115000BF92CF92DF92EF92FF920F931F93CF93A4
:10116000DF93CDB7DEB72F970FB6F894DEBF0FBE73
:10117000CDBFDB015C915F3F41F1FC01EE5AFE4FB8
:1011800020E030E0DF011297AC91A51317C0A081D9
:10119000AA23A1F0F901EE0FFF1F2E0F3F1FF90147
:1011A000E05BFE4FE80FF91FEF2B09F4DBC0280FBF
:1011B000391FF901EF5AFE4F008108C02F5F3F4FE2
:1011C00033962A303105F1F6CDC00FEFE42E7C873F
:1011D0006B879F878E87FC01E65BFF4F10811F5F47
:1011E000108320E0835B9F4F9E838D832E843F84FA
:1011F000B8E42B0E311CEE85FF85E55BFF4FF887C9
:10120000EF83812C912C540193948E859F85895B6B
:101210009F4F9A878987FF24F394F20EAD81BE8198
:101220009C91921708F49CC0412F6CE38E859F859A
:1012300060DE40E06DE38E859F855BDE402F6AE3D4
:101240008E859F8556DE4E2D6B857C858E859F8590
:10125000BEDEAE85BF8514968C918230D1F30F3FF0
:1012600009F482C0B1E0BF1530F4F10180819181B1
:1012700001969183808324DC2B013C01AF81B885EA
:10128000CD90DC900E944C16A50194010E949E1600
:101290009B01AC01D6010E94BA16A50194010E94DF
:1012A0009E162C0D3D1DC901A0E0B0E089839A83F4
:1012B000AB83BC8305DC2F2DAB01BC014419550960
:1012C0006609770989819A81AB81BC8148175907E2
:1012D0006A077B0708F09FCFAE85BF85DE968C91AD
:1012E000DE97811107C014968C911497813011F00C
:1012F000CD0137DEEE85FF8586AD8823D9F2CF019B
:101300008DDD8E859F8519DF482F67E48E859F854B
:101310004D87E8DEC82E69E48E859F85E3DED82EF2
:101320006AE48E859F85DEDE4D85401309C0A98560
:10133000BA859C91C91204C087FF02C0D116A1F0E2
:1013400087FDB8CFEE85FF85E40FF11DE25BFF4F0F
:101350008081D812AFCF6D2D8E859F856DDEAACF8F
:1013600085E003C082E001C080E02F960FB6F894BC
:10137000DEBF0FBECDBFDF91CF911F910F91FF90C8
:10138000EF90DF90CF90BF90AF909F908F907F9025
:101390006F905F904F903F902F900895AF92BF92C3
:1013A000DF92EF92FF920F931F93CF93DF931F92E1
:1013B000CDB7DEB75C018B014983BFDED82E4981F2
:1013C000B801C501BCDE282F823011F0853059F5F7
:1013D000F8016081C5012983ABD9F80161817501EC
:1013E000F7E4EF0EF11CF701808129816817D9F02D
:1013F00083E080930005F8018081809301054D2DE5
:10140000C501C8D2F7012081F801418162E0C50120
:101410000F90DF91CF911F910F91FF90EF90DF9090
:10142000BF90AF9080C2822F0F90DF91CF911F911C
:101430000F91FF90EF90DF90BF90AF900895EF92E3
:10144000FF920F931F93CF93DF93423008F43AC07B
:10145000FB012581223059F5F42E8B01EC016DDE64
:10146000482FF8016781CE0195D2F8EFFF0EF80101
:10147000389690E0DE01A95BBF4F81E0890F9F1590
:1014800030F421919C91291711F0982FF6CFEE247A
:10149000E394E80E8F15B0F4CE014FDEF801EE0DA7
:1014A000F11D482F6085CE0175D28E2DF0CF2330EF
:1014B00049F4FB016681DF91CF911F910F91FF905D
:1014C000EF9036C9DF91CF911F910F91FF90EF9070
:1014D00008954F925F926F927F92BF92CF92DF9268
:1014E000EF92FF920F931F93CF93DF931F92CDB78D
:1014F000DEB76C01B62E81E0809300058093010574
:1015000060930205F601E95BFF4F20814FEF63E036
:10151000C60109D2882311F010E02EC08DE2898324
:10152000CFDA2B013C01CCDADC01CB01841995091F
:10153000A609B709803A9F40A105B10568F7E12CDB
:10154000F12C00E010E020E030E040E050E0BE018F
:101550006F5F7F4FC60177D2182F882321F38981CF
:10156000823008F3809100058230E9F6C601E5DD9E
:10157000482F6B2DC6010ED2812F0F90DF91CF9196
:101580001F910F91FF90EF90DF90CF90BF907F90D1
:101590006F905F904F900895FF920F931F93CF939A
:1015A000DF931F921F92CDB7DEB78C0122E0AE0110
:1015B0004F5F5F4F63E0D2D9898187FF1CC043E052
:1015C00068E0C80196DC40E068E0C80192DCD80120
:1015D00014968C911497823041F414961C921497AF
:1015E000DF961C92C801D5DC06C0F80184818130E9
:1015F00011F4C80113DC898185FF0AC0D801DF9688
:101600009C91DF971B968C91981710F4C80156DCBB
:10161000898184FF02C0F801938583FF08C0D80147
:10162000ED91FC910190F081E02DC80119958A811E
:1016300083FF08C0D801ED91FC910280F381E02D79
:10164000C8011995298122FF0AC0F801EC5BFF4F00
:1016500080819181019691838083F801148221FF1A
:101660002DC06BE4C8013EDDF82EF2E3F81708F454
:1016700048C0D8011B968C91F81608F442C0F801B6
:10168000838543852F2D281B50E0445F5F4F400F1B
:10169000511F6FE7C80162D9F801EE5BFF4F8081EF
:1016A0009181019691838083D8011B96FC921B97B0
:1016B00014961C92149781E0DE968C93898180FFAA
:1016C00013C0F801E05CFF4F808191810196918306
:1016D0008083C801A3DBC80150DCF8011482848137
:1016E000813011F0C8013DDC8A8186FF17C066E2B7
:1016F000C801F8DCF801EA5BFF4F8083C8013DDCDC
:101700000BC0F801E05CFF4F8081918101969183CD
:101710008083D80114961C92C80180DB0F900F9033
:10172000DF91CF911F910F91FF9008958091EF036A
:101730009091F003009709F02FCF08958091ED0369
:101740009091EE03009709F027CF08958091EB0365
:101750009091EC03009709F01FCF0895CF92DF928C
:10176000EF92FF920F931F93CF93DF936C017A0157
:101770008B01C0E0D0E0CE15DF0589F0D8016D9176
:101780008D01D601ED91FC910190F081E02DC60113
:101790001995892B11F47E0102C02196ECCFC70167
:1017A000DF91CF911F910F91FF90EF90DF90CF903D
:1017B0000895009761F0FC0101900020E9F731974E
:1017C000AF01481B590BBC018DE295E0C7CF80E00B
:1017D00090E008950E94E615CF93DF93EADFEC01D5
:1017E0008DED93E0E6DF8C0F9D1FDF91CF91089583
:1017F00090E0FC01E255FC4F2491FC01E859FC4FBC
:101800008491882399F090E0880F991FFC01E25B96
:10181000FC4FA591B491FC01EC5CFC4F8591949137
:101820008FB7F894EC91E22BEC938FBF08958F92D1
:101830009F92AF92BF920F931F93CF93DF93CDB739
:10184000DEB7A1970FB6F894DEBF0FBECDBF19A2C9
:10185000423008F44AE08E010F5D1F4F842E912C18
:10186000A12CB12CA50194010E94CA16E62FB90142
:10187000CA0101501109EA3014F4E05D01C0E95CCD
:10188000D801EC93232B242B252B61F7C80191DF82
:10189000A1960FB6F894DEBF0FBECDBFDF91CF91FA
:1018A0001F910F91BF90AF909F908F900895CF920E
:1018B000DF92EF92FF92CF93DF936B017C01E09177
:1018C0002D05F0912E050190F081E02D6DE28DE265
:1018D00095E01995EC0166277727CB016C197D09F6
:1018E0008E099F094AE0A3DF8C0F9D1FDF91CF91E6
:1018F000FF90EF90DF90CF900895CF93DF93BC01DE
:10190000990F880B990B97FF02C0D1DF02C04AE004
:101910008EDFEC018DED93E04CDF8C0F9D1FDF918E
:10192000CF91089546CF0F931F93CF938C01E62F4D
:10193000F0E0CF010596C39740F5C62F20933907F5
:101940004093380710923A07D801A25BBE4F8C91A2
:1019500091E0980F9C9380933B0710923C07AF0156
:1019600060E075E08DE397E00E94EA15D801ED9103
:10197000FC9145E04C0F0680F781E02D68E377E0AD
:10198000C801CF911F910F91199481E0CF911F91C0
:101990000F910895CF93DF93EC01C05BDE4FE0E041
:1019A000F0E0DE012881261309C09F01220F331FBA
:1019B000E20FF31F9C012E0F3F1F15C03196239697
:1019C000EA30F10579F7EC01CE5ADE4FFE0120E056
:1019D00030E05081511111C0F901EE0FFF1F2E0FA1
:1019E0003F1F280F391FF901E05BFE4F60833196DE
:1019F0004083319682E0808323C02F5F3F4F339630
:101A00002A30310531F7FC01ED5AFE4F2BE10190F0
:101A10000D922A95E1F7FC01E359FE4F10829C01DB
:101A200020593E4F82E09881911106C0FE01329705
:101A300060833196408388832396C217D30799F732
:101A4000DF91CF9108953F924F925F926F927F9274
:101A50008F929F92AF92BF92CF92DF92EF92FF92BE
:101A60000F931F93CF93DF93EC016B014A01590150
:101A70008EAD811105C08C81813011F0CE0171DAFB
:101A80008EAD882309F499C08EAD811105C08C817B
:101A9000813011F0CE0165DA6EAC662009F48DC09C
:101AA0005FB6F8948B85823310F47B8402C082E3A6
:101AB000782E472D50E0BE01645F7F4F88E397E0AA
:101AC0000E94EA15CE01AAD95FBECE0136DB482EB0
:101AD00067E4CE0107DB382E69E4CE0103DB582E24
:101AE0006AE4CE01FFDA87FD68C08FEF381621F077
:101AF000442D652DCE01A0DAFE01E40DF11DE25B5F
:101B0000FF4F8081581609F458C05082E881F9814E
:101B10000480F581E02D472D68E377E0CE0119952B
:101B200080913807FE01E95BFF4F9081891711F022
:101B30008F3F69F58114910421F080913907F401F8
:101B40008083A114B10421F080913807F5018083CE
:101B50000115110521F080913B07F8018083E11404
:101B6000F10421F080913C07F70180838BEF870D12
:101B7000F6019081891708F48083F601408150E0D6
:101B80006DE377E080E095E00E94EA1517C0809150
:101B90003A0791E0980F90933A07FE01E15BFE4F00
:101BA0009081891750F4E881F9810680F781E02D52
:101BB000472D68E377E0CE011995612C862DDF91E2
:101BC000CF911F910F91FF90EF90DF90CF90BF903A
:101BD000AF909F908F907F906F905F904F903F90CD
:101BE0000895EF92FF920F931F93CF93DF93EC0131
:101BF000198218821B821A821D821C82611571054E
:101C000091F17B01FB0101900020E9F731978F01F1
:101C1000061B170BB8016F5F7F4F80E090E0F2D694
:101C2000009759F0998388831B830A832C813D8117
:101C3000232B79F4FC0110820CC0888199810097D4
:101C400009F048D6198218821D821C821B821A82D2
:101C50000AC01D830C83B701DF91CF911F910F91B3
:101C6000FF90EF90C9C7DF91CF911F910F91FF9027
:101C7000EF900895CF93DF93CDB7DEB76F970FB690
:101C8000F894DEBF0FBECDBF789484B5826084BD6A
:101C900084B5816084BD85B5826085BD85B5816070
:101CA00085BD80916E00816080936E0010928100EE
:101CB00080918100826080938100809181008160A9
:101CC000809381008091800081608093800080916A
:101CD000B10084608093B1008091B00081608093F6
:101CE000B00080919100826080939100809191007A
:101CF000816080939100809190008160809390003A
:101D00008091A10082608093A1008091A1008160F8
:101D10008093A1008091A00081608093A0008091B9
:101D20002101826080932101809121018160809353
:101D300021018091200181608093200180917A00AF
:101D4000846080937A0080917A00826080937A0028
:101D500080917A00816080937A0080917A00806817
:101D600080937A001092C100E0913D05F0913E050C
:101D700082E08083E0913905F0913A051082E0918C
:101D80003B05F0913C0580E1808310924505E09190
:101D90004105F091420586E08083E0913F05F09196
:101DA0004005808180618083E0913F05F09140058E
:101DB000808188608083E0913F05F09140058081BB
:101DC00080688083E0913F05F091400580818F7DA0
:101DD000808368E873E180E090E00E94280584E059
:101DE00007DD60E084E00E94310464E670E080E09A
:101DF00090E00E94280560E170E080E090E00E94A1
:101E000028050AEC15E08091D005F2DC61E08091B4
:101E1000D0050E9431048091CC059091CD05DC0164
:101E2000ED91FC910680F781E02D19958091CC050C
:101E30009091CD05DC01ED91FC910484F585E02DB8
:101E400060E019958091CC059091CD05DC01ED9174
:101E5000FC910284F385E02D61E019958091CC0519
:101E60009091CD05DC01ED91FC910684F785E02D84
:101E700061E0199564E670E080E090E00E9428053A
:101E800040E867E0C80135D861E070E080E090E0AC
:101E90000E94280560E0C80125D98093D2058750AB
:101EA000823020F08FE792E097DCA5CF8091D105BA
:101EB000811112C01093EC030093EB0386EA9BE0C0
:101EC000909301028093000280916A008C7F82606F
:101ED00080936A00EC9A27C0813091F41093EE034E
:101EE0000093ED038EE99BE090930302809302023E
:101EF00080916A00837F886080936A00ED9A13C0A6
:101F0000823081F61093F0030093EF0386E99BE0A3
:101F10009093050280930402809169008C7F826017
:101F200080936900E89A8FB7F8941092D5051092C3
:101F300009068FBF8AEC95E00E940E0744E06DE72A
:101F40008AEC95E00E94790747E36EE78AEC95E01A
:101F50000E9479074091D30543704C6860E38AEC96
:101F600095E00E94790748E862E38AEC95E00E94D8
:101F7000790742E463E38AEC95E00E94790748E040
:101F800064E38AEC95E00E9479078DE28B8B84ED07
:101F90008C8B22E0AE014D5E5F4F66E38AEC95E0EC
:101FA0000E9415074FEF63E48AEC95E00E947907E1
:101FB00040E06FE38AEC95E00E94790740E06AE335
:101FC0008AEC95E00E94790740E06BE38AEC95E0AB
:101FD0000E94790740E06CE38AEC95E00E94790763
:101FE00040E06DE38AEC95E00E94790742E16BE006
:101FF0008AEC95E00E94790745E16CE08AEC95E077
:102000000E94790747EB65E08AEC95E00E9479072A
:1020100040E466E08AEC95E00E94790740E063E7DF
:102020008AEC95E00E94790740E064E78AEC95E04D
:102030000E94790743E565E78AEC95E00E947907FD
:1020400044E666E78AEC95E00E94790740E067E79E
:102050008AEC95E00E94790740E56AE28AEC95E017
:102060000E94790762E08AEC95E03CD842E150E0BA
:1020700064E871E0CE0101961BD6BE016F5F7F4F11
:102080008AEC95E001D843E06DE68AEC95E00E9489
:102090007907409111066FE38AEC95E00E94790779
:1020A000409111066BE38AEC95E00E9479078EE17E
:1020B0008093190780E992E08FDB47E06DE68AECB8
:1020C00095E00E94790781E0809317068CE291E009
:1020D00090931606809315066DEF862E63E0962E7C
:1020E000F40111921192B4E0E53CFB07D1F7109294
:1020F000FF041092FE041092FD041092FC04109252
:10210000FB041092FA041092F9041092F80442E1D0
:1021100050E06CEC71E0CE010196CAD5BE016F5F54
:102120007F4F8AEC95E00E944408612C712CA12C11
:10213000B12C5AE0C52ED12C2091F8043091F9042D
:1021400024363105E4F0C901B60100D3E0E3E80F1D
:10215000EE8FA901481B590BCA01B601F7D29B01AA
:10216000CB01B601F3D250E3580F5D8FD901A81B04
:10217000B90BCD01B601EAD2605D6C8F1BC02A306D
:1021800031058CF0C901B601E1D2B0E3B80FBE8FC2
:10219000F901E81BF90BCF01B601D8D2605D6D8F54
:1021A000F0E3FC8F07C040E3420F4E8F50E35D8F9A
:1021B00080E38C8F80E380932D029C8D90932E0280
:1021C000AD8DA0932F02BE8DB0933002E3E0F5E019
:1021D000EF8F8091FC049091FD0401969093FD0493
:1021E0008093FC042AEC35E080E090E0F901E05BAC
:1021F000FE4F4081413071F432964081442351F0CA
:102200009C01220F331F820F931F865E984F892BEC
:10221000F1F406C001962D5F3F4F8A30910531F7EA
:1022200061E08AEC95E055D9811111C08091FE04DE
:102230009091FF0401969093FF048093FE0403970E
:1022400064F182EA92E0C8DA00E010E038C010924F
:10225000000582E1EDE2F2E0A1E0B5E001900D922F
:102260008A95E1F72091110641E063E18AEC95E05F
:102270005ADB8111DBCF0E9460051B012C010E94FB
:102280006005DC01CB0182199309A409B5098C32E0
:102290009140A105B10508F4B0C0412C512C00E0DB
:1022A00010E08DE295E00E942D028336910529F021
:1022B000452829F4012B09F48CCF01E010E08DE2D0
:1022C00095E00E942D028336910519F0012B09F447
:1022D00033CF89EE92E026DB81E090E00EDB0091C7
:1022E000F8041091F9046091FC047091FD04C80198
:1022F0002DD284E6869F9001879F300D1124B9016D
:10230000330F880B990BDFD46093F9037093FA03B2
:102310008093FB039093FC03B801110F880B990B7A
:10232000D2D46093F5037093F6038093F7039093F0
:10233000F8036091FE047091FF04072E000C880BD7
:10234000990BC1D46093F1037093F2038093F3036C
:102350009093F40389EF92E0E5DA81E090E0CDDA42
:1023600083E093E0DFDA8091FC049091FD04C5DA0C
:1023700081E393E0D7DA8091FE049091FF04BDDA07
:1023800082E693E0CFDA8091F8049091F904B5DA0F
:1023900089E993E0C7DA8091FA049091FB04ADDA01
:1023A00087EC93E0BFDA0DEF13E0D8016D917D91DA
:1023B0008D01072E000C880B990B97FD0FC04AE08A
:1023C00036DA80E693E0AEDAB4E0033C1B0769F747
:1023D0008091C3049091C40490DA02C068DAF1CF0E
:1023E000F401119211924F01F5EC8F16F4E09F0663
:1023F000B9F78BED93E0F0D9FFCFFDE2FB8F9E01A3
:102400002F5F3F4F79018E010D5E1F4F285E3F4FBA
:10241000AE01465E5F4FBE01655E7F4F8AEC95E080
:1024200012DB182F882309F42ACF9B8D9923D1F032
:1024300080910005811116C08A8D8093C50491504A
:1024400080912C02981710F490932C0240912C024A
:1024500050E061E075E086EC94E0BCD3112309F410
:102460000ECF5FC0898D8F3F09F009CF923008F4FD
:1024700006CF80910005813009F001CF80911106CF
:102480002A8D281709F4FBCE1DEF190F33E0E32E38
:1024900035E0F32EF7019E2F43E055E0941B911792
:1024A00020F491919813F7CFEACE8AEC95E00E9440
:1024B0009D08482F6A8D8AEC95E06CDA8E2DBF8DD1
:1024C0008B1B811748F48AEC95E00E949D08D70188
:1024D0006D917D01482FEFCF80910105813079F416
:1024E0002091020580911106281309C032E0309333
:1024F00000054A8D6B8D8AEC95E015DAC0CE80918F
:102500001907181708F0BBCEE12FF0E0E050FB4FA1
:102510008091110683836B8D6F5F6B8F2A8D4FEFD8
:10252000EACF66EC74E0CE0143965BDB80E38093F8
:1025300010024C8D409311025D8D509312028E8DCE
:102540008093130260E172E0CE0101964ADB2F898D
:10255000388D8D819E812817390701F58B899C89DB
:1025600069817A81009719F061157105A1F46115EF
:10257000710549F0232BF1F0DB018C9190E09195EE
:102580008195910909C00097A9F0232B99F0FC01CE
:10259000808190E001C027D3892B61F08091FA04FB
:1025A0009091FB0401969093FB048093FA04412CD4
:1025B000512C23C08091F8049091F90401969093D6
:1025C000F9048093F80420911006A20EB11C883EF5
:1025D000934084F08FEB92E0FFD88DE295E00E946B
:1025E0002D0283369105C9F744244394512C01E010
:1025F00010E005C044244394512C00E010E0809189
:10260000F8049091F904B601A1D0892B79F4F30173
:10261000EE0FFF1FE350FC4FC501B60197D0718349
:1026200060832FEF621A720AA12CB12C89819A81E2
:1026300051D18B899C894ED134CE109230051092A5
:102640002F0588EE93E0A0E0B0E0809331059093F1
:102650003205A0933305B093340583E692E090935E
:102660002E0580932D0585EC90E090933A0580939C
:10267000390584EC90E090933C0580933B0580EC19
:1026800090E090933E0580933D0581EC90E090931F
:10269000400580933F0582EC90E090934205809343
:1026A000410586EC90E09093440580934305109299
:1026B000460510924705109248051092490585E39A
:1026C0008093D0051092D10581E08093CF051092C0
:1026D000CE0510920D0610920C0610920B06109269
:1026E0000A0610920F0610920E068FE392E0909366
:1026F000CD058093CC0581E090E09093D405809344
:10270000D305109211061092130610921206109221
:10271000140688EC90E0909316068093150683E0EB
:10272000809317068EE18093190780E090E0FC010A
:10273000E45EF84F108203968E319105C1F783E76E
:1027400092E09093CB058093CA05089597FB072EDE
:1027500016F4009406D077FD08D013D007FC05D0FE
:102760003EF4909581959F4F0895709561957F4FA8
:102770000895EE0FFF1F881F8BBF0790F691E02D85
:102780001994AA1BBB1B51E107C0AA1FBB1FA617A8
:10279000B70710F0A61BB70B881F991F5A95A9F70A
:1027A00080959095BC01CD010895CF93DF93823041
:1027B000910510F482E090E0E0916C07F0916D07D4
:1027C00020E030E0C0E0D0E0309711F1408151814D
:1027D00048175907C0F04817590761F4828193815F
:1027E000209719F09B838A832BC090936D07809369
:1027F0006C0726C02115310519F04217530718F44C
:102800009A01BE01DF01EF010280F381E02DDCCFF0
:102810002115310509F1281B390B2430310590F4BD
:1028200012968D919C9113976115710521F0FB0112
:102830009383828304C090936D0780936C07FD019E
:10284000329644C0FD01E20FF31F81939193225011
:1028500031092D933C933AC020916A0730916B0760
:10286000232B41F4209143023091440230936B07B3
:1028700020936A07209141023091420221153105CF
:1028800041F42DB73EB74091450250914602241BBA
:10289000350BE0916A07F0916B07E217F307A0F49C
:1028A0002E1B3F0B2817390778F0AC014E5F5F4FA6
:1028B0002417350748F04E0F5F1F50936B07409366
:1028C0006A078193919302C0E0E0F0E0CF01DF91CD
:1028D000CF9108950F931F93CF93DF93009709F43F
:1028E0008CC0FC0132971382128200916C07109108
:1028F0006D070115110581F420813181820F931F2D
:1029000020916A0730916B072817390779F5F09302
:102910006B07E0936A0771C0D80140E050E0AE1742
:10292000BF0750F412962D913C911397AD012115DC
:10293000310509F1D901F3CF9D01DA0133832283F7
:1029400060817181860F971F8217930769F4EC01EC
:1029500028813981260F371F2E5F3F4F3183208317
:102960008A819B8193838283452B29F4F0936D07A1
:10297000E0936C0742C01396FC93EE931297ED011F
:10298000499159919E01240F351FE217F30771F405
:1029900080819181840F951F029611969C938E934E
:1029A0008281938113969C938E931297E0E0F0E0DE
:1029B000D80112968D919C911397009719F0F80108
:1029C0008C01F6CF8D919C9198012E5F3F4F820F25
:1029D000931F20916A0730916B072817390769F414
:1029E000309729F410926D0710926C0702C0138281
:1029F000128210936B0700936A07DF91CF911F91AA
:102A00000F9108956F927F928F929F92AF92BF9293
:102A1000CF92DF92EF92FF920F931F93CF93DF93AA
:102A2000EC01009781F4CB01DF91CF911F910F91C1
:102A3000FF90EF90DF90CF90BF90AF909F908F90DE
:102A40007F906F90B2CEFC01E60FF71F9C012250E1
:102A50003109E217F30708F4A8C0D9010D911C91C0
:102A6000119706171707A8F00530110508F49BC049
:102A7000C80104978617970708F495C002501109FA
:102A8000061B170B019311936D937C93CF0122DFEB
:102A90008AC05B01A01AB10A4C01800E911EA09160
:102AA0006C07B0916D0740E050E0E12CF12C1097DD
:102AB00009F44AC0A815B905D1F56D907C9011971D
:102AC000630182E0C80ED11CCA14DB0480F1A301AB
:102AD0004A195B096A0182E0C80ED11C1296BC90AB
:102AE00012971396AC91B5E0CB16D10440F0B282A8
:102AF000A38351834083D9016D937C930AC00E5FF9
:102B00001F4FC301800F911FF90191838083EB2D2B
:102B1000FA2FE114F10431F0D7011396FC93EE93F0
:102B2000129741C0F0936D07E0936C073CC08D9104
:102B30009C9111974817590708F4AC017D01129632
:102B40000D90BC91A02DB3CF80916A0790916B0737
:102B500088159905E1F446175707C8F4809141029A
:102B600090914202009741F48DB79EB74091450283
:102B700050914602841B950BE817F907B0F4F093C7
:102B80006B07E0936A07F901718360830CC0CB0186
:102B90000CDE7C01009749F0A801BE011BD0CE01DC
:102BA00099DEC70104C0CE0102C080E090E0DF9151
:102BB000CF911F910F91FF90EF90DF90CF90BF903A
:102BC000AF909F908F907F906F90089581E090E0FC
:102BD000F89411C1FB01DC0102C001900D9241503B
:102BE0005040D8F70895FB01DC018D9101908019C8
:102BF0000110D9F3990B0895FB01DC0101900D92AE
:102C00000020E1F708958F929F92AF92BF92CF92EA
:102C1000DF92EF92FF92CF93DF93EC01688179818D
:102C20008A819B81611571058105910521F464E21A
:102C300079ED8BE597E02DE133EF41E050E07ED078
:102C400049015A019B01AC01A7EAB1E493D06B01A1
:102C50007C01ACEEB4EFA501940198D0DC01CB016E
:102C60008C0D9D1DAE1DBF1DB7FF03C00197A109AF
:102C7000B04888839983AA83BB83BC01CD019F7729
:102C8000DF91CF91FF90EF90DF90CF90BF90AF900A
:102C90009F908F900895B7CF87E492E0B4CF609370
:102CA0004702709348028093490290934A02089524
:102CB000FB01DC0102C005900D9241505040D8F755
:102CC0000895E89409C097FB3EF49095809570951F
:102CD00061957F4F8F4F9F4F9923A9F0F92F96E968
:102CE000BB279395F695879577956795B795F111DD
:102CF000F8CFFAF4BB0F11F460FF1BC06F5F7F4F7A
:102D00008F4F9F4F16C0882311F096E911C077238B
:102D100021F09EE8872F762F05C0662371F096E894
:102D2000862F70E060E02AF09A95660F771F881F63
:102D3000DAF7880F9695879597F90895052E97FBF2
:102D400016F400940FD057FD05D024D007FC02D014
:102D500046F408C050954095309521953F4F4F4F10
:102D60005F4F089590958095709561957F4F8F4F37
:102D70009F4F089531D0A59F900DB49F900DA49FB3
:102D8000800D911D11240895B7FFF4CFF3DF821B4E
:102D9000930B0895A1E21A2EAA1BBB1BFD010DC0C7
:102DA000AA1FBB1FEE1FFF1FA217B307E407F507FB
:102DB00020F0A21BB30BE40BF50B661F771F881FD7
:102DC000991F1A9469F760957095809590959B016D
:102DD000AC01BD01CF010895A29FB001B39FC00116
:102DE000A39F700D811D1124911DB29F700D811D37
:0A2DF0001124911D0895F894FFCFFF
:102DFA004903490349034903490349034903490369
:102E0A00303030303A20416E642068656C6C6F2037
:102E1A006261636B20746F20796F750032303030D5
:102E2A00303A2048656C6C6F20576F726C64004FA3
:102E3A000200006E078000010000000000000091FF
:102E4A00038D038903F90475036D036803590300AD
:102E5A000000008502AE0B4F022D024102CB020098
:102E6A00000000580357031F0ACE09690A4B037270
:102E7A0066323220696E6974206661696C65640025
:102E8A007266323220696E69742073756363657382
:102E9A00730070726F6772657373696E6720746FFF
:102EAA0020746865206E657874206E6F646500779B
:102EBA00616974696E6720746F20636F6E74696EDE
:102ECA00756520746F206E657874206D6F64756CFB
:102EDA006174696F6E2E2E2E00466F72206D6F64BC
:102EEA00756C6174696F6E2000466F72206E6F6434
:102EFA0065200054686520746F74616C206E756D6E
:102F0A00626572206F6620617474656D70746564A1
:102F1A00207472616E736D697373696F6E733A2090
:102F2A0000546865206E756D626572206F66206652
:102F3A0061696C6564207472616E736D697373691B
:102F4A006F6E7320776974686F75742061636B3A6A
:102F5A002000546865206E756D626572206F662068
:102F6A0073756365737366756C20726563657074D7
:102F7A00696F6E7320616E64207472616E736D691D
:102F8A007373696F6E733A2000546865206E756DAD
:102F9A00626572206F6620696E636F727265637410
:102FAA006C79207265636965766564206D657373F3
:102FBA00616765733A2000546865207273736920EB
:102FCA0061766572616765733A20002A000D0A000E
:020000023000CC
:10E000000D9489F10D94B2F10D94B2F10D94B2F129
:10E010000D94B2F10D94B2F10D94B2F10D94B2F1F0
:10E020000D94B2F10D94B2F10D94B2F10D94B2F1E0
:10E030000D94B2F10D94B2F10D94B2F10D94B2F1D0
:10E040000D94B2F10D94B2F10D94B2F10D94B2F1C0
:10E050000D94B2F10D94B2F10D94B2F10D94B2F1B0
:10E060000D94B2F10D94B2F10D94B2F10D94B2F1A0
:10E070000D94B2F10D94B2F10D94B2F10D94B2F190
:10E080000D94B2F10D94B2F10D94B2F10D94B2F180
:10E090000D94B2F10D94B2F10D94B2F10D94B2F170
:10E0A0000D94B2F10D94B2F10D94B2F10D94B2F160
:10E0B0000D94B2F10D94B2F10D94B2F10D94B2F150
:10E0C0000D94B2F10D94B2F10D94B2F10D94B2F140
:10E0D0000D94B2F10D94B2F10D94B2F10D94B2F130
:10E0E0000D94B2F141546D656761323536300041AF
:10E0F000726475696E6F206578706C6F72657220DE
:10E1000073746B3530305632206279204D4C530099
:10E11000426F6F746C6F616465723E004875683F52
:10E1200000436F6D70696C6564206F6E203D200048
:10E130004350552054797065202020203D20005FF9
:10E140005F4156525F415243485F5F3D2000415658
:10E1500052204C696243205665723D20004743437C
:10E160002056657273696F6E203D20004350552024
:10E1700049442020202020203D20004C6F7720663D
:10E18000757365202020203D20004869676820665F
:10E190007573652020203D200045787420667573D6
:10E1A00065202020203D20004C6F636B2066757336
:10E1B000652020203D20004D617220203720323024
:10E1C000313300312E362E3800342E332E350056A2
:10E1D00023202020414444522020206F7020636F70
:10E1E00064652020202020696E73747275637469E1
:10E1F0006F6E2061646472202020496E74657272B3
:10E20000757074006E6F20766563746F7200726A49
:10E210006D702020006A6D70200057686174207056
:10E220006F72743A00506F7274206E6F7420737541
:10E2300070706F72746564004D7573742062652030
:10E2400061206C6574746572002000577269747483
:10E25000696E672045450052656164696E672045B7
:10E26000450045452065727220636E743D00504F35
:10E27000525400303D5A65726F2061646472003FF1
:10E280003D43505520737461747300403D454550C3
:10E29000524F4D207465737400423D426C696E6B41
:10E2A000204C454400453D44756D70204545505215
:10E2B0004F4D00463D44756D7020464C415348001B
:10E2C000483D48656C70004C3D4C69737420492F83
:10E2D0004F20506F72747300513D51756974005234
:10E2E0003D44756D702052414D00563D73686F7707
:10E2F00020696E7465727275707420566563746FF0
:10E30000727300593D506F727420626C696E6B00BD
:10E310002A0011241FBECFEFD1E2DEBFCDBF01E046
:10E320000CBF12E0A0E0B2E0EEE1FDEF03E00BBFB6
:10E3300002C007900D92A030B107D9F712E0A0E01B
:10E34000B2E001C01D92AE30B107E1F70F9460F367
:10E350000D948DFE01E20EBF0FEF0DBF11241FBE05
:10E360000D9460F30D9400F020E030E040ED57E0B4
:10E3700005C0FA013197F1F72F5F3F4F2817390792
:10E38000C0F308959C01260F311DC901A0E0B0E043
:10E390002F5F3F4FABBFFC018791882361F08093D3
:10E3A000C6008091C00086FFFCCF8091C0008064D1
:10E3B0008093C000EACF08958DE08093C6008091DD
:10E3C000C00086FFFCCF8091C00080648093C000B5
:10E3D0008AE08093C6008091C00086FFFCCF8091C8
:10E3E000C00080648093C00008950F94C2F10F9420
:10E3F000DCF10895FC019081992359F09093C600B7
:10E400008091C00086FFFCCF8091C0008064809323
:10E41000C0003196992379F70895282F982F929567
:10E420009F70892F805D8A3308F0895F8093C600D2
:10E430008091C00086FFFCCF8091C00080648093F3
:10E44000C000822F8F70982F905D9A3308F0995FEB
:10E450009093C6008091C00086FFFCCF8091C000E1
:10E4600080648093C00008959C01FB01853691056E
:10E470001CF46330710594F0C90164E670E00F94F8
:10E480002EFE605D7F4F6093C6008091C00086FFC6
:10E49000FCCF8091C00080648093C0002B30310598
:10E4A00014F43297B4F0C90164E670E00F942EFEC4
:10E4B0006AE070E00F942EFE605D7F4F6093C600AF
:10E4C0008091C00086FFFCCF8091C0008064809363
:10E4D000C000C9016AE070E00F942EFEC0968093E0
:10E4E000C6008091C00086FFFCCF8091C000806490
:10E4F0008093C00008951F93182F8EE692EE60E07F
:10E500000F94C2F11093C6008091C00086FFFCCF2B
:10E510008091C00080648093C0000F94DCF11F9153
:10E5200008952F923F924F925F926F927F928F92B7
:10E530009F92AF92BF92CF92DF92EF92FF920F9392
:10E540001F93DF93CF93CDB7DEB762970FB6F894E2
:10E55000DEBF0FBECDBF382E622ECA01DB015C01CB
:10E560006D01772420E2222E2E010894411C511CBB
:10E570008BC081E0A81680E0B80681E0C80680E084
:10E58000D80628F0C601AA27BB270F940DF2BB2797
:10E59000AD2D9C2D8B2D0F940DF28A2D0F940DF225
:10E5A0002092C6008091C00086FFFCCF8091C00001
:10E5B00080648093C0009DE29093C6008091C0006B
:10E5C00086FFFCCF8091C00080648093C0002092C1
:10E5D000C6008091C00086FFFCCF8091C00080649F
:10E5E0008093C00019828601750188249924A1E0D6
:10E5F0003A1651F03A1620F0B2E03B1661F409C029
:10E600000BBFF701779007C0C7010F9477FE782EF4
:10E6100002C0F7017080872D0F940DF22092C60082
:10E620008091C00086FFFCCF8091C0008064809301
:10E63000C000872D8052F401EF70F0708F3520F408
:10E64000E40DF51D708204C0E40DF51D8EE280839B
:10E650000894E11CF11C011D111D0894811C911CE2
:10E6600090E18916910409F0C2CF80E190E0A0E02A
:10E67000B0E0A80EB91ECA1EDB1E198AC2010F9493
:10E68000FAF10F94DCF16A94662009F072CF629679
:10E690000FB6F894DEBF0FBECDBFCF91DF911F91B3
:10E6A0000F91FF90EF90DF90CF90BF90AF909F9031
:10E6B0008F907F906F905F904F903F902F90089534
:10E6C0002F923F924F925F926F927F928F929F9282
:10E6D000AF92BF92CF92DF92EF92FF920F931F9370
:10E6E000DF93CF93CDB7DEB7CD53D1400FB6F894BB
:10E6F000DEBF0FBECDBF01E20EBF0FEF0DBF94B75F
:10E70000F894A89514BE80916000886180936000A1
:10E7100010926000789493FF05C0E0910002F091A0
:10E7200001021995279A2F9A8091C00082608093E8
:10E73000C00080E18093C40088E18093C1000000A4
:10E74000EE24FF24870144E0A42EB12CCC24DD2448
:10E7500024C0C5010197F1F70894E11CF11C011DCB
:10E76000111D21E2E2162EE4F20620E0020720E06D
:10E77000120718F031E0C32ED12CC801B70127ECE5
:10E780003BE140E050E00F9441FE611571058105C9
:10E79000910519F485B1805885B98091C00087FD35
:10E7A00003C0C114D104A9F2A6014F5F5F4FC25E3E
:10E7B000DE4F59834883CE51D140C25EDE4F8881FF
:10E7C0009981CE51D140019711F00D9410FEC05D9A
:10E7D000DE4F19821882C053D14060E0C15DDE4F28
:10E7E0001882CF52D14088249924C35DDE4F19820C
:10E7F0001882CD52D140C05EDE4F188219821A8233
:10E800001B82C052D140CE5CDE4F188219821A8220
:10E810001B82C253D140EE24FF2487010BBFF701B6
:10E8200007911691C45CDE4F19830883CC53D14005
:10E830000D940BFEC25EDE4F28813981CE51D1404E
:10E840002130310509F52091C600C25EDE4F1982E4
:10E850001882CE51D14022C02F5F3F4F4F4F5F4FA4
:10E86000213082E138078AE7480780E0580780F0C6
:10E87000C45CDE4FE881F981CC53D140EF5FFF4F9C
:10E8800019F0EE27FF27099420E030E040E050E047
:10E890008091C00087FFE0CF2091C600C35DDE4FAE
:10E8A00048815981CD52D1404F5F5F4FC35DDE4FEC
:10E8B00059834883CD52D140213209F063C64A3092
:10E8C000510508F05FC60894811C911C53E0851621
:10E8D000910409F059C600E010E018C081E280936D
:10E8E000C6008091C00086FFFCCF8091C00080648C
:10E8F0008093C0002F5F3F4F2931310579F70F9486
:10E90000DCF10F5F1F4F0530110519F020E030E0FA
:10E91000E5CF10920A0210920B0210920C02109294
:10E920000D02109206021092070210920802109235
:10E930000902109202021092030210920402109235
:10E9400005028FEE90EE60E00F94F5F180E191EE1C
:10E9500060E00F94C2F18091C00087FFFCCF9091DE
:10E96000C600903608F09F759032B8F09093C600BC
:10E970008091C00086FFFCCF8091C00080648093AE
:10E98000C000A0E2A093C6008091C00086FFFCCF2B
:10E990008091C00080648093C000983409F4D7C18E
:10E9A0009934B8F4923409F459C1933458F490333B
:10E9B00019F1903308F4E3C59F33A1F1903409F0C5
:10E9C000DEC5BDC0953409F470C1963409F0D7C5D1
:10E9D00098C1923509F42BC2933538F49C3409F46C
:10E9E000F5C1913509F0CBC518C2963509F445C279
:10E9F000993509F0C4C567C483E792EE62E00F94CD
:10EA0000F5F110920602109207021092080210927D
:10EA1000090210920A0210920B0210920C0210923C
:10EA20000D0213C18FE792EE62E00F94F5F18FEEC5
:10EA300090EE60E00F94F5F181E291EE60E00F94CA
:10EA4000C2F187EB91EE60E00F94F5F180E391EE77
:10EA500060E00F94C2F184EE90EE60E00F94F5F167
:10EA60008FE391EE60E00F94C2F186E090E061E008
:10EA700070E00F9434F20F94DCF18DE591EE60E0DC
:10EA80000F94C2F189EC91EE60E00F94F5F18EE401
:10EA900091EE60E00F94C2F183EC91EE60E00F9490
:10EAA000F5F18CE691EE60E00F94C2F18EE10F94E7
:10EAB0000DF288E90F940DF281E00F940DF20F949E
:10EAC000DCF18BE791EE60E00F94C2F119E0E0E039
:10EAD000F0E010935700E4918E2F0F940DF20F94F5
:10EAE000DCF18AE891EE60E00F94C2F1E3E0F0E03F
:10EAF00010935700E4918E2F0F940DF20F94DCF1D8
:10EB000089E991EE60E00F94C2F1E2E0F0E0109349
:10EB10005700E4918E2F0F940DF20F94DCF188EAE8
:10EB200091EE60E00F94C2F1E1E0F0E01093570045
:10EB30001491812F0F940DF20F94DCF107CF8BE825
:10EB400092EE62E00F94F5F18BE492EE60E00F94A8
:10EB5000F5F10F94DCF100E010E019C0C8016F2D51
:10EB60000F947FFEFF2031F489E492EE60E00F9471
:10EB7000C2F10BC0F092C6008091C00086FFFCCFAE
:10EB80008091C00080648093C0000F5F1F4FC80158
:10EB900081519F41A0E0B0E0ABBFFC01F790BAE229
:10EBA000FB1621F0E2E000301E07C1F60F94DCF105
:10EBB0000F94DCF187E592EE60E00F94F5F10F948D
:10EBC000DCF1CC24DD2400E010E01EC0C8010F946D
:10EBD00077FEF82E882331F489E492EE60E00F94FA
:10EBE000C2F10BC08093C6008091C00086FFFCCFAD
:10EBF0008091C00080648093C000FE1419F00894D6
:10EC0000C11CD11C0F5F1F4FC80181519F41A0E063
:10EC1000B0E0ABBFFC01E790FAE2EF1621F022E092
:10EC20000030120799F60F94DCF10F94DCF182E6C4
:10EC300092EE60E00F94C2F1C60161E070E00F94C3
:10EC400034F20F94DCF10F94DCF110920202109276
:10EC50000302109204021092050278CE89E992EE26
:10EC600062E00F94F5F1279A2F9A16C02F9880E052
:10EC700090E0E0EDF7E03197F1F7019684369105E9
:10EC8000C1F72F9A80E090E0E0EDF7E03197F1F7DF
:10EC9000019684369105C1F78091C00087FFE6CFC9
:10ECA0008091C00087FFFCCF64C485EA92EE62E0E9
:10ECB0000F94F5F140910202509103026091040219
:10ECC0007091050281E020E10F9491F2809102029F
:10ECD00090910302A0910402B091050280509F4FD1
:10ECE000AF4FBF4F8093020290930302A0930402A0
:10ECF000B093050280509041A040B04008F426CE69
:10ED0000A4CF83EB92EE62E00F94F5F140910602FE
:10ED100050910702609108027091090280E020E1A1
:10ED20000F9491F28091060290910702A09108023F
:10ED3000B091090280509F4FAF4FBF4F80930602A2
:10ED400090930702A0930802B0930902FFCD80ECD4
:10ED500092EE62E00F94F5F183E792EE60E00F949B
:10ED6000F5F18FE792EE60E00F94F5F18BE892EE0B
:10ED700060E00F94F5F189E992EE60E00F94F5F10F
:10ED800085EA92EE60E00F94F5F183EB92EE60E09D
:10ED90000F94F5F180EC92EE60E00F94F5F187ECC2
:10EDA00092EE60E00F94F5F188ED92EE60E00F9442
:10EDB000F5F18FED92EE60E00F94F5F18AEE92EEB0
:10EDC00060E00F94F5F183E093EEBDCD87EC92EE19
:10EDD00062E00F94F5F181E40F947BF282E40F94EA
:10EDE0007BF283E40F947BF284E40F947BF285E45E
:10EDF0000F947BF286E40F947BF287E40F947BF20E
:10EE000088E40F947BF28AE40F947BF28BE40F94F6
:10EE10007BF28CE40F947BF299CD88ED92EE62E068
:10EE20000F94F5F1772473948824992409C48FED05
:10EE300092EE62E00F94F5F140910A0250910B02BC
:10EE400060910C0270910D0282E020E10F9491F22A
:10EE500080910A0290910B02A0910C02B0910D02D8
:10EE600080509F4FAF4FBF4F80930A0290930B0289
:10EE7000A0930C02B0930D0269CD8AEE92EE62E08F
:10EE80000F94F5F184EE90EE60E00F94F5F18FECC5
:10EE900091EE60E00F94F5F1662477244301CC5D98
:10EEA000DE4F19821882C452D140D401C301B695F5
:10EEB000A79597958795CA5DDE4F88839983AA8326
:10EEC000BB83C652D140CC5DDE4FA881B981C4520C
:10EED000D1401196CC5DDE4FB983A883C452D14096
:10EEE000CD0162E070E00F9434F2B0E2B093C6005E
:10EEF0008091C00086FFFCCF8091C0008064809329
:10EF0000C000EDE2E093C6008091C00086FFFCCF18
:10EF10008091C00080648093C000F0E2F093C6004E
:10EF20008091C00086FFFCCF8091C00080648093F8
:10EF3000C000CA5DDE4FE880F9800A811B81C6529D
:10EF4000D140BB27A12F902F8F2D0F940DF2CA5DBA
:10EF5000DE4F8881C652D1400F940DF2B0E2FB2EF5
:10EF6000F092C6008091C00086FFFCCF8091C00067
:10EF700080648093C0000DE30093C6008091C000C0
:10EF800086FFFCCF8091C00080648093C00010E2B7
:10EF90001093C6008091C00086FFFCCF8091C00016
:10EFA00080648093C0008BBEF3012791C65DDE4F65
:10EFB0002883CA52D140A22EBB24CC24DD2408943D
:10EFC000611C711C811C911C8BBEF3018791282E42
:10EFD0003324442455240894611C711C811C911C09
:10EFE0008BBEF3013791C55DDE4F3883CB52D140E4
:10EFF0000894611C711C811C911C8BBEF30147910C
:10F00000C45DDE4F4883CC52D140ADEFEA2EAFEF66
:10F01000FA2EAFEF0A2FAFEF1A2F6E0C7F1C801E57
:10F02000911E142D032DF22CEE24EA0CFB1C0C1D5A
:10F030001D1D0F940DF220E22093C6008091C000A8
:10F0400086FFFCCF8091C00080648093C000C65DC5
:10F05000DE4F8881CA52D1400F940DF230E23093D6
:10F06000C6008091C00086FFFCCF8091C000806404
:10F070008093C000C45DDE4F8881CC52D1400F9494
:10F080000DF240E24093C6008091C00086FFFCCFA5
:10F090008091C00080648093C000C55DDE4F888190
:10F0A000CB52D1400F940DF250E25093C6008091A4
:10F0B000C00086FFFCCF8091C00080648093C000B8
:10F0C0008FEFE8168FEFF80680E0080780E018075A
:10F0D00031F484E092EE60E00F94C2F1DFC0D80119
:10F0E000C7018070907CA070B0708050904CA040A0
:10F0F000B040D1F52FEF3FE340E050E0E222F322B1
:10F1000004231523CA5DDE4FA880B980CA80DB8046
:10F11000C652D140AE0CBF1CC01ED11EAA0CBB1CD7
:10F12000CC1CDD1C8EE092EE60E00F94C2F1BB2798
:10F13000A12F902F8F2D0F940DF28E2D0F940DF285
:10F1400030E23093C6008091C00086FFFCCF8091F2
:10F15000C00080648093C0004EE34093C60080915D
:10F16000C00086FFFCCF87C08EE09EEFA0E0B0E03D
:10F17000E822F9220A231B239CE0E91694E9F90608
:10F1800090E0090790E0190709F088C0C45DDE4FE0
:10F19000A881CC52D140EA2EFF2400E010E0102FCD
:10F1A0000F2DFE2CEE24C55DDE4FB881CB52D14031
:10F1B000EB0EF11C011D111DD601C501817090706F
:10F1C000A070B070DC0199278827E80EF91E0A1F8D
:10F1D0001B1F20EF30E040E050E0A222B322C42207
:10F1E000D52241E1AA0CBB1CCC1CDD1C4A95D1F7F1
:10F1F000EA0CFB1C0C1D1D1D81E090E0A0E0B0E0BE
:10F20000282239224A225B2235E1220C331C441C7D
:10F21000551C3A95D1F7E20CF31C041D151D57013E
:10F220006801AA0CBB1CCC1CDD1C85E192EE60E0E1
:10F230000F94C2F1C801AA27BB270F940DF2BB2778
:10F24000A12F902F8F2D0F940DF28E2D0F940DF274
:10F2500090E29093C6008091C00086FFFCCF809121
:10F26000C00080648093C000AEE3A093C60080918C
:10F27000C00086FFFCCF8091C00080648093C000F6
:10F28000C601AA27BB270F940DF2BB27AD2D9C2DDD
:10F290008B2D0F940DF28A2D0F940DF20F94DCF14B
:10F2A000CC5DDE4FE881F981C452D140F99709F471
:10F2B0004DCBF4E0EF2EF12C012D112D6E0C7F1CA7
:10F2C000801E911EF2CD83E093EE62E00F94F5F183
:10F2D0008AE192EE60E00F94C2F18091C00087FF56
:10F2E000FCCF1091C6001F751093C6008091C0001E
:10F2F00086FFFCCF8091C00080648093C0000F9493
:10F30000DCF1812F81548A3108F036C1163409F4BA
:10F3100095C0173490F4133409F44EC0143430F40B
:10F320001134F1F0123409F01DC130C0143409F465
:10F3300059C0153409F016C16BC01A3409F4C4C0A1
:10F340001B3438F4173409F48FC0183409F00AC19B
:10F35000A1C01B3409F4D2C01C3409F003C1E8C0B9
:10F360008FEF81B90DC082B1809582B980E090E0C5
:10F37000E0EDF7E03197F1F70196883C9105C1F790
:10F380008091C00087FFEFCF12B8EFC08FEF84B934
:10F390000DC085B1809585B980E090E0E0EDF7E0A3
:10F3A0003197F1F70196883C9105C1F78091C00033
:10F3B00087FFEFCF15B8D9C08FEF87B90DC088B1DF
:10F3C000809588B980E090E0E0EDF7E03197F1F7C3
:10F3D0000196883C9105C1F78091C00087FFEFCF6F
:10F3E00018B8C3C08FEF8AB90DC08BB180958BB9A7
:10F3F00080E090E0E0EDF7E03197F1F70196883C8E
:10F400009105C1F78091C00087FFEFCF1BB8ADC059
:10F410008FEF8DB90DC08EB180958EB980E090E0F0
:10F42000E0EDF7E03197F1F70196883C9105C1F7DF
:10F430008091C00087FFEFCF1EB897C08FEF80BBD1
:10F440000DC081B3809581BB80E090E0E0EDF7E0F6
:10F450003197F1F70196883C9105C1F78091C00082
:10F4600087FFEFCF11BA81C08FEF83BB0DC084B38C
:10F47000809584BB80E090E0E0EDF7E03197F1F714
:10F480000196883C9105C1F78091C00087FFEFCFBE
:10F4900014BA6BC08FEF809301010FC080910201FD
:10F4A00080958093020180E090E0E0EDF7E03197F5
:10F4B000F1F70196883C9105C1F78091C00087FF64
:10F4C000EDCF1092020151C08FEF809304010FC065
:10F4D0008091050180958093050180E090E0E0ED4A
:10F4E000F7E03197F1F70196883C9105C1F78091DB
:10F4F000C00087FFEDCF1092050137C08FEF8093DA
:10F5000007010FC08091080180958093080180E079
:10F5100090E0E0EDF7E03197F1F70196883C910536
:10F52000C1F78091C00087FFEDCF109208011DC088
:10F530008FEF80930A010FC080910B01809580931B
:10F540000B0180E090E0E0EDF7E03197F1F70196F4
:10F55000883C9105C1F78091C00087FFEDCF1092E4
:10F560000B0103C085E292EEEEC98091C00087FFD7
:10F57000FCCF8091C600EAC988E392EEE4C98CE131
:10F5800091EEE1C988249924933011F1943028F444
:10F59000913089F09230B8F408C0953061F195301F
:10F5A000F0F0963009F048C043C02B3109F042C951
:10F5B00091E06BE13FC96227C15DDE4F2883CF52E6
:10F5C000D14092E037C9B22FA0E0622793E032C960
:10F5D000822F90E0A82BB92B622794E02BC92E3004
:10F5E00009F039C3622795E0C05DDE4F19821882A9
:10F5F000C053D1401FC9E1E0F0E0EC0FFD1FC05D3A
:10F60000DE4F08811981C053D140E00FF11F2083E4
:10F610000F5F1F4FC05DDE4F19830883C053D14079
:10F6200062270A171B0709F005C9D80196E002C92D
:10F63000261709F010C303C0973009F0FBC87724E0
:10F640009981933109F412C19431C8F4963009F4C8
:10F65000D8C0973050F4923009F406C1933009F4C1
:10F660006DC0913009F059C253C0913109F477C08F
:10F67000923108F0BBC0903109F04FC2F5C098310B
:10F6800009F487C0993150F4953109F4EFC09531F0
:10F6900008F4C6C1963109F040C2C2C19A3109F4DA
:10F6A0006CC09A3108F491C09B3109F45BC09D3164
:10F6B00009F033C29D81903359F48F81882311F46E
:10F6C0009EE11CC0813011F091E018C098E916C08D
:10F6D000892F807591F0903539F4E0E0F0E089E011
:10F6E0008093570094910AC0983539F4E3E0F0E034
:10F6F00089E080935700949101C090E01A821B82A8
:10F700008D818C831D829E831F8227E030E009C299
:10F710001A8288E08B8381E48C8386E58D8382E581
:10F720008E8389E48F8383E5888780E589878FE5E9
:10F730008A8782E38B872BE030E0F3C18A818139AD
:10F7400041F0823941F0803911F48FE005C080E04A
:10F7500003C082E001C08AE01A828B8344C0772410
:10F76000739482C08D81882311F48EE12CC0813086
:10F7700011F081E028C088E926C01A82E1E0F0E0BB
:10F7800089E08093570084918B831C8224E030E0D1
:10F79000C8C18B81803589F48C81883039F4E2E0EE
:10F7A000F0E089E08093570084910DC0E0E0F0E044
:10F7B00089E080935700849106C0E3E0F0E089E09F
:10F7C0008093570084911A82DFCF8D81836C99E0FA
:10F7D000E1E0F0E0082E90935700E89507B600FCB2
:10F7E000FDCF1A821B8223E030E09BC180EC8A832C
:10F7F000CE5CDE4F188219821A821B82C253D1401E
:10F800008EC18A8190E0A0E0B0E0582F44273327D2
:10F8100022278B8190E0A0E0B0E0DC0199278827C7
:10F82000282B392B4A2B5B2B8D8190E0A0E0B0E098
:10F83000282B392B4A2B5B2B8C8190E0A0E0B0E089
:10F84000BA2FA92F982F8827282B392B4A2B5B2BCF
:10F85000220F331F441F551FC05EDE4F288339839C
:10F860004A835B83C052D1401A8259C13A81C95C34
:10F87000DE4F3883C753D140CA5CDE4F1882C6536F
:10F88000D1408B81C82EDD24CA5CDE4F488159816E
:10F89000C653D140C42AD52A933109F082C0CE5C28
:10F8A000DE4F88819981AA81BB81C253D1408050AB
:10F8B000904CA340B04030F583E0CE5CDE4FE88052
:10F8C000F9800A811B81C253D140F70100935B008C
:10F8D00080935700E89507B600FCFDCFCE5CDE4F65
:10F8E000088119812A813B81C253D14000501F4FAA
:10F8F0002F4F3F4FCE5CDE4F088319832A833B8313
:10F90000C253D140C05EDE4F488159816A817B81FC
:10F91000C052D140DE011B9631E08C9111962C91A2
:10F9200011971296C75CDE4F2883C953D140C85C3B
:10F93000DE4F1882C853D14090E0C85CDE4FE881AA
:10F94000F981C853D1408E2B9F2B0C01FA01609393
:10F950005B0030935700E89511244E5F5F4F6F4F67
:10F960007F4F0EEFE02E0FEFF02ECE0CDF1CC114F8
:10F97000D10499F685E0C05EDE4F088119812A81A5
:10F980003B81C052D140F80120935B008093570027
:10F99000E89507B600FCFDCF81E180935700E8951C
:10F9A00035C0C05EDE4F88819981AA81BB81C0527B
:10F9B000D140B695A795979587957C018601ABE0D8
:10F9C000AA2EB12CAC0EBD1E0BC0D5016D915D01F0
:10F9D000C7010F947FFE0894E11CF11C01501040F8
:10F9E0000115110591F7A60160E070E0440F551F65
:10F9F000661F771FC05EDE4FE880F9800A811B8199
:10FA0000C052D1404E0D5F1D601F711F1A82C05E33
:10FA1000DE4F488359836A837B83C052D1407FC0C5
:10FA2000FA80C55CDE4FF882CB53D140C65CDE4F16
:10FA30001882CA53D1408B81C82EDD24C65CDE4FAC
:10FA400008811981CA53D140C02AD12A1A828981DA
:10FA5000BE016D5F7F4F843121F59601C05EDE4FA0
:10FA6000E880F9800A811B81C052D1400BBFF701A9
:10FA700087919691DB018C9311969C936E5F7F4FDB
:10FA8000D801C7010296A11DB11DC05EDE4F88835B
:10FA90009983AA83BB83C052D14022503040F1F6F3
:10FAA00036C0C05EDE4F288139814A815B81C052F9
:10FAB000D1400894C108D108760100E010E0089414
:10FAC000C11CD11C0894E11CF11C011D111DE20E8A
:10FAD000F31E041F151F21BDBB27A52F942F832FB5
:10FAE00082BD2F5F3F4F4F4F5F4FF89A80B5DB01CC
:10FAF0008D93BD012E153F054007510761F7C05E8C
:10FB0000DE4F288339834A835B83C052D1409601FC
:10FB10002D5F3F4FFB01108204C080EC8A8322E0FE
:10FB200030E08BE18093C6008091C00086FFFCCF5F
:10FB30008091C00080648093C000C15DDE4FF88179
:10FB4000CF52D140F093C6008091C00086FFFCCF19
:10FB50008091C00080648093C000432F3093C60022
:10FB60008091C00086FFFCCF8091C00080648093AC
:10FB7000C000922F2093C6008091C00086FFFCCF6A
:10FB80008091C00080648093C0008EE08093C600A6
:10FB90008091C00086FFFCCF8091C000806480937C
:10FBA000C00065E1C15DDE4FE880CF52D1406E25D7
:10FBB00069276427FE01319610C090819093C6009A
:10FBC0008091C00086FFFCCF31968091C000806498
:10FBD0008093C0006927215030402115310569F715
:10FBE0006093C6008091C00086FFFCCF8091C0006A
:10FBF00080648093C00085B1805885B9772081F4F6
:10FC0000C15DDE4F0881CF52D1400F5FC15DDE4F35
:10FC10000883CF52D14090E0A0E0B0E00D941AF4F8
:10FC200027982F9880E090E020ED37E0F901319798
:10FC3000F1F7019684369105C9F700008091C00064
:10FC40008D7F8093C00081E180935700E895EE2777
:10FC5000FF270994FFCF90E00D941AF497FB092E2B
:10FC600007260AD077FD04D02ED006D000201AF443
:10FC7000709561957F4F0895F6F7909581959F4F08
:10FC80000895A1E21A2EAA1BBB1BFD010DC0AA1FDD
:10FC9000BB1FEE1FFF1FA217B307E407F50720F0F5
:10FCA000A21BB30BE40BF50B661F771F881F991F70
:10FCB0001A9469F760957095809590959B01AC01B9
:10FCC000BD01CF010895AA1BBB1B51E107C0AA1FAC
:10FCD000BB1FA617B70710F0A61BB70B881F991FED
:10FCE0005A95A9F780959095BC01CD010895F99991
:10FCF000FECF92BD81BDF89A992780B50895262F31
:10FD0000F999FECF1FBA92BD81BD20BD0FB6F89400
:0EFD1000FA9AF99A0FBE01960895F894FFCF63
:040000033000E000E9
:00000001FF