:10000000FAC1000012C70000E5C60000B8C6000033
:100010008BC600005EC6000031C6000004C60000AA
:10002000D7C5000019C2000017C2000015C20000A9
:1000300013C2000011C200000FC200000DC2000078
:100040000BC2000009C2000007C2000005C2000088
:1000500003C2000001C20000FFC100006FC5000024
:10006000FBC10000FAC30000CFC30000F5C10000CF
:10007000F3C10000F1C10000EFC10000EDC10000BC
:10008000EBC10000E9C10000E7C10000E5C10000CC
:10009000E3C10000E1C10000DFC100000C9476095B
:1000A000DBC10000D9C10000D7C10000D5C10000EC
:1000B000D3C10000D1C10000CFC10000CDC10000FC
:1000C000CBC10000C9C10000C7C10000C5C100000C
:1000D000C3C10000C1C10000BFC10000BDC100001C
:1000E000BBC1000092049504840488048C04CC04F1
:1000F00099049D04A304A704AB04B104B504B90496
:10010000CC04BF04C304C7042B03F4204189003688
:10011000400A1D806010622C00082B03F4204189E6
:100120000036400A1D806010622C33082B03F42037
:1001300041890036400A1D806010622C22081B0392
:10014000416027520007400A1E806013A92C223A02
:100150001D03A1204EA50013400A1E806027522CCB
:1001600022481E03D0009D490045400A2080604E71
:10017000A52C22482B033402752507FF400A1B805B
:10018000609D492C220F020368013A9304D5400A6E
:100190001E806009D50C221F06034501D7DC076EBF
:1001A000400A2D80600EBF0C222E8A036001555537
:1001B00002AD400A50806020000C22C82B03A1E051
:1001C00010C70009400A1D806004322C2204270356
:1001D000A1E010C70006400A1D806004322C2207EF
:1001E0002B03F42041890036400A1D806010622CE8
:1001F00023081B03416027520007400A1E8060133A
:10020000A92C233A1D03A1204EA50013400A1E80ED
:100210006027522C23481E03D0009D490045400A08
:100220002080604EA52C23482B033402752507FF40
:10023000400A1B80609D492C230F020368013A93FA
:1002400004D5400A1E806009D50C231F0603450112
:10025000D7DC076E400A2D80600EBF0C232E8A0368
:100260006001555502AD400A50806020000C23C843
:10027000510368003A93013D2C1128806009D52C68
:100280002108C803392068DC006B2A082A80601323
:10029000A92C2108C8039C00D1B700D429042980C7
:1002A0006027522C2108B8039C00D1B700D42882C3
:1002B0002980604EA52C2108A8039C00D1B700D44A
:1002C00028412980609D492C210898039C00D1B7C2
:1002D00000D4282029806009D50C210898039600B5
:1002E000DA7400DC281F2980600A3D0C2108000018
:1002F0000A0B02090C0D0E080703040100000000A0
:1003000000000000000000000000000000000000ED
:1003100000000000000000000000121110000000AA
:1003200000000000000000000000000000000000CD
:100330000000000000002200250028002B002E00F5
:100340003100340002010000050108010B0100002A
:100350002100240027002A002D0030003300010175
:100360000000040107010A01050505050705080845
:100370000808020202020A0A08080404040401012F
:100380000101010101010303030303030303040744
:1003900007070C0C0C0C0C0C0C0C020202020606DB
:1003A0000606060606060B0B0B0B0B0B0B0B0102CE
:1003B0001020200808102040102040800201020177
:1003C000080402010102040810204080804020102F
:1003D0000804020180040201804020100804020188
:1003E00008040201010204081020408001020408F0
:1003F00010204080731111241FBECFEFD1E2DEBF69
:10040000CDBF00E00CBF14E0A0E0B2E0E8E6FAE205
:1004100000E00BBF02C007900D92AC32B107D9F7D4
:1004200028E0ACE2B4E001C01D92AA31B207E1F7C6
:1004300011E0CBEFD1E000E006C021970109802F49
:10044000FE010E94E812CA3FD10780E00807A9F721
:100450000E94320C0C943215D3CDFC01538D448D87
:10046000252F30E0842F90E0821B930B541710F05F
:10047000CF96089501970895FC01918D828D98176C
:1004800061F0828DDF01A80FB11D5D968C91928D78
:100490009F5F9F73928F90E008958FEF9FEF089575
:1004A000FC01918D828D981731F0828DE80FF11D3E
:1004B000858D90E008958FEF9FEF0895FC01918D59
:1004C000228D892F90E0805C9F4F821B91098F7352
:1004D000992708958DEE95E0F1DF21E0892B09F44D
:1004E00020E0822F0895FC01848DDF01A80FB11D4B
:1004F000A35ABF4F2C91848D90E001968F7399275A
:10050000848FA689B7892C93A089B1898C91806446
:100510008C93938D848D981306C00288F389E02D07
:1005200080818F7D80830895EF92FF920F931F93B8
:10053000CF93DF93EC0181E0888F9B8D8C8D981396
:1005400005C0E889F989808185FD23C0F62E0B8DD1
:1005500010E00F5F1F4F0F731127E02E8C8DE812F4
:100560000BC00FB607FCFACFE889F989808185FFB7
:10057000F5CFCE01B8DFF2CF8B8DFE01E80FF11D74
:10058000E35AFF4FF0820B8FEA89FB8980818062FA
:1005900007C0EE89FF896083E889F98980818064DA
:1005A000808381E090E0DF91CF911F910F91FF90C8
:1005B000EF900895CF93DF93EC01888D8823C1F0ED
:1005C000EA89FB89808185FD05C0A889B9898C915C
:1005D00086FD0EC00FB607FCF5CF808185FFF2CFF8
:1005E000A889B9898C9185FFEDCFCE017CDFE8CF5A
:1005F000DF91CF91089580E090E0892B19F06ADFB8
:10060000811125C080E090E0892B41F080E090E0EE
:10061000892B21F00E94000081111CC080E090E035
:10062000892B41F080E090E0892B21F00E940000AE
:10063000811113C080E090E0892BA1F080E090E070
:10064000892B81F00E94000081110AC008950E9448
:100650000000D8CF0E940000E1CF0E940000EACF46
:100660000C94000008953FB7F8948091E9059091AB
:10067000EA05A091EB05B091EC0526B5A89B05C055
:100680002F3F19F00196A11DB11D3FBFBA2FA92F11
:10069000982F8827820F911DA11DB11DBC01CD018E
:1006A00042E0660F771F881F991F4A95D1F708957A
:1006B0000895089508958CB5962F93708C7F892B9B
:1006C0008CBD9DB562FB882780F9692F6E7F682BF2
:1006D0006DBD08958CB5837F682B6CBD08958CB576
:1006E000611102C0806201C08F7D8CBD08959FB7EB
:1006F000F8948091E305882319F081508093E305F5
:100700008091E305811105C08CB58F7B8CBD109263
:10071000E2059FBF08958CB58F778CBD08958CB589
:1007200080688CBD08956EBD00000DB407FEFDCF3E
:100730008EB5089585ED8093BC008091BC0084FD4A
:10074000FCCF1092BC05089540919605262F30E00D
:10075000240F311D21323105DCF42091BC052430F9
:10076000C9F4FC0180E090E0861758F430919605BA
:100770002191DC01AC58BA4FA30FB11D2C93019607
:10078000F3CF80919605680F6093960580E00895F9
:1007900081E0089582E0089508958FEF9FEF089516
:1007A0008FEF9FEF08958091730590E0919581956B
:1007B00091090895CF93DF931F921F92CDB7DEB7B3
:1007C000CB01642F49835A83BFDF4981842F5A812B
:1007D000952F0F900F90DF91CF910895CF93DF93D6
:1007E0001F92CDB7DEB7698361E0CE010196ACDF21
:1007F00081E090E00F90DF91CF910895089580E01F
:1008000090E008950E9415151F920F920FB60F9257
:1008100011240BB60F922F933F934F935F936F93D7
:100820007F938F939F93AF93BF93EF93FF938DEE3F
:1008300095E059DEFF91EF91BF91AF919F918F911C
:100840007F916F915F914F913F912F910F900BBED0
:100850000F900FBE0F901F9018951F920F920FB61A
:100860000F9211240BB60F922F938F939F93EF93B8
:10087000FF93E091FD05F091FE058081E091030674
:10088000F091040682FD12C09081809106068F5F70
:100890008F7320910706821751F0E0910606F0E071
:1008A000E351FA4F958F8093060601C08081FF9136
:1008B000EF919F918F912F910F900BBE0F900FBED4
:1008C0000F901F901895362F90E0FC01E251FD4FDC
:1008D0004491FC01E255FC4F2491FC01E859FC4F86
:1008E0009491992309F46BC0442309F455C050E056
:1008F000FA013197E231F10508F04EC08827EE5831
:10090000FF4F8F4F0C94E812809180008F7707C0C3
:10091000809180008F7D03C080918000877F8093CD
:1009200080003AC084B58F7702C084B58F7D84BDC6
:1009300033C08091B0008F7703C08091B0008F7D6D
:100940008093B00029C0809190008F7707C080917C
:1009500090008F7D03C080919000877F80939000EE
:100960001BC08091A0008F7707C08091A0008F7D71
:1009700003C08091A000877F8093A0000DC080916C
:1009800020018F7707C0809120018F7D03C0809167
:100990002001877F80932001E92FF0E0EE0FFF1FF9
:1009A000EC5CFC4FA591B4918FB7F894EC913111A8
:1009B00003C020952E2301C02E2B2C938FBF0895AA
:1009C000CF92DF92EF92FF920F931F93CF93DF931B
:1009D0001F921F92CDB7DEB78C01D62EF42EEFB644
:1009E000F89460E0DC0116968C9129835A836BDFC2
:1009F000F80182819381DC01ED91FC916D2D6F777F
:100A00000190F081E02D1995CF2C5A81D52E2981A6
:100A1000F20EFC1479F0F80182819381DC01ED91F2
:100A2000FC910190F081E02D60E01995F601819331
:100A30006F01EFCF61E0D80116968C9144DFEFBED5
:100A40000F900F90DF91CF911F910F91FF90EF903A
:100A5000DF90CF900895CF93CFB7F8948091E305BE
:100A6000811120C0EDE9F3E08491E3EEF3E094918D
:100A7000E82FF0E0EE0FFF1FE25BFC4FA591B49171
:100A8000EC91E92319F461E085E31DDF85E3A7D547
:100A90008CB580618CBD8CB580648CBD84E39FD5A2
:100AA00083E39DD58091E3058F5F8093E305CFBFFE
:100AB000CF9108958F929F92AF92BF92CF92DF9283
:100AC000EF92FF926B017C01CEDD4B015C01C11402
:100AD000D104E104F104E9F0C6DDDC01CB018819A1
:100AE0009909AA09BB09883E9340A105B10578F38D
:100AF00021E0C21AD108E108F10888EE880E83E0EF
:100B0000981EA11CB11CC114D104E104F10421F709
:100B1000DECFFF90EF90DF90CF90BF90AF909F908F
:100B20008F9008952FB7F8946091E5057091E605D0
:100B30008091E7059091E8052FBF08951F920F92CD
:100B40000FB60F9211242F933F938F939F93AF93E0
:100B5000BF938091E5059091E605A091E705B091DE
:100B6000E8053091E40523E0230F2D3720F40196AA
:100B7000A11DB11D05C026E8230F0296A11DB11DC0
:100B80002093E4058093E5059093E605A093E7059F
:100B9000B093E8058091E9059091EA05A091EB05F5
:100BA000B091EC050196A11DB11D8093E9059093CC
:100BB000EA05A093EB05B093EC05BF91AF919F912F
:100BC0008F913F912F910F900FBE0F901F9018950E
:100BD0001F920F920FB60F9211240BB60F922F9304
:100BE0003F934F935F936F937F938F939F93AF93B5
:100BF000BF93EF93FF93E0910E02F0910F021995CE
:100C0000FF91EF91BF91AF919F918F917F916F91E4
:100C10005F914F913F912F910F900BBE0F900FBEA0
:100C20000F901F9018951F920F920FB60F921124DC
:100C30000BB60F922F933F934F935F936F937F93D6
:100C40008F939F93AF93BF93EF93FF93E0910C0229
:100C5000F0910D021995FF91EF91BF91AF919F9186
:100C60008F917F916F915F914F913F912F910F9055
:100C70000BBE0F900FBE0F901F9018951F920F92F2
:100C80000FB60F9211240BB60F922F933F934F93F1
:100C90005F936F937F938F939F93AF93BF93EF93E4
:100CA000FF93E0910202F09103021995FF91EF91F9
:100CB000BF91AF919F918F917F916F915F914F9174
:100CC0003F912F910F900BBE0F900FBE0F901F9072
:100CD00018951F920F920FB60F9211240BB60F9218
:100CE0002F933F934F935F936F937F938F939F9334
:100CF000AF93BF93EF93FF93E0910002F091010255
:100D00001995FF91EF91BF91AF919F918F917F9135
:100D10006F915F914F913F912F910F900BBE0F906C
:100D20000FBE0F901F9018951F920F920FB60F9243
:100D300011240BB60F922F933F934F935F936F93B2
:100D40007F938F939F93AF93BF93EF93FF93E09124
:100D50000A02F0910B021995FF91EF91BF91AF91AB
:100D60009F918F917F916F915F914F913F912F91C3
:100D70000F900BBE0F900FBE0F901F9018951F92F3
:100D80000F920FB60F9211240BB60F922F933F9331
:100D90004F935F936F937F938F939F93AF93BF9383
:100DA000EF93FF93E0910802F09109021995FF91EA
:100DB000EF91BF91AF919F918F917F916F915F91D3
:100DC0004F913F912F910F900BBE0F900FBE0F9040
:100DD0001F9018951F920F920FB60F9211240BB609
:100DE0000F922F933F934F935F936F937F938F93C4
:100DF0009F93AF93BF93EF93FF93E0910602F0911F
:100E000007021995FF91EF91BF91AF919F918F913B
:100E10007F916F915F914F913F912F910F900BBEFA
:100E20000F900FBE0F901F9018951F920F920FB644
:100E30000F9211240BB60F922F933F934F935F9312
:100E40006F937F938F939F93AF93BF93EF93FF9392
:100E5000E0910402F09105021995FF91EF91BF9185
:100E6000AF919F918F917F916F915F914F913F9142
:100E70002F910F900BBE0F900FBE0F901F901895E3
:100E80002FB7F894FC011386E059FF4F10822FBF53
:100E90000895CF92DF92EF92FF920F931F93CF931B
:100EA000DF931F921F92CDB7DEB78C01D62EF42EA2
:100EB000EFB6F89460E0DC0116968C9129835A8392
:100EC00002DDF80182819381DC01ED91FC916D2DB1
:100ED00060680190F081E02D1995CF2C5A81D52EB4
:100EE0002981F20EFC1471F0F80182819381D60100
:100EF0006D916D01DC01ED91FC910190F081E02D8F
:100F00001995F0CF61E0F8018681DDDCEFBE0F902E
:100F10000F90DF91CF911F910F91FF90EF90DF9095
:100F2000CF9008950F931F93CF93FC01C3858C013D
:100F30000F581F4FF8012081C21BCC3308F0CBE3C0
:100F4000F801408150E0445F5F4F480F591F2C2F3C
:100F50006FE79FDFF8018081C80FC083CF911F9199
:100F60000F910895EF92FF920F931F93CF93DF930A
:100F70001F92CDB7DEB77C01162F0FB7F89460E053
:100F8000DC0116968C9149839EDCF7018281938166
:100F9000DC01ED91FC91612F60680190F081E02D02
:100FA0001995F70182819381DC01ED91FC9101900B
:100FB000F081E02D4981642F199561E0F701868168
:100FC00082DC0FBF0F90DF91CF911F910F91FF90A7
:100FD000EF900895CF93DF93EC014D81446067E07B
:100FE000C1DF81E08C83DF91CF910895CF93DF93B0
:100FF000EC0142E068E0B6DF40E068E0CE01DF915E
:10100000CF91B0CFCF93DF93EC01FC01EF58FF4FAE
:1010100090818B85981710F4CE0184DF4B856EE3A9
:10102000CE01A0DF8C81823059F04D81486067E0AD
:10103000CE0198DF82E08C83CE01DF91CF91D6CFB5
:10104000DF91CF9108950F931F93CF93DF938C017E
:10105000EB0148816CE186DF49816FE1C80182DFE5
:10106000AE014E5F5F4F26E060E2C80112DFAE01C5
:10107000485F5F4F23E06CE2C8010BDF4B8568E5FA
:10108000C80170DF4C8569E6C8016CDFAE01435FC3
:101090005F4F25E06EE6C801DF91CF911F910F9160
:1010A000F8CE0F931F93CF93DF93EC01162F0FB75A
:1010B000F89460E08E8107DC8A819B81DC01ED91F0
:1010C000FC91612F6F770190F081E02D19958A8155
:1010D0009B81DC01ED91FC910190F081E02D60E0BD
:1010E0001995182F61E08E81EEDB0FBF812FDF9104
:1010F000CF911F910F910895FF920F931F93CF935C
:10110000DF931F921F92CDB7DEB78C0122E0AE01B4
:101110004F5F5F4F63E054DC898187FF1DC043E070
:1011200068E0C8011FDF40E068E0C8011BDFD801AC
:1011300014968C911497823049F414961C92F801FD
:10114000EF58FF4F1082C8015DDF06C0F8018481AF
:10115000813011F4C80194DE898185FF0BC0F8014C
:10116000EF58FF4F9081D8011B968C91981710F47F
:10117000C801D8DE898184FF18C0F801838590E01A
:10118000C7968536910588F4438550E0445F5F4FEC
:10119000400F511F27E36FE7C80112DCD8011B96EF
:1011A0008C911B97895C1B968C93898183FF08C067
:1011B000D801ED91FC910190F081E02DC8011995C5
:1011C0008A8183FF08C0D801ED91FC910280F381F0
:1011D000E02DC8011995298122FF0AC0F801EA58BB
:1011E000FF4F80819181019691838083F801148261
:1011F00021FF2CC06BE4C80154DFF82EF4E6F81789
:1012000008F447C0D8011B968C91F81608F441C029
:10121000F801838543852F2D281B50E0445F5F4FE5
:10122000400F511F6FE7C801CBDBF801EC58FF4FAF
:1012300080819181019691838083D8011B96FC92D5
:101240001B9714961C9281E034978083898180FFDC
:1012500013C0F801EE58FF4F808191810196918370
:101260008083C8010DDEC801C1DEF80114828481CB
:10127000813011F0C801AEDE8A8186FF17C066E2B8
:10128000C8010FDFF801E858FF4F8083C801AEDEC8
:101290000BC0F801EE58FF4F808191810196918338
:1012A0008083D80114961C92C801EADD0F900F903C
:1012B000DF91CF911F910F91FF900895809130049D
:1012C00090913104009709F017CF089580912E0472
:1012D00090912F04009709F00FCF089580912C046E
:1012E00090912D04009709F007CF08951F920F9257
:1012F0000FB60F9211240BB60F922F933F934F937B
:101300005F936F937F938F939F93AF93BF93EF936D
:10131000FF938091B900887F803609F49CC068F5FE
:10132000883209F45BC090F4803109F454C038F479
:10133000882309F4F6C0883009F44DC0F5C088311F
:1013400009F44CC0803209F45DC0EEC0803409F469
:1013500068C048F4803309F455C0883309F0E4C00C
:101360008093BB05D8C0803509F44FC0883509F497
:101370005DC0883409F0D8C0D6C0883909F4C7C028
:10138000A8F4883709F467C038F4883609F463C0D4
:10139000803709F460C0C8C0883809F4B8C0803903
:1013A00009F45FC0803809F0BFC05BC0803B09F41E
:1013B00086C038F4803A09F466C0883A09F47FC0E0
:1013C000B3C0803C09F4A7C0883C09F4A4C0883BA2
:1013D00009F48AC0A9C08091E10510C09091E00590
:1013E0008091DF05981770F5E091E00581E08E0FA0
:1013F0008093E005F0E0E154FA4F80818093BB00D8
:1014000085EC86C08093BB058EC0E091E00581E04D
:101410008E0F8093E0058091BB00F0E0E154FA4F1D
:1014200080839091E0058091DF056EC0E091E0053A
:1014300081E08E0F8093E0058091BB00F0E0E154E5
:10144000FA4F80838091BE0581116DC081E0809349
:10145000BD0584EA61C083E08093BC051092BA05A3
:10146000CFCF8091BA05803208F051C0E091BA0523
:1014700081E08E0F8093BA058091BB00F0E0E656C4
:10148000FA4F8083BDCF85EC8093BC001092BC05E1
:101490008091BA05803230F4E091BA05F0E0E6566A
:1014A000FA4F10826091BA0570E0E0919805F091D2
:1014B00099058AE995E019951092BA0535C084E03E
:1014C0008093BC051092970510929605E0919405C3
:1014D000F0919505199580919605811105C081E0DF
:1014E0008093960510927405E091970581E08E0F28
:1014F00080939705F0E0EC58FA4F80818093BB0011
:101500009091970580919605981708F479CF85E812
:101510008093BC0009C085EC8093BC001092BC0590
:1015200003C01092BB0506D9FF91EF91BF91AF9117
:101530009F918F917F916F915F914F913F912F91EB
:101540000F900BBE0F900FBE0F901F901895CF926B
:10155000DF92EF92FF920F931F93CF93DF936C0173
:101560007A018B01C0E0D0E0CE15DF0589F0D8010B
:101570006D918D01D601ED91FC910190F081E02DEE
:10158000C6011995892B11F47E0102C02196ECCF7A
:10159000C701DF91CF911F910F91FF90EF90DF90E6
:1015A000CF900895009761F0FC0101900020E9F7C9
:1015B0003197AF01481B590BBC018DEE95E0C7CFA9
:1015C00080E090E00895CF93DF93ECDFEC0180EFB3
:1015D00092E0E8DF8C0F9D1FDF91CF91089590E09E
:1015E000FC01E255FC4F2491FC01E859FC4F849129
:1015F000882399F090E0880F991FFC01E25BFC4F73
:10160000A591B491FC01EC5CFC4F859194918FB74E
:10161000F894EC91E22BEC938FBF0895C3CF8F9297
:101620009F92AF92BF920F931F93CF93DF93CDB74B
:10163000DEB7A1970FB6F894DEBF0FBECDBF19A2DB
:10164000423008F44AE08E010F5D1F4F842E912C2A
:10165000A12CB12CA501940177D7E62FB901CA01BD
:1016600001501109EA3014F4E05D01C0E95CD801D1
:10167000EC93232B242B252B69F7C80193DFA1962C
:101680000FB6F894DEBF0FBECDBFDF91CF911F9193
:101690000F91BF90AF909F908F900895CF92DF925F
:1016A000EF92FF92CF93DF936B017C01E091ED0508
:1016B000F091EE050190F081E02D6DE28DEE95E068
:1016C0001995EC0166277727CB016C197D098E09E6
:1016D0009F094AE0A4DF8C0F9D1FDF91CF91FF90FF
:1016E000EF90DF90CF900895CF93DF93BC01990FD7
:1016F000880B990B97FF02C0D1DF02C04AE08FDF51
:10170000EC0180EF92E04EDF8C0F9D1FDF91CF91B7
:1017100008951F93CF93DF9320918E062230E1F33B
:10172000DFB7F8942FB7F894109295061092FB0645
:101730002FBF662309F120919506462F50E0FA014C
:10174000E20FF11DE536F105B8F4C62FBC011FB755
:10175000F89490919506892F90E08A56994F0E94AF
:101760001915609195066C0F609395061FBF8AE866
:1017700096E048DC81E001C080E0DFBFDF91CF91DF
:101780001F9108951F93CF93DF931F92CDB7DEB7BC
:10179000162F482F6CE38AE896E0E4DB40E86DE31F
:1017A0008AE896E0DFDB81E28983412F6AE38AE8F9
:1017B00096E0D8DB61E0CE010196ABDF80918E062A
:1017C0008230E1F30F90DF91CF911F910895EF9256
:1017D000FF920F931F93CF93DF93EC01198218822E
:1017E0001B821A821D821C8261157105A1F17B0189
:1017F000FB0101900020E9F731978F01061B170BC1
:10180000B8016F5F7F4F80E090E00E943114009735
:1018100059F0998388831B830A832C813D81232B74
:1018200079F4FC0110820CC088819981009709F03D
:1018300080D7198218821D821C821B821A820BC0DB
:101840001D830C83B701DF91CF911F910F91FF9002
:10185000EF900C942B15DF91CF911F910F91FF907A
:10186000EF900895CF93DF93CDB7DEB7A0970FB673
:10187000F894DEBF0FBECDBF789484B5826084BD7E
:1018800084B5816084BD85B5826085BD85B5816084
:1018900085BD80916E00816080936E001092810002
:1018A00080918100826080938100809181008160BD
:1018B000809381008091800081608093800080917E
:1018C000B10084608093B1008091B000816080930A
:1018D000B00080919100826080939100809191008E
:1018E000816080939100809190008160809390004E
:1018F0008091A10082608093A1008091A10081600D
:101900008093A1008091A00081608093A0008091CD
:101910002101826080932101809121018160809367
:1019200021018091200181608093200180917A00C3
:10193000846080937A0080917A00826080937A003C
:1019400080917A00816080937A0080917A0080682B
:1019500080937A001092C100E091FD05F091FE05A0
:1019600082E08083E091F905F091FA051082E09120
:10197000FB05F091FC0580E1808310920506E09163
:101980000106F091020686E08083E091FF05F09168
:101990000006808180618083E091FF05F091000660
:1019A000808188608083E091FF05F091000680814E
:1019B00080688083E091FF05F091000680818F7D33
:1019C000808368E873E180E090E074D885E307DE07
:1019D00089E005DE86E003DE84E001DE8BE0FFDDEA
:1019E00086EA92E01BDE60E084E00E94630460E02F
:1019F00085E30E94630461E086E00E94630461E085
:101A000089E00E94630461E08BE00E94630484E04B
:101A1000E6DD60E084E00E94630464E670E080E05C
:101A200090E048D860E170E080E090E043D80AE8B8
:101A300016E080919006D3DD61E0809190060E94CF
:101A4000630480918C0690918D06DC01ED91FC91F0
:101A50000680F781E02D199580918C0690918D0676
:101A6000DC01ED91FC910484F585E02D60E0199591
:101A700080918C0690918D06DC01ED91FC910284A1
:101A8000F385E02D61E0199580918C0690918D068B
:101A9000DC01ED91FC910684F785E02D61E019955C
:101AA00064E670E080E090E005D840E867E0C801B7
:101AB00059DA61E070E080E090E00E945A0560E051
:101AC000C801EFDA809392068750823020F089ECCB
:101AD00092E079DDA7CF80919106811112C0109319
:101AE0002D0400932C048EE699E0909301028093DC
:101AF000000280916A008C7F826080936A00EC9A79
:101B000027C0813091F410932F0400932E0486E6B1
:101B100099E0909303028093020280916A00837F90
:101B2000886080936A00ED9A13C0823081F610932A
:101B30003104009330048EE599E090930502809380
:101B40000402809169008C7F826080936900E89A2A
:101B50008FB7F894109295061092FB068FBF8AE813
:101B600096E08ED944E06DE78AE896E0FBD947E33A
:101B70006EE78AE896E0F6D94091930643704C6888
:101B800060E38AE896E0EED948E862E38AE896E006
:101B9000E9D942E463E38AE896E0E4D948E064E303
:101BA0008AE896E0DFD98DE28B8B84ED8C8B22E086
:101BB000AE014D5E5F4F66E38AE896E06AD94FEF6B
:101BC00063E48AE896E0CED940E06FE38AE896E0E5
:101BD000C9D940E06AE38AE896E0C4D940E06BE303
:101BE0008AE896E0BFD940E06CE38AE896E0BAD98B
:101BF00040E06DE38AE896E0B5D942E16BE08AE81F
:101C000096E0B0D945E16CE08AE896E0ABD947EBC5
:101C100065E08AE896E0A6D940E466E08AE896E0C6
:101C2000A1D940E063E78AE896E09CD940E064E708
:101C30008AE896E097D943E565E78AE896E092D985
:101C400044E666E78AE896E08DD940E067E78AE8EF
:101C500096E088D940E56AE28AE896E083D962E0B6
:101C60008AE896E01EDA42E150E06EE371E0CE01D0
:101C70000196F8D3BE016F5F7F4F8AE896E0E3D903
:101C800043E06DE68AE896E06DD9409103076FE383
:101C90008AE896E067D9409103076BE38AE896E00B
:101CA00061D98AED92E08FDC47E06DE68AE896E044
:101CB00059D981E08093090782E390E09093080767
:101CC00080930707EEE3F4E0FD8FEC8F1192119201
:101CD00025E0E630F207D1F71092720510927105F7
:101CE0001092700510926F0510926E0510926D059E
:101CF00010926C0510926B0542E150E066E871E0CD
:101D0000CE010196AFD3BE016F5F7F4F8AE896E0A8
:101D10009AD9C12CD12C612C712C3AE0E32EF12CF4
:101D200020916B0530916C0524363105E4F0C90132
:101D3000B7013BD440E3480F4B8FD901A81BB90B27
:101D4000CD01B70132D49B01CB01B7012ED4B0E352
:101D5000B80FBA8FF901E81BF90BCF01B70125D4F1
:101D6000605D698F1BC02A3031058CF0C901B70155
:101D70001CD4F0E3F80FFB8FA901481B590BCA01D3
:101D8000B70113D4605D6A8F50E3598F07C080E3B9
:101D9000820F8B8F90E39A8FA0E3A98F80E38093CB
:101DA0002D02B98DB0932E02EA8DE0932F02FB8DA8
:101DB000F093300280916F05909170050196909399
:101DC000700580936F058DE292E028DC8CEE92E046
:101DD00025DC4AE06DE270E080E090E020DC80EFFE
:101DE00092E0E0DB109106071F5F1093060720E0EA
:101DF00041E0420F4E8F80910907821708F4B2C06C
:101E0000A0900707B090080721D320E031E040E020
:101E100050E06ED39B01AC01D50186D320E031E0C8
:101E200040E050E065D3A20EB31E412F6CE38AE878
:101E300096E098D840E06DE38AE896E093D841E0D8
:101E40006AE38AE896E08ED86DE28DE292E061DC8A
:101E50000E9492051B012C014501A12CB12C0E946E
:101E60009205DC01CB0182199309A409B5098815F3
:101E70009905AA05BB0520F480918E06823079F37E
:101E80002E8D223048F0809104079091050701962D
:101E900090930507809304070E9492051B012C0173
:101EA0000E9492052E8DDC01CB0182199309A409B1
:101EB000B50988159905AA05BB0508F099CF809149
:101EC000FA06811107C080918E06813019F08AE8E8
:101ED00096E080D88091FA06882311F38AE896E08C
:101EE0000E94400768E48AE896E0DBD8282F67E480
:101EF0008AE896E028A3D5D8382F69E48AE896E0E6
:101F00003F8FCFD8082F6AE48AE896E0CAD828A184
:101F10003F8D213041F490910307391304C087FFAE
:101F200002C0011769F087FDBBCFE22FF0E0E65F4A
:101F3000F84F80810813B4CF622F802F23DCB0CFFD
:101F4000809171059091720501969093720580932E
:101F5000710503970CF47BC183EF92E034DB00E062
:101F600010E0D6C00E9492054B015C010E949205D0
:101F7000DC01CB0188199909AA09BB09C297A105FF
:101F8000B10508F064C18091FA06882309F469C19B
:101F90008091FA06882351F38091FA06882309F488
:101FA0006AC18091FA06882309F31FB7F8948091DB
:101FB000950690912C02891720F4809195068093C4
:101FC0002C0240912C0250E066E976E087E095E033
:101FD00030D58AE896E00E9440071FBF68E48AE88F
:101FE00096E05FD8082F67E48AE896E05AD8582E22
:101FF00069E48AE896E055D8182F6AE48AE896E002
:1020000050D887FDB3CF5FEF551619F0602F812FA1
:10201000B9DBE02FF0E0E65FF84F8081181709F494
:10202000A5CF00930605108367E075E0CE014396C7
:10203000CEDB80E380931002998D90931102AA8DDC
:10204000A0931202BB8DB093130260E172E0CE0147
:102050000196BDDB2F89388D8D819E812817390728
:1020600009F02CC18B899C8969817A81009709F0DC
:102070000CC16115710509F00CC1009709F013C17D
:1020800080916B0590916C05019690936C058093FF
:102090006B0520910207620E711C883E93400CF480
:1020A00019C180E193E08FDA8DEE95E00E943C0249
:1020B00083369105C9F7AA24A394B12C01E010E05E
:1020C00080916B0590916C05B7016FD2892B79F4E3
:1020D000F601EE0FFF1FE25CFB4FC301B70165D2B3
:1020E00071836083EFEFCE1ADE0A612C712C898137
:1020F0009A811FD38B899C891CD38DEE95E00E9419
:102100003C028336910509F4EBC0AB2809F4A4C066
:102110008DEE95E00E943C028336910519F0012B6B
:1021200009F4FECD8AE393E079DA81E090E0DCDA2D
:1021300000916B0510916C0560916F0570917005B1
:10214000C80133D2CB0124E6289FB001299F700D2E
:102150001124072E000C880B990B8FD160933A0441
:1021600070933B0480933C0490933D04B801110F9D
:10217000880B990B82D16093360470933704809357
:102180003804909339046091710570917205072E9F
:10219000000C880B990B71D1609332047093330457
:1021A00080933404909335048AE493E037DA81E035
:1021B00090E09ADA84E593E031DA80916F059091AE
:1021C000700592DA82E893E029DA809171059091A6
:1021D00072058ADA83EB93E021DA80916B059091A6
:1021E0006C0582DA8AEE93E019DA80916D059091A0
:1021F0006E057ADA88E194E011DA0EE314E0D80192
:102200006D917D918D01072E000C880B990B97FD28
:102210000FC04AE004DA81EB93E000DAB5E0043065
:102220001B0769F780910405909105055DDA02C0EE
:1022300035DAF1CFEC8DFD8D11921192FD8FEC8F7F
:10224000E650F540B9F787EC92E0BDD9FFCFA12C5D
:10225000B12C00E010E051CF0115110509F4AACD11
:1022600057CF80918E06813009F492CE8AE896E0AD
:102270000E94EA078DCE80918E06813009F491CEBE
:102280008AE896E00E94EA078CCE6115710591F408
:10229000F0CE232B09F4F4CEFB01808190E09195E0
:1022A0008195910908C0232B09F4EACEDC018C91B9
:1022B00090E001C0C7D3892B09F4E2CE80916D056F
:1022C00090916E05019690936E0580936D05A12CFB
:1022D000B12C03C0AA24A394B12C00E010E0F0CEEE
:1022E00001E010E015CFEDEEF5E01382128288EEEA
:1022F00093E0A0E0B0E084839583A683B7832EE7C4
:1023000032E03183208325EC30E03587248724ECCC
:1023100030E03787268720EC30E0318B208B21ECB2
:1023200030E0338B228B22EC30E0358B248B26EC93
:1023300030E0378B268B118E128E138E148EEAE0CE
:10234000F8E01382128284839583A683B78380E9A1
:1023500092E091838083EAE8F6E085E38683178242
:1023600081E0858314821092FF061092FE0610927F
:10237000FD061092FC0610920107109200078AE5F4
:1023800092E09383828381E090E09287818710922C
:10239000030782EA92E091838083109205071092EE
:1023A00004071092060788EC90E09093080780934A
:1023B000070783E08093090708958F929F92AF9259
:1023C000BF92CF92DF92EF92FF92CF93DF93EC0117
:1023D000688179818A819B816115710581059105EB
:1023E00021F464E279ED8BE597E02DE133EF41E0F4
:1023F00050E07ED049015A019B01AC01A7EAB1E44B
:1024000093D06B017C01ACEEB4EFA501940198D0A0
:10241000DC01CB018C0D9D1DAE1DBF1DB7FF03C0A0
:102420000197A109B04888839983AA83BB83BC0123
:10243000CD019F77DF91CF91FF90EF90DF90CF900C
:10244000BF90AF909F908F900895B7CF8CE592E0AA
:10245000B4CF60935C0270935D0280935E029093B0
:102460005F020895FB01DC0102C005900D9241500E
:102470005040D8F70895E89409C097FB3EF4909532
:102480008095709561957F4F8F4F9F4F9923A9F04D
:10249000F92F96E9BB279395F695879577956795DC
:1024A000B795F111F8CFFAF4BB0F11F460FF1BC020
:1024B0006F5F7F4F8F4F9F4F16C0882311F096E9B3
:1024C00011C0772321F09EE8872F762F05C0662361
:1024D00071F096E8862F70E060E02AF09A95660F1A
:1024E000771F881FDAF7880F9695879597F90895D3
:1024F000052E97FB16F400940FD057FD05D024D07D
:1025000007FC02D046F408C05095409530952195BF
:102510003F4F4F4F5F4F089590958095709561950F
:102520007F4F8F4F9F4F089531D0A59F900DB49F3F
:10253000900DA49F800D911D11240895B7FFF4CF35
:10254000F3DF821B930B0895A1E21A2EAA1BBB1B7B
:10255000FD010DC0AA1FBB1FEE1FFF1FA217B3076F
:10256000E407F50720F0A21BB30BE40BF50B661F85
:10257000771F881F991F1A9469F760957095809549
:1025800090959B01AC01BD01CF010895A29FB001C0
:10259000B39FC001A39F700D811D1124911DB29F97
:1025A000700D811D1124911D089597FB072E16F4BF
:1025B000009406D077FD08D013D007FC05D03EF478
:1025C000909581959F4F0895709561957F4F0895DF
:1025D000EE0FFF1F881F8BBF0790F691E02D199417
:1025E000AA1BBB1B51E107C0AA1FBB1FA617B70739
:1025F00010F0A61BB70B881F991F5A95A9F7809555
:102600009095BC01CD010895CF93DF938230910561
:1026100010F482E090E0E0911808F091190820E0B1
:1026200030E0C0E0D0E0309711F14081518148178F
:102630005907C0F04817590761F4828193812097A8
:1026400019F09B838A832BC09093190880931808F4
:1026500026C02115310519F04217530718F49A01C5
:10266000BE01DF01EF010280F381E02DDCCF2115F7
:10267000310509F1281B390B2430310590F41296ED
:102680008D919C9113976115710521F0FB01938346
:10269000828304C09093190880931808FD01329634
:1026A00044C0FD01E20FF31F819391932250310941
:1026B0002D933C933AC02091160830911708232B94
:1026C00041F4209162023091630230931708209305
:1026D000160820916002309161022115310541F404
:1026E0002DB73EB74091640250916502241B350B13
:1026F000E0911608F0911708E217F307A0F42E1BDB
:102700003F0B2817390778F0AC014E5F5F4F241755
:10271000350748F04E0F5F1F509317084093160877
:102720008193919302C0E0E0F0E0CF01DF91CF917F
:1027300008950F931F93CF93DF93009709F48CC0F4
:10274000FC01329713821282009118081091190827
:102750000115110581F420813181820F931F209191
:102760001608309117082817390779F5F0931708DC
:10277000E093160871C0D80140E050E0AE17BF07E3
:1027800050F412962D913C911397AD01211531050E
:1027900009F1D901F3CF9D01DA01338322836081EE
:1027A0007181860F971F8217930769F4EC012881C6
:1027B0003981260F371F2E5F3F4F318320838A8157
:1027C0009B8193838283452B29F4F0931908E0932E
:1027D000180842C01396FC93EE931297ED014991AD
:1027E00059919E01240F351FE217F30771F4808180
:1027F0009181840F951F029611969C938E938281EE
:10280000938113969C938E931297E0E0F0E0D801A9
:1028100012968D919C911397009719F0F8018C01F5
:10282000F6CF8D919C9198012E5F3F4F820F931FA1
:1028300020911608309117082817390769F4309746
:1028400029F4109219081092180802C013821282FB
:102850001093170800931608DF91CF911F910F91E5
:1028600008956F927F928F929F92AF92BF92CF9274
:10287000DF92EF92FF920F931F93CF93DF93EC01C0
:10288000009781F4CB01DF91CF911F910F91FF90C1
:10289000EF90DF90CF90BF90AF909F908F907F9000
:1028A0006F90B2CEFC01E60FF71F9C012250310958
:1028B000E217F30708F4A8C0D9010D911C911197F4
:1028C00006171707A8F00530110508F49BC0C801CA
:1028D00004978617970708F495C002501109061B44
:1028E000170B019311936D937C93CF0122DF8AC064
:1028F0005B01A01AB10A4C01800E911EA09118082C
:10290000B091190840E050E0E12CF12C109709F447
:102910004AC0A815B905D1F56D907C901197630157
:1029200082E0C80ED11CCA14DB0480F1A3014A194D
:102930005B096A0182E0C80ED11C1296BC90129706
:102940001396AC91B5E0CB16D10440F0B282A383CC
:1029500051834083D9016D937C930AC00E5F1F4F52
:10296000C301800F911FF90191838083EB2DFA2F12
:10297000E114F10431F0D7011396FC93EE93129712
:1029800041C0F0931908E09318083CC08D919C91C8
:1029900011974817590708F4AC017D0112960D9064
:1029A000BC91A02DB3CF809116089091170888157F
:1029B0009905E1F446175707C8F480916002909199
:1029C0006102009741F48DB79EB740916402509127
:1029D0006502841B950BE817F907B0F4F09317080C
:1029E000E0931608F901718360830CC0CB010CDE03
:1029F0007C01009749F0A801BE011BD0CE0199DEF1
:102A0000C70104C0CE0102C080E090E0DF91CF9109
:102A10001F910F91FF90EF90DF90CF90BF90AF90FC
:102A20009F908F907F906F90089581E090E0F89450
:102A300019C0FB01DC0102C001900D9241505040D1
:102A4000D8F70895FB01DC018D91019080190110E8
:102A5000D9F3990B0895FB01DC0101900D92002040
:082A6000E1F70895F894FFCF9F
:102A68005803580358035803580358035803580386
:102A7800303030303A20416E642068656C6C6F20CD
:102A88006261636B20746F20796F75006430303039
:102A9800303A2048656C6C6F20576F726C642E203A
:102AA80048454C4C4F20574F524C442E2048454CDB
:102AB8004C4F20574F524C4421006A02010000003D
:102AC80000001A0880000000000093038F038B03A6
:102AD8002B0577036F036A035B0300000000940271
:102AE800A70A2D02DA025E023C0250020000000032
:102AF800EE03DA03FF03CC03D303D003CD030000B6
:102B080000005A0359032A2A2A2A2A536574746929
:102B18006E6720436869702053656C656374732021
:102B28004C4F572A2A2A2A2A007266323220696EA6
:102B38006974206661696C65640072663232206966
:102B48006E6974207375636365737300207C20005D
:102B58000D0A0070726F6772657373696E6720740F
:102B68006F20746865206E657874206E6F646500E8
:102B780077616974696E6720746F20636F6E74691A
:102B88006E756520746F206E657874206D6F64753E
:102B98006C6174696F6E2E2E2E00466F72206D6FF9
:102BA80064756C6174696F6E2000466F72206E6F79
:102BB8006465200054686520746F74616C206E75BC
:102BC8006D626572206F6620617474656D707465DE
:102BD80064207472616E736D697373696F6E733A92
:102BE8002000546865206E756D626572206F6620DE
:102BF8006661696C6564207472616E736D69737364
:102C0800696F6E7320776974686F75742061636B80
:102C18003A2000546865206E756D626572206F6693
:102C28002073756365737366756C20726563657070
:102C380074696F6E7320616E64207472616E736D57
:102C4800697373696F6E733A2000546865206E75F6
:102C58006D626572206F6620696E636F727265635C
:102C6800746C79207265636965766564206D657337
:102C780073616765733A20005468652072737369DD
:0C2C88002061766572616765733A200078
:020000023000CC
:10E000000D9489F10D94B2F10D94B2F10D94B2F129
:10E010000D94B2F10D94B2F10D94B2F10D94B2F1F0
:10E020000D94B2F10D94B2F10D94B2F10D94B2F1E0
:10E030000D94B2F10D94B2F10D94B2F10D94B2F1D0
:10E040000D94B2F10D94B2F10D94B2F10D94B2F1C0
:10E050000D94B2F10D94B2F10D94B2F10D94B2F1B0
:10E060000D94B2F10D94B2F10D94B2F10D94B2F1A0
:10E070000D94B2F10D94B2F10D94B2F10D94B2F190
:10E080000D94B2F10D94B2F10D94B2F10D94B2F180
:10E090000D94B2F10D94B2F10D94B2F10D94B2F170
:10E0A0000D94B2F10D94B2F10D94B2F10D94B2F160
:10E0B0000D94B2F10D94B2F10D94B2F10D94B2F150
:10E0C0000D94B2F10D94B2F10D94B2F10D94B2F140
:10E0D0000D94B2F10D94B2F10D94B2F10D94B2F130
:10E0E0000D94B2F141546D656761323536300041AF
:10E0F000726475696E6F206578706C6F72657220DE
:10E1000073746B3530305632206279204D4C530099
:10E11000426F6F746C6F616465723E004875683F52
:10E1200000436F6D70696C6564206F6E203D200048
:10E130004350552054797065202020203D20005FF9
:10E140005F4156525F415243485F5F3D2000415658
:10E1500052204C696243205665723D20004743437C
:10E160002056657273696F6E203D20004350552024
:10E1700049442020202020203D20004C6F7720663D
:10E18000757365202020203D20004869676820665F
:10E190007573652020203D200045787420667573D6
:10E1A00065202020203D20004C6F636B2066757336
:10E1B000652020203D20004D617220203720323024
:10E1C000313300312E362E3800342E332E350056A2
:10E1D00023202020414444522020206F7020636F70
:10E1E00064652020202020696E73747275637469E1
:10E1F0006F6E2061646472202020496E74657272B3
:10E20000757074006E6F20766563746F7200726A49
:10E210006D702020006A6D70200057686174207056
:10E220006F72743A00506F7274206E6F7420737541
:10E2300070706F72746564004D7573742062652030
:10E2400061206C6574746572002000577269747483
:10E25000696E672045450052656164696E672045B7
:10E26000450045452065727220636E743D00504F35
:10E27000525400303D5A65726F2061646472003FF1
:10E280003D43505520737461747300403D454550C3
:10E29000524F4D207465737400423D426C696E6B41
:10E2A000204C454400453D44756D70204545505215
:10E2B0004F4D00463D44756D7020464C415348001B
:10E2C000483D48656C70004C3D4C69737420492F83
:10E2D0004F20506F72747300513D51756974005234
:10E2E0003D44756D702052414D00563D73686F7707
:10E2F00020696E7465727275707420566563746FF0
:10E30000727300593D506F727420626C696E6B00BD
:10E310002A0011241FBECFEFD1E2DEBFCDBF01E046
:10E320000CBF12E0A0E0B2E0EEE1FDEF03E00BBFB6
:10E3300002C007900D92A030B107D9F712E0A0E01B
:10E34000B2E001C01D92AE30B107E1F70F9460F367
:10E350000D948DFE01E20EBF0FEF0DBF11241FBE05
:10E360000D9460F30D9400F020E030E040ED57E0B4
:10E3700005C0FA013197F1F72F5F3F4F2817390792
:10E38000C0F308959C01260F311DC901A0E0B0E043
:10E390002F5F3F4FABBFFC018791882361F08093D3
:10E3A000C6008091C00086FFFCCF8091C0008064D1
:10E3B0008093C000EACF08958DE08093C6008091DD
:10E3C000C00086FFFCCF8091C00080648093C000B5
:10E3D0008AE08093C6008091C00086FFFCCF8091C8
:10E3E000C00080648093C00008950F94C2F10F9420
:10E3F000DCF10895FC019081992359F09093C600B7
:10E400008091C00086FFFCCF8091C0008064809323
:10E41000C0003196992379F70895282F982F929567
:10E420009F70892F805D8A3308F0895F8093C600D2
:10E430008091C00086FFFCCF8091C00080648093F3
:10E44000C000822F8F70982F905D9A3308F0995FEB
:10E450009093C6008091C00086FFFCCF8091C000E1
:10E4600080648093C00008959C01FB01853691056E
:10E470001CF46330710594F0C90164E670E00F94F8
:10E480002EFE605D7F4F6093C6008091C00086FFC6
:10E49000FCCF8091C00080648093C0002B30310598
:10E4A00014F43297B4F0C90164E670E00F942EFEC4
:10E4B0006AE070E00F942EFE605D7F4F6093C600AF
:10E4C0008091C00086FFFCCF8091C0008064809363
:10E4D000C000C9016AE070E00F942EFEC0968093E0
:10E4E000C6008091C00086FFFCCF8091C000806490
:10E4F0008093C00008951F93182F8EE692EE60E07F
:10E500000F94C2F11093C6008091C00086FFFCCF2B
:10E510008091C00080648093C0000F94DCF11F9153
:10E5200008952F923F924F925F926F927F928F92B7
:10E530009F92AF92BF92CF92DF92EF92FF920F9392
:10E540001F93DF93CF93CDB7DEB762970FB6F894E2
:10E55000DEBF0FBECDBF382E622ECA01DB015C01CB
:10E560006D01772420E2222E2E010894411C511CBB
:10E570008BC081E0A81680E0B80681E0C80680E084
:10E58000D80628F0C601AA27BB270F940DF2BB2797
:10E59000AD2D9C2D8B2D0F940DF28A2D0F940DF225
:10E5A0002092C6008091C00086FFFCCF8091C00001
:10E5B00080648093C0009DE29093C6008091C0006B
:10E5C00086FFFCCF8091C00080648093C0002092C1
:10E5D000C6008091C00086FFFCCF8091C00080649F
:10E5E0008093C00019828601750188249924A1E0D6
:10E5F0003A1651F03A1620F0B2E03B1661F409C029
:10E600000BBFF701779007C0C7010F9477FE782EF4
:10E6100002C0F7017080872D0F940DF22092C60082
:10E620008091C00086FFFCCF8091C0008064809301
:10E63000C000872D8052F401EF70F0708F3520F408
:10E64000E40DF51D708204C0E40DF51D8EE280839B
:10E650000894E11CF11C011D111D0894811C911CE2
:10E6600090E18916910409F0C2CF80E190E0A0E02A
:10E67000B0E0A80EB91ECA1EDB1E198AC2010F9493
:10E68000FAF10F94DCF16A94662009F072CF629679
:10E690000FB6F894DEBF0FBECDBFCF91DF911F91B3
:10E6A0000F91FF90EF90DF90CF90BF90AF909F9031
:10E6B0008F907F906F905F904F903F902F90089534
:10E6C0002F923F924F925F926F927F928F929F9282
:10E6D000AF92BF92CF92DF92EF92FF920F931F9370
:10E6E000DF93CF93CDB7DEB7CD53D1400FB6F894BB
:10E6F000DEBF0FBECDBF01E20EBF0FEF0DBF94B75F
:10E70000F894A89514BE80916000886180936000A1
:10E7100010926000789493FF05C0E0910002F091A0
:10E7200001021995279A2F9A8091C00082608093E8
:10E73000C00080E18093C40088E18093C1000000A4
:10E74000EE24FF24870144E0A42EB12CCC24DD2448
:10E7500024C0C5010197F1F70894E11CF11C011DCB
:10E76000111D21E2E2162EE4F20620E0020720E06D
:10E77000120718F031E0C32ED12CC801B70127ECE5
:10E780003BE140E050E00F9441FE611571058105C9
:10E79000910519F485B1805885B98091C00087FD35
:10E7A00003C0C114D104A9F2A6014F5F5F4FC25E3E
:10E7B000DE4F59834883CE51D140C25EDE4F8881FF
:10E7C0009981CE51D140019711F00D9410FEC05D9A
:10E7D000DE4F19821882C053D14060E0C15DDE4F28
:10E7E0001882CF52D14088249924C35DDE4F19820C
:10E7F0001882CD52D140C05EDE4F188219821A8233
:10E800001B82C052D140CE5CDE4F188219821A8220
:10E810001B82C253D140EE24FF2487010BBFF701B6
:10E8200007911691C45CDE4F19830883CC53D14005
:10E830000D940BFEC25EDE4F28813981CE51D1404E
:10E840002130310509F52091C600C25EDE4F1982E4
:10E850001882CE51D14022C02F5F3F4F4F4F5F4FA4
:10E86000213082E138078AE7480780E0580780F0C6
:10E87000C45CDE4FE881F981CC53D140EF5FFF4F9C
:10E8800019F0EE27FF27099420E030E040E050E047
:10E890008091C00087FFE0CF2091C600C35DDE4FAE
:10E8A00048815981CD52D1404F5F5F4FC35DDE4FEC
:10E8B00059834883CD52D140213209F063C64A3092
:10E8C000510508F05FC60894811C911C53E0851621
:10E8D000910409F059C600E010E018C081E280936D
:10E8E000C6008091C00086FFFCCF8091C00080648C
:10E8F0008093C0002F5F3F4F2931310579F70F9486
:10E90000DCF10F5F1F4F0530110519F020E030E0FA
:10E91000E5CF10920A0210920B0210920C02109294
:10E920000D02109206021092070210920802109235
:10E930000902109202021092030210920402109235
:10E9400005028FEE90EE60E00F94F5F180E191EE1C
:10E9500060E00F94C2F18091C00087FFFCCF9091DE
:10E96000C600903608F09F759032B8F09093C600BC
:10E970008091C00086FFFCCF8091C00080648093AE
:10E98000C000A0E2A093C6008091C00086FFFCCF2B
:10E990008091C00080648093C000983409F4D7C18E
:10E9A0009934B8F4923409F459C1933458F490333B
:10E9B00019F1903308F4E3C59F33A1F1903409F0C5
:10E9C000DEC5BDC0953409F470C1963409F0D7C5D1
:10E9D00098C1923509F42BC2933538F49C3409F46C
:10E9E000F5C1913509F0CBC518C2963509F445C279
:10E9F000993509F0C4C567C483E792EE62E00F94CD
:10EA0000F5F110920602109207021092080210927D
:10EA1000090210920A0210920B0210920C0210923C
:10EA20000D0213C18FE792EE62E00F94F5F18FEEC5
:10EA300090EE60E00F94F5F181E291EE60E00F94CA
:10EA4000C2F187EB91EE60E00F94F5F180E391EE77
:10EA500060E00F94C2F184EE90EE60E00F94F5F167
:10EA60008FE391EE60E00F94C2F186E090E061E008
:10EA700070E00F9434F20F94DCF18DE591EE60E0DC
:10EA80000F94C2F189EC91EE60E00F94F5F18EE401
:10EA900091EE60E00F94C2F183EC91EE60E00F9490
:10EAA000F5F18CE691EE60E00F94C2F18EE10F94E7
:10EAB0000DF288E90F940DF281E00F940DF20F949E
:10EAC000DCF18BE791EE60E00F94C2F119E0E0E039
:10EAD000F0E010935700E4918E2F0F940DF20F94F5
:10EAE000DCF18AE891EE60E00F94C2F1E3E0F0E03F
:10EAF00010935700E4918E2F0F940DF20F94DCF1D8
:10EB000089E991EE60E00F94C2F1E2E0F0E0109349
:10EB10005700E4918E2F0F940DF20F94DCF188EAE8
:10EB200091EE60E00F94C2F1E1E0F0E01093570045
:10EB30001491812F0F940DF20F94DCF107CF8BE825
:10EB400092EE62E00F94F5F18BE492EE60E00F94A8
:10EB5000F5F10F94DCF100E010E019C0C8016F2D51
:10EB60000F947FFEFF2031F489E492EE60E00F9471
:10EB7000C2F10BC0F092C6008091C00086FFFCCFAE
:10EB80008091C00080648093C0000F5F1F4FC80158
:10EB900081519F41A0E0B0E0ABBFFC01F790BAE229
:10EBA000FB1621F0E2E000301E07C1F60F94DCF105
:10EBB0000F94DCF187E592EE60E00F94F5F10F948D
:10EBC000DCF1CC24DD2400E010E01EC0C8010F946D
:10EBD00077FEF82E882331F489E492EE60E00F94FA
:10EBE000C2F10BC08093C6008091C00086FFFCCFAD
:10EBF0008091C00080648093C000FE1419F00894D6
:10EC0000C11CD11C0F5F1F4FC80181519F41A0E063
:10EC1000B0E0ABBFFC01E790FAE2EF1621F022E092
:10EC20000030120799F60F94DCF10F94DCF182E6C4
:10EC300092EE60E00F94C2F1C60161E070E00F94C3
:10EC400034F20F94DCF10F94DCF110920202109276
:10EC50000302109204021092050278CE89E992EE26
:10EC600062E00F94F5F1279A2F9A16C02F9880E052
:10EC700090E0E0EDF7E03197F1F7019684369105E9
:10EC8000C1F72F9A80E090E0E0EDF7E03197F1F7DF
:10EC9000019684369105C1F78091C00087FFE6CFC9
:10ECA0008091C00087FFFCCF64C485EA92EE62E0E9
:10ECB0000F94F5F140910202509103026091040219
:10ECC0007091050281E020E10F9491F2809102029F
:10ECD00090910302A0910402B091050280509F4FD1
:10ECE000AF4FBF4F8093020290930302A0930402A0
:10ECF000B093050280509041A040B04008F426CE69
:10ED0000A4CF83EB92EE62E00F94F5F140910602FE
:10ED100050910702609108027091090280E020E1A1
:10ED20000F9491F28091060290910702A09108023F
:10ED3000B091090280509F4FAF4FBF4F80930602A2
:10ED400090930702A0930802B0930902FFCD80ECD4
:10ED500092EE62E00F94F5F183E792EE60E00F949B
:10ED6000F5F18FE792EE60E00F94F5F18BE892EE0B
:10ED700060E00F94F5F189E992EE60E00F94F5F10F
:10ED800085EA92EE60E00F94F5F183EB92EE60E09D
:10ED90000F94F5F180EC92EE60E00F94F5F187ECC2
:10EDA00092EE60E00F94F5F188ED92EE60E00F9442
:10EDB000F5F18FED92EE60E00F94F5F18AEE92EEB0
:10EDC00060E00F94F5F183E093EEBDCD87EC92EE19
:10EDD00062E00F94F5F181E40F947BF282E40F94EA
:10EDE0007BF283E40F947BF284E40F947BF285E45E
:10EDF0000F947BF286E40F947BF287E40F947BF20E
:10EE000088E40F947BF28AE40F947BF28BE40F94F6
:10EE10007BF28CE40F947BF299CD88ED92EE62E068
:10EE20000F94F5F1772473948824992409C48FED05
:10EE300092EE62E00F94F5F140910A0250910B02BC
:10EE400060910C0270910D0282E020E10F9491F22A
:10EE500080910A0290910B02A0910C02B0910D02D8
:10EE600080509F4FAF4FBF4F80930A0290930B0289
:10EE7000A0930C02B0930D0269CD8AEE92EE62E08F
:10EE80000F94F5F184EE90EE60E00F94F5F18FECC5
:10EE900091EE60E00F94F5F1662477244301CC5D98
:10EEA000DE4F19821882C452D140D401C301B695F5
:10EEB000A79597958795CA5DDE4F88839983AA8326
:10EEC000BB83C652D140CC5DDE4FA881B981C4520C
:10EED000D1401196CC5DDE4FB983A883C452D14096
:10EEE000CD0162E070E00F9434F2B0E2B093C6005E
:10EEF0008091C00086FFFCCF8091C0008064809329
:10EF0000C000EDE2E093C6008091C00086FFFCCF18
:10EF10008091C00080648093C000F0E2F093C6004E
:10EF20008091C00086FFFCCF8091C00080648093F8
:10EF3000C000CA5DDE4FE880F9800A811B81C6529D
:10EF4000D140BB27A12F902F8F2D0F940DF2CA5DBA
:10EF5000DE4F8881C652D1400F940DF2B0E2FB2EF5
:10EF6000F092C6008091C00086FFFCCF8091C00067
:10EF700080648093C0000DE30093C6008091C000C0
:10EF800086FFFCCF8091C00080648093C00010E2B7
:10EF90001093C6008091C00086FFFCCF8091C00016
:10EFA00080648093C0008BBEF3012791C65DDE4F65
:10EFB0002883CA52D140A22EBB24CC24DD2408943D
:10EFC000611C711C811C911C8BBEF3018791282E42
:10EFD0003324442455240894611C711C811C911C09
:10EFE0008BBEF3013791C55DDE4F3883CB52D140E4
:10EFF0000894611C711C811C911C8BBEF30147910C
:10F00000C45DDE4F4883CC52D140ADEFEA2EAFEF66
:10F01000FA2EAFEF0A2FAFEF1A2F6E0C7F1C801E57
:10F02000911E142D032DF22CEE24EA0CFB1C0C1D5A
:10F030001D1D0F940DF220E22093C6008091C000A8
:10F0400086FFFCCF8091C00080648093C000C65DC5
:10F05000DE4F8881CA52D1400F940DF230E23093D6
:10F06000C6008091C00086FFFCCF8091C000806404
:10F070008093C000C45DDE4F8881CC52D1400F9494
:10F080000DF240E24093C6008091C00086FFFCCFA5
:10F090008091C00080648093C000C55DDE4F888190
:10F0A000CB52D1400F940DF250E25093C6008091A4
:10F0B000C00086FFFCCF8091C00080648093C000B8
:10F0C0008FEFE8168FEFF80680E0080780E018075A
:10F0D00031F484E092EE60E00F94C2F1DFC0D80119
:10F0E000C7018070907CA070B0708050904CA040A0
:10F0F000B040D1F52FEF3FE340E050E0E222F322B1
:10F1000004231523CA5DDE4FA880B980CA80DB8046
:10F11000C652D140AE0CBF1CC01ED11EAA0CBB1CD7
:10F12000CC1CDD1C8EE092EE60E00F94C2F1BB2798
:10F13000A12F902F8F2D0F940DF28E2D0F940DF285
:10F1400030E23093C6008091C00086FFFCCF8091F2
:10F15000C00080648093C0004EE34093C60080915D
:10F16000C00086FFFCCF87C08EE09EEFA0E0B0E03D
:10F17000E822F9220A231B239CE0E91694E9F90608
:10F1800090E0090790E0190709F088C0C45DDE4FE0
:10F19000A881CC52D140EA2EFF2400E010E0102FCD
:10F1A0000F2DFE2CEE24C55DDE4FB881CB52D14031
:10F1B000EB0EF11C011D111DD601C501817090706F
:10F1C000A070B070DC0199278827E80EF91E0A1F8D
:10F1D0001B1F20EF30E040E050E0A222B322C42207
:10F1E000D52241E1AA0CBB1CCC1CDD1C4A95D1F7F1
:10F1F000EA0CFB1C0C1D1D1D81E090E0A0E0B0E0BE
:10F20000282239224A225B2235E1220C331C441C7D
:10F21000551C3A95D1F7E20CF31C041D151D57013E
:10F220006801AA0CBB1CCC1CDD1C85E192EE60E0E1
:10F230000F94C2F1C801AA27BB270F940DF2BB2778
:10F24000A12F902F8F2D0F940DF28E2D0F940DF274
:10F2500090E29093C6008091C00086FFFCCF809121
:10F26000C00080648093C000AEE3A093C60080918C
:10F27000C00086FFFCCF8091C00080648093C000F6
:10F28000C601AA27BB270F940DF2BB27AD2D9C2DDD
:10F290008B2D0F940DF28A2D0F940DF20F94DCF14B
:10F2A000CC5DDE4FE881F981C452D140F99709F471
:10F2B0004DCBF4E0EF2EF12C012D112D6E0C7F1CA7
:10F2C000801E911EF2CD83E093EE62E00F94F5F183
:10F2D0008AE192EE60E00F94C2F18091C00087FF56
:10F2E000FCCF1091C6001F751093C6008091C0001E
:10F2F00086FFFCCF8091C00080648093C0000F9493
:10F30000DCF1812F81548A3108F036C1163409F4BA
:10F3100095C0173490F4133409F44EC0143430F40B
:10F320001134F1F0123409F01DC130C0143409F465
:10F3300059C0153409F016C16BC01A3409F4C4C0A1
:10F340001B3438F4173409F48FC0183409F00AC19B
:10F35000A1C01B3409F4D2C01C3409F003C1E8C0B9
:10F360008FEF81B90DC082B1809582B980E090E0C5
:10F37000E0EDF7E03197F1F70196883C9105C1F790
:10F380008091C00087FFEFCF12B8EFC08FEF84B934
:10F390000DC085B1809585B980E090E0E0EDF7E0A3
:10F3A0003197F1F70196883C9105C1F78091C00033
:10F3B00087FFEFCF15B8D9C08FEF87B90DC088B1DF
:10F3C000809588B980E090E0E0EDF7E03197F1F7C3
:10F3D0000196883C9105C1F78091C00087FFEFCF6F
:10F3E00018B8C3C08FEF8AB90DC08BB180958BB9A7
:10F3F00080E090E0E0EDF7E03197F1F70196883C8E
:10F400009105C1F78091C00087FFEFCF1BB8ADC059
:10F410008FEF8DB90DC08EB180958EB980E090E0F0
:10F42000E0EDF7E03197F1F70196883C9105C1F7DF
:10F430008091C00087FFEFCF1EB897C08FEF80BBD1
:10F440000DC081B3809581BB80E090E0E0EDF7E0F6
:10F450003197F1F70196883C9105C1F78091C00082
:10F4600087FFEFCF11BA81C08FEF83BB0DC084B38C
:10F47000809584BB80E090E0E0EDF7E03197F1F714
:10F480000196883C9105C1F78091C00087FFEFCFBE
:10F4900014BA6BC08FEF809301010FC080910201FD
:10F4A00080958093020180E090E0E0EDF7E03197F5
:10F4B000F1F70196883C9105C1F78091C00087FF64
:10F4C000EDCF1092020151C08FEF809304010FC065
:10F4D0008091050180958093050180E090E0E0ED4A
:10F4E000F7E03197F1F70196883C9105C1F78091DB
:10F4F000C00087FFEDCF1092050137C08FEF8093DA
:10F5000007010FC08091080180958093080180E079
:10F5100090E0E0EDF7E03197F1F70196883C910536
:10F52000C1F78091C00087FFEDCF109208011DC088
:10F530008FEF80930A010FC080910B01809580931B
:10F540000B0180E090E0E0EDF7E03197F1F70196F4
:10F55000883C9105C1F78091C00087FFEDCF1092E4
:10F560000B0103C085E292EEEEC98091C00087FFD7
:10F57000FCCF8091C600EAC988E392EEE4C98CE131
:10F5800091EEE1C988249924933011F1943028F444
:10F59000913089F09230B8F408C0953061F195301F
:10F5A000F0F0963009F048C043C02B3109F042C951
:10F5B00091E06BE13FC96227C15DDE4F2883CF52E6
:10F5C000D14092E037C9B22FA0E0622793E032C960
:10F5D000822F90E0A82BB92B622794E02BC92E3004
:10F5E00009F039C3622795E0C05DDE4F19821882A9
:10F5F000C053D1401FC9E1E0F0E0EC0FFD1FC05D3A
:10F60000DE4F08811981C053D140E00FF11F2083E4
:10F610000F5F1F4FC05DDE4F19830883C053D14079
:10F6200062270A171B0709F005C9D80196E002C92D
:10F63000261709F010C303C0973009F0FBC87724E0
:10F640009981933109F412C19431C8F4963009F4C8
:10F65000D8C0973050F4923009F406C1933009F4C1
:10F660006DC0913009F059C253C0913109F477C08F
:10F67000923108F0BBC0903109F04FC2F5C098310B
:10F6800009F487C0993150F4953109F4EFC09531F0
:10F6900008F4C6C1963109F040C2C2C19A3109F4DA
:10F6A0006CC09A3108F491C09B3109F45BC09D3164
:10F6B00009F033C29D81903359F48F81882311F46E
:10F6C0009EE11CC0813011F091E018C098E916C08D
:10F6D000892F807591F0903539F4E0E0F0E089E011
:10F6E0008093570094910AC0983539F4E3E0F0E034
:10F6F00089E080935700949101C090E01A821B82A8
:10F700008D818C831D829E831F8227E030E009C299
:10F710001A8288E08B8381E48C8386E58D8382E581
:10F720008E8389E48F8383E5888780E589878FE5E9
:10F730008A8782E38B872BE030E0F3C18A818139AD
:10F7400041F0823941F0803911F48FE005C080E04A
:10F7500003C082E001C08AE01A828B8344C0772410
:10F76000739482C08D81882311F48EE12CC0813086
:10F7700011F081E028C088E926C01A82E1E0F0E0BB
:10F7800089E08093570084918B831C8224E030E0D1
:10F79000C8C18B81803589F48C81883039F4E2E0EE
:10F7A000F0E089E08093570084910DC0E0E0F0E044
:10F7B00089E080935700849106C0E3E0F0E089E09F
:10F7C0008093570084911A82DFCF8D81836C99E0FA
:10F7D000E1E0F0E0082E90935700E89507B600FCB2
:10F7E000FDCF1A821B8223E030E09BC180EC8A832C
:10F7F000CE5CDE4F188219821A821B82C253D1401E
:10F800008EC18A8190E0A0E0B0E0582F44273327D2
:10F8100022278B8190E0A0E0B0E0DC0199278827C7
:10F82000282B392B4A2B5B2B8D8190E0A0E0B0E098
:10F83000282B392B4A2B5B2B8C8190E0A0E0B0E089
:10F84000BA2FA92F982F8827282B392B4A2B5B2BCF
:10F85000220F331F441F551FC05EDE4F288339839C
:10F860004A835B83C052D1401A8259C13A81C95C34
:10F87000DE4F3883C753D140CA5CDE4F1882C6536F
:10F88000D1408B81C82EDD24CA5CDE4F488159816E
:10F89000C653D140C42AD52A933109F082C0CE5C28
:10F8A000DE4F88819981AA81BB81C253D1408050AB
:10F8B000904CA340B04030F583E0CE5CDE4FE88052
:10F8C000F9800A811B81C253D140F70100935B008C
:10F8D00080935700E89507B600FCFDCFCE5CDE4F65
:10F8E000088119812A813B81C253D14000501F4FAA
:10F8F0002F4F3F4FCE5CDE4F088319832A833B8313
:10F90000C253D140C05EDE4F488159816A817B81FC
:10F91000C052D140DE011B9631E08C9111962C91A2
:10F9200011971296C75CDE4F2883C953D140C85C3B
:10F93000DE4F1882C853D14090E0C85CDE4FE881AA
:10F94000F981C853D1408E2B9F2B0C01FA01609393
:10F950005B0030935700E89511244E5F5F4F6F4F67
:10F960007F4F0EEFE02E0FEFF02ECE0CDF1CC114F8
:10F97000D10499F685E0C05EDE4F088119812A81A5
:10F980003B81C052D140F80120935B008093570027
:10F99000E89507B600FCFDCF81E180935700E8951C
:10F9A00035C0C05EDE4F88819981AA81BB81C0527B
:10F9B000D140B695A795979587957C018601ABE0D8
:10F9C000AA2EB12CAC0EBD1E0BC0D5016D915D01F0
:10F9D000C7010F947FFE0894E11CF11C01501040F8
:10F9E0000115110591F7A60160E070E0440F551F65
:10F9F000661F771FC05EDE4FE880F9800A811B8199
:10FA0000C052D1404E0D5F1D601F711F1A82C05E33
:10FA1000DE4F488359836A837B83C052D1407FC0C5
:10FA2000FA80C55CDE4FF882CB53D140C65CDE4F16
:10FA30001882CA53D1408B81C82EDD24C65CDE4FAC
:10FA400008811981CA53D140C02AD12A1A828981DA
:10FA5000BE016D5F7F4F843121F59601C05EDE4FA0
:10FA6000E880F9800A811B81C052D1400BBFF701A9
:10FA700087919691DB018C9311969C936E5F7F4FDB
:10FA8000D801C7010296A11DB11DC05EDE4F88835B
:10FA90009983AA83BB83C052D14022503040F1F6F3
:10FAA00036C0C05EDE4F288139814A815B81C052F9
:10FAB000D1400894C108D108760100E010E0089414
:10FAC000C11CD11C0894E11CF11C011D111DE20E8A
:10FAD000F31E041F151F21BDBB27A52F942F832FB5
:10FAE00082BD2F5F3F4F4F4F5F4FF89A80B5DB01CC
:10FAF0008D93BD012E153F054007510761F7C05E8C
:10FB0000DE4F288339834A835B83C052D1409601FC
:10FB10002D5F3F4FFB01108204C080EC8A8322E0FE
:10FB200030E08BE18093C6008091C00086FFFCCF5F
:10FB30008091C00080648093C000C15DDE4FF88179
:10FB4000CF52D140F093C6008091C00086FFFCCF19
:10FB50008091C00080648093C000432F3093C60022
:10FB60008091C00086FFFCCF8091C00080648093AC
:10FB7000C000922F2093C6008091C00086FFFCCF6A
:10FB80008091C00080648093C0008EE08093C600A6
:10FB90008091C00086FFFCCF8091C000806480937C
:10FBA000C00065E1C15DDE4FE880CF52D1406E25D7
:10FBB00069276427FE01319610C090819093C6009A
:10FBC0008091C00086FFFCCF31968091C000806498
:10FBD0008093C0006927215030402115310569F715
:10FBE0006093C6008091C00086FFFCCF8091C0006A
:10FBF00080648093C00085B1805885B9772081F4F6
:10FC0000C15DDE4F0881CF52D1400F5FC15DDE4F35
:10FC10000883CF52D14090E0A0E0B0E00D941AF4F8
:10FC200027982F9880E090E020ED37E0F901319798
:10FC3000F1F7019684369105C9F700008091C00064
:10FC40008D7F8093C00081E180935700E895EE2777
:10FC5000FF270994FFCF90E00D941AF497FB092E2B
:10FC600007260AD077FD04D02ED006D000201AF443
:10FC7000709561957F4F0895F6F7909581959F4F08
:10FC80000895A1E21A2EAA1BBB1BFD010DC0AA1FDD
:10FC9000BB1FEE1FFF1FA217B307E407F50720F0F5
:10FCA000A21BB30BE40BF50B661F771F881F991F70
:10FCB0001A9469F760957095809590959B01AC01B9
:10FCC000BD01CF010895AA1BBB1B51E107C0AA1FAC
:10FCD000BB1FA617B70710F0A61BB70B881F991FED
:10FCE0005A95A9F780959095BC01CD010895F99991
:10FCF000FECF92BD81BDF89A992780B50895262F31
:10FD0000F999FECF1FBA92BD81BD20BD0FB6F89400
:0EFD1000FA9AF99A0FBE01960895F894FFCF63
:040000033000E000E9
:00000001FF