:1000000008C1000037C1000035C1000033C1000045
:1000100031C100002FC100002DC100002BC1000024
:1000200029C1000027C1000025C1000023C1000034
:1000300021C100001FC100001DC100001BC1000044
:1000400019C1000017C1000015C1000013C1000054
:1000500011C100000FC100000DC1000035C5000036
:1000600009C1000095C200006AC2000003C100007F
:1000700001C10000FFC00000FDC00000FBC0000087
:10008000F9C00000F7C00000F5C00000F3C0000098
:10009000F1C00000EFC00000EDC00000AEC70000DE
:1000A000E9C00000E7C00000E5C00000E3C00000B8
:1000B000E1C00000DFC00000DDC00000DBC00000C8
:1000C000D9C00000D7C00000D5C00000D3C00000D8
:1000D000D1C00000CFC00000CDC00000CBC00000E8
:1000E000C9C000002D0330031F0323032703670348
:1000F000340338033E03420346034C0350035403C6
:1001000067035A035E03620300000A0B02090C0D29
:100110000E080703040100000000000000000000BA
:1001200000000000000000000000000000000000CF
:10013000000000001211100000000000000000008C
:1001400000000000000000000000000000000000AF
:100150002200250028002B002E003100340002016F
:100160000000050108010B01000021002400270008
:100170002A002D00300033000101000004010701B6
:100180000A0105050505070508080808020202021C
:100190000A0A080804040404010101010101010123
:1001A0000303030303030303040707070C0C0C0CEE
:1001B0000C0C0C0C020202020606060606060606D7
:1001C0000B0B0B0B0B0B0B0B010210202008081064
:1001D00020401020408002010201080402010102B7
:1001E0000408102040808040201008040201800490
:1001F00002018040201008040201080402010102EB
:100200000408102040800102040810204080430FA1
:10021000420F11241FBECFEFD1E2DEBFCDBF00E001
:100220000CBF13E0A0E0B2E0E0E9F6E200E00BBFB3
:1002300002C007900D92A638B107D9F725E0A6E8CD
:10024000B3E001C01D92A134B207E1F711E0C8E0AC
:10025000D1E000E006C021970109802FFE010E9435
:10026000BC0FC730D10780E00807A9F70E94490CEE
:100270000C943713C5CE90E0FC01E853FE4F249157
:10028000FC01EE57FE4F8491882399F090E0880F8F
:10029000991FFC01E859FE4FA591B491FC01E25B66
:1002A000FE4F859194918FB7F894EC91E22BEC93EB
:1002B0008FBF0895CF92DF92EF92FF920F931F931B
:1002C000CF93DF936C017A018B01C0E0D0E0CE15B3
:1002D000DF0589F0D8016D918D01D601ED91FC917A
:1002E0000190F081E02DC6011995892B11F47E0152
:1002F00002C02196ECCFC701DF91CF911F910F91E2
:10030000FF90EF90DF90CF900895FC01918D828D4A
:10031000981761F0828DDF01A80FB11D5D968C9159
:10032000928D9F5F9F73928F90E008958FEF9FEF64
:100330000895FC01918D828D981731F0828DE80F20
:10034000F11D858D90E008958FEF9FEF0895FC01DA
:10035000918D228D892F90E0805C9F4F821B9109A7
:100360008F739927089584E494E0F1DF21E0892BCD
:1003700009F420E0822F0895FC01848DDF01A80F8D
:10038000B11DA35ABF4F2C91848D90E001968F73BD
:100390009927848FA689B7892C93A089B1898C91DC
:1003A00080648C93938D848D981306C00288F389A2
:1003B000E02D80818F7D80830895EF92FF920F93CF
:1003C0001F93CF93DF93EC0181E0888F9B8D8C8D01
:1003D000981305C0E889F989808185FD23C0F62E30
:1003E0000B8D10E00F5F1F4F0F731127E02E8C8DC8
:1003F000E8120BC00FB607FCFACFE889F9898081B3
:1004000085FFF5CFCE01B8DFF2CF8B8DFE01E80F6F
:10041000F11DE35AFF4FF0820B8FEA89FB8980813F
:10042000806207C0EE89FF896083E889F98980814D
:100430008064808381E090E0DF91CF911F910F91E4
:10044000FF90EF900895CF93DF93EC01888D882380
:10045000C1F0EA89FB89808185FD05C0A889B98939
:100460008C9186FD0EC00FB607FCF5CF808185FF0D
:10047000F2CFA889B9898C9185FFEDCFCE017CDFC1
:10048000E8CFDF91CF91089580E090E0892B19F0BB
:100490006ADF811125C080E090E0892B41F080E087
:1004A00090E0892B21F00E94000081111CC080E0A7
:1004B00090E0892B41F080E090E0892B21F00E94B0
:1004C0000000811113C080E090E0892BA1F080E052
:1004D00090E0892B81F00E94000081110AC00895EC
:1004E0000E940000D8CF0E940000E1CF0E940000CF
:1004F000EACF0C9400000895CF93DF931F92CDB7FD
:10050000DEB7682F80911B0590911C058130910505
:1005100029F480911A050E94B00B0BC0892B49F475
:10052000AE014F5F5F4F80911A050E94960B898143
:1005300000C00F90DF91CF9108950E9424131F9265
:100540000F920FB60F9211240BB60F922F933F9379
:100550004F935F936F937F938F939F93AF93BF93CB
:10056000EF93FF9384E494E007DFFF91EF91BF9155
:10057000AF919F918F917F916F915F914F913F913B
:100580002F910F900BBE0F900FBE0F901F901895DC
:100590001F920F920FB60F9211240BB60F922F934A
:1005A0008F939F93EF93FF93E0915404F091550440
:1005B0008081E0915A04F0915B0482FD12C0908129
:1005C00080915D048F5F8F7320915E04821751F0DC
:1005D000E0915D04F0E0EC5BFB4F958F80935D0450
:1005E00001C08081FF91EF919F918F912F910F908A
:1005F0000BBE0F900FBE0F901F901895362F90E0F6
:10060000FC01E85FFE4F4491FC01E853FE4F24914A
:10061000FC01EE57FE4F9491992309F46BC04423DB
:1006200009F455C050E0FA013197E231F10508F0C4
:100630004EC08827EE58FF4F8F4F0C94BC0F80910F
:1006400080008F7707C0809180008F7D03C08091EC
:100650008000877F809380003AC084B58F7702C086
:1006600084B58F7D84BD33C08091B0008F7703C087
:100670008091B0008F7D8093B00029C08091900060
:100680008F7707C0809190008F7D03C0809190008C
:10069000877F809390001BC08091A0008F7707C058
:1006A0008091A0008F7D03C08091A000877F809300
:1006B000A0000DC0809120018F7707C0809120019C
:1006C0008F7D03C080912001877F80932001E92FD7
:1006D000F0E0EE0FFF1FE25BFE4FA591B4918FB7E4
:1006E000F894EC91311103C020952E2301C02E2BDC
:1006F0002C938FBF08958F929F92AF92BF92CF920B
:10070000DF92EF92FF926B017C01B9D14B015C014A
:10071000C114D104E104F104E9F0B1D1DC01CB0151
:1007200088199909AA09BB09883E9340A105B1051A
:1007300078F321E0C21AD108E108F10888EE880EAA
:1007400083E0981EA11CB11CC114D104E104F10482
:1007500021F7DECFFF90EF90DF90CF90BF90AF906A
:100760009F908F900895FC016583089585ED809397
:10077000BC008091BC0084FDFCCF10921F04089542
:100780004091A903262F30E0240F311D213231057D
:10079000DCF420911F042430C9F4FC0180E090E0D7
:1007A000861758F43091A9032191DC01A957BC4F59
:1007B000A30FB11D2C930196F3CF8091A903680F6D
:1007C0006093A90380E0089581E0089582E0089590
:1007D0000895E091D8038091D703E81730F4F0E052
:1007E000E752FC4F808190E008958FEF9FEF0895CE
:1007F0009091D8038091D703981750F4E92FF0E037
:10080000E752FC4F208130E09F5F9093D80302C0F5
:100810002FEF3FEFC90108958091D70390E0209119
:10082000D803821B91090895CF92DF92EF92FF9235
:100830000F931F93CF93DF937C01262F972F8A016D
:1008400080912004882391F0C62FD72F6E01C40E0B
:10085000D51ECC15DD0569F06991D701ED91FC91AC
:100860000190F081E02DC7011995F3CF642F822FFD
:1008700087DFC801DF91CF911F910F91FF90EF901B
:10088000DF90CF900895CF93DF931F92CDB7DEB75F
:100890006983209120042223D1F020914304203247
:1008A00040F021E030E0FC013383228380E090E0DF
:1008B00014C080912104E82FF0E0EE5DFB4F998198
:1008C00090838F5F809321048093430404C061E090
:1008D000CE01019655DF81E090E00F90DF91CF913E
:1008E000089508950F931F93CF93DF938C01EB012D
:1008F00088E2FB0111928A95E9F74BE050E06DE642
:1009000073E0CE010E9428131B8681E090E0A0E0F6
:10091000B0E08C879D87AE87BF87F801828593857D
:10092000A485B585888B998BAA8BBB8B85E090E0DD
:10093000A0E0B0E08C8B9D8BAE8BBF8B1CA21DA268
:100940001EA21FA280E090EDA4E8B6E4888F998FE4
:10095000AA8FBB8F1C8E1D8E1E8E1F8E80E090E096
:10096000A0E8BFE388A399A3AAA3BBA3DF91CF917B
:100970001F910F910895CF93DF931F92CDB7DEB7EC
:10098000FC01838191E090932004809342041092B3
:1009900021041092430481EE94E0298374DF2981BD
:1009A000622F81EE94E06FDF0F90DF91CF9152C6FE
:1009B00020E030E0A90160E8DECFCF93DF93EC01C7
:1009C0008B8191E090932004809342041092210443
:1009D0001092430481EE94E056DF3CD68B8162E0B6
:1009E00070E0082E000C990B37D681EE94E000DF02
:1009F000EC0181EE94E0FCDE20E030E0382FC9010C
:100A00008C2B9D2BDF91CF910895EF92FF920F9346
:100A10001F93CF93DF93EC017B018A0123E030E049
:100A200040E050E060E8A7DF8E819F81009739F0B9
:100A3000019751F468E770E080E090E009C06FE052
:100A400070E080E090E004C062EC71E080E090E053
:100A500052DE6CEACE01B1DFF701918380836EEA4A
:100A6000CE01ABDFF80191838083CE01DF91CF917E
:100A70001F910F91FF90EF909BCF0C948C123FB77A
:100A8000F8948091D3039091D403A091D503B091B1
:100A9000D60326B5A89B05C02F3F19F00196A11DCE
:100AA000B11D3FBFBA2FA92F982F8827820F911D04
:100AB000A11DB11DBC01CD0142E0660F771F881F4B
:100AC000991F4A95D1F708951F920F920FB60F9272
:100AD00011242F933F938F939F93AF93BF93809154
:100AE000CF039091D003A091D103B091D203309164
:100AF000CE0323E0230F2D3720F40196A11DB11D55
:100B000005C026E8230F0296A11DB11D2093CE0338
:100B10008093CF039093D003A093D103B093D203DB
:100B20008091D3039091D403A091D503B091D603C3
:100B30000196A11DB11D8093D3039093D403A0937C
:100B4000D503B093D603BF91AF919F918F913F9101
:100B50002F910F900FBE0F901F9018958EBD000023
:100B60000DB407FEFDCF8EB508951F93CF93DF938D
:100B7000EC017BD58B8111E010932004809342041B
:100B800010922104109243046AE081EE94E07BDE2F
:100B900061D58B8161E070E0082E000C990B5CD56B
:100BA00081EE94E025DE8A7069F01C836E817F817E
:100BB000CE01FED168857985CE0109D0CE01F8DE5F
:100BC00081E001C080E0DF91CF911F9108950F93E4
:100BD0001F93CF93DF93EC018B018C81811102C0B5
:100BE000CE01C3DF23E030E040E050E060E8CE011A
:100BF000C2DE2E813F81202B312B032E000C440BB3
:100C0000550B61E8CE01B7DE19870887CE01DF9169
:100C1000CF911F910F91CCCE4F925F926F927F92A6
:100C20008F929F92AF92BF92CF92DF92EF92FF92FC
:100C30000F931F93CF93DF93CDB7DEB729970FB6EE
:100C4000F894DEBF0FBECDBF8C017B0184E2FB01B7
:100C500011928A95E9F784E290E0A0E0B0E0FB0110
:100C600080839183A283B383F80182859385A485D1
:100C7000B585FB0184839583A683B78385E090E0E7
:100C8000A0E0B0E080879187A287B3872FB7F89460
:100C90008091CF039091D003A091D103B091D20362
:100CA0002FBF808B918BA28BB38BF8018481811134
:100CB00002C0C8015ADFF8018581811109C0AE0167
:100CC0004B5F5F4FBE01695F7F4FC8019EDE56C01C
:100CD00020E0F80186819781009799F0019741F40F
:100CE00078EC872E912CE0EAAE2EECE8BE2E10C0F8
:100CF00054EF852E9924939468E1A62E66EFB62EC4
:100D000007C034E6832E912C42EFA42E42E1B42E8C
:100D1000AE014F5F5F4FBE016D5F7F4FC8012987F6
:100D200074DE8B819C812985211122C0881599054B
:100D300040F4F80120853185232BD1F460E170E087
:100D40000BC0A816B906A0F4F80120853185203122
:100D5000310571F460E070E0C80139DFAE014F5F2A
:100D60005F4FBE016D5F7F4FC8014FDE21E0B1CF05
:100D700098878F8389819A819E838D83CD80DE8041
:100D8000AF81B885F80186819781009749F081305D
:100D9000910519F028EE3DEF05C028E830E902C0C2
:100DA00024E233E12A173B0708F4E0C02C153D0587
:100DB00008F4C7C0009779F0019739F497EE492EEF
:100DC0009FE0592E612C712C0CC0412C84E0582ED0
:100DD000612C712C06C0F7E14F2EF5E75F2E612CD8
:100DE000712CF80180859185892B39F4E4E0440C5D
:100DF000551C661C771CEA95D1F7A30192010E944D
:100E0000C40F4B015C016AE0B694A7949794879451
:100E10006A95D1F7D6010E94C40F2B013C017AE0FC
:100E200076946794579447947A95D1F781149104F6
:100E3000A104B10471F0C301B2014AE0660F771F4B
:100E4000881F991F4A95D1F7A50194010E949A0F16
:100E500003C020E030E0A901DA01C9010196A11D1B
:100E6000B11DB695A7959795879581349105A105F4
:100E7000B10530F181389105A105B10530F1813C12
:100E80009105A105B10530F18130F1E09F07A10581
:100E9000B10528F1893321E09207A105B10520F1C0
:100EA0008B3931E09307A105B10518F18B399240D8
:100EB000A105B10518F1E0E0F0E0A0E0B0E022C04B
:100EC000EEEBF1E0A2EFB1E01DC0E1EDF2E0A4E154
:100ED000B2E018C0EBE7F3E0AFE3B2E013C0EEEF2F
:100EE000F3E0A0E7B2E00EC0ECEFF1E0AFE6B1E076
:100EF00009C0EBEFF0E0A2EDB0E004C0E2E1F0E009
:100F0000A8E1B0E0A50194010E94C40F4B015C016F
:100F100050E2950EA11CB11CDF01A30192010E94B9
:100F2000C40FA5019401261B370B480B590BCA01AE
:100F3000B9012EE096958795779567952A95D1F713
:100F400004C060E070E081E090E00E94DA10F701F8
:100F5000648B758B868B978B11E020E030E040E846
:100F600057E40E94421081110BC009C080E090E05C
:100F7000A0E8B7E4F701848B958BA68BB78B10E0C4
:100F8000812F29960FB6F894DEBF0FBECDBFDF913B
:100F9000CF911F910F91FF90EF90DF90CF90BF9076
:100FA000AF909F908F907F906F905F904F9008953B
:100FB0000F931F93CF93DF93EC018B018C818111F1
:100FC00002C0CE01D2DD23E030E040E050E060E836
:100FD000CE01D1DC28853985202B312B032E000C46
:100FE000440B550B61E8CE01C6DC1F830E83CE0196
:100FF000DF91CF911F910F91DBCC1F920F920FB613
:101000000F9211240BB60F922F933F934F935F9340
:101010006F937F938F939F93AF93BF93EF93FF93C0
:101020008091B900887F803609F49CC068F58832C9
:1010300009F45BC090F4803109F454C038F488237B
:1010400009F4F6C0883009F44DC0F5C0883109F4C0
:101050004CC0803209F45DC0EEC0803409F468C031
:1010600048F4803309F455C0883309F0E4C0809314
:101070001D04D8C0803509F44FC0883509F45DC01F
:10108000883409F0D8C0D6C0883909F4C7C0A8F49C
:10109000883709F467C038F4883609F463C08037AC
:1010A00009F460C0C8C0883809F4B8C0803909F4B0
:1010B0005FC0803809F0BFC05BC0803B09F486C0C8
:1010C00038F4803A09F466C0883A09F47FC0B3C0A6
:1010D000803C09F4A7C0883C09F4A4C0883B09F40B
:1010E0008AC0A9C08091FA0310C090911C0480911D
:1010F0001B04981770F5E0911C0481E08E0F80931B
:101100001C04F0E0E550FC4F80818093BB0085EC2F
:1011100086C080931D048EC0E0911C0481E08E0F78
:1011200080931C048091BB00F0E0E550FC4F80836D
:1011300090911C0480911B046EC0E0911C0481E01E
:101140008E0F80931C048091BB00F0E0E550FC4FB3
:10115000808380911E0481116DC081E08093F9032A
:1011600084EA61C083E080931F041092CD03CFCF47
:101170008091CD03803208F051C0E091CD0381E031
:101180008E0F8093CD038091BB00F0E0E355FC4FC0
:101190008083BDCF85EC8093BC0010921F048091AA
:1011A000CD03803230F4E091CD03F0E0E355FC4F05
:1011B00010826091CD0370E0E091AB03F091AC033D
:1011C0008DEA93E019951092CD0335C084E08093A9
:1011D0001F041092AA031092A903E091A703F091B3
:1011E000A80319958091A903811105C081E080931E
:1011F000A90310928703E091AA0381E08E0F8093E8
:10120000AA03F0E0E957FC4F80818093BB009091E6
:10121000AA038091A903981708F479CF85E88093F1
:10122000BC0009C085EC8093BC0010921F0403C071
:1012300010921D049BDAFF91EF91BF91AF919F91A6
:101240008F917F916F915F914F913F912F910F906F
:101250000BBE0F900FBE0F901F9018950895382F5A
:101260002091430490914204213208F049C08091BA
:101270001F048111FCCF42E040931F0430931E04F1
:101280003FEF30931D0410921C0420931B04A2E234
:10129000B4E04BEF53E0FA013E2F341B321718F441
:1012A0003D913193F9CF1092FA032091FA03990FEF
:1012B000922B9093FA039091F903913061F410927C
:1012C000F9039091FA039093BB009091BC0093FDB9
:1012D000F8CF95EC01C095EE9093BC0090911F045F
:1012E0009230E1F390911D049F3F79F080911D04AD
:1012F000803241F080911D04803331F084E005C0DC
:1013000081E003C082E001C083E0109221041092CA
:10131000430410922004089590911F049111FCCF72
:1013200091E090931F0490931E042FEF20931D04CF
:1013300010921C04260F20931B049093FA039091A3
:10134000FA03880F892B8093FA038091F903813087
:1013500061F41092F9038091FA038093BB008091AD
:10136000BC0083FDF8CF85EC01C085EE8093BC0006
:1013700080911F048130E1F380911C04861710F4E2
:1013800060911C04ABEFB3E029ED33E0F9018E2F3F
:10139000821B861718F48D918193F9CF862F0895BB
:1013A000009769F0FC0101900020E9F73197AF0147
:1013B000481B590BBC0184E494E00C945A0180E072
:1013C00090E008958F929F92AF92BF920F931F93D8
:1013D000CF93DF93CDB7DEB7A1970FB6F894DEBFFA
:1013E0000FBECDBF19A2423008F44AE08E010F5D56
:1013F0001F4F842E912CA12CB12CA50194019AD5BC
:10140000E62FB901CA0101501109EA3014F4E05D78
:1014100001C0E95CD801EC93232B242B252B69F721
:10142000C801BEDFA1960FB6F894DEBF0FBECDBFD8
:10143000DF91CF911F910F91BF90AF909F908F90B0
:101440000895CF93DF93ACDFEC0185E793E0A8DF4D
:101450008C0F9D1FDF91CF9108954F925F926F92F5
:101460007F928F929F92AF92BF92CF92DF92EF9234
:10147000FF926B017C01B42E9B01AC01B4D7882391
:1014800019F088E793E024C026013701E89477F843
:101490002FEF3FEF4FE75FE7C301B201A4D7811100
:1014A0000CC02FEF3FEF4FE75FE7C301B201EAD572
:1014B00018161CF48CE793E00BC02FEF3FEF4FE7BB
:1014C0005FE4C701B60128D718167CF480E893E0E2
:1014D000FF90EF90DF90CF90BF90AF909F908F9054
:1014E0007F906F905F904F905BCF2FEF3FEF4FE774
:1014F0005FECC701B601C6D587FDE8CF20E030E03C
:10150000A901C701B601BED587FF11C0E09144040F
:10151000F09145040190F081E02D6DE284E494E0C7
:1015200019954C01F7FAF094F7F8F09402C0812C69
:10153000912CA12C60E070E080E09FE3AB1439F0C7
:1015400020E030E040E251E4A1D5A394F7CF9B0125
:10155000AC01C701B60132D52B013C01FFD56B01AF
:101560007C0128D69B01AC01C301B20126D52B0119
:101570003C014AE0C701B60125DF7C01E80CF91CFB
:10158000BB2029F084E893E00BDFE80EF91EDB2C8A
:10159000DD20F9F020E030E040E251E4C301B20187
:1015A000BFD62B013C01DAD54B01A12CB12C4AE06E
:1015B000C501B40107DFE80EF91EC501B401FAD573
:1015C0009B01AC01C301B201F8D42B013C01DA94B8
:1015D000DFCFC701FF90EF90DF90CF90BF90AF902B
:1015E0009F908F907F906F905F904F900895D8CE8E
:1015F000CF92DF92EF92FF92CF93DF936B017C014A
:1016000097FF19C0E0914404F09145040190F081E6
:10161000E02D6DE284E494E01995EC0166277727CC
:10162000CB016C197D098E099F094AE0CBDE7C0154
:10163000EC0EFD1E03C04AE0C5DE7C0185E793E0A9
:10164000AFDE8E0D9F1DDF91CF91FF90EF90DF9069
:10165000CF90089581E003CE613208F060E25CDE55
:101660001092D8038093D70308951092D803109254
:10167000D703109221041092430410921F0481E0BA
:1016800080931E041092F90361E084E10E94FE023F
:1016900061E085E10E94FE02E9EBF0E080818E7F4F
:1016A000808380818D7F808388E48093B80085E487
:1016B0008093BC0008951F93CF93DF93182FD62FEC
:1016C00080911B0590911C0581309105B9F48091A2
:1016D000190591E090932004809342041092210414
:1016E00010924304612F81EE94E0CDD86D2F81EEEE
:1016F00094E0C9D8DF91CF911F91ACCF892B91F4A1
:10170000C091190560E08C2F0E94FE02812F8F731B
:1017100025DA8D2F23DA61E08C2FDF91CF911F9195
:101720000C94FE02DF91CF911F9108950F931F93A8
:10173000CF93DF93D82FC62F8A0160E00E94FE026C
:101740008C2F8F7380680ADA80E008DAF8018083D2
:1017500061E08D2FDF91CF911F910F910C94FE02CC
:10176000CF93C82F81E080932004C093420410924D
:1017700021041092430481EE94E085D880E06FDD6F
:1017800061E08C2FC9DD1092D8038093D70381EEDE
:1017900094E02ED8CF910895CF93DF931F92CDB7C9
:1017A000DEB7682F80911B0590911C058130910553
:1017B00021F480911905D4DF0AC0892B41F4AE01D0
:1017C0004F5F5F4F80911905B1DF898100C00F9095
:1017D000DF91CF91089580911D0590911E05813074
:1017E000910551F08230910561F0892BB1F480E0D0
:1017F00090E0A5EFBBE309C080E090E0AAE7BCE37E
:1018000004C080E090E0AAE7BDE3809323059093B5
:101810002405A0932505B093260508951F93CF9323
:10182000DF93182FD62F80911B0590911C058130D6
:101830009105B9F480911A0591E09093200480936A
:1018400042041092210410924304612F81EE94E02F
:101850001AD86D2F81EE94E016D8DF91CF911F91A9
:10186000F9CE892B91F4C0911A0560E08C2F0E946B
:10187000FE02812F8F7372D98D2F70D961E08C2F6A
:10188000DF91CF911F910C94FE02DF91CF911F91B8
:101890000895CF93DF93CDB7DEB7A8970FB6F8942E
:1018A000DEBF0FBECDBF789484B5826084BD84B5A1
:1018B000816084BD85B5826085BD85B5816085BD4B
:1018C00080916E00816080936E0010928100809103
:1018D000810082608093810080918100816080938B
:1018E0008100809180008160809380008091B100B0
:1018F00084608093B1008091B00081608093B000DB
:10190000809191008260809391008091910081602C
:1019100080939100809190008160809390008091ED
:10192000A10082608093A1008091A10081608093DA
:10193000A1008091A00081608093A000809121018E
:101940008260809321018091210181608093210137
:101950008091200181608093200180917A008460D1
:1019600080937A0080917A00826080937A008091DF
:101970007A00816080937A0080917A0080688093F9
:101980007A001092C100E0915404F091550482E075
:101990008083E0915004F09151041082E091520450
:1019A000F091530480E1808310925C04E09158042C
:1019B000F091590486E08083E0915604F091570439
:1019C000808180618083E0915604F091570480818A
:1019D00088608083E0915604F0915704808180688C
:1019E0008083E0915604F091570480818F7D80833D
:1019F00082E492E026DD87E793E023DD8DE00E941C
:101A00003B0161E08DE00E94FE028FE295E0ADD8DF
:101A1000811104C084E592E0EADDFFCFBE016F5F73
:101A20007F4F8FE295E00E94720482E992E009DD27
:101A300087EB92E0DCDDCE01019603DD86EC92E0DF
:101A4000D6DD6D857E858F859889D2DD85ED92E026
:101A5000CEDD69897A898B899C89CADD84EE92E022
:101A6000C6DD698D7A8D8B8D9C8D42E0F6DC83EF2F
:101A700092E0E7DC88EF92E0BADD6D8D7E8D8F8D90
:101A800098A142E0EADC83EF92E0DBDC87E093E0C0
:101A9000AEDD69A17AA18BA19CA142E0DEDC83EFDF
:101AA00092E0CFDC82E992E0CCDC87E793E0C9DC0E
:101AB00064EF71E080E090E00E947B0381E080931E
:101AC000340560E070E08FE295E072DA82E992E03E
:101AD000B8DC86E193E08BDD85E293E0B2DC8AE25C
:101AE00093E085DD89E393E0ACDC82E992E0A9DC58
:101AF0008FE393E0A6DC8EE493E0A3DCB6DD1092E6
:101B00001E0510921D051092200510921F051092BF
:101B10002205109221055FDE60912105709122055A
:101B20006115710579F0660F771F660F771F072E15
:101B3000000C880B990B40D320E030E040E058E3E4
:101B4000EFD304C060E070E080E898E360932B0579
:101B500070932C0580932D0590932E0560911F05A1
:101B6000709120056430710589F080E090E022D307
:101B700020E030E040E85FE321D29B01AC011ED2BF
:101B800020E030E040E058E3CBD304C060E070E0F8
:101B900080E09AE3609327057093280580932905D8
:101BA00090932A0580911B0590911C058130910529
:101BB00011F45BDD52C0892B09F04FC080911A05EA
:101BC0000E943B0161E080911A050E94FE02809113
:101BD00019050E943B0161E0809119050E94FE02F7
:101BE0001FB7F89480918603811124C0E7EBF1E0E0
:101BF0008491EDEFF1E09491E82FF0E0EE0FFF1FFC
:101C0000E859FE4FA591B491EC91E92321F461E0EC
:101C100085E30E94FE0285E30E943B018CB5806152
:101C20008CBD8CB580648CBD84E30E943B0183E352
:101C30000E943B01809186038F5F809386031FBFC4
:101C40008CB58C7F8CBD8DB58E7F8DBD8CB58F7D19
:101C50008CBD8CB5837F84608CBD8FE00E947C023C
:101C60008FE09ADD6FE080E2D9DD60E081E2D6DDD1
:101C700068E882E2D3DD60E083E2D0DD60E084E208
:101C8000CDDD6AE280E3CADD60E082E3C7DD60E0CB
:101C900083E3C4DD60E084E3C1DD60E085E3BEDDB5
:101CA00060E086E3BBDD60E087E3B8DD60E088E309
:101CB000B5DD80E20E947C02682F6F7080E2AEDDAD
:101CC00000911D0510911E0583E20E947C028F7C0D
:101CD000980144E0220F331F4A95E1F7682F622BE9
:101CE00083E29CDD10931E0500931D0574DD60E00A
:101CF0008FE1E1DC67E580E2DEDC60E081E2DBDCF5
:101D000064E082E2D8DC80E247DD8F70682F606596
:101D100080E2D1DC00911F051091200581E23CDDBD
:101D2000877E980153E0220F331F5A95E1F7682F01
:101D3000622B81E2C0DC1093200500931F05043064
:101D4000110591F0B80180E090E034D220E030E05D
:101D500040E85FE333D19B01AC0130D120E030E0BB
:101D600040E058E3DDD204C060E070E080E09AE338
:101D700060932705709328058093290590932A0581
:101D800064E984E298DC60E085E295DC60E086E26C
:101D900092DC64E083E28FDC69E082E18CDC84E247
:101DA000FBDC837E682F606184E285DC0091210585
:101DB0001091220585E2F0DC8F79980195E0220FE1
:101DC000331F9A95E1F7682F622B85E274DC10933C
:101DD0002205009321050115110581F0B801660F58
:101DE000771F660F771F072E000C880B990BE4D125
:101DF00020E030E040E058E393D204C060E070E0BF
:101E000080E898E360932B0570932C0580932D0553
:101E100090932E0560E08DE00E94FE0261E08DE06F
:101E20000E94FE02BE016F5F7F4F8FE295E00E942D
:101E30000C06CD88DE88EF88F88C20E030E0A90120
:101E4000C701B6011FD1882339F042E0C701B601AE
:101E500004DB83EF92E002C08DE593E0F2DA64EFF9
:101E600071E080E090E00E947B0360E08DE00E94E2
:101E7000FE0264EF71E080E090E00E947B030E942C
:101E80004402CCCF0895E4E4F4E01382128288EE99
:101E900093E0A0E0B0E084839583A683B7832AE033
:101EA00032E03183208325EC30E03587248724EC31
:101EB00030E03787268720EC30E0318B208B21EC17
:101EC00030E0338B228B22EC30E0358B248B26ECF8
:101ED00030E0378B268B118E128E138E148EE1EE2E
:101EE000F4E01382128284839583A683B7838AE108
:101EF00092E091838083EFE2F5E08AE292E09183C1
:101F0000808389E283831482158217821682118668
:101F1000108689E390E3A0E0B0E082879387A487EE
:101F2000B587EDEEF4E017A616A68DE184A78BE643
:101F300085A70895A1E21A2EAA1BBB1BFD010DC0A7
:101F4000AA1FBB1FEE1FFF1FA217B307E407F50769
:101F500020F0A21BB30BE40BF50B661F771F881F45
:101F6000991F1A9469F760957095809590959B01DB
:101F7000AC01BD01CF010895EE0FFF1F881F8BBF7D
:101F80000790F691E02D199409D0A59F900DB49F6C
:101F9000900DA49F800D911D11240895A29FB00162
:101FA000B39FC001A39F700D811D1124911DB29F8D
:101FB000700D811D1124911D08955058BB27AA272B
:101FC0000ED070C161D130F066D120F031F49F3F66
:101FD00011F41EF456C10EF4E095E7FB4CC1E92F55
:101FE00072D180F3BA17620773078407950718F058
:101FF00071F49EF58AC10EF4E0950B2EBA2FA02D38
:102000000B01B90190010C01CA01A0011124FF27A5
:10201000591B99F0593F50F4503E68F11A16F040A0
:10202000A22F232F342F4427585FF3CF469537959F
:102030002795A795F0405395C9F77EF41F16BA0B64
:10204000620B730B840BBAF09150A1F0FF0FBB1F12
:10205000661F771F881FC2F70EC0BA0F621F731F5B
:10206000841F48F4879577956795B795F7959E3FB8
:1020700008F0B3CF9395880F08F09927EE0F979546
:1020800087950895D4D008F481E008950CD00AC152
:1020900002D140F0F9D030F021F45F3F19F0EBC0ED
:1020A000511134C1EEC00FD198F39923C9F35523D0
:1020B000B1F3951B550BBB27AA276217730784073B
:1020C00038F09F5F5F4F220F331F441FAA1FA9F3F1
:1020D00033D00E2E3AF0E0E830D091505040E695E3
:1020E000001CCAF729D0FE2F27D0660F771F881F44
:1020F000BB1F261737074807AB07B0E809F0BB0B33
:10210000802DBF01FF2793585F4F2AF09E3F510556
:1021100068F0B1C0FBC05F3FECF3983EDCF38695FE
:1021200077956795B795F7959F5FC9F7880F911DCC
:102130009695879597F90895E1E0660F771F881FB8
:10214000BB1F621773078407BA0720F0621B730B6B
:10215000840BBA0BEE1F88F7E0950895BCD088F089
:102160009F5790F0B92F9927B751A0F0D1F0660F83
:10217000771F881F991F1AF0BA95C9F712C0B1309E
:1021800081F0C3D0B1E00895C0C0672F782F8827B1
:10219000B85F39F0B93FCCF3869577956795B395DD
:1021A000D9F73EF490958095709561957F4F8F4F4C
:1021B0009F4F0895E89409C097FB3EF49095809551
:1021C000709561957F4F8F4F9F4F9923A9F0F92FFD
:1021D00096E9BB279395F695879577956795B7957B
:1021E000F111F8CFFAF4BB0F11F460FF1BC06F5F61
:1021F0007F4F8F4F9F4F16C0882311F096E911C073
:10220000772321F09EE8872F762F05C0662371F093
:1022100096E8862F70E060E02AF09A95660F771FA7
:10222000881FDAF7880F9695879597F90895990F83
:102230000008550FAA0BE0E8FEEF16161706E80790
:10224000F907C0F012161306E407F50798F0621BB1
:10225000730B840B950B39F40A2661F0232B242B86
:10226000252B21F408950A2609F4A140A6958FEFA5
:10227000811D811D089597F99F6780E870E060E0F7
:1022800008959FEF80EC089500240A94161617060F
:1022900018060906089500240A9412161306140657
:1022A00005060895092E0394000C11F4882352F0BA
:1022B000BB0F40F4BF2B11F460FF04C06F5F7F4F72
:1022C0008F4F9F4F089557FD9058440F551F59F059
:1022D0005F3F71F04795880F97FB991F61F09F3F13
:1022E00079F087950895121613061406551FF2CF3C
:1022F0004695F1DF08C0161617061806991FF1CF8C
:1023000086957105610508940895E894BB276627B2
:102310007727CB0197F908958ADF08F48FEF0895A6
:102320000BD0C0CFB1DF28F0B6DF18F0952309F04D
:10233000A2CFA7CF1124EACFC6DFA0F3959FD1F398
:10234000950F50E0551F629FF001729FBB27F00D63
:10235000B11D639FAA27F00DB11DAA1F649F6627B8
:10236000B00DA11D661F829F2227B00DA11D621F07
:10237000739FB00DA11D621F839FA00D611D221FC1
:10238000749F3327A00D611D231F849F600D211DA5
:10239000822F762F6A2F11249F5750408AF0E1F048
:1023A00088234AF0EE0FFF1FBB1F661F771F881F91
:1023B00091505040A9F79E3F510570F05CCFA6CFD9
:1023C0005F3FECF3983EDCF3869577956795B7957C
:1023D000F795E7959F5FC1F7FE2B880F911D9695A6
:1023E000879597F9089523DF880B990B0895CF936C
:1023F000DF938230910510F482E090E0E0913F0598
:10240000F091400520E030E0C0E0D0E0309711F1DD
:102410004081518148175907C0F04817590761F4A6
:1024200082819381209719F09B838A832BC090939C
:10243000400580933F0526C02115310519F042174C
:10244000530718F49A01BE01DF01EF010280F38106
:10245000E02DDCCF2115310509F1281B390B243083
:10246000310590F412968D919C9113976115710529
:1024700021F0FB019383828304C0909340058093F5
:102480003F05FD01329644C0FD01E20FF31F819329
:102490009193225031092D933C933AC020913D05F0
:1024A00030913E05232B41F420910202309103022A
:1024B00030933E0520933D052091000230910102AA
:1024C0002115310541F42DB73EB7409104025091DA
:1024D0000502241B350BE0913D05F0913E05E21706
:1024E000F307A0F42E1B3F0B2817390778F0AC0137
:1024F0004E5F5F4F2417350748F04E0F5F1F509314
:102500003E0540933D058193919302C0E0E0F0E0E9
:10251000CF01DF91CF9108950F931F93CF93DF9356
:10252000009709F48CC0FC0132971382128200914B
:102530003F05109140050115110581F4208131817D
:10254000820F931F20913D0530913E0528173907D2
:1025500079F5F0933E05E0933D0571C0D80140E068
:1025600050E0AE17BF0750F412962D913C9113978F
:10257000AD012115310509F1D901F3CF9D01DA0132
:102580003383228360817181860F971F821793079F
:1025900069F4EC0128813981260F371F2E5F3F4FE8
:1025A000318320838A819B8193838283452B29F405
:1025B000F0934005E0933F0542C01396FC93EE93E1
:1025C0001297ED01499159919E01240F351FE21791
:1025D000F30771F480819181840F951F0296119603
:1025E0009C938E938281938113969C938E931297E2
:1025F000E0E0F0E0D80112968D919C91139700973E
:1026000019F0F8018C01F6CF8D919C9198012E5F05
:102610003F4F820F931F20913D0530913E052817B3
:10262000390769F4309729F41092400510923F055C
:1026300002C01382128210933E0500933D05DF9184
:10264000CF911F910F91089581E090E0F8940FC011
:10265000FB01DC014150504048F001900D920020F8
:10266000C9F701C01D9241505040E0F7089511E0B4
:10267000C8E0D1E000E005C0802FFE017DDC21969E
:10268000011DC930D10780E00807B1F7F894FFCFEA
:1026900000004105800000000000DD015A01A70193
:1026A00085019901230200000000430414040C0476
:1026B000F803E903E803000000002E093D05B30319
:1026C0000C067204000000000000000071049D026E
:1026D0009D024C696768742053656E736F72205455
:1026E000657374004F6F6F70732C206E6F2054539E
:1026F0004C32353631206465746563746564202E10
:102700002E2E20436865636B20796F757220776980
:1027100072696E67206F72204932432041444452EF
:1027200021002D2D2D2D2D2D2D2D2D2D2D2D2D2D12
:102730002D2D2D2D2D2D2D2D2D2D2D2D2D2D2D2DC9
:102740002D2D2D2D2D2D0053656E736F723A202087
:102750002020202020004472697665722056657220
:102760003A20202000556E697175652049443A2051
:10277000202020004D61782056616C75653A20203C
:10278000202000206C7578004D696E2056616C75B4
:10279000653A20202020005265736F6C7574696F54
:1027A0006E3A202020004761696E3A2020202020C8
:1027B00020202020004175746F0054696D696E6798
:1027C0003A20202020202020003133206D73005338
:1027D0004554555020434F4D504C455445003D3DC8
:1027E0003D3D3D3D3D3D3D3D3D3D3D3D0053656EE7
:1027F000736F72206F7665726C6F61640054534C16
:1028000032353631000D0A006E616E00696E660069
:062810006F7666002E0049
:00000001FF
