:10000000FBC1000023C70000F6C60000C9C60000FF
:100010009CC600006FC6000042C6000015C6000066
:10002000E8C500001AC2000018C2000016C2000095
:1000300014C2000012C2000010C200000EC2000074
:100040000CC200000AC2000008C2000006C2000084
:1000500004C2000002C2000000C2000080C500000F
:10006000FCC1000008C40000DDC30000F6C10000B0
:10007000F4C10000F2C10000F0C10000EEC10000B8
:10008000ECC10000EAC10000E8C10000E6C10000C8
:10009000E4C10000E2C10000E0C100000C94870947
:1000A000DCC10000DAC10000D8C10000D6C10000E8
:1000B000D4C10000D2C10000D0C10000CEC10000F8
:1000C000CCC10000CAC10000C8C10000C6C1000008
:1000D000C4C10000C2C10000C0C10000BEC1000018
:1000E000BCC10000A004A304920496049A04DA049C
:1000F000A704AB04B104B504B904BF04C304C70426
:10010000DA04CD04D104D50400000A0B02090C0D59
:100110000E080703040100000000000000000000BA
:1001200000000000000000000000000000000000CF
:10013000000000001211100000000000000000008C
:1001400000000000000000000000000000002B0381
:10015000F42041890036400A1D806010622C00089E
:100160002B03F42041890036400A1D806010622C68
:1001700033082B03F42041890036400A1D806010AB
:10018000622C22081B03416027520007400A1E8090
:100190006013A92C223A1D03A1204EA50013400A8A
:1001A0001E806027522C22481E03D0009D49004526
:1001B000400A2080604EA52C22482B03340275256E
:1001C00007FF400A1B80609D492C220F0203680133
:1001D0003A9304D5400A1E806009D50C221F0603FD
:1001E0004501D7DC076E400A2D80600EBF0C222E21
:1001F0008A036001555502AD400A50806020000C12
:1002000022C82B03A1E010C70009400A1D8060042A
:10021000322C22042703A1E010C70006400A1D80EB
:100220006004322C22072B03F42041890036400A57
:100230001D806010622C23081B03416027520007B9
:10024000400A1E806013A92C233A1D03A1204EA54D
:100250000013400A1E806027522C23481E03D00042
:100260009D490045400A2080604EA52C23482B0361
:100270003402752507FF400A1B80609D492C230F1F
:10028000020368013A9304D5400A1E806009D50C28
:10029000231F06034501D7DC076E400A2D80600E40
:1002A000BF0C232E8A036001555502AD400A5080D1
:1002B0006020000C23C8510368003A93013D2C11C3
:1002C00028806009D52C2108C803392068DC006B20
:1002D0002A082A806013A92C2108C8039C00D1B7E2
:1002E00000D4290429806027522C2108B8039C00DF
:1002F000D1B700D428822980604EA52C2108A803FC
:100300009C00D1B700D428412980609D492C210848
:1003100098039C00D1B700D4282029806009D50C0F
:10032000210898039600DA7400DC281F2980600AEF
:100330003D0C210800002200250028002B002E0083
:100340003100340002010000050108010B0100002A
:100350002100240027002A002D0030003300010175
:100360000000040107010A01050505050705080845
:100370000808020202020A0A08080404040401012F
:100380000101010101010303030303030303040744
:1003900007070C0C0C0C0C0C0C0C020202020606DB
:1003A0000606060606060B0B0B0B0B0B0B0B0102CE
:1003B0001020200808102040102040800201020177
:1003C000080402010102040810204080804020102F
:1003D0000804020180040201804020100804020188
:1003E00008040201010204081020408001020408F0
:1003F00010204080A114291111241FBECFEFD1E29B
:10040000DEBFCDBF00E00CBF14E0A0E0B2E0E0E949
:10041000F0E300E00BBF02C007900D92AC3DB107C6
:10042000D9F728E0ACEDB4E001C01D92A838B207BE
:10043000E1F711E0CBEFD1E000E006C02197010920
:10044000802FFE010E942017CA3FD10780E00807D5
:10045000A9F70E942C110C943718D2CDFC01538DB2
:10046000448D252F30E0842F90E0821B930B54178E
:1004700010F0CF96089501970895FC01918D828D1B
:10048000981761F0828DDF01A80FB11D5D968C91E8
:10049000928D9F5F9F73928F90E008958FEF9FEFF3
:1004A0000895FC01918D828D981731F0828DE80FAF
:1004B000F11D858D90E008958FEF9FEF0895FC0169
:1004C000918D228D892F90E0805C9F4F821B910936
:1004D0008F73992708958DE595E0F1DF21E0892B51
:1004E00009F420E0822F0895FC01848DDF01A80F1C
:1004F000B11DA35ABF4F2C91848D90E001968F734C
:100500009927848FA689B7892C93A089B1898C916A
:1005100080648C93938D848D981306C00288F38930
:10052000E02D80818F7D80830895EF92FF920F935D
:100530001F93CF93DF93EC0181E0888F9B8D8C8D8F
:10054000981305C0E889F989808185FD23C0F62EBE
:100550000B8D10E00F5F1F4F0F731127E02E8C8D56
:10056000E8120BC00FB607FCFACFE889F989808141
:1005700085FFF5CFCE01B8DFF2CF8B8DFE01E80FFE
:10058000F11DE35AFF4FF0820B8FEA89FB898081CE
:10059000806207C0EE89FF896083E889F9898081DC
:1005A0008064808381E090E0DF91CF911F910F9173
:1005B000FF90EF900895CF93DF93EC01888D88230F
:1005C000C1F0EA89FB89808185FD05C0A889B989C8
:1005D0008C9186FD0EC00FB607FCF5CF808185FF9C
:1005E000F2CFA889B9898C9185FFEDCFCE017CDF50
:1005F000E8CFDF91CF91089580E090E0892B19F04A
:100600006ADF811125C080E090E0892B41F080E015
:1006100090E0892B21F00E94000081111CC080E035
:1006200090E0892B41F080E090E0892B21F00E943E
:100630000000811113C080E090E0892BA1F080E0E0
:1006400090E0892B81F00E94000081110AC008957A
:100650000E940000D8CF0E940000E1CF0E9400005D
:10066000EACF0C94000008953FB7F89480915205AA
:1006700090915305A0915405B091550526B5A89BBE
:1006800005C02F3F19F00196A11DB11D3FBFBA2F24
:10069000A92F982F8827820F911DA11DB11DBC0184
:1006A000CD0142E0660F771F881F991F4A95D1F749
:1006B000089508958091C10085FDFCCF8091C00010
:1006C00085FFF8CF6093C60081E090E0089508951B
:1006D00008958CB5962F93708C7F892B8CBD9DB51A
:1006E00062FB882780F9692F6E7F682B6DBD0895A6
:1006F0008CB5837F682B6CBD08958CB5611102C0E9
:10070000806201C08F7D8CBD08959FB7F894809161
:100710004C05882319F0815080934C0580914C053D
:10072000811105C08CB58F7B8CBD10924B059FBF8E
:1007300008958CB58F778CBD08958CB580688CBD7D
:1007400008956EBD00000DB407FEFDCF8EB508956F
:1007500085ED8093BC008091BC0084FDFCCF10929D
:10076000250508954091FF04262F30E0240F311D08
:1007700021323105DCF4209125052430C9F4FC0137
:1007800080E090E0861758F43091FF042191DC015D
:10079000A352BB4FA30FB11D2C930196F3CF8091B1
:1007A000FF04680F6093FF0480E0089581E00895DE
:1007B00082E0089508958FEF9FEF08958FEF9FEFE8
:1007C00008958091DC0490E09195819591090895B8
:1007D000CF93DF931F921F92CDB7DEB7CB01642F6B
:1007E00049835A83BFDF4981842F5A81952F0F9007
:1007F0000F90DF91CF910895CF93DF931F92CDB7E4
:10080000DEB7698361E0CE010196ACDF81E090E064
:100810000F90DF91CF910895089580E090E00895C2
:100820000E940C181F920F920FB60F9211240BB654
:100830000F922F933F934F935F936F937F938F9379
:100840009F93AF93BF93EF93FF938DE595E04CDEBD
:10085000FF91EF91BF91AF919F918F917F916F9198
:100860005F914F913F912F910F900BBE0F900FBE54
:100870000F901F9018951F920F920FB60F92112490
:100880000BB60F922F938F939F93EF93FF93E0916B
:100890006D05F0916E058081E0917305F09174050E
:1008A00082FD12C09081809176058F5F8F732091B9
:1008B0007705821751F0E0917605F0E0E35AFA4FA0
:1008C000958F8093760501C08081FF91EF919F9174
:1008D0008F912F910F900BBE0F900FBE0F901F9016
:1008E0001895362F90E0FC01E85FFE4F4491FC0123
:1008F000E255FC4F2491FC01E859FC4F9491992357
:1009000009F46BC0442309F455C050E0FA01319753
:10091000E231F10508F04EC08827EE58FF4F8F4FA7
:100920000C942017809180008F7707C08091800001
:100930008F7D03C080918000877F809380003AC0C4
:1009400084B58F7702C084B58F7D84BD33C080911C
:10095000B0008F7703C08091B0008F7D8093B0008E
:1009600029C0809190008F7707C0809190008F7D83
:1009700003C080919000877F809390001BC080917E
:10098000A0008F7707C08091A0008F7D03C0809169
:10099000A000877F8093A0000DC0809120018F77F9
:1009A00007C0809120018F7D03C080912001877F47
:1009B00080932001E92FF0E0EE0FFF1FEC5CFC4F6D
:1009C000A591B4918FB7F894EC91311103C02095A3
:1009D0002E2301C02E2B2C938FBF0895CF92DF9230
:1009E000EF92FF920F931F93CF93DF931F921F926B
:1009F000CDB7DEB78C01D62EF42EEFB6F89460E0BA
:100A0000DC0116968C9129835A836BDFF801828171
:100A10009381DC01ED91FC916D2D6F770190F08158
:100A2000E02D1995CF2C5A81D52E2981F20EFC1478
:100A300079F0F80182819381DC01ED91FC910190C4
:100A4000F081E02D60E01995F60181936F01EFCF01
:100A500061E0D80116968C9144DFEFBE0F900F90A5
:100A6000DF91CF911F910F91FF90EF90DF90CF908A
:100A70000895CF93CFB7F89480914C05811123C08E
:100A8000EDE9F3E08491E3EEF3E09491E82FF0E0F8
:100A9000EE0FFF1FE25BFC4FA591B491EC91E923AF
:100AA00019F461E085E31DDF85E30E94BF0E8CB57C
:100AB00080618CBD8CB580648CBD84E30E94BF0EC8
:100AC00083E30E94BF0E80914C058F5F80934C059D
:100AD000CFBFCF9108958F929F92AF92BF92CF9246
:100AE000DF92EF92FF926B017C01BEDD4B015C0156
:100AF000C114D104E104F104E9F0B6DDDC01CB015D
:100B000088199909AA09BB09883E9340A105B10536
:100B100078F321E0C21AD108E108F10888EE880EC6
:100B200083E0981EA11CB11CC114D104E104F1049E
:100B300021F7DECFFF90EF90DF90CF90BF90AF9086
:100B40009F908F9008952FB7F89460914E05709103
:100B50004F0580915005909151052FBF08951F9228
:100B60000F920FB60F9211242F933F938F939F9361
:100B7000AF93BF9380914E0590914F05A091500582
:100B8000B091510530914D0523E0230F2D3720F40E
:100B90000196A11DB11D05C026E8230F0296A11DD7
:100BA000B11D20934D0580934E0590934F05A09362
:100BB0005005B09351058091520590915305A09135
:100BC0005405B09155050196A11DB11D80935205A4
:100BD00090935305A0935405B0935505BF91AF91E1
:100BE0009F918F913F912F910F900FBE0F901F906B
:100BF00018951F920F920FB60F9211240BB60F92F9
:100C00002F933F934F935F936F937F938F939F9314
:100C1000AF93BF93EF93FF93E0910E02F0910F0219
:100C20001995FF91EF91BF91AF919F918F917F9116
:100C30006F915F914F913F912F910F900BBE0F904D
:100C40000FBE0F901F9018951F920F920FB60F9224
:100C500011240BB60F922F933F934F935F936F9393
:100C60007F938F939F93AF93BF93EF93FF93E09105
:100C70000C02F0910D021995FF91EF91BF91AF9188
:100C80009F918F917F916F915F914F913F912F91A4
:100C90000F900BBE0F900FBE0F901F9018951F92D4
:100CA0000F920FB60F9211240BB60F922F933F9312
:100CB0004F935F936F937F938F939F93AF93BF9364
:100CC000EF93FF93E0910202F09103021995FF91D7
:100CD000EF91BF91AF919F918F917F916F915F91B4
:100CE0004F913F912F910F900BBE0F900FBE0F9021
:100CF0001F9018951F920F920FB60F9211240BB6EA
:100D00000F922F933F934F935F936F937F938F93A4
:100D10009F93AF93BF93EF93FF93E0910002F09105
:100D200001021995FF91EF91BF91AF919F918F9122
:100D30007F916F915F914F913F912F910F900BBEDB
:100D40000F900FBE0F901F9018951F920F920FB625
:100D50000F9211240BB60F922F933F934F935F93F3
:100D60006F937F938F939F93AF93BF93EF93FF9373
:100D7000E0910A02F0910B021995FF91EF91BF915A
:100D8000AF919F918F917F916F915F914F913F9123
:100D90002F910F900BBE0F900FBE0F901F901895C4
:100DA0001F920F920FB60F9211240BB60F922F9332
:100DB0003F934F935F936F937F938F939F93AF93E3
:100DC000BF93EF93FF93E0910802F0910902199508
:100DD000FF91EF91BF91AF919F918F917F916F9113
:100DE0005F914F913F912F910F900BBE0F900FBECF
:100DF0000F901F9018951F920F920FB60F9211240B
:100E00000BB60F922F933F934F935F936F937F9304
:100E10008F939F93AF93BF93EF93FF93E09106025D
:100E2000F09107021995FF91EF91BF91AF919F91BA
:100E30008F917F916F915F914F913F912F910F9083
:100E40000BBE0F900FBE0F901F9018951F920F9220
:100E50000FB60F9211240BB60F922F933F934F931F
:100E60005F936F937F938F939F93AF93BF93EF9312
:100E7000FF93E0910402F09105021995FF91EF9123
:100E8000BF91AF919F918F917F916F915F914F91A2
:100E90003F912F910F900BBE0F900FBE0F901F90A0
:100EA00018952FB7F894FC011386E059FF4F108274
:100EB0002FBF0895CF92DF92EF92FF920F931F936F
:100EC000CF93DF931F921F92CDB7DEB78C01D62E42
:100ED000F42EEFB6F89460E0DC0116968C9129832D
:100EE0005A83FFDCF80182819381DC01ED91FC9152
:100EF0006D2D60680190F081E02D1995CF2C5A81FD
:100F0000D52E2981F20EFC1471F0F80182819381B3
:100F1000D6016D916D01DC01ED91FC910190F081A4
:100F2000E02D1995F0CF61E0F8018681DADCEFBEA3
:100F30000F900F90DF91CF911F910F91FF90EF9045
:100F4000DF90CF9008950F931F93CF93FC01C3853B
:100F50008C010F581F4FF8012081C21BCC3308F0C1
:100F6000CBE3F801408150E0445F5F4F480F591FC9
:100F70002C2F6FE79FDFF8018081C80FC083CF91CE
:100F80001F910F910895EF92FF920F931F93CF93AC
:100F9000DF931F92CDB7DEB77C01162F0FB7F89401
:100FA00060E0DC0116968C9149839BDCF70182811D
:100FB0009381DC01ED91FC91612F60680190F081DB
:100FC000E02D1995F70182819381DC01ED91FC916F
:100FD0000190F081E02D4981642F199561E0F701BE
:100FE00086817FDC0FBF0F90DF91CF911F910F9112
:100FF000FF90EF900895CF93DF93EC014D81446013
:1010000067E0C1DF81E08C83DF91CF910895CF93BA
:10101000DF93EC0142E068E0B6DF40E068E0CE013B
:10102000DF91CF91B0CFCF93DF93EC01FC01EF586C
:10103000FF4F90818B85981710F4CE0184DF4B858C
:101040006EE3CE01A0DF8C81823059F04D81486083
:1010500067E0CE0198DF82E08C83CE01DF91CF91F3
:10106000D6CFDF91CF9108950F931F93CF93DF9346
:101070008C01EB0148816CE186DF49816FE1C80199
:1010800082DFAE014E5F5F4F26E060E2C80112DFF3
:10109000AE01485F5F4F23E06CE2C8010BDF4B8578
:1010A00068E5C80170DF4C8569E6C8016CDFAE01F8
:1010B000435F5F4F25E06EE6C801DF91CF911F913E
:1010C0000F91F8CE0F931F93CF93DF93EC01162F60
:1010D0000FB7F89460E08E8104DC8A819B81DC018B
:1010E000ED91FC91612F6F770190F081E02D1995C2
:1010F0008A819B81DC01ED91FC910190F081E02DD2
:1011000060E01995182F61E08E81EBDB0FBF812F16
:10111000DF91CF911F910F910895FF920F931F932D
:10112000CF93DF931F921F92CDB7DEB78C0122E0E1
:10113000AE014F5F5F4F63E051DC898187FF1DC0C7
:1011400043E068E0C8011FDF40E068E0C8011BDF42
:10115000D80114968C911497823049F414961C92FD
:10116000F801EF58FF4F1082C8015DDF06C0F8019B
:101170008481813011F4C80194DE898185FF0BC020
:10118000F801EF58FF4F9081D8011B968C9198176A
:1011900010F4C801D8DE898184FF18C0F801838566
:1011A00090E0C7968536910588F4438550E0445F0A
:1011B0005F4F400F511F27E36FE7C8010FDCD801D5
:1011C0001B968C911B97895C1B968C93898183FF5E
:1011D00008C0D801ED91FC910190F081E02DC8018B
:1011E00019958A8183FF08C0D801ED91FC91028096
:1011F000F381E02DC8011995298122FF0AC0F80169
:10120000EA58FF4F80819181019691838083F80194
:10121000148221FF2CC06BE4C80154DFF82EF4E6E1
:10122000F81708F447C0D8011B968C91F81608F4FB
:1012300041C0F801838543852F2D281B50E0445F72
:101240005F4F400F511F6FE7C801C8DBF801EC5832
:10125000FF4F80819181019691838083D8011B96F5
:10126000FC921B9714961C9281E0349780838981AD
:1012700080FF13C0F801EE58FF4F808191810196E5
:1012800091838083C8010DDEC801C1DEF80114829C
:101290008481813011F0C801AEDE8A8186FF17C0DB
:1012A00066E2C8010FDFF801E858FF4F8083C801EC
:1012B000AEDE0BC0F801EE58FF4F808191810196A0
:1012C00091838083D80114961C92C801EADD0F90A7
:1012D0000F90DF91CF911F910F91FF900895809112
:1012E0005A0590915B05009709F017CF08958091FA
:1012F000580590915905009709F00FCF08958091F6
:10130000560590915705009709F007CF08951F9251
:101310000F920FB60F9211240BB60F922F933F939B
:101320004F935F936F937F938F939F93AF93BF93ED
:10133000EF93FF938091B900887F803609F49CC0B9
:1013400068F5883209F45BC090F4803109F454C028
:1013500038F4882309F4F6C0883009F44DC0F5C08C
:10136000883109F44CC0803209F45DC0EEC080348D
:1013700009F468C048F4803309F455C0883309F093
:10138000E4C080932405D8C0803509F44FC0883567
:1013900009F45DC0883409F0D8C0D6C0883909F492
:1013A000C7C0A8F4883709F467C038F4883609F450
:1013B00063C0803709F460C0C8C0883809F4B8C079
:1013C000803909F45FC0803809F0BFC05BC0803B42
:1013D00009F486C038F4803A09F466C0883A09F402
:1013E0007FC0B3C0803C09F4A7C0883C09F4A4C006
:1013F000883B09F48AC0A9C080914A0510C0909129
:10140000490580914805981770F5E091490581E0FC
:101410008E0F80934905F0E0E85DFA4F808180935C
:10142000BB0085EC86C0809324058EC0E091490501
:1014300081E08E0F809349058091BB00F0E0E85D6C
:10144000FA4F808390914905809148056EC0E091E4
:10145000490581E08E0F809349058091BB00F0E043
:10146000E85DFA4F80838091270581116DC081E08E
:101470008093260584EA61C083E08093250510925D
:101480002305CFCF80912305803208F051C0E09131
:10149000230581E08E0F809323058091BB00F0E04F
:1014A000ED5FFA4F8083BDCF85EC8093BC00109236
:1014B000250580912305803230F4E0912305F0E08A
:1014C000ED5FFA4F10826091230570E0E091010515
:1014D000F091020583E095E019951092230535C03F
:1014E00084E080932505109200051092FF04E0919E
:1014F000FD04F091FE0419958091FF04811105C04F
:1015000081E08093FF041092DD04E091000581E00A
:101510008E0F80930005F0E0E352FB4F80818093B3
:10152000BB00909100058091FF04981708F479CFD3
:1015300085E88093BC0009C085EC8093BC001092C4
:10154000250503C01092240503D9FF91EF91BF91A7
:10155000AF919F918F917F916F915F914F913F914B
:101560002F910F900BBE0F900FBE0F901F901895EC
:101570002F923F924F925F926F927F928F929F92A3
:10158000AF92BF92CF92DF92EF92FF920F931F9391
:10159000CF93DF9300D01F921F92CDB7DEB78C019F
:1015A0006C834D838AEA93E0B3D482EC93E0B0D4A9
:1015B000609171077091720780E090E04AE03ED43C
:1015C0008BEC93E0A5D42C81622F70E080E090E05A
:1015D0004AE034D43090700733943092700720E0A2
:1015E000812C912C5401939481E0820F89839091F6
:1015F0007307921708F4A2C0E0907107F090720789
:101600000E94AE16A50194010E94C3169B01AC0175
:10161000D7010E94DF16A50194010E94C316E20EB5
:10162000F31E432D6CE389E596E0ADDC40E06DE30D
:1016300089E596E0A8DC4D816AE389E596E0A3DCC4
:101640006C81C80166D47FDA2B013C016701E12C73
:10165000F12C79DADC01CB0184199509A609B709C7
:101660008C159D05AE05BF0520F480915D06823086
:1016700081F38D818F3F09F44AC09981923048F0FF
:1016800080916E0790916F07019690936F078093FA
:101690006E0759DA2B013C0156DA2981AB01BC01F6
:1016A00044195509660977094C155D056E057F05D6
:1016B00008F09ACF8091C906882359F18091C90614
:1016C000882351F389E596E0ECDB68E489E596E050
:1016D000F9DC282F67E489E596E02B83F3DC382FCB
:1016E00069E489E596E03A83EDDC282E6AE489E531
:1016F00096E0E8DC2B813A819D81291312C09091FC
:101700006D0739130EC087FF0CC023100AC081E09B
:1017100016C080915D06813089F289E596E06BDC28
:10172000CDCF87FDB9CFE22FF0E0EC58F84F8081A4
:101730002812B2CF622F822D25D4AECF80E00F9039
:101740000F900F900F900F90DF91CF911F910F91FD
:10175000FF90EF90DF90CF90BF90AF909F908F90D1
:101760007F906F905F904F903F902F9008950F93D0
:101770001F93CF93DF938C01EB01FC01808191815A
:101780000097B1F0688179816115710579F0428126
:1017900053812C813D814217530740F00E9422184B
:1017A0008C819D81F8019583848313C00E94CD159F
:1017B00088819981F801918380838A819B819383B9
:1017C00082838C819D8195838483198218821B82F8
:1017D0001A821D821C82DF91CF911F910F91089573
:1017E0000F931F93CF93DF93EC018881998100972A
:1017F00029F02A813B812617370788F48B016F5F18
:101800007F4F0E942817009761F0998388831B837C
:101810000A832C813D81232B11F4FC01108281E08D
:1018200001C080E0DF91CF911F910F910895EF9259
:10183000FF920F931F93CF93DF93EC017B018A01FB
:10184000BA01CEDF2881398181110DC02115310502
:1018500019F0C9010E94CD15198218821D821C82BF
:101860001B821A8206C01D830C83B701C9010E9426
:101870002218CE01DF91CF911F910F91FF90EF9031
:101880000895CF93DF93EC016115710551F0FB01D1
:1018900001900020E9F73197AF01461B570BC7DFD6
:1018A0000CC088819981009711F00E94CD15198292
:1018B00018821D821C821B821A82CE01DF91CF9179
:1018C0000895FC01808191810C94CD15FB01DC0110
:1018D00011961C921E9213961C921E9212971596A8
:1018E0001C921E9214978617970741F060817181B0
:1018F0006115710519F04481558199CF0895FC0156
:101900001182108213821282158214826115710570
:1019100049F0FB0101900020E9F73197AF01461B28
:10192000570B85CF08959F92AF92BF92CF92DF92CF
:10193000EF92FF920F931F93CF93DF93CDB7DEB754
:101940002C970FB6F894DEBF0FBECDBF8C01DC0123
:1019500014968D919C911597892BE9F06DED73E0AC
:101960008D919C910E941918892BA9F4FAD08BEEC5
:1019700093E0CED209E016E0F80161918F0170E0AA
:1019800080E090E04AE05AD2F6E001311F07A1F76B
:1019900084E494E0D3C06BEF73E0CE010196AFDF37
:1019A000BE016F5F7F4FC80113D4F82ECE010196A0
:1019B00088DFFF2011F1D80114964D915C911597A5
:1019C0008EE090E08417950728F4D801ED91FC9102
:1019D000309729F410925C05ECE5F5E002C0E80FC1
:1019E000F91FDC01A650BA4F2081205311962C9389
:1019F00001968631910531F7A2C067E074E0CE010F
:101A000001967DDFBE016F5F7F4FC801E1D3F82EE5
:101A1000CE01019656DFFF2009F481C082E194E0F7
:101A2000A2D1F801E480F580FDE0EF16F10428F082
:101A3000D801ED91FC91309729F410925C05ECE50A
:101A4000F5E001C03C96C0800C2C000CDD08B0E332
:101A5000CB1AD108EDE0EE16F10428F457019DE011
:101A6000E92EF12C03C08DE0A82EB12C65E474E0C2
:101A7000CE01079644DFD80114968D919C9115975D
:101A8000A816B906C8F48E159F0508F47C01D80184
:101A9000ED91FC911197EE0DFF1D908010826D91DC
:101AA0007C916A0D7B1DCE010796EBDED801ED918E
:101AB000FC91EE0DFF1D90820F81188560E085E39B
:101AC0000E94710461E086E00E94710461E089E097
:101AD0000E947104B801CE01019611DF8EE294E0FC
:101AE00017D2CE0101966AD18FE394E011D24AE079
:101AF00062E070E080E090E0A1D183E494E022D144
:101B00004C2D62E0C80134DD61E085E30E94710480
:101B1000CE010196D6DECE010796D3DE10C0F801C5
:101B200084819581892B59F065E872E080819181EB
:101B30000E941918892B19F485E892E0E9D12C96B6
:101B40000FB6F894DEBF0FBECDBFDF91CF911F91CE
:101B50000F91FF90EF90DF90CF90BF90AF909F904C
:101B60000895CF92DF92EF92FF920F931F93CF933E
:101B7000DF9300D000D0CDB7DEB72091110630E062
:101B800080E090E08217930734F4FC01E650FA4FAE
:101B900017860196F7CF1092110686E494E0E3D001
:101BA000C12CD12C760180911106883009F474C0C3
:101BB0008DE595E00E945F021816190614F565E49C
:101BC00074E08AEF95E05DDECE010196FFD0BE01A4
:101BD0006F5F7F4F8AEF95E0CADDCE01019671DE1F
:101BE0008AEF95E0EBD083E494E0ACD06AEF75E047
:101BF000CE0101966BDECE01019695DECE010196F7
:101C000060DEE8D18C011816190654F488E794E0D8
:101C10007FD1C801019751D18FEB92E0A4D002C0CF
:101C2000892B19F160911106862F90E020E030E0B9
:101C3000281739075CF4F901E650FA4F478550E060
:101C40004017510791F02F5F3F4FF2CFFC01E65054
:101C5000FA4F0787611104C00E94A3056B017C0144
:101C6000809111068F5F80931106C114D104E104A5
:101C7000F10409F498CF0E94A305DC01CB018C1973
:101C80009D09AE09BF09843F9140A105B10508F443
:101C90008ACF88E894E067D080E090E026960FB67F
:101CA000F894DEBF0FBECDBFDF91CF911F910F9192
:101CB000FF90EF90DF90CF900895E0915D05F09157
:101CC0005E050190F081E02D682F8DE595E0199477
:101CD0000F931F930E94A30560936505709366059B
:101CE0008093670590936805E0915D05F0915E052E
:101CF0000284F385E02D8DE595E0199597FF1FC0CF
:101D00000E94A30500916505109166052091670565
:101D100030916805DC01CB01801B910BA20BB30B4A
:101D20000091610510916205209163053091640571
:101D300080179107A207B307B8F28FEF9FEF1F91AB
:101D40000F910895009761F0FC0101900020E9F7E0
:101D50003197AF01481B590BBC018DE595E04EC290
:101D600080E090E00895CF93DF93ECDFEC0183E413
:101D700094E0E8DF8C0F9D1FDF91CF91089590E0F4
:101D8000FC01E255FC4F2491FC01E859FC4F849181
:101D9000882399F090E0880F991FFC01E25BFC4FCB
:101DA000A591B491FC01EC5CFC4F859194918FB7A7
:101DB000F894EC91E22BEC938FBF0895FC014481E1
:101DC0005581608171818DE595E018C2EF92FF9297
:101DD0000F931F93CF93DF931F921F92CDB7DEB760
:101DE0008C0165E474E08BDD73DF97FD1DC0898392
:101DF0001A82F801E480F580FFEFEF1AFF0AB701BD
:101E0000C801EEDC882381F3F801208131818481CF
:101E10009581BE016F5F7F4F820F931F0E94221832
:101E2000F801F582E482E0CFC8010F900F90DF91B6
:101E3000CF911F910F91FF90EF9008958F929F92F5
:101E4000AF92BF920F931F93CF93DF93CDB7DEB7BF
:101E5000A1970FB6F894DEBF0FBECDBF19A24230D6
:101E600008F44AE08E010F5D1F4F842E912CA12CA7
:101E7000B12CA5019401B3D7E62FB901CA010150D5
:101E80001109EA3014F4E05D01C0E95CD801EC937B
:101E9000232B242B252B69F7C80154DFA1960FB6FD
:101EA000F894DEBF0FBECDBFDF91CF911F910F9190
:101EB000BF90AF909F908F900895CF92DF92EF9256
:101EC000FF92CF93DF936C01990FEE08FF08F7FEA6
:101ED00015C08DE2F2DEEC0166277727CB016C1985
:101EE0007D098E099F094AE0A9DF8C0F9D1FDF91B4
:101EF000CF91FF90EF90DF90CF9008954AE0C70117
:101F0000B601DF91CF91FF90EF90DF90CF9096CF09
:101F100019CF1F93CF93DF9320915D062230E1F319
:101F2000DFB7F8942FB7F894109264061092CA069F
:101F30002FBF662309F120916406462F50E0FA0175
:101F4000E20FF11DE536F105B8F4C62FBC011FB74D
:101F5000F89490916406892F90E08B59994F0E94D4
:101F60001018609164066C0F609364061FBF89E5CA
:101F700096E059D881E001C080E0DFBFDF91CF91CA
:101F80001F9108951F93CF93DF931F92CDB7DEB7B4
:101F9000162F482F6CE389E596E00E94C30740E8BE
:101FA0006DE389E596E00E94C30781E28983412FB2
:101FB0006AE389E596E00E94C30761E0CE010196DD
:101FC000A8DF80915D068230E1F30F90DF91CF9121
:101FD0001F9108958F929F92AF92BF92CF92DF92FE
:101FE000EF92FF920F931F93CF93DF93CDB7DEB79E
:101FF000C95FD1090FB6F894DEBF0FBECDBF60E058
:1020000085E30E94710461E086E00E94710461E052
:1020100089E00E947104CE0101966C0189EFF601FE
:1020200011928A95E9F7F601CE0186509F4FE81785
:10203000F90711F01192FBCF0E94A3054B015C013F
:1020400089EFF82E0E94A305DC01CB0188199909BC
:10205000AA09BB090A97A105B10508F09EC08091A5
:10206000C906811108C080915D06813021F089E5A3
:1020700096E00E94FB078091C906882319F380919E
:10208000C906811108C080915D06813021F089E583
:1020900096E00E94FB078091C906882399F21FB73A
:1020A000F894809164068F1510F4F09064064F2D1B
:1020B00050E065E676E0C601B3D789E596E00E9478
:1020C00051071FBF68E489E596E00E946208082F67
:1020D00067E489E596E00E946208182F69E489E5C3
:1020E00096E00E946208E82E6AE489E596E00E9484
:1020F000620887FDA7CF1F3F19F0602F8E2D42DFAA
:1021000010E0F801EC58F84F8081E81609F49ACFF6
:10211000E082D0921506C0921406F092160629812C
:10212000022E000C330B8091130690E0281739071C
:1021300019F0E12CF12C0EC08CEC94E014DE61E07F
:1021400085E30E9471040091130610E0119501953A
:10215000110929C08091160690E09C012150310997
:10216000E0911406F0911506E216F30644F4EE0D24
:10217000FF1D8081A2DDFFEFEF1AFF0AEBCF8E0F6C
:102180009F1FFC013197808198DD83E494E0DADDC4
:1021900061E085E30E94710406C061E085E30E946E
:1021A000710400E010E0C801C750DF4F0FB6F8948B
:1021B000DEBF0FBECDBFDF91CF911F910F91FF907A
:1021C000EF90DF90CF90BF90AF909F908F90089549
:1021D000FB0144815581FC0180819181009751F080
:1021E000FB01608171816115710521F032D721E019
:1021F000892B09F020E0822F08950895CF92DF9275
:10220000EF92FF920F931F93CF93DF936C017A01AC
:102210008B01C0E0D0E0CE15DF0589F0D8016D91CB
:102220008D01D601ED91FC910190F081E02DC60168
:102230001995892B11F47E0102C02196ECCFC701BC
:10224000DF91CF911F910F91FF90EF90DF90CF9092
:1022500008958AEF95E035CBCF93DF93CDB7DEB706
:1022600069970FB6F894DEBF0FBECDBF789484B5E2
:10227000826084BD84B5816084BD85B5826085BD82
:1022800085B5816085BD80916E00816080936E0010
:102290001092810080918100826080938100809102
:1022A00081008160809381008091800081608093B3
:1022B00080008091B10084608093B1008091B00073
:1022C00081608093B0008091910082608093910042
:1022D0008091910081608093910080919000816055
:1022E000809390008091A10082608093A1008091F2
:1022F000A10081608093A1008091A0008160809303
:10230000A0008091210182608093210180912101B0
:102310008160809321018091200181608093200160
:1023200080917A00846080937A0080917A00826044
:1023300080937A0080917A00816080937A00809106
:102340007A00806880937A001092C10064EF71E097
:1023500080E090E00E946B05E0916D05F0916E05C4
:1023600082E08083E0916905F0916A051082E09136
:102370006B05F0916C0580E1808310927505E0910A
:102380007105F091720586E08083E0916F05F09110
:102390007005808180618083E0916F05F091700508
:1023A000808188608083E0916F05F0917005808165
:1023B00080688083E0916F05F091700580818F7D4A
:1023C000808364EF71E080E090E00E946B058DE512
:1023D00095E00E94DB0264EF71E080E090E00E94F3
:1023E0006B0565E474E08AEF95E04BDA88E692E0ED
:1023F000BADC65E474E08AEF95E043DA8091FE058B
:102400009091FF05892BE9F48DE595E00E945F022C
:10241000181619067CF4CE010196D8DCBE016F5F58
:102420007F4F8AEF95E0A3D9CE0101964ADA8AEF71
:1024300095E0C4DC68EE73E080E090E00E946B05FC
:10244000DDCF6AE772E08091FA059091FB05F1D546
:10245000892BD1F685E892E086DC84E090DC60E0B0
:1024600084E00E94710464EF71E080E090E00E94DB
:102470006B0560E170E080E090E00E946B0509E58B
:1024800016E080915F067BDC61E080915F060E9430
:10249000710480915B0690915C06DC01ED91FC91EA
:1024A0000680F781E02D199580915B0690915C067E
:1024B000DC01ED91FC910484F585E02D60E0199537
:1024C00080915B0690915C06DC01ED91FC910284A9
:1024D000F385E02D61E0199580915B0690915C0693
:1024E000DC01ED91FC910684F785E02D61E0199502
:1024F00064E670E080E090E00E946B0540E867E0F1
:10250000C8010E94C30761E070E080E090E00E9493
:102510006B0560E0C8010E946208809361068750E5
:10252000823008F0E7C180916006811112C01093DB
:102530005705009356058FE799E090930102809329
:10254000000280916A008C7F826080936A00EC9A1E
:1025500028C0813091F4109359050093580587E7FE
:1025600099E0909303028093020280916A00837F36
:10257000886080936A00ED9A14C0823009F0BAC175
:1025800010935B0500935A058FE699E0909305023E
:1025900080930402809169008C7F8260809369003F
:1025A000E89A8FB7F894109264061092CA068FBF0B
:1025B00089E596E00E94510744E06DE789E596E0E1
:1025C0000E94C30747E36EE789E596E00E94C307D0
:1025D0004091620643704C6860E389E596E00E9492
:1025E000C30748E862E389E596E00E94C30742E436
:1025F00063E389E596E00E94C30748E064E389E568
:1026000096E00E94C3078DE28B8B84ED8C8B22E0D9
:10261000AE014D5E5F4F66E389E596E00E945A0782
:102620004FEF63E489E596E00E94C30740E06FE363
:1026300089E596E00E94C30740E06AE389E596E0F9
:102640000E94C30740E06BE389E596E00E94C30760
:1026500040E06CE389E596E00E94C30740E06DE34B
:1026600089E596E00E94C30742E16BE089E596E0C8
:102670000E94C30745E16CE089E596E00E94C3072C
:1026800047EB65E089E596E00E94C30740E466E019
:1026900089E596E00E94C30740E063E789E596E09C
:1026A0000E94C30740E064E789E596E00E94C30703
:1026B00043E565E789E596E00E94C30744E666E7DF
:1026C00089E596E00E94C30740E067E789E596E068
:1026D0000E94C30740E56AE289E596E00E94C307CD
:1026E00062E089E596E00E94620842E150E064E819
:1026F00071E0CE0101963ED3BE016F5F7F4F89E549
:1027000096E00E94340843E06DE689E596E00E9479
:10271000C3074091D2066FE389E596E00E94C307A4
:102720004091D2066BE389E596E00E94C3078FE8EB
:1027300092E019DB42E150E06CEC71E0CE010196D1
:1027400019D3BE016F5F7F4F89E596E00E94340880
:1027500047E06DE689E596E00E94C30782E390E0DA
:10276000909372078093710782E08093010683E063
:102770008093020684E08093030685E0809304063C
:1027800086E08093050687E08093060688E08093C4
:10279000070689E0809308068EE0B82E8DE595E067
:1027A0000E945F0218161906ECF465E474E08AEFE3
:1027B00095E067D8CE01019609DBBE016F5F7F4FC0
:1027C0008AEF95E00E94B70BCE0101967AD86AEFA6
:1027D00075E0CE0101967AD8CE010196A4D8CE013B
:1027E00001966FD8BED98DE992E0BDDA00E010E025
:1027F0008091110690E0081719070CF075C081EC64
:1028000092E086DBECE9F3E0DE0111968B2D01907E
:102810000D928A95E1F7F801E650FA4F6F0147856E
:1028200060E085E3498F0E94710461E086E00E94C8
:10283000710461E089E00E947104498D6EE0CE016F
:1028400001960E94B80A61E0882321F085E30E9486
:10285000710447C085E30E94710484EE92E083DA3C
:102860000E94A305B7DB7C012091130630E031956F
:10287000219531098217930741F18DE595E00E947A
:102880005F02181619060CF03CC065E474E08AEF8C
:1028900095E00E94410CCE01439698DABE016D5E30
:1028A0007F4F8AEF95E00E94B70BCE01439609D87F
:1028B0006AEF75E0CE01439609D8CE01439633D82E
:1028C000CE0143960E94610C1CC084E193E020DBA2
:1028D000D6011F968C9190E00197EFDA8FEB92E092
:1028E00042DA0F5F1F4F84CF84E393E03CDA0E940B
:1028F000FC0254CF87E593E036DA84E693E033DADE
:10290000FFCFE114F10409F4ADCF40911106242F5B
:1029100030E080E090E0821793075CF4FC01E65021
:10292000FA4F678570E06E157F0509F49BCF01961D
:10293000F2CFF901E650FA4FE7864F5F4093110658
:1029400091CFEDE5F5E01382128288EE93E0A0E0EE
:10295000B0E084839583A683B78324E332E0318398
:10296000208325EC30E03587248724EC30E037875E
:10297000268720EC30E0318B208B21EC30E0338B4C
:10298000228B22EC30E0358B248B26EC30E0378B29
:10299000268B118E128E138E148EE4E7F8E01382CC
:1029A000128226E432E031832083E8E7F8E01382E4
:1029B000128284839583A683B78382E592E0918314
:1029C0008083E9E5F6E085E38683178281E08583ED
:1029D00014821092CE061092CD061092CC06109260
:1029E000CB061092D0061092CF0620E132E033835E
:1029F000228321E030E0328721878093D20624E6CB
:102A000032E03183208310926F0710926E0710928C
:102A1000700728EC30E0309372072093710793E041
:102A200090937307E0E2F6E099E191831482108EAF
:102A3000178E11A2E2E1F6E092E09083818382E2B8
:102A4000858384E186838BE0878384E591E09187A9
:102A50008087338722878EE690E09587848765E4B8
:102A600074E08AEF95E00E947F0C109211060895A1
:102A7000CF93DF938230910510F482E090E0E091F3
:102A80008608F091870820E030E0C0E0D0E0309781
:102A900011F14081518148175907C0F04817590773
:102AA00061F482819381209719F09B838A832BC0E4
:102AB000909387088093860826C02115310519F068
:102AC0004217530718F49A01BE01DF01EF0102809B
:102AD000F381E02DDCCF2115310509F1281B390BDD
:102AE0002430310590F412968D919C9113976115C5
:102AF000710521F0FB019383828304C090938708C2
:102B000080938608FD01329644C0FD01E20FF31F59
:102B100081939193225031092D933C933AC0209197
:102B2000840830918508232B41F4209114023091C0
:102B30001502309385082093840820911202309169
:102B400013022115310541F42DB73EB7409116020D
:102B500050911702241B350BE0918408F0918508F1
:102B6000E217F307A0F42E1B3F0B2817390778F064
:102B7000AC014E5F5F4F2417350748F04E0F5F1FC3
:102B800050938508409384088193919302C0E0E0BC
:102B9000F0E0CF01DF91CF9108950F931F93CF9372
:102BA000DF93009709F48CC0FC01329713821282E4
:102BB00000918608109187080115110581F4208184
:102BC0003181820F931F2091840830918508281746
:102BD000390779F5F0938508E093840871C0D8012E
:102BE00040E050E0AE17BF0750F412962D913C9193
:102BF0001397AD012115310509F1D901F3CF9D01DD
:102C0000DA013383228360817181860F971F8217D7
:102C1000930769F4EC0128813981260F371F2E5F55
:102C20003F4F318320838A819B8193838283452B0D
:102C300029F4F0938708E093860842C01396FC932A
:102C4000EE931297ED01499159919E01240F351F82
:102C5000E217F30771F480819181840F951F02962A
:102C600011969C938E938281938113969C938E935D
:102C70001297E0E0F0E0D80112968D919C911397A5
:102C8000009719F0F8018C01F6CF8D919C91980175
:102C90002E5F3F4F820F931F20918408309185084B
:102CA0002817390769F4309729F410928708109291
:102CB000860802C01382128210938508009384084C
:102CC000DF91CF911F910F9108958F929F92AF92B4
:102CD000BF92CF92DF92EF92FF92CF93DF93EC01FE
:102CE000688179818A819B816115710581059105D2
:102CF00021F464E279ED8BE597E02DE133EF41E0DB
:102D000050E041D049015A019B01AC01A7EAB1E46E
:102D100056D06B017C01ACEEB4EFA50194015BD001
:102D2000DC01CB018C0D9D1DAE1DBF1DB7FF03C087
:102D30000197A109B04888839983AA83BB83BC010A
:102D4000CD019F77DF91CF91FF90EF90DF90CF90F3
:102D5000BF90AF909F908F900895B7CF88E192E099
:102D6000B4CF609318027093190280931A02909363
:102D70001B020895FB01DC0102C005900D92415039
:102D80005040D8F70895052E97FB16F400940FD005
:102D900057FD05D024D007FC02D046F408C050955A
:102DA0004095309521953F4F4F4F5F4F0895909537
:102DB0008095709561957F4F8F4F9F4F089531D0CB
:102DC000A59F900DB49F900DA49F800D911D11247F
:102DD0000895B7FFF4CFF3DF821B930B0895A1E2B0
:102DE0001A2EAA1BBB1BFD010DC0AA1FBB1FEE1F85
:102DF000FF1FA217B307E407F50720F0A21BB30BD0
:102E0000E40BF50B661F771F881F991F1A9469F74B
:102E100060957095809590959B01AC01BD01CF01A7
:102E20000895A29FB001B39FC001A39F700D811DA3
:102E30001124911DB29F700D811D1124911D0895C3
:102E4000EE0FFF1F881F8BBF0790F691E02D19949E
:102E50006F927F928F929F92AF92BF92CF92DF92AA
:102E6000EF92FF920F931F93CF93DF93EC010097A4
:102E700081F4CB01DF91CF911F910F91FF90EF90E3
:102E8000DF90CF90BF90AF909F908F907F906F908A
:102E9000EFCDFC01E60FF71F9C0122503109E2172C
:102EA000F30708F4A8C0D9010D911C9111970617DA
:102EB0001707A8F00530110508F49BC0C801049756
:102EC0008617970708F495C002501109061B170BC7
:102ED000019311936D937C93CF015FDE8AC05B01F8
:102EE000A01AB10A4C01800E911EA0918608B091E3
:102EF000870840E050E0E12CF12C109709F44AC01B
:102F0000A815B905D1F56D907C901197630182E009
:102F1000C80ED11CCA14DB0480F1A3014A195B0955
:102F20006A0182E0C80ED11C1296BC9012971396CB
:102F3000AC91B5E0CB16D10440F0B282A3835183AB
:102F40004083D9016D937C930AC00E5F1F4FC3016C
:102F5000800F911FF90191838083EB2DFA2FE114EB
:102F6000F10431F0D7011396FC93EE93129741C010
:102F7000F0938708E09386083CC08D919C9111974F
:102F80004817590708F4AC017D0112960D90BC91C9
:102F9000A02DB3CF8091840890918508881599055C
:102FA000E1F446175707C8F480911202909113027A
:102FB000009741F48DB79EB74091160250911702C9
:102FC000841B950BE817F907B0F4F0938508E0939C
:102FD0008408F901718360830CC0CB0149DD7C0159
:102FE000009749F0A801BE011BD0CE01D6DDC70174
:102FF00004C0CE0102C080E090E0DF91CF911F912C
:103000000F91FF90EF90DF90CF90BF90AF909F9087
:103010008F907F906F90089581E090E0F89427C0A2
:10302000FB01DC0102C001900D9241505040D8F7E5
:103030000895FB01DC018D91019080190110D9F3F5
:10304000990B0895FB01DC0101900D920020E1F73E
:103050000895FB01DC014150504030F08D9101900A
:10306000801919F40020B9F7881B990B089511E015
:10307000CBEFD1E000E005C0802FFE01E1DE21961C
:10308000011DCC3FD10780E00807B1F7F894FFCFCE
:103090005903590359035903590359035903590350
:1030A00020020000880880000100000000000000ED
:1030B000A1039D039903390585037D037803690303
:1030C000000000009502FE102E02DB025F023D02AE
:1030D0005102000000005A03FE100D040C04000011
:1030E0000000FC03E8030D04DA03E103DE03DB0365
:1030F00000000000680367036265666F7265206305
:103100006F6E6E656374696F6E00726164696F499A
:103110006E69740A00726164696F496E6974003A7D
:103120003A5246323273756363657373003A3A20DC
:1031300052657175657374696E672064617461208E
:1031400066726F6D20656163682057534E2E2E2E78
:10315000003A3A2053656E64696E67206461746159
:10316000207265717565737420636F6D6D616E6437
:103170002E2E2E003A3A2057616974696E672066D8
:103180006F7220646174612066726F6D2065616387
:10319000682057534E20746F2062652073656E74EB
:1031A0002E2E2E003A3A446F6E6520726563656973
:1031B00076696E6720646174612066726F6D205756
:1031C000534E20003A3A20446F6E65207265717547
:1031D000657374696E6720646174612066726F6DD7
:1031E0002057534E732E003A3A5246323266616986
:1031F0006C6564003A3A204D756C6520696E69749F
:1032000069616C697A6174696F6E206661696C6569
:10321000642C20666978206572726F727320616E0B
:10322000642074727920616761696E005472616E06
:10323000736665725265616479004265666F726596
:103240002053656E642066756E6374696F6E202D01
:10325000200074696D656F75743A002C206D65737C
:10326000736167655F6C656E6774683A007570645A
:103270006174654E6574776F726B0075706461740C
:1032800065644E6574776F726B3A006E65774E6554
:1032900074776F726B3A0073656E736F724E6F6402
:1032A000650073656E64696E67436F6D6D616E6412
:1032B000546F53656E736F724E6F64657300736500
:1032C0006E64696E6720737472696E673A200020BD
:1032D0007C20000D0A003A3A2057616974696E67D4
:1032E00020666F722057534E7320746F20287265CA
:1032F00029656E746572205472616E736665722002
:103300004D6F64652E2E2E003A3A446574656374E1
:1033100065642057534E20003A3A2054696D656F1A
:103320007574207265616368656420666F722077CA
:10333000616974696E6720666F722057534E7320FF
:10334000746F2028726529656E74657220547261ED
:103350006E73666572204D6F64652E003A3A454F74
:0C3360004620726561636865642E000001
:020000023000CC
:10E000000D9489F10D94B2F10D94B2F10D94B2F129
:10E010000D94B2F10D94B2F10D94B2F10D94B2F1F0
:10E020000D94B2F10D94B2F10D94B2F10D94B2F1E0
:10E030000D94B2F10D94B2F10D94B2F10D94B2F1D0
:10E040000D94B2F10D94B2F10D94B2F10D94B2F1C0
:10E050000D94B2F10D94B2F10D94B2F10D94B2F1B0
:10E060000D94B2F10D94B2F10D94B2F10D94B2F1A0
:10E070000D94B2F10D94B2F10D94B2F10D94B2F190
:10E080000D94B2F10D94B2F10D94B2F10D94B2F180
:10E090000D94B2F10D94B2F10D94B2F10D94B2F170
:10E0A0000D94B2F10D94B2F10D94B2F10D94B2F160
:10E0B0000D94B2F10D94B2F10D94B2F10D94B2F150
:10E0C0000D94B2F10D94B2F10D94B2F10D94B2F140
:10E0D0000D94B2F10D94B2F10D94B2F10D94B2F130
:10E0E0000D94B2F141546D656761323536300041AF
:10E0F000726475696E6F206578706C6F72657220DE
:10E1000073746B3530305632206279204D4C530099
:10E11000426F6F746C6F616465723E004875683F52
:10E1200000436F6D70696C6564206F6E203D200048
:10E130004350552054797065202020203D20005FF9
:10E140005F4156525F415243485F5F3D2000415658
:10E1500052204C696243205665723D20004743437C
:10E160002056657273696F6E203D20004350552024
:10E1700049442020202020203D20004C6F7720663D
:10E18000757365202020203D20004869676820665F
:10E190007573652020203D200045787420667573D6
:10E1A00065202020203D20004C6F636B2066757336
:10E1B000652020203D20004D617220203720323024
:10E1C000313300312E362E3800342E332E350056A2
:10E1D00023202020414444522020206F7020636F70
:10E1E00064652020202020696E73747275637469E1
:10E1F0006F6E2061646472202020496E74657272B3
:10E20000757074006E6F20766563746F7200726A49
:10E210006D702020006A6D70200057686174207056
:10E220006F72743A00506F7274206E6F7420737541
:10E2300070706F72746564004D7573742062652030
:10E2400061206C6574746572002000577269747483
:10E25000696E672045450052656164696E672045B7
:10E26000450045452065727220636E743D00504F35
:10E27000525400303D5A65726F2061646472003FF1
:10E280003D43505520737461747300403D454550C3
:10E29000524F4D207465737400423D426C696E6B41
:10E2A000204C454400453D44756D70204545505215
:10E2B0004F4D00463D44756D7020464C415348001B
:10E2C000483D48656C70004C3D4C69737420492F83
:10E2D0004F20506F72747300513D51756974005234
:10E2E0003D44756D702052414D00563D73686F7707
:10E2F00020696E7465727275707420566563746FF0
:10E30000727300593D506F727420626C696E6B00BD
:10E310002A0011241FBECFEFD1E2DEBFCDBF01E046
:10E320000CBF12E0A0E0B2E0EEE1FDEF03E00BBFB6
:10E3300002C007900D92A030B107D9F712E0A0E01B
:10E34000B2E001C01D92AE30B107E1F70F9460F367
:10E350000D948DFE01E20EBF0FEF0DBF11241FBE05
:10E360000D9460F30D9400F020E030E040ED57E0B4
:10E3700005C0FA013197F1F72F5F3F4F2817390792
:10E38000C0F308959C01260F311DC901A0E0B0E043
:10E390002F5F3F4FABBFFC018791882361F08093D3
:10E3A000C6008091C00086FFFCCF8091C0008064D1
:10E3B0008093C000EACF08958DE08093C6008091DD
:10E3C000C00086FFFCCF8091C00080648093C000B5
:10E3D0008AE08093C6008091C00086FFFCCF8091C8
:10E3E000C00080648093C00008950F94C2F10F9420
:10E3F000DCF10895FC019081992359F09093C600B7
:10E400008091C00086FFFCCF8091C0008064809323
:10E41000C0003196992379F70895282F982F929567
:10E420009F70892F805D8A3308F0895F8093C600D2
:10E430008091C00086FFFCCF8091C00080648093F3
:10E44000C000822F8F70982F905D9A3308F0995FEB
:10E450009093C6008091C00086FFFCCF8091C000E1
:10E4600080648093C00008959C01FB01853691056E
:10E470001CF46330710594F0C90164E670E00F94F8
:10E480002EFE605D7F4F6093C6008091C00086FFC6
:10E49000FCCF8091C00080648093C0002B30310598
:10E4A00014F43297B4F0C90164E670E00F942EFEC4
:10E4B0006AE070E00F942EFE605D7F4F6093C600AF
:10E4C0008091C00086FFFCCF8091C0008064809363
:10E4D000C000C9016AE070E00F942EFEC0968093E0
:10E4E000C6008091C00086FFFCCF8091C000806490
:10E4F0008093C00008951F93182F8EE692EE60E07F
:10E500000F94C2F11093C6008091C00086FFFCCF2B
:10E510008091C00080648093C0000F94DCF11F9153
:10E5200008952F923F924F925F926F927F928F92B7
:10E530009F92AF92BF92CF92DF92EF92FF920F9392
:10E540001F93DF93CF93CDB7DEB762970FB6F894E2
:10E55000DEBF0FBECDBF382E622ECA01DB015C01CB
:10E560006D01772420E2222E2E010894411C511CBB
:10E570008BC081E0A81680E0B80681E0C80680E084
:10E58000D80628F0C601AA27BB270F940DF2BB2797
:10E59000AD2D9C2D8B2D0F940DF28A2D0F940DF225
:10E5A0002092C6008091C00086FFFCCF8091C00001
:10E5B00080648093C0009DE29093C6008091C0006B
:10E5C00086FFFCCF8091C00080648093C0002092C1
:10E5D000C6008091C00086FFFCCF8091C00080649F
:10E5E0008093C00019828601750188249924A1E0D6
:10E5F0003A1651F03A1620F0B2E03B1661F409C029
:10E600000BBFF701779007C0C7010F9477FE782EF4
:10E6100002C0F7017080872D0F940DF22092C60082
:10E620008091C00086FFFCCF8091C0008064809301
:10E63000C000872D8052F401EF70F0708F3520F408
:10E64000E40DF51D708204C0E40DF51D8EE280839B
:10E650000894E11CF11C011D111D0894811C911CE2
:10E6600090E18916910409F0C2CF80E190E0A0E02A
:10E67000B0E0A80EB91ECA1EDB1E198AC2010F9493
:10E68000FAF10F94DCF16A94662009F072CF629679
:10E690000FB6F894DEBF0FBECDBFCF91DF911F91B3
:10E6A0000F91FF90EF90DF90CF90BF90AF909F9031
:10E6B0008F907F906F905F904F903F902F90089534
:10E6C0002F923F924F925F926F927F928F929F9282
:10E6D000AF92BF92CF92DF92EF92FF920F931F9370
:10E6E000DF93CF93CDB7DEB7CD53D1400FB6F894BB
:10E6F000DEBF0FBECDBF01E20EBF0FEF0DBF94B75F
:10E70000F894A89514BE80916000886180936000A1
:10E7100010926000789493FF05C0E0910002F091A0
:10E7200001021995279A2F9A8091C00082608093E8
:10E73000C00080E18093C40088E18093C1000000A4
:10E74000EE24FF24870144E0A42EB12CCC24DD2448
:10E7500024C0C5010197F1F70894E11CF11C011DCB
:10E76000111D21E2E2162EE4F20620E0020720E06D
:10E77000120718F031E0C32ED12CC801B70127ECE5
:10E780003BE140E050E00F9441FE611571058105C9
:10E79000910519F485B1805885B98091C00087FD35
:10E7A00003C0C114D104A9F2A6014F5F5F4FC25E3E
:10E7B000DE4F59834883CE51D140C25EDE4F8881FF
:10E7C0009981CE51D140019711F00D9410FEC05D9A
:10E7D000DE4F19821882C053D14060E0C15DDE4F28
:10E7E0001882CF52D14088249924C35DDE4F19820C
:10E7F0001882CD52D140C05EDE4F188219821A8233
:10E800001B82C052D140CE5CDE4F188219821A8220
:10E810001B82C253D140EE24FF2487010BBFF701B6
:10E8200007911691C45CDE4F19830883CC53D14005
:10E830000D940BFEC25EDE4F28813981CE51D1404E
:10E840002130310509F52091C600C25EDE4F1982E4
:10E850001882CE51D14022C02F5F3F4F4F4F5F4FA4
:10E86000213082E138078AE7480780E0580780F0C6
:10E87000C45CDE4FE881F981CC53D140EF5FFF4F9C
:10E8800019F0EE27FF27099420E030E040E050E047
:10E890008091C00087FFE0CF2091C600C35DDE4FAE
:10E8A00048815981CD52D1404F5F5F4FC35DDE4FEC
:10E8B00059834883CD52D140213209F063C64A3092
:10E8C000510508F05FC60894811C911C53E0851621
:10E8D000910409F059C600E010E018C081E280936D
:10E8E000C6008091C00086FFFCCF8091C00080648C
:10E8F0008093C0002F5F3F4F2931310579F70F9486
:10E90000DCF10F5F1F4F0530110519F020E030E0FA
:10E91000E5CF10920A0210920B0210920C02109294
:10E920000D02109206021092070210920802109235
:10E930000902109202021092030210920402109235
:10E9400005028FEE90EE60E00F94F5F180E191EE1C
:10E9500060E00F94C2F18091C00087FFFCCF9091DE
:10E96000C600903608F09F759032B8F09093C600BC
:10E970008091C00086FFFCCF8091C00080648093AE
:10E98000C000A0E2A093C6008091C00086FFFCCF2B
:10E990008091C00080648093C000983409F4D7C18E
:10E9A0009934B8F4923409F459C1933458F490333B
:10E9B00019F1903308F4E3C59F33A1F1903409F0C5
:10E9C000DEC5BDC0953409F470C1963409F0D7C5D1
:10E9D00098C1923509F42BC2933538F49C3409F46C
:10E9E000F5C1913509F0CBC518C2963509F445C279
:10E9F000993509F0C4C567C483E792EE62E00F94CD
:10EA0000F5F110920602109207021092080210927D
:10EA1000090210920A0210920B0210920C0210923C
:10EA20000D0213C18FE792EE62E00F94F5F18FEEC5
:10EA300090EE60E00F94F5F181E291EE60E00F94CA
:10EA4000C2F187EB91EE60E00F94F5F180E391EE77
:10EA500060E00F94C2F184EE90EE60E00F94F5F167
:10EA60008FE391EE60E00F94C2F186E090E061E008
:10EA700070E00F9434F20F94DCF18DE591EE60E0DC
:10EA80000F94C2F189EC91EE60E00F94F5F18EE401
:10EA900091EE60E00F94C2F183EC91EE60E00F9490
:10EAA000F5F18CE691EE60E00F94C2F18EE10F94E7
:10EAB0000DF288E90F940DF281E00F940DF20F949E
:10EAC000DCF18BE791EE60E00F94C2F119E0E0E039
:10EAD000F0E010935700E4918E2F0F940DF20F94F5
:10EAE000DCF18AE891EE60E00F94C2F1E3E0F0E03F
:10EAF00010935700E4918E2F0F940DF20F94DCF1D8
:10EB000089E991EE60E00F94C2F1E2E0F0E0109349
:10EB10005700E4918E2F0F940DF20F94DCF188EAE8
:10EB200091EE60E00F94C2F1E1E0F0E01093570045
:10EB30001491812F0F940DF20F94DCF107CF8BE825
:10EB400092EE62E00F94F5F18BE492EE60E00F94A8
:10EB5000F5F10F94DCF100E010E019C0C8016F2D51
:10EB60000F947FFEFF2031F489E492EE60E00F9471
:10EB7000C2F10BC0F092C6008091C00086FFFCCFAE
:10EB80008091C00080648093C0000F5F1F4FC80158
:10EB900081519F41A0E0B0E0ABBFFC01F790BAE229
:10EBA000FB1621F0E2E000301E07C1F60F94DCF105
:10EBB0000F94DCF187E592EE60E00F94F5F10F948D
:10EBC000DCF1CC24DD2400E010E01EC0C8010F946D
:10EBD00077FEF82E882331F489E492EE60E00F94FA
:10EBE000C2F10BC08093C6008091C00086FFFCCFAD
:10EBF0008091C00080648093C000FE1419F00894D6
:10EC0000C11CD11C0F5F1F4FC80181519F41A0E063
:10EC1000B0E0ABBFFC01E790FAE2EF1621F022E092
:10EC20000030120799F60F94DCF10F94DCF182E6C4
:10EC300092EE60E00F94C2F1C60161E070E00F94C3
:10EC400034F20F94DCF10F94DCF110920202109276
:10EC50000302109204021092050278CE89E992EE26
:10EC600062E00F94F5F1279A2F9A16C02F9880E052
:10EC700090E0E0EDF7E03197F1F7019684369105E9
:10EC8000C1F72F9A80E090E0E0EDF7E03197F1F7DF
:10EC9000019684369105C1F78091C00087FFE6CFC9
:10ECA0008091C00087FFFCCF64C485EA92EE62E0E9
:10ECB0000F94F5F140910202509103026091040219
:10ECC0007091050281E020E10F9491F2809102029F
:10ECD00090910302A0910402B091050280509F4FD1
:10ECE000AF4FBF4F8093020290930302A0930402A0
:10ECF000B093050280509041A040B04008F426CE69
:10ED0000A4CF83EB92EE62E00F94F5F140910602FE
:10ED100050910702609108027091090280E020E1A1
:10ED20000F9491F28091060290910702A09108023F
:10ED3000B091090280509F4FAF4FBF4F80930602A2
:10ED400090930702A0930802B0930902FFCD80ECD4
:10ED500092EE62E00F94F5F183E792EE60E00F949B
:10ED6000F5F18FE792EE60E00F94F5F18BE892EE0B
:10ED700060E00F94F5F189E992EE60E00F94F5F10F
:10ED800085EA92EE60E00F94F5F183EB92EE60E09D
:10ED90000F94F5F180EC92EE60E00F94F5F187ECC2
:10EDA00092EE60E00F94F5F188ED92EE60E00F9442
:10EDB000F5F18FED92EE60E00F94F5F18AEE92EEB0
:10EDC00060E00F94F5F183E093EEBDCD87EC92EE19
:10EDD00062E00F94F5F181E40F947BF282E40F94EA
:10EDE0007BF283E40F947BF284E40F947BF285E45E
:10EDF0000F947BF286E40F947BF287E40F947BF20E
:10EE000088E40F947BF28AE40F947BF28BE40F94F6
:10EE10007BF28CE40F947BF299CD88ED92EE62E068
:10EE20000F94F5F1772473948824992409C48FED05
:10EE300092EE62E00F94F5F140910A0250910B02BC
:10EE400060910C0270910D0282E020E10F9491F22A
:10EE500080910A0290910B02A0910C02B0910D02D8
:10EE600080509F4FAF4FBF4F80930A0290930B0289
:10EE7000A0930C02B0930D0269CD8AEE92EE62E08F
:10EE80000F94F5F184EE90EE60E00F94F5F18FECC5
:10EE900091EE60E00F94F5F1662477244301CC5D98
:10EEA000DE4F19821882C452D140D401C301B695F5
:10EEB000A79597958795CA5DDE4F88839983AA8326
:10EEC000BB83C652D140CC5DDE4FA881B981C4520C
:10EED000D1401196CC5DDE4FB983A883C452D14096
:10EEE000CD0162E070E00F9434F2B0E2B093C6005E
:10EEF0008091C00086FFFCCF8091C0008064809329
:10EF0000C000EDE2E093C6008091C00086FFFCCF18
:10EF10008091C00080648093C000F0E2F093C6004E
:10EF20008091C00086FFFCCF8091C00080648093F8
:10EF3000C000CA5DDE4FE880F9800A811B81C6529D
:10EF4000D140BB27A12F902F8F2D0F940DF2CA5DBA
:10EF5000DE4F8881C652D1400F940DF2B0E2FB2EF5
:10EF6000F092C6008091C00086FFFCCF8091C00067
:10EF700080648093C0000DE30093C6008091C000C0
:10EF800086FFFCCF8091C00080648093C00010E2B7
:10EF90001093C6008091C00086FFFCCF8091C00016
:10EFA00080648093C0008BBEF3012791C65DDE4F65
:10EFB0002883CA52D140A22EBB24CC24DD2408943D
:10EFC000611C711C811C911C8BBEF3018791282E42
:10EFD0003324442455240894611C711C811C911C09
:10EFE0008BBEF3013791C55DDE4F3883CB52D140E4
:10EFF0000894611C711C811C911C8BBEF30147910C
:10F00000C45DDE4F4883CC52D140ADEFEA2EAFEF66
:10F01000FA2EAFEF0A2FAFEF1A2F6E0C7F1C801E57
:10F02000911E142D032DF22CEE24EA0CFB1C0C1D5A
:10F030001D1D0F940DF220E22093C6008091C000A8
:10F0400086FFFCCF8091C00080648093C000C65DC5
:10F05000DE4F8881CA52D1400F940DF230E23093D6
:10F06000C6008091C00086FFFCCF8091C000806404
:10F070008093C000C45DDE4F8881CC52D1400F9494
:10F080000DF240E24093C6008091C00086FFFCCFA5
:10F090008091C00080648093C000C55DDE4F888190
:10F0A000CB52D1400F940DF250E25093C6008091A4
:10F0B000C00086FFFCCF8091C00080648093C000B8
:10F0C0008FEFE8168FEFF80680E0080780E018075A
:10F0D00031F484E092EE60E00F94C2F1DFC0D80119
:10F0E000C7018070907CA070B0708050904CA040A0
:10F0F000B040D1F52FEF3FE340E050E0E222F322B1
:10F1000004231523CA5DDE4FA880B980CA80DB8046
:10F11000C652D140AE0CBF1CC01ED11EAA0CBB1CD7
:10F12000CC1CDD1C8EE092EE60E00F94C2F1BB2798
:10F13000A12F902F8F2D0F940DF28E2D0F940DF285
:10F1400030E23093C6008091C00086FFFCCF8091F2
:10F15000C00080648093C0004EE34093C60080915D
:10F16000C00086FFFCCF87C08EE09EEFA0E0B0E03D
:10F17000E822F9220A231B239CE0E91694E9F90608
:10F1800090E0090790E0190709F088C0C45DDE4FE0
:10F19000A881CC52D140EA2EFF2400E010E0102FCD
:10F1A0000F2DFE2CEE24C55DDE4FB881CB52D14031
:10F1B000EB0EF11C011D111DD601C501817090706F
:10F1C000A070B070DC0199278827E80EF91E0A1F8D
:10F1D0001B1F20EF30E040E050E0A222B322C42207
:10F1E000D52241E1AA0CBB1CCC1CDD1C4A95D1F7F1
:10F1F000EA0CFB1C0C1D1D1D81E090E0A0E0B0E0BE
:10F20000282239224A225B2235E1220C331C441C7D
:10F21000551C3A95D1F7E20CF31C041D151D57013E
:10F220006801AA0CBB1CCC1CDD1C85E192EE60E0E1
:10F230000F94C2F1C801AA27BB270F940DF2BB2778
:10F24000A12F902F8F2D0F940DF28E2D0F940DF274
:10F2500090E29093C6008091C00086FFFCCF809121
:10F26000C00080648093C000AEE3A093C60080918C
:10F27000C00086FFFCCF8091C00080648093C000F6
:10F28000C601AA27BB270F940DF2BB27AD2D9C2DDD
:10F290008B2D0F940DF28A2D0F940DF20F94DCF14B
:10F2A000CC5DDE4FE881F981C452D140F99709F471
:10F2B0004DCBF4E0EF2EF12C012D112D6E0C7F1CA7
:10F2C000801E911EF2CD83E093EE62E00F94F5F183
:10F2D0008AE192EE60E00F94C2F18091C00087FF56
:10F2E000FCCF1091C6001F751093C6008091C0001E
:10F2F00086FFFCCF8091C00080648093C0000F9493
:10F30000DCF1812F81548A3108F036C1163409F4BA
:10F3100095C0173490F4133409F44EC0143430F40B
:10F320001134F1F0123409F01DC130C0143409F465
:10F3300059C0153409F016C16BC01A3409F4C4C0A1
:10F340001B3438F4173409F48FC0183409F00AC19B
:10F35000A1C01B3409F4D2C01C3409F003C1E8C0B9
:10F360008FEF81B90DC082B1809582B980E090E0C5
:10F37000E0EDF7E03197F1F70196883C9105C1F790
:10F380008091C00087FFEFCF12B8EFC08FEF84B934
:10F390000DC085B1809585B980E090E0E0EDF7E0A3
:10F3A0003197F1F70196883C9105C1F78091C00033
:10F3B00087FFEFCF15B8D9C08FEF87B90DC088B1DF
:10F3C000809588B980E090E0E0EDF7E03197F1F7C3
:10F3D0000196883C9105C1F78091C00087FFEFCF6F
:10F3E00018B8C3C08FEF8AB90DC08BB180958BB9A7
:10F3F00080E090E0E0EDF7E03197F1F70196883C8E
:10F400009105C1F78091C00087FFEFCF1BB8ADC059
:10F410008FEF8DB90DC08EB180958EB980E090E0F0
:10F42000E0EDF7E03197F1F70196883C9105C1F7DF
:10F430008091C00087FFEFCF1EB897C08FEF80BBD1
:10F440000DC081B3809581BB80E090E0E0EDF7E0F6
:10F450003197F1F70196883C9105C1F78091C00082
:10F4600087FFEFCF11BA81C08FEF83BB0DC084B38C
:10F47000809584BB80E090E0E0EDF7E03197F1F714
:10F480000196883C9105C1F78091C00087FFEFCFBE
:10F4900014BA6BC08FEF809301010FC080910201FD
:10F4A00080958093020180E090E0E0EDF7E03197F5
:10F4B000F1F70196883C9105C1F78091C00087FF64
:10F4C000EDCF1092020151C08FEF809304010FC065
:10F4D0008091050180958093050180E090E0E0ED4A
:10F4E000F7E03197F1F70196883C9105C1F78091DB
:10F4F000C00087FFEDCF1092050137C08FEF8093DA
:10F5000007010FC08091080180958093080180E079
:10F5100090E0E0EDF7E03197F1F70196883C910536
:10F52000C1F78091C00087FFEDCF109208011DC088
:10F530008FEF80930A010FC080910B01809580931B
:10F540000B0180E090E0E0EDF7E03197F1F70196F4
:10F55000883C9105C1F78091C00087FFEDCF1092E4
:10F560000B0103C085E292EEEEC98091C00087FFD7
:10F57000FCCF8091C600EAC988E392EEE4C98CE131
:10F5800091EEE1C988249924933011F1943028F444
:10F59000913089F09230B8F408C0953061F195301F
:10F5A000F0F0963009F048C043C02B3109F042C951
:10F5B00091E06BE13FC96227C15DDE4F2883CF52E6
:10F5C000D14092E037C9B22FA0E0622793E032C960
:10F5D000822F90E0A82BB92B622794E02BC92E3004
:10F5E00009F039C3622795E0C05DDE4F19821882A9
:10F5F000C053D1401FC9E1E0F0E0EC0FFD1FC05D3A
:10F60000DE4F08811981C053D140E00FF11F2083E4
:10F610000F5F1F4FC05DDE4F19830883C053D14079
:10F6200062270A171B0709F005C9D80196E002C92D
:10F63000261709F010C303C0973009F0FBC87724E0
:10F640009981933109F412C19431C8F4963009F4C8
:10F65000D8C0973050F4923009F406C1933009F4C1
:10F660006DC0913009F059C253C0913109F477C08F
:10F67000923108F0BBC0903109F04FC2F5C098310B
:10F6800009F487C0993150F4953109F4EFC09531F0
:10F6900008F4C6C1963109F040C2C2C19A3109F4DA
:10F6A0006CC09A3108F491C09B3109F45BC09D3164
:10F6B00009F033C29D81903359F48F81882311F46E
:10F6C0009EE11CC0813011F091E018C098E916C08D
:10F6D000892F807591F0903539F4E0E0F0E089E011
:10F6E0008093570094910AC0983539F4E3E0F0E034
:10F6F00089E080935700949101C090E01A821B82A8
:10F700008D818C831D829E831F8227E030E009C299
:10F710001A8288E08B8381E48C8386E58D8382E581
:10F720008E8389E48F8383E5888780E589878FE5E9
:10F730008A8782E38B872BE030E0F3C18A818139AD
:10F7400041F0823941F0803911F48FE005C080E04A
:10F7500003C082E001C08AE01A828B8344C0772410
:10F76000739482C08D81882311F48EE12CC0813086
:10F7700011F081E028C088E926C01A82E1E0F0E0BB
:10F7800089E08093570084918B831C8224E030E0D1
:10F79000C8C18B81803589F48C81883039F4E2E0EE
:10F7A000F0E089E08093570084910DC0E0E0F0E044
:10F7B00089E080935700849106C0E3E0F0E089E09F
:10F7C0008093570084911A82DFCF8D81836C99E0FA
:10F7D000E1E0F0E0082E90935700E89507B600FCB2
:10F7E000FDCF1A821B8223E030E09BC180EC8A832C
:10F7F000CE5CDE4F188219821A821B82C253D1401E
:10F800008EC18A8190E0A0E0B0E0582F44273327D2
:10F8100022278B8190E0A0E0B0E0DC0199278827C7
:10F82000282B392B4A2B5B2B8D8190E0A0E0B0E098
:10F83000282B392B4A2B5B2B8C8190E0A0E0B0E089
:10F84000BA2FA92F982F8827282B392B4A2B5B2BCF
:10F85000220F331F441F551FC05EDE4F288339839C
:10F860004A835B83C052D1401A8259C13A81C95C34
:10F87000DE4F3883C753D140CA5CDE4F1882C6536F
:10F88000D1408B81C82EDD24CA5CDE4F488159816E
:10F89000C653D140C42AD52A933109F082C0CE5C28
:10F8A000DE4F88819981AA81BB81C253D1408050AB
:10F8B000904CA340B04030F583E0CE5CDE4FE88052
:10F8C000F9800A811B81C253D140F70100935B008C
:10F8D00080935700E89507B600FCFDCFCE5CDE4F65
:10F8E000088119812A813B81C253D14000501F4FAA
:10F8F0002F4F3F4FCE5CDE4F088319832A833B8313
:10F90000C253D140C05EDE4F488159816A817B81FC
:10F91000C052D140DE011B9631E08C9111962C91A2
:10F9200011971296C75CDE4F2883C953D140C85C3B
:10F93000DE4F1882C853D14090E0C85CDE4FE881AA
:10F94000F981C853D1408E2B9F2B0C01FA01609393
:10F950005B0030935700E89511244E5F5F4F6F4F67
:10F960007F4F0EEFE02E0FEFF02ECE0CDF1CC114F8
:10F97000D10499F685E0C05EDE4F088119812A81A5
:10F980003B81C052D140F80120935B008093570027
:10F99000E89507B600FCFDCF81E180935700E8951C
:10F9A00035C0C05EDE4F88819981AA81BB81C0527B
:10F9B000D140B695A795979587957C018601ABE0D8
:10F9C000AA2EB12CAC0EBD1E0BC0D5016D915D01F0
:10F9D000C7010F947FFE0894E11CF11C01501040F8
:10F9E0000115110591F7A60160E070E0440F551F65
:10F9F000661F771FC05EDE4FE880F9800A811B8199
:10FA0000C052D1404E0D5F1D601F711F1A82C05E33
:10FA1000DE4F488359836A837B83C052D1407FC0C5
:10FA2000FA80C55CDE4FF882CB53D140C65CDE4F16
:10FA30001882CA53D1408B81C82EDD24C65CDE4FAC
:10FA400008811981CA53D140C02AD12A1A828981DA
:10FA5000BE016D5F7F4F843121F59601C05EDE4FA0
:10FA6000E880F9800A811B81C052D1400BBFF701A9
:10FA700087919691DB018C9311969C936E5F7F4FDB
:10FA8000D801C7010296A11DB11DC05EDE4F88835B
:10FA90009983AA83BB83C052D14022503040F1F6F3
:10FAA00036C0C05EDE4F288139814A815B81C052F9
:10FAB000D1400894C108D108760100E010E0089414
:10FAC000C11CD11C0894E11CF11C011D111DE20E8A
:10FAD000F31E041F151F21BDBB27A52F942F832FB5
:10FAE00082BD2F5F3F4F4F4F5F4FF89A80B5DB01CC
:10FAF0008D93BD012E153F054007510761F7C05E8C
:10FB0000DE4F288339834A835B83C052D1409601FC
:10FB10002D5F3F4FFB01108204C080EC8A8322E0FE
:10FB200030E08BE18093C6008091C00086FFFCCF5F
:10FB30008091C00080648093C000C15DDE4FF88179
:10FB4000CF52D140F093C6008091C00086FFFCCF19
:10FB50008091C00080648093C000432F3093C60022
:10FB60008091C00086FFFCCF8091C00080648093AC
:10FB7000C000922F2093C6008091C00086FFFCCF6A
:10FB80008091C00080648093C0008EE08093C600A6
:10FB90008091C00086FFFCCF8091C000806480937C
:10FBA000C00065E1C15DDE4FE880CF52D1406E25D7
:10FBB00069276427FE01319610C090819093C6009A
:10FBC0008091C00086FFFCCF31968091C000806498
:10FBD0008093C0006927215030402115310569F715
:10FBE0006093C6008091C00086FFFCCF8091C0006A
:10FBF00080648093C00085B1805885B9772081F4F6
:10FC0000C15DDE4F0881CF52D1400F5FC15DDE4F35
:10FC10000883CF52D14090E0A0E0B0E00D941AF4F8
:10FC200027982F9880E090E020ED37E0F901319798
:10FC3000F1F7019684369105C9F700008091C00064
:10FC40008D7F8093C00081E180935700E895EE2777
:10FC5000FF270994FFCF90E00D941AF497FB092E2B
:10FC600007260AD077FD04D02ED006D000201AF443
:10FC7000709561957F4F0895F6F7909581959F4F08
:10FC80000895A1E21A2EAA1BBB1BFD010DC0AA1FDD
:10FC9000BB1FEE1FFF1FA217B307E407F50720F0F5
:10FCA000A21BB30BE40BF50B661F771F881F991F70
:10FCB0001A9469F760957095809590959B01AC01B9
:10FCC000BD01CF010895AA1BBB1B51E107C0AA1FAC
:10FCD000BB1FA617B70710F0A61BB70B881F991FED
:10FCE0005A95A9F780959095BC01CD010895F99991
:10FCF000FECF92BD81BDF89A992780B50895262F31
:10FD0000F999FECF1FBA92BD81BD20BD0FB6F89400
:0EFD1000FA9AF99A0FBE01960895F894FFCF63
:040000033000E000E9
:00000001FF