:10000000FAC1000038C600000BC60000DEC50000C3
:10001000B1C5000084C5000057C500002AC5000016
:10002000FDC4000019C2000017C2000015C2000084
:1000300013C2000011C200000FC200000DC2000078
:100040000BC2000009C2000007C2000005C2000088
:1000500003C2000001C20000FFC1000095C40000FF
:10006000FBC100009AC300006FC30000F5C100008F
:10007000F3C10000F1C10000EFC10000EDC10000BC
:10008000EBC10000E9C10000E7C10000E5C10000CC
:10009000E3C10000E1C10000DFC100000C94700C5E
:1000A000DBC10000D9C10000D7C10000D5C10000EC
:1000B000D3C10000D1C10000CFC10000CDC10000FC
:1000C000CBC10000C9C10000C7C10000C5C100000C
:1000D000C3C10000C1C10000BFC10000BDC100001C
:1000E000BBC1000032043504240428042C046C0431
:1000F00039043D04430447044B0451045504590496
:100100006C045F04630467042B03F4204189003608
:10011000400A1D806010622C00082B03F4204189E6
:100120000036400A1D806010622C33082B03F42037
:1001300041890036400A1D806010622C22081B0392
:10014000416027520007400A1E806013A92C223A02
:100150001D03A1204EA50013400A1E806027522CCB
:1001600022481E03D0009D490045400A2080604E71
:10017000A52C22482B033402752507FF400A1B805B
:10018000609D492C220F020368013A9304D5400A6E
:100190001E806009D50C221F06034501D7DC076EBF
:1001A000400A2D80600EBF0C222E8A036001555537
:1001B00002AD400A50806020000C22C82B03A1E051
:1001C00010C70009400A1D806004322C2204270356
:1001D000A1E010C70006400A1D806004322C2207EF
:1001E0002B03F42041890036400A1D806010622CE8
:1001F00023081B03416027520007400A1E8060133A
:10020000A92C233A1D03A1204EA50013400A1E80ED
:100210006027522C23481E03D0009D490045400A08
:100220002080604EA52C23482B033402752507FF40
:10023000400A1B80609D492C230F020368013A93FA
:1002400004D5400A1E806009D50C231F0603450112
:10025000D7DC076E400A2D80600EBF0C232E8A0368
:100260006001555502AD400A50806020000C23C843
:10027000510368003A93013D2C1128806009D52C68
:100280002108C803392068DC006B2A082A80601323
:10029000A92C2108C8039C00D1B700D429042980C7
:1002A0006027522C2108B8039C00D1B700D42882C3
:1002B0002980604EA52C2108A8039C00D1B700D44A
:1002C00028412980609D492C210898039C00D1B7C2
:1002D00000D4282029806009D50C210898039600B5
:1002E000DA7400DC281F2980600A3D0C2108000018
:1002F0000A0B02090C0D0E080703040100000000A0
:1003000000000000000000000000000000000000ED
:1003100000000000000000000000121110000000AA
:1003200000000000000000000000000000000000CD
:100330000000000000002200250028002B002E00F5
:100340003100340002010000050108010B0100002A
:100350002100240027002A002D0030003300010175
:100360000000040107010A01050505050705080845
:100370000808020202020A0A08080404040401012F
:100380000101010101010303030303030303040744
:1003900007070C0C0C0C0C0C0C0C020202020606DB
:1003A0000606060606060B0B0B0B0B0B0B0B0102CE
:1003B0001020200808102040102040800201020177
:1003C000080402010102040810204080804020102F
:1003D0000804020180040201804020100804020188
:1003E00008040201010204081020408001020408F0
:1003F00010204080A61411241FBECFEFD1E2DEBF33
:10040000CDBF00E00CBF14E0A0E0B2E0E6EBF0E30B
:1004100000E00BBF02C007900D92A631B107D9F7DB
:100420002BE0A6E1B4E001C01D92A434B207E1F7CD
:1004300011E0CBEFD1E000E006C021970109802F49
:10044000FE010E940F16CA3FD10780E00807A9F7F6
:100450000E9446100C945918D3CDFC01538D448D45
:10046000252F30E0842F90E0821B930B541710F05F
:10047000CF96089501970895FC01918D828D98176C
:1004800061F0828DDF01A80FB11D5D968C91928D78
:100490009F5F9F73928F90E008958FEF9FEF089575
:1004A000FC01918D828D981731F0828DE80FF11D3E
:1004B000858D90E008958FEF9FEF0895FC01918D59
:1004C000228D892F90E0805C9F4F821B91098F7352
:1004D000992708958DE597E0F1DF21E0892B09F454
:1004E00020E0822F0895FC01848DDF01A80FB11D4B
:1004F000A35ABF4F2C91848D90E001968F7399275A
:10050000848FA689B7892C93A089B1898C91806446
:100510008C93938D848D981306C00288F389E02D07
:1005200080818F7D80830895EF92FF920F931F93B8
:10053000CF93DF93EC0181E0888F9B8D8C8D981396
:1005400005C0E889F989808185FD23C0F62E0B8DD1
:1005500010E00F5F1F4F0F731127E02E8C8DE812F4
:100560000BC00FB607FCFACFE889F989808185FFB7
:10057000F5CFCE01B8DFF2CF8B8DFE01E80FF11D74
:10058000E35AFF4FF0820B8FEA89FB8980818062FA
:1005900007C0EE89FF896083E889F98980818064DA
:1005A000808381E090E0DF91CF911F910F91FF90C8
:1005B000EF900895CF93DF93EC01888D8823C1F0ED
:1005C000EA89FB89808185FD05C0A889B9898C915C
:1005D00086FD0EC00FB607FCF5CF808185FFF2CFF8
:1005E000A889B9898C9185FFEDCFCE017CDFE8CF5A
:1005F000DF91CF91089580E090E0892B19F06ADFB8
:10060000811125C080E090E0892B41F080E090E0EE
:10061000892B21F00E94000081111CC080E090E035
:10062000892B41F080E090E0892B21F00E940000AE
:10063000811113C080E090E0892BA1F080E090E070
:10064000892B81F00E94000081110AC008950E9448
:100650000000D8CF0E940000E1CF0E940000EACF46
:100660000C94000008953FB7F8948091EE059091A6
:10067000EF05A091F005B091F10526B5A89B05C046
:100680002F3F19F00196A11DB11D3FBFBA2FA92F11
:10069000982F8827820F911DA11DB11DBC01CD018E
:1006A00042E0660F771F881F991F4A95D1F708957A
:1006B00008950895413041F4FC01EC5EFE4F81E065
:1006C000DB012C919081291380E00895089508950D
:1006D0000E943C18CF93DF93462FFC01E35EFD4F51
:1006E00020E030E05081B9016F5F7F4F541323C089
:1006F000EC01C901880F991F820F931F835E9D4FE4
:1007000049E050E0421B530B9A01220F331F420F66
:10071000531F9B01220F331F620F731F635E7D4FB8
:100720006C0F7D1F8C0F9D1F0E944018C65CDD4F13
:10073000188281E006C09B0133966A30710591F6FC
:1007400080E0DF91CF9108951F920F920FB60F9224
:1007500011240BB60F922F933F934F935F936F9398
:100760007F938F939F93AF93BF93EF93FF938DE509
:1007700097E0B9DEFF91EF91BF91AF919F918F917B
:100780007F916F915F914F913F912F910F900BBE91
:100790000F900FBE0F901F9018951F920F920FB6DB
:1007A0000F9211240BB60F922F938F939F93EF9379
:1007B000FF93E0916D07F0916E078081E0917307E0
:1007C000F091740782FD12C09081809176078F5F4F
:1007D0008F7320917707821751F0E0917607F0E050
:1007E000E35AF84F958F8093760701C08081FF917F
:1007F000EF919F918F912F910F900BBE0F900FBE95
:100800000F901F901895362F90E0FC01E251FD4F9C
:100810004491FC01E255FC4F2491FC01E859FC4F46
:100820009491992309F46BC0442309F455C050E016
:10083000FA013197E231F10508F04EC08827EE58F1
:10084000FF4F8F4F0C940F16809180008F7707C059
:10085000809180008F7D03C080918000877F80938E
:1008600080003AC084B58F7702C084B58F7D84BD87
:1008700033C08091B0008F7703C08091B0008F7D2E
:100880008093B00029C0809190008F7707C080913D
:1008900090008F7D03C080919000877F80939000AF
:1008A0001BC08091A0008F7707C08091A0008F7D32
:1008B00003C08091A000877F8093A0000DC080912D
:1008C00020018F7707C0809120018F7D03C0809128
:1008D0002001877F80932001E92FF0E0EE0FFF1FBA
:1008E000EC5CFC4FA591B4918FB7F894EC91311169
:1008F00003C020952E2301C02E2B2C938FBF08956B
:100900008F929F92AF92BF92CF92DF92EF92FF921F
:100910006B017C01A8DE4B015C01C114D104E10430
:10092000F104E9F0A0DEDC01CB0188199909AA09DC
:10093000BB09883E9340A105B10578F321E0C21AB6
:10094000D108E108F10888EE880E83E0981EA11C0A
:10095000B11CC114D104E104F10421F7DECFFF90F2
:10096000EF90DF90CF90BF90AF909F908F900895C1
:100970002FB7F8946091EA057091EB058091EC0532
:100980009091ED052FBF08951F920F920FB60F9211
:1009900011242F933F938F939F93AF93BF93809195
:1009A000EA059091EB05A091EC05B091ED05309131
:1009B000E90523E0230F2D3720F40196A11DB11D79
:1009C00005C026E8230F0296A11DB11D2093E9055D
:1009D0008093EA059093EB05A093EC05B093ED05A9
:1009E0008091EE059091EF05A091F005B091F10591
:1009F0000196A11DB11D8093EE059093EF05A09384
:100A0000F005B093F105BF91AF919F918F913F9108
:100A10002F910F900FBE0F901F9018951F920F925D
:100A20000FB60F9211240BB60F922F933F934F9353
:100A30005F936F937F938F939F93AF93BF93EF9346
:100A4000FF93E0910E02F0910F021995FF91EF9143
:100A5000BF91AF919F918F917F916F915F914F91D6
:100A60003F912F910F900BBE0F900FBE0F901F90D4
:100A700018951F920F920FB60F9211240BB60F927A
:100A80002F933F934F935F936F937F938F939F9396
:100A9000AF93BF93EF93FF93E0910C02F0910D029F
:100AA0001995FF91EF91BF91AF919F918F917F9198
:100AB0006F915F914F913F912F910F900BBE0F90CF
:100AC0000FBE0F901F9018951F920F920FB60F92A6
:100AD00011240BB60F922F933F934F935F936F9315
:100AE0007F938F939F93AF93BF93EF93FF93E09187
:100AF0000202F09103021995FF91EF91BF91AF911E
:100B00009F918F917F916F915F914F913F912F9125
:100B10000F900BBE0F900FBE0F901F9018951F9255
:100B20000F920FB60F9211240BB60F922F933F9393
:100B30004F935F936F937F938F939F93AF93BF93E5
:100B4000EF93FF93E0910002F09101021995FF915C
:100B5000EF91BF91AF919F918F917F916F915F9135
:100B60004F913F912F910F900BBE0F900FBE0F90A2
:100B70001F9018951F920F920FB60F9211240BB66B
:100B80000F922F933F934F935F936F937F938F9326
:100B90009F93AF93BF93EF93FF93E0910A02F0917D
:100BA0000B021995FF91EF91BF91AF919F918F919A
:100BB0007F916F915F914F913F912F910F900BBE5D
:100BC0000F900FBE0F901F9018951F920F920FB6A7
:100BD0000F9211240BB60F922F933F934F935F9375
:100BE0006F937F938F939F93AF93BF93EF93FF93F5
:100BF000E0910802F09109021995FF91EF91BF91E0
:100C0000AF919F918F917F916F915F914F913F91A4
:100C10002F910F900BBE0F900FBE0F901F90189545
:100C20001F920F920FB60F9211240BB60F922F93B3
:100C30003F934F935F936F937F938F939F93AF9364
:100C4000BF93EF93FF93E0910602F091070219958D
:100C5000FF91EF91BF91AF919F918F917F916F9194
:100C60005F914F913F912F910F900BBE0F900FBE50
:100C70000F901F9018951F920F920FB60F9211248C
:100C80000BB60F922F933F934F935F936F937F9386
:100C90008F939F93AF93BF93EF93FF93E0910402E1
:100CA000F09105021995FF91EF91BF91AF919F913E
:100CB0008F917F916F915F914F913F912F910F9005
:100CC0000BBE0F900FBE0F901F901895CF93DF9320
:100CD000EC014D81446067E0A7D481E08C83DF9113
:100CE000CF91089568E4D8C4EF92FF920F931F93B9
:100CF000CF93DF93423008F43AC0FB0125812230C4
:100D000059F5F42E8B01EC01EDDF482FF8016781D6
:100D1000CE01A5D7F8EFFF0EF801389690E0DE017E
:100D2000AC5EBE4F81E0890F9F1530F421919C91FC
:100D3000291711F0982FF6CFEE24E394E80E8F15C3
:100D4000B0F4CE01CFDFF801EE0DF11D482F608524
:100D5000CE0185D78E2DF0CF233049F4FB0166817B
:100D6000DF91CF911F910F91FF90EF90B3CCDF9166
:100D7000CF911F910F91FF90EF9008954F925F9246
:100D80006F927F92BF92CF92DF92EF92FF920F937A
:100D90001F93CF93DF931F92CDB7DEB76C01B62EB2
:100DA00081E0809363068093640660936506F60194
:100DB000EC5EFE4F20814FEF63E0C60117D788231A
:100DC00011F010E02EC08AEF8983D2DD2B013C01A7
:100DD000CFDDDC01CB0184199509A609B709803A5A
:100DE0009F40A105B10568F7E12CF12C00E010E06F
:100DF00020E030E040E050E0BE016F5F7F4FC60171
:100E000087D7182F882321F38981823008F38091B6
:100E100063068230E9F6C60165DF482F6B2DC601F7
:100E20001ED7812F0F90DF91CF911F910F91FF90CF
:100E3000EF90DF90CF90BF907F906F905F904F903A
:100E40000895CF93DF93EC0142E068E0EDD340E0FA
:100E500068E0CE01DF91CF91E7C32FB7F894FC0192
:100E60001386E55FFE4F10822FBF0895CF92DF9269
:100E7000EF92FF920F931F93CF93DF931F921F92D6
:100E8000CDB7DEB78C01D62EF42EEFB6F89460E025
:100E9000DC0116968C9129835A83B5DCF801828196
:100EA0009381DC01ED91FC916D2D60680190F081E2
:100EB000E02D1995CF2C5A81D52E2981F20EFC14E4
:100EC00071F0F80182819381D6016D916D01DC0191
:100ED000ED91FC910190F081E02D1995F0CF61E04A
:100EE000F801868190DCEFBE0F900F90DF91CF91DB
:100EF0001F910F91FF90EF90DF90CF9008950F9387
:100F00001F93CF93FC01C3858C01045F1E4FF80132
:100F10002081C21BCC3308F0CBE3F801408150E0C4
:100F2000445F5F4F480F591F2C2F6FE79FDFF80179
:100F30008081C80FC083CF911F910F910895CF93E7
:100F4000DF93EC01FC01E45FFE4F90818B859817E5
:100F500010F4CE01D4DF4B856EE3CE0165D38C81D6
:100F6000823059F04D81486067E0CE015DD382E068
:100F70008C83CE01DF91CF9164CFDF91CF91089523
:100F8000FF920F931F93CF93DF93EC018C818230FC
:100F9000E9F30FB7F8948FB7F8941B86FE01E45F6E
:100FA000FE4F10828FBF4423E9F08B85242F30E061
:100FB000F901E80FF11DEF3FF10509F098F4142F46
:100FC000FFB6F8948B8590E00C96A9018C0F9D1FBD
:100FD0000E9440184B85410F4B87FFBECE01AFDF0B
:100FE00081E001C080E00FBFDF91CF911F910F9191
:100FF000FF900895FF920F931F93CF93DF931F925B
:10100000CDB7DEB78C01F42E462F6CE30DD340E84C
:101010006DE3C80109D381E289834F2D6AE3C801DA
:1010200003D341E0BE016F5F7F4FC801A9DFF80124
:1010300084818230E1F30F90DF91CF911F910F9166
:10104000FF9008952F923F924F925F926F927F92FE
:101050008F929F92AF92BF92CF92DF92EF92FF92C8
:101060000F931F93CF93DF93CDB7DEB761970FB682
:10107000F894DEBF0FBECDBFFB0150815F3F49F149
:10108000FC01E15EFD4F20E030E0DF011297AC9102
:10109000A51318C0A081AA23A9F0F901EE0FFF1F24
:1010A0002E0F3F1FF901E35EFD4FE80FF91FEF2BF5
:1010B00009F4ECC0280F391FF901E25EFD4F2081D1
:1010C000298309C02F5F3F4F33962A303105E9F657
:1010D000DDC0EFEFE9834E877D876C87998B888B26
:1010E000FC01E95EFE4FF080F394FA82F08220E08A
:1010F000865E9E4F9F838E8388899989885E9E4FE6
:1011000099878887812C912C54019394E889F989D7
:10111000EB5EFE4FFD83EC8328883988F5EF2F1AAC
:10112000FEEF3F0A888999898C5E9E4F9B878A874C
:1011300081E0820F8B83EE81FF819081921708F40A
:10114000A3C0E885F985008111810E948A15A50157
:1011500094010E949F159B01AC01D8010E94BB1510
:10116000A50194010E949F15020F131F4A816CE391
:101170008889998959D240E06DE38889998954D248
:1011800049816AE3888999894FD24E856C857D852E
:1011900088899989F5DEECDB2B013C016801E12CA3
:1011A000F12CE6DBDC01CB0184199509A609B7090E
:1011B0008C159D05AE05BF0528F4E889F989848161
:1011C000823079F3F981FF3F09F462C02B8122302C
:1011D00038F0EC81FD81808191810196918380833B
:1011E000C7DB2B013C01C4DB2B81AB01BC014419E3
:1011F0005509660977094C155D056E057F0508F0F0
:1012000097CFF1018081811107C0E889F989848134
:10121000813011F0CF015ADDF1018081882319F36B
:10122000888999891ADE888999895CDD482F67E465
:10123000888999894F8730D2082F69E488899989EC
:101240002BD2182F6AE48889998926D24F85F98193
:101250004F130AC0EA85FB859081091305C087FFFB
:1012600003C0FA811F17A1F087FDBDCFE889F98976
:10127000E40FF11DE55EFE4F80811813B4CF612F9E
:1012800088899989B7DEAFCF85E003C082E001C0CD
:1012900080E061960FB6F894DEBF0FBECDBFDF9140
:1012A000CF911F910F91FF90EF90DF90CF90BF9063
:1012B000AF909F908F907F906F905F904F903F90F6
:1012C0002F900895AF92BF92CF92DF92EF92FF924C
:1012D0000F931F93CF93DF931F92CDB7DEB75C01BF
:1012E0008B016EEB73E08DE597E04983BDD6C501B8
:1012F000F9DCE82E4981B801C501A4DEF82E82E0B0
:10130000F81631F0E5E0FE1233C066EE73E002C07D
:101310006CEF73E08DE597E0A7D6F8016081C50119
:10132000D9D9F80161816501FCEECF1AFEEFDF0A21
:10133000F60180816817E1F083E080936306F8018D
:101340008081809364064E2DC50189D4F6012081E9
:10135000F801418162E0C5010F90DF91CF911F91AB
:101360000F91FF90EF90DF90CF90BF90AF903EC471
:101370008F2D0F90DF91CF911F910F91FF90EF90E4
:10138000DF90CF90BF90AF9008950F931F93CF93AE
:10139000DF938C01EB0148816CE146D149816FE11B
:1013A000C80142D1AE014E5F5F4F26E060E2C80146
:1013B0005DDDAE01485F5F4F23E06CE2C80156DDA2
:1013C0004B8568E5C80130D14C8569E6C8012CD150
:1013D000AE01435F5F4F25E06EE6C801DF91CF911C
:1013E0001F910F9143CD8CB5962F93708C7F892BD5
:1013F0008CBD9DB562FB882780F9692F6E7F682BB5
:101400006DBD08958CB5837F682B6CBD08958CB538
:10141000611102C0806201C08F7D8CBD08959FB7AD
:10142000F89480916206882319F0815080936206B7
:1014300080916206811105C08CB58F7B8CBD1092A6
:1014400061069FBF08958CB58F778CBD08958CB5CC
:1014500080688CBD08956EBD00000DB407FEFDCF01
:101460008EB5089585ED8093BC008091BC0084FD0D
:10147000FCCF10923B06089540911506262F30E0D0
:10148000240F311D21323105DCF420913B0624303C
:10149000C9F4FC0180E090E0861758F430911506FD
:1014A0002191DC01AD50BA4FA30FB11D2C930196D1
:1014B000F3CF80911506680F6093150680E00895BC
:1014C00081E0089582E0089508958FEF9FEF0895D9
:1014D0008FEF9FEF08958091F20590E091958195AF
:1014E00091090895CF93DF931F921F92CDB7DEB776
:1014F000CB01642F49835A83BFDF4981842F5A81EE
:10150000952F0F900F90DF91CF910895CF93DF9398
:101510001F92CDB7DEB7698361E0CE010196ACDFE3
:1015200081E090E00F90DF91CF910895089580E0E1
:1015300090E00895CF92DF92EF92FF920F931F9366
:10154000CF93DF931F921F92CDB7DEB78C01D62EBB
:10155000F42EEFB6F89460E0DC0116968C912983A6
:101560005A8351D9F80182819381DC01ED91FC917C
:101570006D2D6F770190F081E02D1995CF2C5A8158
:10158000D52E2981F20EFC1479F0F8018281938125
:10159000DC01ED91FC910190F081E02D60E0199566
:1015A000F60181936F01EFCF61E0D80116968C911F
:1015B0002AD9EFBE0F900F90DF91CF911F910F911D
:1015C000FF90EF90DF90CF900895CF93CFB7F8942E
:1015D00080916206811120C0EDE9F3E08491E3EE91
:1015E000F3E09491E82FF0E0EE0FFF1FE25BFC4F79
:1015F000A591B491EC91E92319F461E085E303D955
:1016000085E3CAD28CB580618CBD8CB580648CBDFD
:1016100084E3C2D283E3C0D2809162068F5F80935D
:101620006206CFBFCF910895EF92FF920F931F9361
:10163000CF93DF931F92CDB7DEB77C01162F0FB784
:10164000F89460E0DC0116968C914983DCD8F701B0
:1016500082819381DC01ED91FC91612F60680190A2
:10166000F081E02D1995F70182819381DC01ED91E4
:10167000FC910190F081E02D4981642F199561E082
:10168000F7018681C0D80FBF0F90DF91CF911F91D6
:101690000F91FF90EF9008950F931F93CF93DF93D7
:1016A000EC01162F0FB7F89460E08E81ACD88A81D8
:1016B0009B81DC01ED91FC91612F6F770190F081AE
:1016C000E02D19958A819B81DC01ED91FC910190BF
:1016D000F081E02D60E01995182F61E08E8193D89C
:1016E0000FBF812FDF91CF911F910F910895FF922E
:1016F0000F931F93CF93DF931F921F92CDB7DEB747
:101700008C0122E0AE014F5F5F4F63E013DF898100
:1017100087FF1DC043E068E0C80186DF40E068E065
:10172000C80182DFD80114968C911497823049F455
:1017300014961C92F801E45FFE4F1082C801FFDB93
:1017400006C0F8018481813011F4C80186DB8981EB
:1017500085FF0BC0F801E45FFE4F9081D8011B9616
:101760008C91981710F4C801CADB898184FF19C0D5
:10177000F801838590E0C7968F3F910509F088F4C2
:10178000438550E0445F5F4F400F511F27E36FE7F1
:10179000C801D0DED8011B968C911B97895C1B96E3
:1017A0008C93898183FF08C0D801ED91FC91019051
:1017B000F081E02DC80119958A8183FF08C0D80106
:1017C000ED91FC910280F381E02DC80119952981EA
:1017D00022FF0AC0F801EF5EFE4F808191810196E1
:1017E00091838083F801148221FF33C06BE4C80128
:1017F00053DFF82ED8011B968C91F81658F4F80197
:10180000E35FFE4F80819181019691838083F8018F
:10181000148244C0D8011B968C911B971B964C9147
:101820002F2D281B50E0445F5F4F400F511F6FE783
:10183000C80180DEF801E15FFE4F80819181019651
:1018400091838083F801F386148281E0E55FFE4F87
:101850008083898180FF16C0F801E35FFE4F80819D
:101860009181019691838083C801F7DAC801E9DA92
:10187000D80114961C92149714968C91813011F013
:10188000C80124DA8A8186FF0BC066E2C80104DF42
:10189000F801ED5EFE4F8083C801D3DAC801DDDABE
:1018A0000F900F90DF91CF911F910F91FF900895AE
:1018B00080911A0490911B04009709F018CF0895A5
:1018C0008091180490911904009709F010CF0895A1
:1018D0008091160490911704009709F008CF08959D
:1018E0001F920F920FB60F9211240BB60F922F93E7
:1018F0003F934F935F936F937F938F939F93AF9398
:10190000BF93EF93FF938091B900887F803609F4ED
:101910009CC068F5883209F45BC090F4803109F40A
:1019200054C038F4882309F4F6C0883009F44DC057
:10193000F5C0883109F44CC0803209F45DC0EEC0B6
:10194000803409F468C048F4803309F455C0883302
:1019500009F0E4C080933A06D8C0803509F44FC03E
:10196000883509F45DC0883409F0D8C0D6C08839FC
:1019700009F4C7C0A8F4883709F467C038F488367A
:1019800009F463C0803709F460C0C8C0883809F41E
:10199000B8C0803909F45FC0803809F0BFC05BC0AF
:1019A000803B09F486C038F4803A09F466C0883A6E
:1019B00009F47FC0B3C0803C09F4A7C0883C09F497
:1019C000A4C0883B09F48AC0A9C08091600610C0F9
:1019D00090915F0680915E06981770F5E0915F0622
:1019E00081E08E0F80935F06F0E0E25CF94F80812A
:1019F0008093BB0085EC86C080933A068EC0E09150
:101A00005F0681E08E0F80935F068091BB00F0E05F
:101A1000E25CF94F808390915F0680915E066EC014
:101A2000E0915F0681E08E0F80935F068091BB009E
:101A3000F0E0E25CF94F808380913D0681116DC03A
:101A400081E080933C0684EA61C083E080933B069A
:101A500010923906CFCF80913906803208F051C0FC
:101A6000E091390681E08E0F809339068091BB00AA
:101A7000F0E0E75EF94F8083BDCF85EC8093BC003A
:101A800010923B0680913906803230F4E09139069D
:101A9000F0E0E75EF94F10826091390670E0E09166
:101AA0001706F091180689E196E01995109239060B
:101AB00035C084E080933B061092160610921506FE
:101AC000E0911306F0911406199580911506811185
:101AD00005C081E0809315061092F305E09116068B
:101AE00081E08E0F80931606F0E0ED50FA4F808172
:101AF0008093BB009091160680911506981708F404
:101B000079CF85E88093BC0009C085EC8093BC0048
:101B100010923B0603C010923A06A4DCFF91EF91AD
:101B2000BF91AF919F918F917F916F915F914F91F5
:101B30003F912F910F900BBE0F900FBE0F901F90F3
:101B40001895CF92DF92EF92FF920F931F93CF934E
:101B5000DF936C017A018B01C0E0D0E0CE15DF0588
:101B600089F0D8016D918D01D601ED91FC91019024
:101B7000F081E02DC6011995892B11F47E0102C078
:101B80002196ECCFC701DF91CF911F910F91FF906C
:101B9000EF90DF90CF90089590E0FC01E255FC4F6C
:101BA0002491FC01E859FC4F8491882399F090E03E
:101BB000880F991FFC01E25BFC4FA591B491FC01D9
:101BC000EC5CFC4F859194918FB7F894EC91E22BEB
:101BD000EC938FBF0895E0915D07F0915E0701904F
:101BE000F081E02D682F8DE597E019940F931F93F6
:101BF000CF938C01E62FF0E0CF0105968F3F910542
:101C000009F040F5C62F2093360A4093350A10920A
:101C1000370AD801A55EBD4F8C9191E0980F9C9337
:101C20008093380A1092390AAF0163E676E08AE3BE
:101C30009AE00E944018D801ED91FC9145E04C0FCC
:101C40000680F781E02D65E37AE0C801CF911F910E
:101C50000F91199481E0CF911F910F910895CF9327
:101C6000DF93EC01C35EDD4FE0E0F0E0DE012881B0
:101C7000261309C09F01220F331FE20FF31F9C019F
:101C80002E0F3F1F15C031962396EA30F10579F7E4
:101C9000EC01C15EDD4FFE0120E030E050815111CA
:101CA00011C0F901EE0FFF1F2E0F3F1F280F391F24
:101CB000F901E35EFD4F608331964083319682E007
:101CC000808323C02F5F3F4F33962A30310531F791
:101CD000FC01E05EFD4F2BE101900D922A95E1F7AA
:101CE000FC01E65CFD4F10829C01235C3D4F82E0CD
:101CF0009881911106C0FE0132976083319640832E
:101D000088832396C217D30799F7DF91CF9108955F
:101D10003F924F925F926F927F928F929F92AF927B
:101D2000BF92CF92DF92EF92FF920F931F93CF93C8
:101D3000DF93EC015B014A0139016C0185EFC81AA0
:101D40008EEFD80AF6018081811106C08C81813026
:101D500019F0CE010E946606F6018081882309F4FD
:101D60009CC08081811106C08C81813019F0CE0128
:101D70000E946606F601C080CC2009F48EC05FB6D2
:101D8000F8948B858F3F11F0DB8402C0DD24DA9458
:101D90004D2D50E0BE01645F7F4F85E39AE00E94C5
:101DA0004018CE015AD85FBECE010E947206482E5E
:101DB00067E4CE0171DC382E69E4CE016DDC582E6B
:101DC0006AE4CE0169DC87FD68C0FFEF3F1621F0B1
:101DD000442D652DCE010ED9FE01E40DF11DE55E09
:101DE000FE4F8081581609F458C05082E881F9816D
:101DF0000480F581E02D4D2D65E37AE0CE01199543
:101E00008091350AFE01EC5EFE4F9081891711F03A
:101E10008F3F69F58114910421F08091360AF40115
:101E200080836114710421F08091350AF30180836D
:101E30000115110521F08091380AF8018083E11421
:101E4000F10421F08091390AF70180838BEF8D0D29
:101E5000F5019081891708F48083F501408150E0F5
:101E60006AE37AE083E696E00E94401817C080910A
:101E7000370A91E0980F9093370AFE01E45EFD4F18
:101E80009081891750F4E881F9810680F781E02D6F
:101E90004D2D65E37AE0CE011995C12C8C2DDF9193
:101EA000CF911F910F91FF90EF90DF90CF90BF9057
:101EB000AF909F908F907F906F905F904F903F90EA
:101EC0000895EF92FF920F931F93CF93DF93EC014E
:101ED000198218821B821A821D821C82611571056B
:101EE00099F17B01FB0101900020E9F731978F0107
:101EF000061B170BB8016F5F7F4F80E090E0D8D7CB
:101F0000009759F0998388831B830A832C813D8134
:101F1000232B79F4FC0110820CC0888199810097F1
:101F200009F02ED7198218821D821C821B821A8208
:101F30000BC01D830C83B701DF91CF911F910F91CF
:101F4000FF90EF900C945218DF91CF911F910F9159
:101F5000FF90EF9008956115710579F0FB010190F4
:101F60000020E9F73197AF01461B570BDC01ED91DB
:101F7000FC910280F381E02D199480E090E00895B7
:101F8000BC018DE597E0E7CF8F929F92AF92BF9211
:101F90000F931F93CF93DF93CDB7DEB7A1970FB603
:101FA000F894DEBF0FBECDBF19A2423008F44AE05C
:101FB0008E010F5D1F4F842E912CA12CB12CA501F9
:101FC0009401E9D5E62FB901CA0101501109EA309F
:101FD00014F4E05D01C0E95CD801EC93232B242BC1
:101FE000252B69F7B8018DE597E0B5DFA1960FB60F
:101FF000F894DEBF0FBECDBFDF91CF911F910F913F
:10200000BF90AF909F908F900895CF92DF92EF9204
:10201000FF92CF93DF936C01990FEE08FF08F7FE54
:1020200010C08DE2D8DDEC0166277727CB016C1953
:102030007D098E099F094AE0A7DF7C01EC0EFD1E99
:1020400005C04AE0C701B6019FDF7C0167E073E08D
:102050008DE597E080DF8E0D9F1DDF91CF91FF9082
:10206000EF90DF90CF9008950F931F93CF93DF935E
:10207000EC0171DF8C0167E073E0CE016CDF800F53
:10208000911FDF91CF911F910F910895CF93DF930F
:10209000CDB7DEB7A1970FB6F894DEBF0FBECDBFA8
:1020A000789484B5826084BD84B5816084BD85B533
:1020B000826085BD85B5816085BD80916E0081603F
:1020C00080936E00109281008091810082608093E5
:1020D00081008091810081608093810080918000E7
:1020E0008160809380008091B10084608093B10012
:1020F0008091B00081608093B000809191008260F7
:1021000080939100809191008160809391008091F3
:1021100090008160809390008091A1008260809304
:10212000A1008091A10081608093A1008091A00016
:1021300081608093A00080912101826080932101C1
:102140008091210181608093210180912001816033
:102150008093200180917A00846080937A0080913E
:102160007A00826080937A0080917A008160809307
:102170007A0080917A00806880937A001092C10082
:10218000E0916D07F0916E0782E08083E09169072E
:10219000F0916A071082E0916B07F0916C0780E183
:1021A000808310927507E0917107F091720786E0C5
:1021B0008083E0916F07F091700780818061808358
:1021C000E0916F07F0917007808188608083E091D3
:1021D0006F07F0917007808180688083E0916F07BE
:1021E000F091700780818F7D808364EF71E080E0E3
:1021F00090E00E94800485E3CFDC89E0CDDC86E0BE
:10220000CBDC84E0C9DC8BE0C7DC84E992E0B8DE9B
:1022100060E084E00E94030460E085E30E94030420
:1022200061E086E00E94030461E089E00E9403040B
:1022300061E08BE00E94030485E3AEDC84E0ACDC6B
:1022400060E084E00E94030464E670E080E090E0D7
:102250000E94800460E170E080E090E00E948004D1
:102260000AEF17E08091000897DC61E08091000898
:102270000E9403048091FC079091FD07DC01ED9121
:10228000FC910680F781E02D19958091FC079091D3
:10229000FD07DC01ED91FC910484F585E02D60E003
:1022A00019958091FC079091FD07DC01ED91FC915F
:1022B0000284F385E02D61E019958091FC079091EF
:1022C000FD07DC01ED91FC910684F785E02D61E0CE
:1022D000199564E670E080E090E00E94800440E898
:1022E00067E0C801A1D961E070E080E090E00E9461
:1022F000800460E0C801D0D9809302088750823002
:1023000030F067EB72E08DE597E0AEDEA3CF809111
:102310000108811112C0109317040093160488E677
:102320009CE0909301028093000280916A008C7F70
:10233000826080936A00EC9A27C0813091F41093F8
:1023400019040093180480E69CE0909303028093A4
:10235000020280916A00837F886080936A00ED9A10
:1023600013C0823071F610931B0400931A0488E5A1
:102370009CE09093050280930402809169008C7F19
:10238000826080936900E89A8FB7F89410920508EC
:10239000109206098FBF8AEF97E00E942D0744E054
:1023A0006DE78AEF97E040D947E36EE78AEF97E061
:1023B0003BD94091030843704C6860E38AEF97E093
:1023C00033D948E862E38AEF97E02ED942E463E329
:1023D0008AEF97E029D948E064E38AEF97E024D9AF
:1023E0008DE28B8B84ED8C8B22E0AE014D5E5F4FD6
:1023F00066E38AEF97E00E9436074FEF63E48AEFC7
:1024000097E012D940E06FE38AEF97E00DD940E002
:102410006AE38AEF97E008D940E06BE38AEF97E040
:1024200003D940E06CE38AEF97E0FED840E06DE32B
:102430008AEF97E0F9D842E16BE08AEF97E0F4D8B1
:1024400045E16CE08AEF97E0EFD847EB65E08AEF73
:1024500097E0EAD840E466E08AEF97E0E5D840E00C
:1024600063E78AEF97E0E0D840E064E78AEF97E01F
:10247000DBD843E565E78AEF97E0D6D844E666E720
:102480008AEF97E0D1D840E067E78AEF97E0CCD8B1
:1024900040E56AE28AEF97E0C7D862E08AEF97E00A
:1024A000FBD842E150E06EE371E0CE0101963ED3ED
:1024B000BE016F5F7F4F8AEF97E00E94C50943E03E
:1024C0006DE68AEF97E0B0D840910E096FE38AEF8E
:1024D00097E0AAD840910E096BE38AEF97E0A4D861
:1024E0008EE18093160A68EC72E08DE597E0BCDD22
:1024F00047E06DE68AEF97E097D85CE1A52E54E0BF
:10250000B52EF50111921192B4E0E43EFB07D1F72C
:1025100068E873E180E090E00E94800442E150E0CE
:1025200066E871E0CE01019601D3BE016F5F7F4F77
:102530008AEF97E00E94C509812C912CC12CD12CE7
:1025400046E6642E46E0742E69A28DE597E00E946F
:102550003C028336910509F48DC00E94B8041B012A
:102560002C010E94B804DC01CB0182199309A40953
:10257000B509843F9140A105B10538F7EAEFE8A31A
:10258000CE0101967C018E010D5E1F4F9E01275EDC
:102590003F4FAE01415E5F4FBE01605E7F4F8AEFED
:1025A00097E0B6DB182F8823E1F298A19923B1F0C8
:1025B00080916306811112C0915080913F0298175B
:1025C00010F490933F0240913F0250E064E676E0C1
:1025D0008AEE94E055D5112321F2CFC0898D8F3F2B
:1025E00009F0BFCF923008F4BCCF809163068130F0
:1025F00009F0B7CF80910E092F8D281709F4B1CFBC
:102600001DEF190F36E6E32E36E0F32EF7019E2F6D
:102610009619911720F491919813F9CFA2CF8AEFD0
:1026200097E00E947206482F6F8D8AEF97E017DBC4
:102630008E2DB9A18B1B811748F48AEF97E00E9479
:102640007206D7016D917D01482FEFCF809164060E
:10265000813009F080C02091650680910E09281311
:102660007AC082E0809363064F8D68A18AEF97E07D
:10267000BDDA77CF86EF92E083DC6091100270E0E4
:1026800080E090E04AE080DC67E073E08DE597E071
:1026900062DC8AE093E074DC8091E6049091E704C8
:1026A000B4DC83E493E06CDC8091E4049091E50475
:1026B000ACDC8CE793E064DC8091E8049091E90461
:1026C000A4DC8AEA93E05CDC0CE114E0D8014D90D4
:1026D0005D908D01052C000C6608770877FE0BC015
:1026E0008DE279DA66277727CB01641975098609A7
:1026F00097094AE003C04AE0C301B20145DC84EF18
:1027000092E03EDCB4E0023E1B0701F78091E20458
:102710009091E3047ADCF501119211925F01F4EEDD
:10272000AF16F4E0BF06B9F71092E9041092E8047E
:102730001092E7041092E6041092E5041092E4046B
:10274000809110028F5F8093100265EB72E08DE53F
:1027500097E08ADCFFCF8091160A181708F001CFA6
:10276000E12FF0E0ED59F94F80910E09838368A1C4
:102770006F5F68A32F8D4FEF79CF6AEE74E0CE01C3
:1027800049969FDB8091EA0480932D028091EB04AF
:1027900080932E028091EC0480932F028091ED04AF
:1027A000809330026DE272E0CE0143968ADB2D8D7C
:1027B0003E8D8F89988D2817390701F5898D9A8D5F
:1027C0006B897C89009719F061157105A1F4611579
:1027D000710549F0232BE1F0DB018C9190E091959C
:1027E0008195910909C0009799F0232B89F0FC018C
:1027F000808190E001C04DD4892B51F08091E80494
:102800009091E90401969093E9048093E8047EC0D6
:102810008091EA04809311028091EB04809312026C
:102820008091EC04809313028091ED048093140254
:1028300061E172E0CE01019644DB8AED92E0A0DB1B
:1028400080911102C8D980911202C5D980911302DA
:10285000C2D980911402BFD98CEE92E091DB2AEFAD
:1028600037E040E050E0F901E35EFD4F80818111E7
:102870000EC032968081882351F0CA01880F991FBB
:10288000840F951F895E954F892BC9F407C04F5F50
:102890005F4F2D5F3F4F4A30510529F760E08AEFC7
:1028A00097E00E94BE0681110AC08091E6049091D3
:1028B000E70401969093E7048093E60424C0109205
:1028C00063068CE1E1E1F2E0A4E6B6E001900D924E
:1028D0008A95E1F720910E0940E06DE18AEF97E0DB
:1028E00085D98111E2CF8091E4049091E5040196AD
:1028F0009093E5048093E40400910D0910E0C80171
:1029000084DBC00ED11E89819A813AD28091E40481
:102910009091E5042AE030E0B9016ED1892B79F479
:10292000F401EE0FFF1FE45EFB4FC601B90164D155
:1029300071836083FFEF8F1A9F0AC12CD12C8B8982
:102940009C891ED2898D9A8D1BD2FECD1092600774
:1029500010925F0788EE93E0A0E0B0E080936107FB
:1029600090936207A0936307B093640724E632E074
:1029700030935E0720935D0725EC30E030936A07C3
:102980002093690724EC30E030936C0720936B07A9
:1029900020EC30E030936E0720936D0721EC30E09F
:1029A0003093700720936F0722EC30E0309372076A
:1029B0002093710726EC30E030937407209373075F
:1029C0001092760710927707109278071092790785
:1029D0001092370B1092360B8093380B9093390B73
:1029E000A0933A0BB0933B0B86E792E09093350BA4
:1029F0008093340B85E3809300081092010881E0F6
:102A00008093FF071092FE0710920A09109209099D
:102A1000109208091092070910920C0910920B09E4
:102A200020E432E03093FD072093FC0721E030E002
:102A3000309304082093030880930E091092100924
:102A400010920F091092110988EC90E090931309ED
:102A50008093120983E0809314098EE18093160A13
:102A600080E090E0FC01E75EF54F108203968E3126
:102A70009105C1F788E892E09093FB078093FA07ED
:102A800008958F929F92AF92BF92CF92DF92EF9272
:102A9000FF92CF93DF93EC01688179818A819B81DA
:102AA000611571058105910521F464E279ED8BE5ED
:102AB00097E02DE133EF41E050E041D049015A0168
:102AC0009B01AC01A7EAB1E456D06B017C01ACEEEE
:102AD000B4EFA50194015BD0DC01CB018C0D9D1DF1
:102AE000AE1DBF1DB7FF03C00197A109B048888381
:102AF0009983AA83BB83BC01CD019F77DF91CF91DE
:102B0000FF90EF90DF90CF90BF90AF909F908F900D
:102B10000895B7CF82E492E0B4CF609342027093FD
:102B2000430280934402909345020895FB01DC0127
:102B300002C005900D9241505040D8F70895052EDF
:102B400097FB16F400940FD057FD05D024D007FC56
:102B500002D046F408C050954095309521953F4FDE
:102B60004F4F5F4F089590958095709561957F4F79
:102B70008F4F9F4F089531D0A59F900DB49F900D1A
:102B8000A49F800D911D11240895B7FFF4CFF3DFAA
:102B9000821B930B0895A1E21A2EAA1BBB1BFD01F9
:102BA0000DC0AA1FBB1FEE1FFF1FA217B307E4072C
:102BB000F50720F0A21BB30BE40BF50B661F771F84
:102BC000881F991F1A9469F7609570958095909564
:102BD0009B01AC01BD01CF010895A29FB001B39F3D
:102BE000C001A39F700D811D1124911DB29F700D16
:102BF000811D1124911D089597FB072E16F4009452
:102C000006D077FD08D013D007FC05D03EF4909590
:102C100081959F4F0895709561957F4F0895EE0FB0
:102C2000FF1F881F8BBF0790F691E02D1994AA1BF8
:102C3000BB1B51E107C0AA1FBB1FA617B70710F0A7
:102C4000A61BB70B881F991F5A95A9F780959095D9
:102C5000BC01CD010895CF93DF938230910510F42C
:102C600082E090E0E091420BF091430B20E030E0F5
:102C7000C0E0D0E0309711F14081518148175907E9
:102C8000C0F04817590761F482819381209719F0A9
:102C90009B838A832BC09093430B8093420B26C067
:102CA0002115310519F04217530718F49A01BE0196
:102CB000DF01EF010280F381E02DDCCF211531052A
:102CC00009F1281B390B2430310590F412968D91AF
:102CD0009C9113976115710521F0FB019383828309
:102CE00004C09093430B8093420BFD01329644C085
:102CF000FD01E20FF31F81939193225031092D932F
:102D00003C933AC02091400B3091410B232B41F46E
:102D100020914802309149023093410B2093400B9F
:102D200020914602309147022115310541F42DB71B
:102D30003EB740914A0250914B02241B350BE09163
:102D4000400BF091410BE217F307A0F42E1B3F0B51
:102D50002817390778F0AC014E5F5F4F241735070D
:102D600048F04E0F5F1F5093410B4093400B8193EF
:102D7000919302C0E0E0F0E0CF01DF91CF910895A0
:102D80000F931F93CF93DF93009709F48CC0FC013E
:102D90003297138212820091420B1091430B01155E
:102DA000110581F420813181820F931F2091400B06
:102DB0003091410B2817390779F5F093410BE093D7
:102DC000400B71C0D80140E050E0AE17BF0750F48F
:102DD00012962D913C911397AD012115310509F102
:102DE000D901F3CF9D01DA013383228360817181A0
:102DF000860F971F8217930769F4EC0128813981A8
:102E0000260F371F2E5F3F4F318320838A819B819E
:102E100093838283452B29F4F093430BE093420B79
:102E200042C01396FC93EE931297ED01499159918C
:102E30009E01240F351FE217F30771F48081918101
:102E4000840F951F029611969C938E938281938195
:102E500013969C938E931297E0E0F0E0D8011296BF
:102E60008D919C911397009719F0F8018C01F6CF82
:102E70008D919C9198012E5F3F4F820F931F20915F
:102E8000400B3091410B2817390769F4309729F42A
:102E90001092430B1092420B02C0138212821093C5
:102EA000410B0093400BDF91CF911F910F9108953B
:102EB0006F927F928F929F92AF92BF92CF92DF924A
:102EC000EF92FF920F931F93CF93DF93EC01009744
:102ED00081F4CB01DF91CF911F910F91FF90EF9083
:102EE000DF90CF90BF90AF909F908F907F906F902A
:102EF000B2CEFC01E60FF71F9C0122503109E21708
:102F0000F30708F4A8C0D9010D911C911197061779
:102F10001707A8F00530110508F49BC0C8010497F5
:102F20008617970708F495C002501109061B170B66
:102F3000019311936D937C93CF0122DF8AC05B01D3
:102F4000A01AB10A4C01800E911EA091420BB091C3
:102F5000430B40E050E0E12CF12C109709F44AC0FB
:102F6000A815B905D1F56D907C901197630182E0A9
:102F7000C80ED11CCA14DB0480F1A3014A195B09F5
:102F80006A0182E0C80ED11C1296BC90129713966B
:102F9000AC91B5E0CB16D10440F0B282A38351834B
:102FA0004083D9016D937C930AC00E5F1F4FC3010C
:102FB000800F911FF90191838083EB2DFA2FE1148B
:102FC000F10431F0D7011396FC93EE93129741C0B0
:102FD000F093430BE093420B3CC08D919C91119771
:102FE0004817590708F4AC017D0112960D90BC9169
:102FF000A02DB3CF8091400B9091410B881599057E
:10300000E1F446175707C8F48091460290914702B1
:10301000009741F48DB79EB740914A0250914B0200
:10302000841B950BE817F907B0F4F093410BE0937C
:10303000400BF901718360830CC0CB010CDE7C0175
:10304000009749F0A801BE011BD0CE0199DEC7014F
:1030500004C0CE0102C080E090E0DF91CF911F91CB
:103060000F91FF90EF90DF90CF90BF90AF909F9027
:103070008F907F906F90089581E090E0F89419C050
:10308000FB01DC0102C001900D9241505040D8F785
:103090000895FB01DC018D91019080190110D9F395
:1030A000990B0895FB01DC0101900D920020E1F7DE
:0630B0000895F894FFCF23
:1030B6005803580358035803580358035803580332
:1030C60001303030303A20416E642068656C6C6F98
:1030D600206261636B20746F20796F750030303029
:1030E600303A2048656C6C6F20576F726C6400FF35
:1030F6005002010000000000440B800000000000A8
:103106002B0A270A230AE50A0F0A070A020AF30905
:10311600000000009402A10D2D02DA025E023C02BC
:10312600500200000000860A720A970A640A6B0AB7
:10313600680A650A000000006703660374066209F0
:10314600BE065A032A2A2A2A2A53657474696E67A8
:1031560020436869702053656C65637473204C4F17
:10316600572A2A2A2A2A007266323220696E697420
:10317600206661696C6564007266323220696E6928
:103186007420737563636573730073656E64696E2B
:103196006720726573706F6E736520003A3A20522D
:1031A6005353493A2000466F72206D6F64756C6107
:1031B60074696F6E3A20000D0A00546865206E75BA
:1031C6006D626572206F66206661696C6564207445
:1031D60072616E736D697373696F6E206D6573735B
:1031E6006167657320776974686F75742061636BB6
:1031F6003A2000546865206E756D626572206F66B0
:10320600207375636365737366756C6C2072656392
:10321600657074696F6E7320616E64207472616E7E
:10322600736D697373696F6E733A20005468652015
:103236006E756D626572206F6620696E636F72725D
:103246006563746C79207265636965766564206D63
:10325600657373616765733A2000546865207273FD
:1032660073692061766572616765733A20005472EE
:1032760079696E6720746F2064656C697665722063
:103286006D65737361676520746F206E6578742051
:10329600726F757465004D6573736167652064654B
:1032A6006C6976657279206661696C004E6F207272
:1032B6006F75746520746F2073656E64206D657319
:0632C60073616765200042
:020000023000CC
:10E000000D9489F10D94B2F10D94B2F10D94B2F129
:10E010000D94B2F10D94B2F10D94B2F10D94B2F1F0
:10E020000D94B2F10D94B2F10D94B2F10D94B2F1E0
:10E030000D94B2F10D94B2F10D94B2F10D94B2F1D0
:10E040000D94B2F10D94B2F10D94B2F10D94B2F1C0
:10E050000D94B2F10D94B2F10D94B2F10D94B2F1B0
:10E060000D94B2F10D94B2F10D94B2F10D94B2F1A0
:10E070000D94B2F10D94B2F10D94B2F10D94B2F190
:10E080000D94B2F10D94B2F10D94B2F10D94B2F180
:10E090000D94B2F10D94B2F10D94B2F10D94B2F170
:10E0A0000D94B2F10D94B2F10D94B2F10D94B2F160
:10E0B0000D94B2F10D94B2F10D94B2F10D94B2F150
:10E0C0000D94B2F10D94B2F10D94B2F10D94B2F140
:10E0D0000D94B2F10D94B2F10D94B2F10D94B2F130
:10E0E0000D94B2F141546D656761323536300041AF
:10E0F000726475696E6F206578706C6F72657220DE
:10E1000073746B3530305632206279204D4C530099
:10E11000426F6F746C6F616465723E004875683F52
:10E1200000436F6D70696C6564206F6E203D200048
:10E130004350552054797065202020203D20005FF9
:10E140005F4156525F415243485F5F3D2000415658
:10E1500052204C696243205665723D20004743437C
:10E160002056657273696F6E203D20004350552024
:10E1700049442020202020203D20004C6F7720663D
:10E18000757365202020203D20004869676820665F
:10E190007573652020203D200045787420667573D6
:10E1A00065202020203D20004C6F636B2066757336
:10E1B000652020203D20004D617220203720323024
:10E1C000313300312E362E3800342E332E350056A2
:10E1D00023202020414444522020206F7020636F70
:10E1E00064652020202020696E73747275637469E1
:10E1F0006F6E2061646472202020496E74657272B3
:10E20000757074006E6F20766563746F7200726A49
:10E210006D702020006A6D70200057686174207056
:10E220006F72743A00506F7274206E6F7420737541
:10E2300070706F72746564004D7573742062652030
:10E2400061206C6574746572002000577269747483
:10E25000696E672045450052656164696E672045B7
:10E26000450045452065727220636E743D00504F35
:10E27000525400303D5A65726F2061646472003FF1
:10E280003D43505520737461747300403D454550C3
:10E29000524F4D207465737400423D426C696E6B41
:10E2A000204C454400453D44756D70204545505215
:10E2B0004F4D00463D44756D7020464C415348001B
:10E2C000483D48656C70004C3D4C69737420492F83
:10E2D0004F20506F72747300513D51756974005234
:10E2E0003D44756D702052414D00563D73686F7707
:10E2F00020696E7465727275707420566563746FF0
:10E30000727300593D506F727420626C696E6B00BD
:10E310002A0011241FBECFEFD1E2DEBFCDBF01E046
:10E320000CBF12E0A0E0B2E0EEE1FDEF03E00BBFB6
:10E3300002C007900D92A030B107D9F712E0A0E01B
:10E34000B2E001C01D92AE30B107E1F70F9460F367
:10E350000D948DFE01E20EBF0FEF0DBF11241FBE05
:10E360000D9460F30D9400F020E030E040ED57E0B4
:10E3700005C0FA013197F1F72F5F3F4F2817390792
:10E38000C0F308959C01260F311DC901A0E0B0E043
:10E390002F5F3F4FABBFFC018791882361F08093D3
:10E3A000C6008091C00086FFFCCF8091C0008064D1
:10E3B0008093C000EACF08958DE08093C6008091DD
:10E3C000C00086FFFCCF8091C00080648093C000B5
:10E3D0008AE08093C6008091C00086FFFCCF8091C8
:10E3E000C00080648093C00008950F94C2F10F9420
:10E3F000DCF10895FC019081992359F09093C600B7
:10E400008091C00086FFFCCF8091C0008064809323
:10E41000C0003196992379F70895282F982F929567
:10E420009F70892F805D8A3308F0895F8093C600D2
:10E430008091C00086FFFCCF8091C00080648093F3
:10E44000C000822F8F70982F905D9A3308F0995FEB
:10E450009093C6008091C00086FFFCCF8091C000E1
:10E4600080648093C00008959C01FB01853691056E
:10E470001CF46330710594F0C90164E670E00F94F8
:10E480002EFE605D7F4F6093C6008091C00086FFC6
:10E49000FCCF8091C00080648093C0002B30310598
:10E4A00014F43297B4F0C90164E670E00F942EFEC4
:10E4B0006AE070E00F942EFE605D7F4F6093C600AF
:10E4C0008091C00086FFFCCF8091C0008064809363
:10E4D000C000C9016AE070E00F942EFEC0968093E0
:10E4E000C6008091C00086FFFCCF8091C000806490
:10E4F0008093C00008951F93182F8EE692EE60E07F
:10E500000F94C2F11093C6008091C00086FFFCCF2B
:10E510008091C00080648093C0000F94DCF11F9153
:10E5200008952F923F924F925F926F927F928F92B7
:10E530009F92AF92BF92CF92DF92EF92FF920F9392
:10E540001F93DF93CF93CDB7DEB762970FB6F894E2
:10E55000DEBF0FBECDBF382E622ECA01DB015C01CB
:10E560006D01772420E2222E2E010894411C511CBB
:10E570008BC081E0A81680E0B80681E0C80680E084
:10E58000D80628F0C601AA27BB270F940DF2BB2797
:10E59000AD2D9C2D8B2D0F940DF28A2D0F940DF225
:10E5A0002092C6008091C00086FFFCCF8091C00001
:10E5B00080648093C0009DE29093C6008091C0006B
:10E5C00086FFFCCF8091C00080648093C0002092C1
:10E5D000C6008091C00086FFFCCF8091C00080649F
:10E5E0008093C00019828601750188249924A1E0D6
:10E5F0003A1651F03A1620F0B2E03B1661F409C029
:10E600000BBFF701779007C0C7010F9477FE782EF4
:10E6100002C0F7017080872D0F940DF22092C60082
:10E620008091C00086FFFCCF8091C0008064809301
:10E63000C000872D8052F401EF70F0708F3520F408
:10E64000E40DF51D708204C0E40DF51D8EE280839B
:10E650000894E11CF11C011D111D0894811C911CE2
:10E6600090E18916910409F0C2CF80E190E0A0E02A
:10E67000B0E0A80EB91ECA1EDB1E198AC2010F9493
:10E68000FAF10F94DCF16A94662009F072CF629679
:10E690000FB6F894DEBF0FBECDBFCF91DF911F91B3
:10E6A0000F91FF90EF90DF90CF90BF90AF909F9031
:10E6B0008F907F906F905F904F903F902F90089534
:10E6C0002F923F924F925F926F927F928F929F9282
:10E6D000AF92BF92CF92DF92EF92FF920F931F9370
:10E6E000DF93CF93CDB7DEB7CD53D1400FB6F894BB
:10E6F000DEBF0FBECDBF01E20EBF0FEF0DBF94B75F
:10E70000F894A89514BE80916000886180936000A1
:10E7100010926000789493FF05C0E0910002F091A0
:10E7200001021995279A2F9A8091C00082608093E8
:10E73000C00080E18093C40088E18093C1000000A4
:10E74000EE24FF24870144E0A42EB12CCC24DD2448
:10E7500024C0C5010197F1F70894E11CF11C011DCB
:10E76000111D21E2E2162EE4F20620E0020720E06D
:10E77000120718F031E0C32ED12CC801B70127ECE5
:10E780003BE140E050E00F9441FE611571058105C9
:10E79000910519F485B1805885B98091C00087FD35
:10E7A00003C0C114D104A9F2A6014F5F5F4FC25E3E
:10E7B000DE4F59834883CE51D140C25EDE4F8881FF
:10E7C0009981CE51D140019711F00D9410FEC05D9A
:10E7D000DE4F19821882C053D14060E0C15DDE4F28
:10E7E0001882CF52D14088249924C35DDE4F19820C
:10E7F0001882CD52D140C05EDE4F188219821A8233
:10E800001B82C052D140CE5CDE4F188219821A8220
:10E810001B82C253D140EE24FF2487010BBFF701B6
:10E8200007911691C45CDE4F19830883CC53D14005
:10E830000D940BFEC25EDE4F28813981CE51D1404E
:10E840002130310509F52091C600C25EDE4F1982E4
:10E850001882CE51D14022C02F5F3F4F4F4F5F4FA4
:10E86000213082E138078AE7480780E0580780F0C6
:10E87000C45CDE4FE881F981CC53D140EF5FFF4F9C
:10E8800019F0EE27FF27099420E030E040E050E047
:10E890008091C00087FFE0CF2091C600C35DDE4FAE
:10E8A00048815981CD52D1404F5F5F4FC35DDE4FEC
:10E8B00059834883CD52D140213209F063C64A3092
:10E8C000510508F05FC60894811C911C53E0851621
:10E8D000910409F059C600E010E018C081E280936D
:10E8E000C6008091C00086FFFCCF8091C00080648C
:10E8F0008093C0002F5F3F4F2931310579F70F9486
:10E90000DCF10F5F1F4F0530110519F020E030E0FA
:10E91000E5CF10920A0210920B0210920C02109294
:10E920000D02109206021092070210920802109235
:10E930000902109202021092030210920402109235
:10E9400005028FEE90EE60E00F94F5F180E191EE1C
:10E9500060E00F94C2F18091C00087FFFCCF9091DE
:10E96000C600903608F09F759032B8F09093C600BC
:10E970008091C00086FFFCCF8091C00080648093AE
:10E98000C000A0E2A093C6008091C00086FFFCCF2B
:10E990008091C00080648093C000983409F4D7C18E
:10E9A0009934B8F4923409F459C1933458F490333B
:10E9B00019F1903308F4E3C59F33A1F1903409F0C5
:10E9C000DEC5BDC0953409F470C1963409F0D7C5D1
:10E9D00098C1923509F42BC2933538F49C3409F46C
:10E9E000F5C1913509F0CBC518C2963509F445C279
:10E9F000993509F0C4C567C483E792EE62E00F94CD
:10EA0000F5F110920602109207021092080210927D
:10EA1000090210920A0210920B0210920C0210923C
:10EA20000D0213C18FE792EE62E00F94F5F18FEEC5
:10EA300090EE60E00F94F5F181E291EE60E00F94CA
:10EA4000C2F187EB91EE60E00F94F5F180E391EE77
:10EA500060E00F94C2F184EE90EE60E00F94F5F167
:10EA60008FE391EE60E00F94C2F186E090E061E008
:10EA700070E00F9434F20F94DCF18DE591EE60E0DC
:10EA80000F94C2F189EC91EE60E00F94F5F18EE401
:10EA900091EE60E00F94C2F183EC91EE60E00F9490
:10EAA000F5F18CE691EE60E00F94C2F18EE10F94E7
:10EAB0000DF288E90F940DF281E00F940DF20F949E
:10EAC000DCF18BE791EE60E00F94C2F119E0E0E039
:10EAD000F0E010935700E4918E2F0F940DF20F94F5
:10EAE000DCF18AE891EE60E00F94C2F1E3E0F0E03F
:10EAF00010935700E4918E2F0F940DF20F94DCF1D8
:10EB000089E991EE60E00F94C2F1E2E0F0E0109349
:10EB10005700E4918E2F0F940DF20F94DCF188EAE8
:10EB200091EE60E00F94C2F1E1E0F0E01093570045
:10EB30001491812F0F940DF20F94DCF107CF8BE825
:10EB400092EE62E00F94F5F18BE492EE60E00F94A8
:10EB5000F5F10F94DCF100E010E019C0C8016F2D51
:10EB60000F947FFEFF2031F489E492EE60E00F9471
:10EB7000C2F10BC0F092C6008091C00086FFFCCFAE
:10EB80008091C00080648093C0000F5F1F4FC80158
:10EB900081519F41A0E0B0E0ABBFFC01F790BAE229
:10EBA000FB1621F0E2E000301E07C1F60F94DCF105
:10EBB0000F94DCF187E592EE60E00F94F5F10F948D
:10EBC000DCF1CC24DD2400E010E01EC0C8010F946D
:10EBD00077FEF82E882331F489E492EE60E00F94FA
:10EBE000C2F10BC08093C6008091C00086FFFCCFAD
:10EBF0008091C00080648093C000FE1419F00894D6
:10EC0000C11CD11C0F5F1F4FC80181519F41A0E063
:10EC1000B0E0ABBFFC01E790FAE2EF1621F022E092
:10EC20000030120799F60F94DCF10F94DCF182E6C4
:10EC300092EE60E00F94C2F1C60161E070E00F94C3
:10EC400034F20F94DCF10F94DCF110920202109276
:10EC50000302109204021092050278CE89E992EE26
:10EC600062E00F94F5F1279A2F9A16C02F9880E052
:10EC700090E0E0EDF7E03197F1F7019684369105E9
:10EC8000C1F72F9A80E090E0E0EDF7E03197F1F7DF
:10EC9000019684369105C1F78091C00087FFE6CFC9
:10ECA0008091C00087FFFCCF64C485EA92EE62E0E9
:10ECB0000F94F5F140910202509103026091040219
:10ECC0007091050281E020E10F9491F2809102029F
:10ECD00090910302A0910402B091050280509F4FD1
:10ECE000AF4FBF4F8093020290930302A0930402A0
:10ECF000B093050280509041A040B04008F426CE69
:10ED0000A4CF83EB92EE62E00F94F5F140910602FE
:10ED100050910702609108027091090280E020E1A1
:10ED20000F9491F28091060290910702A09108023F
:10ED3000B091090280509F4FAF4FBF4F80930602A2
:10ED400090930702A0930802B0930902FFCD80ECD4
:10ED500092EE62E00F94F5F183E792EE60E00F949B
:10ED6000F5F18FE792EE60E00F94F5F18BE892EE0B
:10ED700060E00F94F5F189E992EE60E00F94F5F10F
:10ED800085EA92EE60E00F94F5F183EB92EE60E09D
:10ED90000F94F5F180EC92EE60E00F94F5F187ECC2
:10EDA00092EE60E00F94F5F188ED92EE60E00F9442
:10EDB000F5F18FED92EE60E00F94F5F18AEE92EEB0
:10EDC00060E00F94F5F183E093EEBDCD87EC92EE19
:10EDD00062E00F94F5F181E40F947BF282E40F94EA
:10EDE0007BF283E40F947BF284E40F947BF285E45E
:10EDF0000F947BF286E40F947BF287E40F947BF20E
:10EE000088E40F947BF28AE40F947BF28BE40F94F6
:10EE10007BF28CE40F947BF299CD88ED92EE62E068
:10EE20000F94F5F1772473948824992409C48FED05
:10EE300092EE62E00F94F5F140910A0250910B02BC
:10EE400060910C0270910D0282E020E10F9491F22A
:10EE500080910A0290910B02A0910C02B0910D02D8
:10EE600080509F4FAF4FBF4F80930A0290930B0289
:10EE7000A0930C02B0930D0269CD8AEE92EE62E08F
:10EE80000F94F5F184EE90EE60E00F94F5F18FECC5
:10EE900091EE60E00F94F5F1662477244301CC5D98
:10EEA000DE4F19821882C452D140D401C301B695F5
:10EEB000A79597958795CA5DDE4F88839983AA8326
:10EEC000BB83C652D140CC5DDE4FA881B981C4520C
:10EED000D1401196CC5DDE4FB983A883C452D14096
:10EEE000CD0162E070E00F9434F2B0E2B093C6005E
:10EEF0008091C00086FFFCCF8091C0008064809329
:10EF0000C000EDE2E093C6008091C00086FFFCCF18
:10EF10008091C00080648093C000F0E2F093C6004E
:10EF20008091C00086FFFCCF8091C00080648093F8
:10EF3000C000CA5DDE4FE880F9800A811B81C6529D
:10EF4000D140BB27A12F902F8F2D0F940DF2CA5DBA
:10EF5000DE4F8881C652D1400F940DF2B0E2FB2EF5
:10EF6000F092C6008091C00086FFFCCF8091C00067
:10EF700080648093C0000DE30093C6008091C000C0
:10EF800086FFFCCF8091C00080648093C00010E2B7
:10EF90001093C6008091C00086FFFCCF8091C00016
:10EFA00080648093C0008BBEF3012791C65DDE4F65
:10EFB0002883CA52D140A22EBB24CC24DD2408943D
:10EFC000611C711C811C911C8BBEF3018791282E42
:10EFD0003324442455240894611C711C811C911C09
:10EFE0008BBEF3013791C55DDE4F3883CB52D140E4
:10EFF0000894611C711C811C911C8BBEF30147910C
:10F00000C45DDE4F4883CC52D140ADEFEA2EAFEF66
:10F01000FA2EAFEF0A2FAFEF1A2F6E0C7F1C801E57
:10F02000911E142D032DF22CEE24EA0CFB1C0C1D5A
:10F030001D1D0F940DF220E22093C6008091C000A8
:10F0400086FFFCCF8091C00080648093C000C65DC5
:10F05000DE4F8881CA52D1400F940DF230E23093D6
:10F06000C6008091C00086FFFCCF8091C000806404
:10F070008093C000C45DDE4F8881CC52D1400F9494
:10F080000DF240E24093C6008091C00086FFFCCFA5
:10F090008091C00080648093C000C55DDE4F888190
:10F0A000CB52D1400F940DF250E25093C6008091A4
:10F0B000C00086FFFCCF8091C00080648093C000B8
:10F0C0008FEFE8168FEFF80680E0080780E018075A
:10F0D00031F484E092EE60E00F94C2F1DFC0D80119
:10F0E000C7018070907CA070B0708050904CA040A0
:10F0F000B040D1F52FEF3FE340E050E0E222F322B1
:10F1000004231523CA5DDE4FA880B980CA80DB8046
:10F11000C652D140AE0CBF1CC01ED11EAA0CBB1CD7
:10F12000CC1CDD1C8EE092EE60E00F94C2F1BB2798
:10F13000A12F902F8F2D0F940DF28E2D0F940DF285
:10F1400030E23093C6008091C00086FFFCCF8091F2
:10F15000C00080648093C0004EE34093C60080915D
:10F16000C00086FFFCCF87C08EE09EEFA0E0B0E03D
:10F17000E822F9220A231B239CE0E91694E9F90608
:10F1800090E0090790E0190709F088C0C45DDE4FE0
:10F19000A881CC52D140EA2EFF2400E010E0102FCD
:10F1A0000F2DFE2CEE24C55DDE4FB881CB52D14031
:10F1B000EB0EF11C011D111DD601C501817090706F
:10F1C000A070B070DC0199278827E80EF91E0A1F8D
:10F1D0001B1F20EF30E040E050E0A222B322C42207
:10F1E000D52241E1AA0CBB1CCC1CDD1C4A95D1F7F1
:10F1F000EA0CFB1C0C1D1D1D81E090E0A0E0B0E0BE
:10F20000282239224A225B2235E1220C331C441C7D
:10F21000551C3A95D1F7E20CF31C041D151D57013E
:10F220006801AA0CBB1CCC1CDD1C85E192EE60E0E1
:10F230000F94C2F1C801AA27BB270F940DF2BB2778
:10F24000A12F902F8F2D0F940DF28E2D0F940DF274
:10F2500090E29093C6008091C00086FFFCCF809121
:10F26000C00080648093C000AEE3A093C60080918C
:10F27000C00086FFFCCF8091C00080648093C000F6
:10F28000C601AA27BB270F940DF2BB27AD2D9C2DDD
:10F290008B2D0F940DF28A2D0F940DF20F94DCF14B
:10F2A000CC5DDE4FE881F981C452D140F99709F471
:10F2B0004DCBF4E0EF2EF12C012D112D6E0C7F1CA7
:10F2C000801E911EF2CD83E093EE62E00F94F5F183
:10F2D0008AE192EE60E00F94C2F18091C00087FF56
:10F2E000FCCF1091C6001F751093C6008091C0001E
:10F2F00086FFFCCF8091C00080648093C0000F9493
:10F30000DCF1812F81548A3108F036C1163409F4BA
:10F3100095C0173490F4133409F44EC0143430F40B
:10F320001134F1F0123409F01DC130C0143409F465
:10F3300059C0153409F016C16BC01A3409F4C4C0A1
:10F340001B3438F4173409F48FC0183409F00AC19B
:10F35000A1C01B3409F4D2C01C3409F003C1E8C0B9
:10F360008FEF81B90DC082B1809582B980E090E0C5
:10F37000E0EDF7E03197F1F70196883C9105C1F790
:10F380008091C00087FFEFCF12B8EFC08FEF84B934
:10F390000DC085B1809585B980E090E0E0EDF7E0A3
:10F3A0003197F1F70196883C9105C1F78091C00033
:10F3B00087FFEFCF15B8D9C08FEF87B90DC088B1DF
:10F3C000809588B980E090E0E0EDF7E03197F1F7C3
:10F3D0000196883C9105C1F78091C00087FFEFCF6F
:10F3E00018B8C3C08FEF8AB90DC08BB180958BB9A7
:10F3F00080E090E0E0EDF7E03197F1F70196883C8E
:10F400009105C1F78091C00087FFEFCF1BB8ADC059
:10F410008FEF8DB90DC08EB180958EB980E090E0F0
:10F42000E0EDF7E03197F1F70196883C9105C1F7DF
:10F430008091C00087FFEFCF1EB897C08FEF80BBD1
:10F440000DC081B3809581BB80E090E0E0EDF7E0F6
:10F450003197F1F70196883C9105C1F78091C00082
:10F4600087FFEFCF11BA81C08FEF83BB0DC084B38C
:10F47000809584BB80E090E0E0EDF7E03197F1F714
:10F480000196883C9105C1F78091C00087FFEFCFBE
:10F4900014BA6BC08FEF809301010FC080910201FD
:10F4A00080958093020180E090E0E0EDF7E03197F5
:10F4B000F1F70196883C9105C1F78091C00087FF64
:10F4C000EDCF1092020151C08FEF809304010FC065
:10F4D0008091050180958093050180E090E0E0ED4A
:10F4E000F7E03197F1F70196883C9105C1F78091DB
:10F4F000C00087FFEDCF1092050137C08FEF8093DA
:10F5000007010FC08091080180958093080180E079
:10F5100090E0E0EDF7E03197F1F70196883C910536
:10F52000C1F78091C00087FFEDCF109208011DC088
:10F530008FEF80930A010FC080910B01809580931B
:10F540000B0180E090E0E0EDF7E03197F1F70196F4
:10F55000883C9105C1F78091C00087FFEDCF1092E4
:10F560000B0103C085E292EEEEC98091C00087FFD7
:10F57000FCCF8091C600EAC988E392EEE4C98CE131
:10F5800091EEE1C988249924933011F1943028F444
:10F59000913089F09230B8F408C0953061F195301F
:10F5A000F0F0963009F048C043C02B3109F042C951
:10F5B00091E06BE13FC96227C15DDE4F2883CF52E6
:10F5C000D14092E037C9B22FA0E0622793E032C960
:10F5D000822F90E0A82BB92B622794E02BC92E3004
:10F5E00009F039C3622795E0C05DDE4F19821882A9
:10F5F000C053D1401FC9E1E0F0E0EC0FFD1FC05D3A
:10F60000DE4F08811981C053D140E00FF11F2083E4
:10F610000F5F1F4FC05DDE4F19830883C053D14079
:10F6200062270A171B0709F005C9D80196E002C92D
:10F63000261709F010C303C0973009F0FBC87724E0
:10F640009981933109F412C19431C8F4963009F4C8
:10F65000D8C0973050F4923009F406C1933009F4C1
:10F660006DC0913009F059C253C0913109F477C08F
:10F67000923108F0BBC0903109F04FC2F5C098310B
:10F6800009F487C0993150F4953109F4EFC09531F0
:10F6900008F4C6C1963109F040C2C2C19A3109F4DA
:10F6A0006CC09A3108F491C09B3109F45BC09D3164
:10F6B00009F033C29D81903359F48F81882311F46E
:10F6C0009EE11CC0813011F091E018C098E916C08D
:10F6D000892F807591F0903539F4E0E0F0E089E011
:10F6E0008093570094910AC0983539F4E3E0F0E034
:10F6F00089E080935700949101C090E01A821B82A8
:10F700008D818C831D829E831F8227E030E009C299
:10F710001A8288E08B8381E48C8386E58D8382E581
:10F720008E8389E48F8383E5888780E589878FE5E9
:10F730008A8782E38B872BE030E0F3C18A818139AD
:10F7400041F0823941F0803911F48FE005C080E04A
:10F7500003C082E001C08AE01A828B8344C0772410
:10F76000739482C08D81882311F48EE12CC0813086
:10F7700011F081E028C088E926C01A82E1E0F0E0BB
:10F7800089E08093570084918B831C8224E030E0D1
:10F79000C8C18B81803589F48C81883039F4E2E0EE
:10F7A000F0E089E08093570084910DC0E0E0F0E044
:10F7B00089E080935700849106C0E3E0F0E089E09F
:10F7C0008093570084911A82DFCF8D81836C99E0FA
:10F7D000E1E0F0E0082E90935700E89507B600FCB2
:10F7E000FDCF1A821B8223E030E09BC180EC8A832C
:10F7F000CE5CDE4F188219821A821B82C253D1401E
:10F800008EC18A8190E0A0E0B0E0582F44273327D2
:10F8100022278B8190E0A0E0B0E0DC0199278827C7
:10F82000282B392B4A2B5B2B8D8190E0A0E0B0E098
:10F83000282B392B4A2B5B2B8C8190E0A0E0B0E089
:10F84000BA2FA92F982F8827282B392B4A2B5B2BCF
:10F85000220F331F441F551FC05EDE4F288339839C
:10F860004A835B83C052D1401A8259C13A81C95C34
:10F87000DE4F3883C753D140CA5CDE4F1882C6536F
:10F88000D1408B81C82EDD24CA5CDE4F488159816E
:10F89000C653D140C42AD52A933109F082C0CE5C28
:10F8A000DE4F88819981AA81BB81C253D1408050AB
:10F8B000904CA340B04030F583E0CE5CDE4FE88052
:10F8C000F9800A811B81C253D140F70100935B008C
:10F8D00080935700E89507B600FCFDCFCE5CDE4F65
:10F8E000088119812A813B81C253D14000501F4FAA
:10F8F0002F4F3F4FCE5CDE4F088319832A833B8313
:10F90000C253D140C05EDE4F488159816A817B81FC
:10F91000C052D140DE011B9631E08C9111962C91A2
:10F9200011971296C75CDE4F2883C953D140C85C3B
:10F93000DE4F1882C853D14090E0C85CDE4FE881AA
:10F94000F981C853D1408E2B9F2B0C01FA01609393
:10F950005B0030935700E89511244E5F5F4F6F4F67
:10F960007F4F0EEFE02E0FEFF02ECE0CDF1CC114F8
:10F97000D10499F685E0C05EDE4F088119812A81A5
:10F980003B81C052D140F80120935B008093570027
:10F99000E89507B600FCFDCF81E180935700E8951C
:10F9A00035C0C05EDE4F88819981AA81BB81C0527B
:10F9B000D140B695A795979587957C018601ABE0D8
:10F9C000AA2EB12CAC0EBD1E0BC0D5016D915D01F0
:10F9D000C7010F947FFE0894E11CF11C01501040F8
:10F9E0000115110591F7A60160E070E0440F551F65
:10F9F000661F771FC05EDE4FE880F9800A811B8199
:10FA0000C052D1404E0D5F1D601F711F1A82C05E33
:10FA1000DE4F488359836A837B83C052D1407FC0C5
:10FA2000FA80C55CDE4FF882CB53D140C65CDE4F16
:10FA30001882CA53D1408B81C82EDD24C65CDE4FAC
:10FA400008811981CA53D140C02AD12A1A828981DA
:10FA5000BE016D5F7F4F843121F59601C05EDE4FA0
:10FA6000E880F9800A811B81C052D1400BBFF701A9
:10FA700087919691DB018C9311969C936E5F7F4FDB
:10FA8000D801C7010296A11DB11DC05EDE4F88835B
:10FA90009983AA83BB83C052D14022503040F1F6F3
:10FAA00036C0C05EDE4F288139814A815B81C052F9
:10FAB000D1400894C108D108760100E010E0089414
:10FAC000C11CD11C0894E11CF11C011D111DE20E8A
:10FAD000F31E041F151F21BDBB27A52F942F832FB5
:10FAE00082BD2F5F3F4F4F4F5F4FF89A80B5DB01CC
:10FAF0008D93BD012E153F054007510761F7C05E8C
:10FB0000DE4F288339834A835B83C052D1409601FC
:10FB10002D5F3F4FFB01108204C080EC8A8322E0FE
:10FB200030E08BE18093C6008091C00086FFFCCF5F
:10FB30008091C00080648093C000C15DDE4FF88179
:10FB4000CF52D140F093C6008091C00086FFFCCF19
:10FB50008091C00080648093C000432F3093C60022
:10FB60008091C00086FFFCCF8091C00080648093AC
:10FB7000C000922F2093C6008091C00086FFFCCF6A
:10FB80008091C00080648093C0008EE08093C600A6
:10FB90008091C00086FFFCCF8091C000806480937C
:10FBA000C00065E1C15DDE4FE880CF52D1406E25D7
:10FBB00069276427FE01319610C090819093C6009A
:10FBC0008091C00086FFFCCF31968091C000806498
:10FBD0008093C0006927215030402115310569F715
:10FBE0006093C6008091C00086FFFCCF8091C0006A
:10FBF00080648093C00085B1805885B9772081F4F6
:10FC0000C15DDE4F0881CF52D1400F5FC15DDE4F35
:10FC10000883CF52D14090E0A0E0B0E00D941AF4F8
:10FC200027982F9880E090E020ED37E0F901319798
:10FC3000F1F7019684369105C9F700008091C00064
:10FC40008D7F8093C00081E180935700E895EE2777
:10FC5000FF270994FFCF90E00D941AF497FB092E2B
:10FC600007260AD077FD04D02ED006D000201AF443
:10FC7000709561957F4F0895F6F7909581959F4F08
:10FC80000895A1E21A2EAA1BBB1BFD010DC0AA1FDD
:10FC9000BB1FEE1FFF1FA217B307E407F50720F0F5
:10FCA000A21BB30BE40BF50B661F771F881F991F70
:10FCB0001A9469F760957095809590959B01AC01B9
:10FCC000BD01CF010895AA1BBB1B51E107C0AA1FAC
:10FCD000BB1FA617B70710F0A61BB70B881F991FED
:10FCE0005A95A9F780959095BC01CD010895F99991
:10FCF000FECF92BD81BDF89A992780B50895262F31
:10FD0000F999FECF1FBA92BD81BD20BD0FB6F89400
:0EFD1000FA9AF99A0FBE01960895F894FFCF63
:040000033000E000E9
:00000001FF