:10000000FBC100000C946F130C9444130C9419134F
:100010000C94EE120C94C3120C9498120C946D1262
:100020000C9442121AC2000018C2000016C200004E
:1000300014C2000012C2000010C200000EC2000074
:100040000CC200000AC2000008C2000006C2000084
:1000500004C2000002C2000000C200000C94F811AB
:10006000FCC100000C940E110C94E510F6C10000C8
:10007000F4C10000F2C10000F0C10000EEC10000B8
:10008000ECC10000EAC10000E8C10000E6C10000C8
:100090000C94BC100C949310E0C100000C941D0A49
:1000A000DCC10000DAC10000D8C10000D6C10000E8
:1000B000D4C10000D2C10000D0C10000CEC10000F8
:1000C000CCC10000CAC10000C8C10000C6C1000008
:1000D000C4C10000C2C10000C0C10000BEC1000018
:1000E000BCC100006611691158115C116011A011AA
:1000F0006D11711177117B117F11851189118D118E
:10010000A011931197119B112B03F4204189003604
:10011000400A1D806010622C00082B03F4204189E6
:100120000036400A1D806010622C33082B03F42037
:1001300041890036400A1D806010622C22081B0392
:10014000416027520007400A1E806013A92C223A02
:100150001D03A1204EA50013400A1E806027522CCB
:1001600022481E03D0009D490045400A2080604E71
:10017000A52C22482B033402752507FF400A1B805B
:10018000609D492C220F020368013A9304D5400A6E
:100190001E806009D50C221F06034501D7DC076EBF
:1001A000400A2D80600EBF0C222E8A036001555537
:1001B00002AD400A50806020000C22C82B03A1E051
:1001C00010C70009400A1D806004322C2204270356
:1001D000A1E010C70006400A1D806004322C2207EF
:1001E0002B03F42041890036400A1D806010622CE8
:1001F00023081B03416027520007400A1E8060133A
:10020000A92C233A1D03A1204EA50013400A1E80ED
:100210006027522C23481E03D0009D490045400A08
:100220002080604EA52C23482B033402752507FF40
:10023000400A1B80609D492C230F020368013A93FA
:1002400004D5400A1E806009D50C231F0603450112
:10025000D7DC076E400A2D80600EBF0C232E8A0368
:100260006001555502AD400A50806020000C23C843
:10027000510368003A93013D2C1128806009D52C68
:100280002108C803392068DC006B2A082A80601323
:10029000A92C2108C8039C00D1B700D429042980C7
:1002A0006027522C2108B8039C00D1B700D42882C3
:1002B0002980604EA52C2108A8039C00D1B700D44A
:1002C00028412980609D492C210898039C00D1B7C2
:1002D00000D4282029806009D50C210898039600B5
:1002E000DA7400DC281F2980600A3D0C2108000018
:1002F0002200250028002B002E00310034000201CE
:100300000000050108010B01000021002400270066
:100310002A002D0030003300010100000401070114
:100320000A0105050505070508080808020202027A
:100330000A0A080804040404010101010101010181
:100340000303030303030303040707070C0C0C0C4C
:100350000C0C0C0C02020202060606060606060635
:100360000B0B0B0B0B0B0B0B0102102020080810C2
:100370002040102040800201020108040201010215
:1003800004081020408080402010080402018004EE
:100390000201804020100804020108040201010249
:1003A0000408102040800102040810204080000052
:1003B0000A0B02090C0D0E080703040100000000DF
:1003C000000000000000000000000000000000002D
:1003D00000000000000000000000121110000000EA
:1003E000000000000000000000000000000000000D
:1003F00000000000BE1D741911241FBECFEFD1E212
:10040000DEBFCDBF00E00CBF14E0A0E0B2E0E2E64A
:10041000F7E400E00BBF02C007900D92A835B107CA
:10042000D9F720E1A8E5B4E001C01D92A233B207DC
:10043000E1F711E0CBEFD1E000E006C02197010920
:10044000802FFE010E949722CA3FD10780E0080753
:10045000A9F70E9480190C94A023D2CD8091C100ED
:1004600085FDFCCF8091C00085FFF8CF6093C6006A
:1004700081E090E008950895413041F4FC01EC5E84
:10048000FE4F81E0DB012C919081291380E00895DB
:10049000089508958CB5962F93708C7F892B8CBD11
:1004A0009DB562FB882780F9692F6E7F682B6DBD33
:1004B00008958CB5837F682B6CBD08958CB5611150
:1004C00002C0806201C08F7D8CBD08959FB7F894F3
:1004D0008091C804882319F081508093C8048091CA
:1004E000C804811105C08CB58F7B8CBD1092C704E8
:1004F0009FBF08958CB58F778CBD08958CB58068AB
:100500008CBD08956EBD00000DB407FEFDCF8EB505
:100510000895FC01868D978DA0A1B1A146895789C8
:10052000608D718D841B950BA60BB70B811520E890
:100530009207A105B10520F08FEF9FE7A0E0B0E0A2
:10054000089585ED8093BC008091BC0084FDFCCFB4
:100550001092A104089540917B04262F30E0240FCF
:10056000311D21323105DCF42091A1042430C9F47D
:10057000FC0180E090E0861758F430917B042191D3
:10058000DC01A75ABB4FA30FB11D2C930196F3CFEB
:1005900080917B04680F60937B0480E0089581E084
:1005A000089582E0089508958FEF9FEF08958FEFEB
:1005B0009FEF08958091580490E09195819591095D
:1005C0000895CF93DF931F921F92CDB7DEB7CB0173
:1005D000642F49835A83BFDF4981842F5A81952F25
:1005E0000F900F90DF91CF910895CF93DF931F92DB
:1005F000CDB7DEB7698361E0CE010196ACDF81E063
:1006000090E00F90DF91CF910895089580E090E001
:100610000895CF92DF92EF92FF920F931F93CF93A3
:10062000DF931F921F92CDB7DEB78C01D62EF42E2A
:10063000EFB6F89460E0DC0116968C9129835A831A
:100640000E943711F80182819381DC01ED91FC91C8
:100650006D2D6F770190F081E02D1995CF2C5A8187
:10066000D52E2981F20EFC1479F0F8018281938154
:10067000DC01ED91FC910190F081E02D60E0199595
:10068000F60181936F01EFCF61E0D80116968C914E
:100690000E943711EFBE0F900F90DF91CF911F9105
:1006A0000F91FF90EF90DF90CF900895CF93DF935D
:1006B000462FFC01E35EFD4F20E030E05081B901A0
:1006C0006F5F7F4F541323C0EC01C901880F991F3E
:1006D000820F931F835E9D4F49E050E0421B530BF6
:1006E0009A01220F331F420F531F9B01220F331F0A
:1006F000620F731F635E7D4F6C0F7D1F8C0F9D1FFC
:100700000E948723C65CDD4F188281E006C09B01F2
:1007100033966A30710591F680E0DF91CF910895AC
:10072000CF93CFB7F8948091C804811121C0E7E539
:10073000F3E08491EDE9F3E09491E82FF0E0EE0F1F
:10074000FF1FE85FFC4FA591B491EC91E92321F4E0
:1007500061E085E30E94371185E3A1D78CB5806104
:100760008CBD8CB580648CBD84E399D783E397D727
:100770008091C8048F5F8093C804CFBFCF91089544
:100780000C960C942A16CF93DF931F92CDB7DEB749
:10079000698341E050E0BE016F5F7F4F0C960E947D
:1007A0002A1621E030E0019711F020E030E0C90185
:1007B0000F90DF91CF910895CF93DF931F92CDB724
:1007C000DEB7BE016F5F7F4F0C960E94AB0D0197A5
:1007D00019F4898190E002C08FEF9FEF0F90DF91B5
:1007E000CF9108958F929F92AF92BF92CF92DF9256
:1007F000EF92FF920F931F93CF93DF931F92CDB78A
:10080000DEB78C01FC0186889788A08CB18CC288E9
:10081000D388E488F588BE016F5F7F4F0C960E94F5
:10082000AB0D019721F49981892F90E002C08FEFE1
:100830009FEF8F3FFFEF9F0749F0F801868A978A65
:10084000A08EB18EC28AD38AE48AF58A0F90DF9196
:10085000CF911F910F91FF90EF90DF90CF90BF90BD
:10086000AF909F908F9008950C960C94E715FC0123
:10087000828122E090E0281728F4963019F0220FA8
:100880009F5FF9CF292F206A26952CBD90FD03C0CC
:1008900021E0963009F420E02DBD60E080810C94C9
:1008A000371161E0FC0180810E9437118FEF0C94B9
:1008B00025160F931F93CF93DF938C01862FEA01A8
:1008C0000E94251688818EBD8981FE013296DE5FE9
:1008D0000DB407FEFDCF8EBDEC17FD0711F0819121
:1008E000F7CF0DB407FEFDCF8FEF0E9425168FEFD7
:1008F0000E9425160E94C218F8018383982F9F71C9
:10090000953031F083E18183C801CBDF80E001C005
:1009100081E0DF91CF911F910F910895EF92FF92A7
:100920001F93CF93DF9300D01F92CDB7DEB77C012A
:10093000162F29833A834B835C8399DF0E94520DE3
:10094000812F80640E9425168C810E9425168B8140
:100950000E9425168A810E94251689810E942516EB
:10096000112311F087E801C085E90E9425161C308B
:1009700011F40E94C21810E00E94C218F70183838C
:1009800087FF04C01F3F11F01F5FF6CF0F900F903D
:100990000F900F90DF91CF911F91FF90EF900895EE
:1009A0000F931F93CF93DF93EC0189018C818330E8
:1009B00039F089E0440F551F661F771F8A95D1F7DC
:1009C0009A01AB0168E1CE01A9DF882319F086E026
:1009D00089830AC0A8016EEFCE016BDF182F882330
:1009E00019F0CE015EDF03C0CE015BDF10E0812F86
:1009F000DF91CF911F910F9108950F931F93CF9384
:100A0000DF93EC0189018C81833039F089E0440F58
:100A1000551F661F771F8A95D1F79A01AB0161E1D7
:100A2000CE017CDF811108C0B801CE01DF91CF91EA
:100A30001F910F910C94660D84E08983CE0131DF04
:100A400080E0DF91CF911F910F9108952FB7F89417
:100A5000FC011386E55FFE4F10822FBF0895CF92F1
:100A6000DF92EF92FF920F931F93CF93DF931F922A
:100A70001F92CDB7DEB78C01D62EF42EEFB6F894C8
:100A800060E0DC0116968C9129835A830E9437110D
:100A9000F80182819381DC01ED91FC916D2D6068FC
:100AA0000190F081E02D1995CF2C5A81D52E298106
:100AB000F20EFC1471F0F80182819381D6016D91E0
:100AC0006D01DC01ED91FC910190F081E02D199513
:100AD000F0CF61E0F80186810E943711EFBE0F90E0
:100AE0000F90DF91CF911F910F91FF90EF90DF90CA
:100AF000CF9008950F931F93CF93FC01C3858C0172
:100B0000045F1E4FF8012081C21BCC3308F0CBE3F9
:100B1000F801408150E0445F5F4F480F591F2C2F70
:100B20006FE79DDFF8018081C80FC083CF911F91CF
:100B30000F910895EF92FF920F931F93CF93DF933E
:100B40001F92CDB7DEB77C01162F0FB7F89460E087
:100B5000DC0116968C9149830E943711F70182813E
:100B60009381DC01ED91FC91612F60680190F0812F
:100B7000E02D1995F70182819381DC01ED91FC91C3
:100B80000190F081E02D4981642F199561E0F70112
:100B900086810E9437110FBF0F90DF91CF911F9177
:100BA0000F91FF90EF900895CF93DF93EC014D816B
:100BB000446067E0BFDF81E08C83DF91CF910895CF
:100BC000CF93DF93EC0142E068E0B4DF40E068E0FF
:100BD000CE01DF91CF91AECFCF93DF93EC01FC013B
:100BE000E45FFE4F90818B85981710F4CE0182DF71
:100BF0004B856EE3CE019EDF8C81823059F04D81B2
:100C0000486067E0CE0196DF82E08C83CE01DF9101
:100C1000CF91D6CFDF91CF910895FF920F931F937D
:100C2000CF93DF93EC018C818230E9F30FB7F89416
:100C30008FB7F8941B86FE01E45FFE4F10828FBFD2
:100C40004423E9F08B85242F30E0F901E80FF11DF2
:100C5000EF3FF10509F098F4142FFFB6F8948B8557
:100C600090E00C96A9018C0F9D1F0E9487234B8555
:100C7000410F4B87FFBECE01AFDF81E001C080E0B6
:100C80000FBFDF91CF911F910F91FF900895FF92B9
:100C90000F931F93CF93DF931F92CDB7DEB78C01D5
:100CA000F42E462F6CE346DF40E86DE3C80142DFD7
:100CB00081E289834F2D6AE3C8013CDF41E0BE0138
:100CC0006F5F7F4FC801A9DFF80184818230E1F3B3
:100CD0000F90DF91CF911F910F91FF9008950F9387
:100CE0001F93CF93DF938C01EB0148816CE122DFEE
:100CF00049816FE1C8011EDFAE014E5F5F4F26E004
:100D000060E2C801ACDEAE01485F5F4F23E06CE2F9
:100D1000C801A5DE4B8568E5C8010CDF4C8569E696
:100D2000C80108DFAE01435F5F4F25E06EE6C801F2
:100D3000DF91CF911F910F9192CE0F931F93CF937D
:100D4000DF93EC01162F0FB7F89460E08E810E94BC
:100D500037118A819B81DC01ED91FC91612F6F77C6
:100D60000190F081E02D19958A819B81DC01ED9144
:100D7000FC910190F081E02D60E01995182F61E061
:100D80008E810E9437110FBF812FDF91CF911F916C
:100D90000F91089568E4D1CF2F923F924F925F92C6
:100DA0006F927F928F929F92AF92BF92CF92DF927B
:100DB000EF92FF920F931F93CF93DF93CDB7DEB7E0
:100DC00061970FB6F894DEBF0FBECDBFFB01508117
:100DD0005F3F49F1FC01E15EFD4F20E030E0DF01C3
:100DE0001297AC91A51318C0A081AA23A9F0F9010C
:100DF000EE0FFF1F2E0F3F1FF901E35EFD4FE80FBF
:100E0000F91FEF2B09F4F0C0280F391FF901E25E3A
:100E1000FD4F2081298309C02F5F3F4F33962A3031
:100E20003105E9F6E1C0EFEFE9834E877D876C87F6
:100E3000998B888BFC01E95EFE4FF080F394FA8277
:100E4000F08220E0865E9E4F9F838E8388899989F9
:100E5000885E9E4F99878887812C912C54019394AA
:100E6000E889F989EB5EFE4FFD83EC832888398899
:100E7000F5EF2F1AFEEF3F0A888999898C5E9E4F05
:100E80009B878A8781E0820F8B83EE81FF8190812F
:100E9000921708F4A7C0E885F985008111810E94A6
:100EA0002522A50194010E943A229B01AC01D801A0
:100EB0000E945622A50194010E943A22020F131F9C
:100EC0004A816CE38889998935DE40E06DE3888941
:100ED000998930DE49816AE3888999892BDE4E85BC
:100EE0006C857D858889998998DE0E94EC112B019B
:100EF0003C016801E12CF12C0E94EC11DC01CB01DA
:100F000084199509A609B7098C159D05AE05BF057D
:100F100028F4E889F9898481823071F3F981FF3FEF
:100F200009F464C02B81223038F0EC81FD8180818E
:100F300091810196918380830E94EC112B013C01E9
:100F40000E94EC112B81AB01BC01441955096609C3
:100F500077094C155D056E057F0508F093CFF1010B
:100F60008081811107C0E889F9898481813011F07D
:100F7000CF011ADEF1018081882311F388899989D4
:100F800065DD8889998906DF482F67E48889998912
:100F90004F87D3DE082F69E488899989CEDE182F20
:100FA0006AE488899989C9DE4F85F9814F130AC09F
:100FB000EA85FB859081091305C087FF03C0FA818C
:100FC0001F17A1F087FDBCCFE889F989E40FF11D57
:100FD000E55EFE4F80811813B3CF612F8889998910
:100FE00056DEAECF85E003C082E001C080E06196AE
:100FF0000FB6F894DEBF0FBECDBFDF91CF911F912A
:101000000F91FF90EF90DF90CF90BF90AF909F90A7
:101010008F907F906F905F904F903F902F900895AA
:10102000AF92BF92CF92DF92EF92FF920F931F93F6
:10103000CF93DF931F92CDB7DEB75C018B016EEDCE
:1010400072E080E797E049830E946219C501A2DE41
:10105000E82E4981B801C5019FDEF82E82E0F8161E
:1010600031F0E5E0FE1234C066E073E002C06CE1EE
:1010700073E080E797E00E946219F8016081C50182
:1010800015DBF80161816501FCEECF1AFEEFDF0A86
:10109000F60180816817E1F083E08093D905F801BB
:1010A00080818093DA054E2DC501CDD3F6012081D4
:1010B000F801418162E0C5010F90DF91CF911F914E
:1010C0000F91FF90EF90DF90CF90BF90AF9082C3D1
:1010D0008F2D0F90DF91CF911F910F91FF90EF9087
:1010E000DF90CF90BF90AF900895EF92FF920F9353
:1010F0001F93CF93DF93423008F43AC0FB01258160
:10110000223059F5F42E8B01EC0144DE482FF80112
:101110006781CE0198D3F8EFFF0EF801389690E082
:10112000DE01AC5EBE4F81E0890F9F1530F4219146
:101130009C91291711F0982FF6CFEE24E394E80E36
:101140008F15B0F4CE0126DEF801EE0DF11D482F0B
:101150006085CE0178D38E2DF0CF233049F4FB018A
:101160006681DF91CF911F910F91FF90EF909ECA02
:10117000DF91CF911F910F91FF90EF9008954F92C3
:101180005F926F927F92BF92CF92DF92EF92FF9227
:101190000F931F93CF93DF931F92CDB7DEB76C01F0
:1011A000B62E81E08093D9058093DA056093DB0544
:1011B000F601EC5EFE4F20814FEF63E0C6010AD3DB
:1011C000882311F010E030C08AEF89830E94EC116F
:1011D0002B013C010E94EC11DC01CB018419950923
:1011E000A609B709803A9F40A105B10558F7E12C3F
:1011F000F12C00E010E020E030E040E050E0BE01E3
:101200006F5F7F4FC60178D3182F882319F3898128
:10121000823000F38091D9058230E1F6C601BADD53
:10122000482F6B2DC6010FD3812F0F90DF91CF91E7
:101230001F910F91FF90EF90DF90CF90BF907F9024
:101240006F905F904F900895FF920F931F93CF93ED
:10125000DF931F921F92CDB7DEB78C0122E0AE0163
:101260004F5F5F4F63E0D5D9898187FF1DC043E0A1
:1012700068E0C8015FDC40E068E0C8015BDCD801E1
:1012800014968C911497823049F414961C92F801AC
:10129000E45FFE4F1082C8019FDC06C0F801848124
:1012A000813011F4C801D2DB898185FF0BC0F801C0
:1012B000E45FFE4F9081D8011B968C91981710F433
:1012C000C80118DC898184FF19C0F801838590E08A
:1012D000C7968F3F910509F088F4438550E0445F3D
:1012E0005F4F400F511F27E36FE7C80192D9D80124
:1012F0001B968C911B97895C1B968C93898183FF2D
:1013000008C0D801ED91FC910190F081E02DC80159
:1013100019958A8183FF08C0D801ED91FC91028064
:10132000F381E02DC8011995298122FF0AC0F80137
:10133000EF5EFE4F80819181019691838083F80159
:10134000148221FF33C06BE4C801F7DCF82ED8010A
:101350001B968C91F81658F4F801E35FFE4F8081DC
:101360009181019691838083F801148244C0D80151
:101370001B968C911B971B964C912F2D281B50E090
:10138000445F5F4F400F511F6FE7C80142D9F8011A
:10139000E15FFE4F80819181019691838083F80106
:1013A000F386148281E0E55FFE4F8083898180FFB0
:1013B00016C0F801E35FFE4F808191810196918311
:1013C0008083C80143DBC801FBDBD80114961C9263
:1013D000149714968C91813011F0C801E5DB8A8155
:1013E00086FF0BC066E2C801A8DCF801ED5EFE4F87
:1013F0008083C801E5DBC80129DB0F900F90DF91E6
:10140000CF911F910F91FF9008958091CD049091FD
:10141000CE04009709F018CF08958091CB049091E5
:10142000CC04009709F010CF08958091C9049091E1
:10143000CA04009709F008CF08951F920F920FB6C3
:101440000F9211240BB60F922F933F934F935F93FC
:101450006F937F938F939F93AF93BF93EF93FF937C
:101460008091B900887F803609F49CC068F5883285
:1014700009F45BC090F4803109F454C038F4882337
:1014800009F4F6C0883009F44DC0F6C0883109F47B
:101490004CC0803209F45DC0EFC0803409F468C0EC
:1014A00048F4803309F455C0883309F0E5C08093CF
:1014B000A004D8C0803509F44FC0883509F45DC058
:1014C000883409F0D9C0D6C0883909F4C7C0A8F457
:1014D000883709F467C038F4883609F463C0803768
:1014E00009F460C0C9C0883809F4B8C0803909F46B
:1014F0005FC0803809F0C0C05BC0803B09F486C083
:1015000038F4803A09F466C0883A09F47FC0B4C060
:10151000803C09F4A7C0883C09F4A4C0883B09F4C6
:101520008AC0AAC08091C60410C09091C504809161
:10153000C404981770F5E091C50481E08E0F809384
:10154000C504F0E0EC55FB4F80818093BB0085EC37
:1015500086C08093A0048EC0E091C50481E08E0F08
:101560008093C5048091BB00F0E0EC55FB4F808375
:101570009091C5048091C4046EC0E091C50481E0DF
:101580008E0F8093C5048091BB00F0E0EC55FB4FBB
:1015900080838091A30481116DC081E08093A204B7
:1015A00084EA61C083E08093A10410929F04CFCFAE
:1015B00080919F04803208F051C0E0919F0481E047
:1015C0008E0F80939F048091BB00F0E0E158FB4FA9
:1015D0008083BDCF85EC8093BC001092A1048091E4
:1015E0009F04803230F4E0919F04F0E0E158FB4F1B
:1015F000108260919F0470E0E0917D04F0917E0480
:101600008FE794E0199510929F0436C084E0809390
:10161000A10410927C0410927B04E0917904F09173
:101620007A04199580917B04811105C081E0809333
:101630007B0410925904E0917C0481E08E0F80932A
:101640007C04F0E0E75AFB4F80818093BB009091CF
:101650007C0480917B04981708F479CF85E8809307
:10166000BC000AC085EC8093BC001092A10404C0A9
:101670001092A0040E94A102FF91EF91BF91AF913F
:101680009F918F917F916F915F914F913F912F919A
:101690000F900BBE0F900FBE0F901F90189590E00B
:1016A000FC01E859FC4F2491FC01EE5DFC4F849154
:1016B000882399F090E0880F991FFC01E85FFC4FA8
:1016C000A591B491FC01E251FD4F859194918FB7A2
:1016D000F894EC91E22BEC938FBF08958F929F9238
:1016E000AF92BF920F931F93CF93DF93CDB7DEB727
:1016F000A1970FB6F894DEBF0FBECDBF19A242303E
:1017000008F44AE08E010F5D1F4F842E912CA12C0E
:10171000B12CA50194010E946622E62FB901CA01ED
:1017200001501109EA3014F4E05D01C0E95CD80110
:10173000EC93232B242B252B61F7B80180E797E04E
:101740000E944D19A1960FB6F894DEBF0FBECDBF13
:10175000DF91CF911F910F91BF90AF909F908F908D
:101760000895CF92DF92EF92FF92CF93DF936C01B7
:10177000990FEE08FF08F7FE19C0E0917007F0918D
:1017800071070190F081E02D6DE280E797E01995F7
:10179000EC0166277727CB016C197D098E099F091B
:1017A0004AE09CDF7C01EC0EFD1E05C04AE0C7014B
:1017B000B60194DF7C016DE873E080E797E00E945A
:1017C0004D198E0D9F1DDF91CF91FF90EF90DF900F
:1017D000CF9008950F931F93CF938C01E62FF0E0E5
:1017E000CF0105968F3F910509F040F5C62F209354
:1017F000160D4093150D1092170DD801A55EBD4F23
:101800008C9191E0980F9C938093180D1092190D74
:10181000AF0169ED75E08AE19DE00E948723D80160
:10182000ED91FC9145E04C0F0680F781E02D65E1DC
:101830007DE0C801CF911F910F91199481E0CF9164
:101840001F910F910895CF93DF93EC01C35EDD4F9D
:10185000E0E0F0E0DE012881261309C09F01220F9D
:10186000331FE20FF31F9C012E0F3F1F15C031964F
:101870002396EA30F10579F7EC01C15EDD4FFE01F8
:1018800020E030E05081511111C0F901EE0FFF1F2F
:101890002E0F3F1F280F391FF901E35EFD4F6083B4
:1018A00031964083319682E0808323C02F5F3F4F83
:1018B00033962A30310531F7FC01E05EFD4F2BE114
:1018C00001900D922A95E1F7FC01E65CFD4F108234
:1018D0009C01235C3D4F82E09881911106C0FE017E
:1018E000329760833196408388832396C217D3074B
:1018F00099F7DF91CF9108953F924F925F926F9247
:101900007F928F929F92AF92BF92CF92DF92EF928F
:10191000FF920F931F93CF93DF93EC015B014A017A
:1019200039016C0185EFC81A8EEFD80AF601808163
:10193000811105C08C81813011F0CE0135D9F601BD
:101940008081882309F49AC08081811105C08C812F
:10195000813011F0CE0128D9F601C080CC2009F4E5
:101960008DC05FB6F8948B858F3F11F0DB8402C089
:10197000DD24DA944D2D50E0BE01645F7F4F85E198
:101980009DE00E948723CE0161D85FBECE0102DABE
:10199000482E67E4CE01D1D9382E69E4CE01CDD9E5
:1019A000582E6AE4CE01C9D987FD68C0FFEF3F1603
:1019B00021F0442D652DCE016AD9FE01E40DF11D03
:1019C000E55EFE4F8081581609F458C05082E881C8
:1019D000F9810480F581E02D4D2D65E17DE0CE019A
:1019E00019958091150DFE01EC5EFE4F90818917CF
:1019F00011F08F3F69F58114910421F08091160D4B
:101A0000F40180836114710421F08091150DF301BC
:101A100080830115110521F08091180DF801808354
:101A2000E114F10421F08091190DF70180838BEF0F
:101A30008D0DF5019081891708F48083F5014081AF
:101A400050E06AE17DE089ED95E00E94872317C0B0
:101A50008091170D91E0980F9093170DFE01E45EB1
:101A6000FD4F9081891750F4E881F9810680F78154
:101A7000E02D4D2D65E17DE0CE011995C12C8C2D19
:101A8000DF91CF911F910F91FF90EF90DF90CF905A
:101A9000BF90AF909F908F907F906F905F904F908E
:101AA0003F900895CF93DF9397D4EB010E94C21823
:101AB0008F3F41F091D46C1B7D0B68357240B0F3C1
:101AC00080E001C081E0DF91CF910895EF92FF9215
:101AD0000F931F93CF93DF93EC017B017DD48B0198
:101AE0000E94C2188B838F3F41F476D4601B710B28
:101AF0006D327140A8F381E103C08E3F39F08FE071
:101B00008983CE010E94510480E01EC08FEF8EBDFC
:101B1000F701D701A150BE4F9FEF0DB407FEFDCFD7
:101B20008EB59EBD8193EA17FB07B9F70DB407FE8A
:101B3000FDCF8EB58C931B820E94C2180E94C218E2
:101B4000CE010E94510481E0DF91CF911F910F914E
:101B5000FF90EF9008952F923F924F925F926F9275
:101B60007F928F929F92AF92BF92CF92DF92EF922D
:101B7000FF920F931F93CF93DF9300D01F921F927A
:101B8000CDB7DEB79D838C835B01DC0112968C910F
:101B9000882399F0EC81FD81818180FF0EC010C007
:101BA000AC81BD8116964D915D916D917C91199797
:101BB00029813A8195D681116EC08FEF9FEF50C178
:101BC000AC81BD815296CD90DD90ED90FC90559703
:101BD0001A968D919D910D90BC91A02DB701A601F3
:101BE000481B590B6A0B7B0B42305105610571058F
:101BF00008F08DC0C81AD90A76018C819D8106969D
:101C00009A8389830091D3051091D4050B83212EEB
:101C1000E114F10409F479C0AC81BD811A964D91AB
:101C20005D916D917C911D974A01B1E09B22EC8101
:101C3000FD81848195812A013B01A9E07694679416
:101C400057944794AA95D1F7DC0115963C901597C7
:101C500034202281223059F456968D919D910D9019
:101C6000BC91A02D480E591E6A1E7B1E39C08114DE
:101C7000910489F431100FC0452B462B472B09F0F6
:101C80008FCFEC81FD8186899789A08DB18D868368
:101C90009783A087B187AC81BD811496ED91FC91AB
:101CA000159716964D905D906D907C901997B2E0C7
:101CB0004B1A510861087108028404C0440C551C79
:101CC000661C771C0A94D2F783859485A585B68512
:101CD000480E591E6A1E7B1E430C511C611C711C50
:101CE00081149104C1F4E114E2E0FE06A0F08091B9
:101CF000D5059091D605A091D705B091D805481685
:101D000059066A067B06C9F506C0C601A9C0CC24DF
:101D1000C394D12C71CF40E0C301B20129D5009703
:101D200009F44BCF20E032E02819390937012E158C
:101D30003F0508F43901BC01680D791DA301C501F7
:101D40000E94872307C0712C762C6624770CC8016B
:101D50000E945104A60CB71CEC81FD8182859385FD
:101D6000A485B585860D971DA11DB11D828793871A
:101D7000A487B587E618F7084BCFE114E4E0FE0628
:101D800070F49501B301A2018B81922D0E94FD0494
:101D9000882309F412CF612C92E0792EDBCF9F2C9F
:101DA0009694EC81FD812281223041F0248135819D
:101DB000F90124812319291508F4922E4816590691
:101DC0006A067B0668F4D80114968C91833091F0F2
:101DD00039E0440C551C661C771C3A95D1F70AC0B3
:101DE000890D911DA11DB11D481659066A067B0675
:101DF00098F1E9CFA301920162E1C8010E948E042B
:101E0000882321F085E0F801818322C0C8010E9467
:101E100051042501612C691469F0C8010E9437043E
:101E2000B201C80153DEFEEF5F1A882309F4C5CE64
:101E30006394F1CF20E030E0A9016CE0C8010E947A
:101E40008E04882309F47FCF83E0D80111968C9308
:101E5000C8010E945104B1CE6DD48111B4CFADCE72
:101E60000F900F900F900F900F90DF91CF911F91D7
:101E70000F91FF90EF90DF90CF90BF90AF909F9029
:101E80008F907F906F905F904F903F902F9008952C
:101E9000FC01A089B1898C91A689B78982FD0FC008
:101EA0009C91818D8F5F8F73228D821749F0218DD8
:101EB000DF01A20FB11D5D969C93818F08958C91D7
:101EC0000895FC01538D448D252F30E0842F90E040
:101ED000821B930B541710F0CF9608950197089525
:101EE000FC01918D828D981761F0828DDF01A80F22
:101EF000B11D5D968C91928D9F5F9F73928F90E044
:101F000008958FEF9FEF0895FC01918D828D9817B2
:101F100031F0828DE80FF11D858D90E008958FEFEF
:101F20009FEF0895FC01918D228D892F90E0805CB8
:101F30009F4F821B91098F739927089583ED96E037
:101F4000F1DF21E0892B09F420E0822F089580E75A
:101F500097E0E8DF21E0892B09F420E0822F089543
:101F6000FC01848DDF01A80FB11DA35ABF4F2C9136
:101F7000848D90E001968F739927848FA689B78905
:101F80002C93A089B1898C9180648C93938D848DDE
:101F9000981306C00288F389E02D80818F7D8083AD
:101FA0000895EF92FF920F931F93CF93DF93EC016D
:101FB00081E0888F9B8D8C8D981305C0E889F98905
:101FC000808185FD23C0F62E0B8D10E00F5F1F4F23
:101FD0000F731127E02E8C8DE8120BC00FB607FC93
:101FE000FACFE889F989808185FFF5CFCE01B8DF86
:101FF000F2CF8B8DFE01E80FF11DE35AFF4FF08207
:102000000B8FEA89FB898081806207C0EE89FF8996
:102010006083E889F98980818064808381E090E031
:10202000DF91CF911F910F91FF90EF900895CF9383
:10203000DF93EC01888D8823C1F0EA89FB898081D8
:1020400085FD05C0A889B9898C9186FD0EC00FB6A3
:1020500007FCF5CF808185FFF2CFA889B9898C91E3
:1020600085FFEDCFCE017CDFE8CFDF91CF910895E2
:1020700080E090E0892B19F06ADF811120C080E0B8
:1020800090E0892B19F05ADF81111CC080E090E0AC
:10209000892B41F080E090E0892B21F00E94000024
:1020A000811113C080E090E0892BA1F080E090E0E6
:1020B000892B81F00E94000081110AC008950E94BE
:1020C0000000DDCF0E940000E1CF0E940000EACFB7
:1020D0000C94000008953FB7F89480912A109091D5
:1020E0002B10A0912C10B0912D1026B5A89B05C0E7
:1020F0002F3F19F00196A11DB11D3FBFBA2FA92F87
:10210000982F8827820F911DA11DB11DBC01CD0103
:1021100042E0660F771F881F991F4A95D1F70895EF
:1021200008950E9483231F920F920FB60F921124DD
:102130000BB60F922F933F934F935F936F937F93C1
:102140008F939F93AF93BF93EF93FF9383ED96E0AD
:1021500007DFFF91EF91BF91AF919F918F917F9199
:102160006F915F914F913F912F910F900BBE0F9008
:102170000FBE0F901F9018951F920F920FB60F92DF
:1021800011240BB60F922F933F934F935F936F934E
:102190007F938F939F93AF93BF93EF93FF9383EDC1
:1021A00096E076DEFF91EF91BF91AF919F918F9175
:1021B0007F916F915F914F913F912F910F900BBE47
:1021C0000F900FBE0F901F9018951F920F920FB691
:1021D0000F9211240BB60F922F933F934F935F935F
:1021E0006F937F938F939F93AF93BF93EF93FF93DF
:1021F00080E797E0B5DEFF91EF91BF91AF919F919E
:102200008F917F916F915F914F913F912F910F909F
:102210000BBE0F900FBE0F901F9018951F920F923C
:102220000FB60F9211240BB60F922F933F934F933B
:102230005F936F937F938F939F93AF93BF93EF932E
:10224000FF9380E797E024DEFF91EF91BF91AF917C
:102250009F918F917F916F915F914F913F912F91BE
:102260000F900BBE0F900FBE0F901F901895362F3A
:1022700090E0FC01E255FC4F4491FC01E859FC4F11
:102280002491FC01EE5DFC4F9491992309F46BC0FD
:10229000442309F455C050E0FA013197E231F105C9
:1022A00008F04EC08827EE58FF4F8F4F0C949722AE
:1022B000809180008F7707C0809180008F7D03C060
:1022C00080918000877F809380003AC084B58F77AB
:1022D00002C084B58F7D84BD33C08091B0008F77FC
:1022E00003C08091B0008F7D8093B00029C08091A1
:1022F00090008F7707C0809190008F7D03C0809100
:102300009000877F809390001BC08091A0008F7702
:1023100007C08091A0008F7D03C08091A000877FBF
:102320008093A0000DC0809120018F7707C080911D
:1023300020018F7D03C080912001877F8093200141
:10234000E92FF0E0EE0FFF1FE251FD4FA591B49190
:102350008FB7F894EC91311103C020952E2301C062
:102360002E2B2C938FBF08958F929F92AF92BF9286
:10237000CF92DF92EF92FF926B017C01ACDE4B01BA
:102380005C01C114D104E104F104E9F0A4DEDC0134
:10239000CB0188199909AA09BB09883E9340A10578
:1023A000B10578F321E0C21AD108E108F10888EEFE
:1023B000880E83E0981EA11CB11CC114D104E10455
:1023C000F10421F7DECFFF90EF90DF90CF90BF9028
:1023D000AF909F908F9008952FB7F894609126103A
:1023E0007091271080912810909129102FBF089587
:1023F0001F920F920FB60F9211242F933F938F933A
:102400009F93AF93BF938091261090912710A09136
:102410002810B09129103091251023E0230F2D377B
:1024200020F40196A11DB11D05C026E8230F0296D8
:10243000A11DB11D20932510809326109093271085
:10244000A0932810B093291080912A1090912B10FE
:10245000A0912C10B0912D100196A11DB11D80935B
:102460002A1090932B10A0932C10B0932D10BF9195
:10247000AF919F918F913F912F910F900FBE0F9031
:102480001F9018951F920F920FB60F9211240BB642
:102490000F922F933F934F935F936F937F938F93FD
:1024A0009F93AF93BF93EF93FF93E0910E02F09150
:1024B0000F021995FF91EF91BF91AF919F918F916D
:1024C0007F916F915F914F913F912F910F900BBE34
:1024D0000F900FBE0F901F9018951F920F920FB67E
:1024E0000F9211240BB60F922F933F934F935F934C
:1024F0006F937F938F939F93AF93BF93EF93FF93CC
:10250000E0910C02F0910D021995FF91EF91BF91AE
:10251000AF919F918F917F916F915F914F913F917B
:102520002F910F900BBE0F900FBE0F901F9018951C
:102530001F920F920FB60F9211240BB60F922F938A
:102540003F934F935F936F937F938F939F93AF933B
:10255000BF93EF93FF93E0910202F091030219956C
:10256000FF91EF91BF91AF919F918F917F916F916B
:102570005F914F913F912F910F900BBE0F900FBE27
:102580000F901F9018951F920F920FB60F92112463
:102590000BB60F922F933F934F935F936F937F935D
:1025A0008F939F93AF93BF93EF93FF93E0910002BC
:1025B000F09101021995FF91EF91BF91AF919F9119
:1025C0008F917F916F915F914F913F912F910F90DC
:1025D0000BBE0F900FBE0F901F9018951F920F9279
:1025E0000FB60F9211240BB60F922F933F934F9378
:1025F0005F936F937F938F939F93AF93BF93EF936B
:10260000FF93E0910A02F0910B021995FF91EF916F
:10261000BF91AF919F918F917F916F915F914F91FA
:102620003F912F910F900BBE0F900FBE0F901F90F8
:1026300018951F920F920FB60F9211240BB60F929E
:102640002F933F934F935F936F937F938F939F93BA
:10265000AF93BF93EF93FF93E0910802F0910902CB
:102660001995FF91EF91BF91AF919F918F917F91BC
:102670006F915F914F913F912F910F900BBE0F90F3
:102680000FBE0F901F9018951F920F920FB60F92CA
:1026900011240BB60F922F933F934F935F936F9339
:1026A0007F938F939F93AF93BF93EF93FF93E091AB
:1026B0000602F09107021995FF91EF91BF91AF913A
:1026C0009F918F917F916F915F914F913F912F914A
:1026D0000F900BBE0F900FBE0F901F9018951F927A
:1026E0000F920FB60F9211240BB60F922F933F93B8
:1026F0004F935F936F937F938F939F93AF93BF930A
:10270000EF93FF93E0910402F09105021995FF9178
:10271000EF91BF91AF919F918F917F916F915F9159
:102720004F913F912F910F900BBE0F900FBE0F90C6
:102730001F901895CF93C0912410C0FF16C04091F0
:10274000D5055091D6056091D7057091D80524E242
:102750003EE08091D3059091D4050E94D004882357
:1027600029F0CE7FC093241001C081E0CF9108955D
:10277000CF92DF92EF92FF92CF936B017C01C42F37
:102780008091D5059091D605A091D705B091D80537
:102790008C159D05AE05BF0501F1CCDF811103C08D
:1027A00080E090E022C0C2FF0BC010922410C092C3
:1027B000D505D092D605E092D705F092D8050DC088
:1027C00024E23EE0B701A6018091D3059091D405A3
:1027D0000E94FD048111E9CFE3CFC37080912410E2
:1027E000C82BC093241084E29EE0CF91FF90EF901D
:1027F000DF90CF9008958F929F92AF92BF92CF9229
:10280000DF92EF92FF920F931F93CF93DF93EC0130
:102810006A017B014801590142305105610571058A
:1028200010F480E050C08E819F81A885B985019603
:10283000A11DB11D84179507A607B70790F38B89D3
:10284000803149F4452F562F672F77278F85988938
:10285000A989BA890DC0803221F78F859889A98905
:10286000BA89E7E07695679557954795EA95D1F748
:102870008A019B01080F191F2A1F3B1FC901B801BC
:1028800043E076DF009769F22B89203159F4DD248B
:10289000EE24FF24CC0CDD1CFC01EC0DFD1D91820F
:1028A000808210C0E894C7F8DD24EE24FF24CC0C0D
:1028B000DD1CCC0CDD1CFC01EC0DFD1D8082918229
:1028C000A282B38281E0DF91CF911F910F91FF909F
:1028D000EF90DF90CF90BF90AF909F908F90089532
:1028E000CF92DF92EF92FF920F931F93CF93DF93DC
:1028F000FC01423051056105710510F480E05DC0B6
:1029000086819781A085B1850196A11DB11D84178F
:102910009507A607B70790F38389803149F4BB2751
:10292000A72F962F852FC784D088E188F2880FC003
:10293000803221F787859089A189B2896A017B015C
:10294000C7E0F694E794D794C794CA95D1F78C0D55
:102950009D1DAE1DBF1DE9016A017B018F0142E093
:10296000BC01CD0105DF009749F2F8012389B701C9
:10297000A601203169F4552766277727440F551F94
:10298000FC01E40FF51F80819181A0E0B0E010C050
:102990004F77552766277727440F551F440F551F3C
:1029A000FC01E40FF51F80819181A281B381BF708A
:1029B00088839983AA83BB8381E0DF91CF911F91A4
:1029C0000F91FF90EF90DF90CF9008954F925F921C
:1029D0006F927F928F929F92AF92BF92CF92DF922F
:1029E000EF92FF920F931F93CF93DF93CDB7DEB794
:1029F0002C970FB6F894DEBF0FBECDBF4C01DC01A3
:102A00001496AD90BC901597F50186819781A085AD
:102A1000B1859C01AD012F5F3F4F4F4F5F4F29871D
:102A20003A874B875C87D4011696CD90DD90ED9068
:102A3000FC901997C114D104E104F10439F0BFEFFF
:102A4000CB1ADB0AEB0AFB0A10E006C0F501C080D6
:102A5000D180E280F38011E0260137011D821E82C1
:102A60001F821886F50186819781A085B1852D8109
:102A70003E814F815885281739074A075B0708F0C0
:102A800073C089859A85AB85BC858C159D05AE057F
:102A9000BF0550F482E0C82ED12CE12CF12C92E03D
:102AA000492E512C612C712C9E012F5F3F4FB70195
:102AB000A601C50115DF882309F456C089819A81D2
:102AC000AB81BC81892B8A2B8B2B71F04C145D045C
:102AD0006E047F0409F010E0260137019FEF491AC8
:102AE000590A690A790A05C0C414D504E604F70432
:102AF00091F02D813E814F8158852F5F3F4F4F4F81
:102B00005F4F2D833E834F8358873FEFC31AD30A0D
:102B1000E30AF30AA7CF112351F0D301C2010196B2
:102B2000A11DB11DF50180839183A283B3830FEFB3
:102B30001FEF2FEF3FE0B301A201C5015CDEF82ECD
:102B4000882391F0D40116964D915D916D917C9101
:102B50001997411551056105710541F093018201F5
:102B6000C50149DE811102C0F12C19C0D4011696AD
:102B70004D925D926D927C92199756968D919D9192
:102B80000D90BC91A02D892B8A2B8B2B41F4F40145
:102B9000468A578A608E718E8181806881838F2DED
:102BA0002C960FB6F894DEBF0FBECDBFDF91CF914C
:102BB0001F910F91FF90EF90DF90CF90BF90AF905B
:102BC0009F908F907F906F905F904F900895CF93DC
:102BD000DF93EC018A81882391F1898187FF2CC0E2
:102BE0006E857F858889998941E0C2DD009739F13A
:102BF000EB8140E2E49F90011124FC01E20FF31FFE
:102C00004081453EE1F04A81423040F44A895B8987
:102C10006C897D89448F558F668F778F4E895F8948
:102C2000688D798DFC01E20FF31F538F428F758BF6
:102C3000648B89818F778983DF91CF917BCD81E010
:102C4000888380E0DF91CF9108958EBD0DB407FE9B
:102C5000FDCF08952F923F924F925F926F927F9295
:102C60008F929F92AF92BF92CF92DF92EF92FF929C
:102C70000F931F93CF93DF93CDB7DEB729970FB68E
:102C8000F894DEBF0FBECDBF8C011B015F834E8366
:102C9000DC0112968C911297813009F054C0119684
:102CA0008C9181FF50C055C00480F581E02D2285B4
:102CB00030E0275F3F4FDB01CA010197A109B1094D
:102CC000022E04C0B695A795979587950A94D2F7DA
:102CD00073016201E1E0CE1AD108E108F10804C0F5
:102CE000F694E794D794C7942A95D2F7C816D906D4
:102CF000EA06FB0608F04CC0F80186899789A08D8A
:102D0000B18D86839783A087B1875801E6E0AE0E28
:102D1000B11CD801C114D104E104F10409F442C08A
:102D200016964D915D916D917C9119979501149630
:102D30008D919C911597D4DDB1E0CB1AD108E108B3
:102D4000F1088111E6CF81E0F80180838FEF9FEFDA
:102D500000C282FF2DC0F8014285538564857585C8
:102D6000428853886488758844155505660577053B
:102D7000F9F0411451046104710409F095CF1682F1
:102D8000178210861186128613861486158610C047
:102D9000452B462B472B09F4AFCFC81AD90AEA0AAC
:102DA000FB0AB3CF1A964D925D926D927C921D975D
:102DB000EE81FF81AF0160E070E0F80182859385CC
:102DC000A485B58580959095A095B09584179507B5
:102DD000A607B70708F4B7CF8E809F80E090D30591
:102DE000F090D405D8011A964D915D916D917C912A
:102DF0001D978114910409F48CC1D80114968D910A
:102E00009C9115972A013B01E9E0769467945794C9
:102E10004794EA95D1F7FC01D580D4205A01F1E01E
:102E2000BF22D11043C0A114B10409F03FC01696CF
:102E30004D915D916D917C911997411551056105F9
:102E4000710509F19E012F5F3F4F4ADD882309F488
:102E50007ACF89819A81AB81BC81F8012481358147
:102E6000F9012389203139F4883FFFEF9F07A1053D
:102E7000B10590F416C0883F2FEF9207A2072FE00C
:102E8000B20778F009C0F80186899789A08DB18DC5
:102E90000097A105B10529F4C80198DD811106C08C
:102EA00052CFF80186839783A087B187D801149603
:102EB000ED91FC91159716964D905D906D907C90DC
:102EC0001997B2E04B1A510861087108028404C0D6
:102ED000440C551C661C771C0A94D2F78385948594
:102EE000A585B685480E591E6A1E7B1E4D0C511CC9
:102EF000611C711CA114B104C1F4811422E092067A
:102F000098F5D8011A964D915D916D917C911D9720
:102F100052968D919D910D90BC91A02D4817590707
:102F20006A077B0710F045E001C041E0C301B20130
:102F30001FDC009709F407CF612C72E0772E6A1826
:102F40007B0864016814790408F46301A601B101E7
:102F50008A0D9B1D0E948723C614D70409F0C7C0A1
:102F6000E9DB8111C4C0EFCE8114B4E09B0638F5D3
:102F70008091D5059091D605A091D705B091D8053F
:102F800084159505A605B70569F48FEF9FEFDC0161
:102F90008093D5059093D605A093D705B093D80517
:102FA000109224109101B301A201C7010E94D00424
:102FB000882309F4C8CEC12C82E0D82E98C0848121
:102FC0008D19992D96959D83891708F48D8320E09E
:102FD00030E0A90167E3C7010E948E04AD812A2F6A
:102FE00030E040E050E067E1C7010E948E04882392
:102FF00011F089E015C0D70114968C91A3019201BC
:10300000833039F069E0220F331F441F551F6A9542
:10301000D1F769E1C7010E948E04882321F087E07F
:10302000F701818360C0C7010E9451043986288658
:10303000630152018A2D8419FD818F17C8F5809193
:10304000D5059091D605A091D705B091D805A816C1
:10305000B906CA06DB0669F48FEF9FEFDC018093A7
:10306000D5059093D605A093D705B093D8051092B7
:103070002410C7010E9437040E94520D8823B1F02A
:10308000488559856CEFC7010E945904882371F067
:10309000C7010E945104A885B985BE5FB987A8877A
:1030A000BFEFAB1ABB0ACB0ADB0AC4CF85E1B8CFAE
:1030B000C7010E9437040E94520D882381F08DEFD2
:1030C000C4DD0E94520D882351F02D81C22ED12CD7
:1030D000DC2CCC24DD0CC7010E94510408C082E125
:1030E000D70111968C93C7010E9451042CCEF80190
:1030F00082859385A485B5858C0D9D1DA11DB11D6F
:1031000082879387A487B5872C0C3D1C8C189D085B
:1031100069CE52968D919D910D90BC91A02D8417F2
:103120009507A607B70740F4F801428B538B648BD1
:10313000758B818180688183D80111968C9183FD84
:1031400003C08E819F8105C0C80141DD8111F9CF87
:10315000FACD29960FB6F894DEBF0FBECDBFDF9132
:10316000CF911F910F91FF90EF90DF90CF90BF9084
:10317000AF909F908F907F906F905F904F903F9017
:103180002F9008958FEF8EBD0DB407FEFDCF8EB545
:103190000895CF92DF92EF92FF920F931F93CF93F8
:1031A000DF936C017A018B01C0E0D0E0CE15DF0522
:1031B00089F0D8016D918D01D601ED91FC910190BE
:1031C000F081E02DC6011995892B11F47E0102C012
:1031D0002196ECCFC701DF91CF911F910F91FF9006
:1031E000EF90DF90CF900895EF92FF920F931F938F
:1031F000CF93DF93EC017B018A018881998100974D
:1032000029F02A813B8124173507F8F4B8016F5F54
:103210007F4F0E949F22009759F0998388831B83D8
:103220000A832C813D81232B81F4FC0110820DC087
:1032300088819981009711F00E9444211982188297
:103240001D821C821B821A8207C01D830C83B7015A
:10325000888199810E949923CE01DF91CF911F919E
:103260000F91FF90EF900895FC01808191810C9463
:103270004421FC0111821082138212821582148271
:103280006115710549F0FB0101900020E9F73197C4
:10329000AF01461B570BA8CF08956115710579F052
:1032A000FB0101900020E9F73197AF01461B570B56
:1032B000DC01ED91FC910280F381E02D199480E016
:1032C00090E008950F931F93CF93DF93EC01E5DF18
:1032D0008C016DE873E0CE01E0DF800F911FDF917C
:1032E000CF911F910F9108958EEA9BE0BDDF88EA90
:1032F0009BE0BADF82EA9BE0B7DF89E99AE0B4CFCE
:10330000CF93DF93CDB7DEB7A0970FB6F894DEBFAB
:103310000FBECDBF789484B5826084BD84B58160D2
:1033200084BD85B5826085BD85B5816085BD809190
:103330006E00816080936E00109281008091810008
:103340008260809381008091810081608093810000
:10335000809180008160809380008091B1008460C2
:103360008093B1008091B00081608093B000809123
:1033700091008260809391008091910081608093A0
:103380009100809190008160809390008091A100D5
:1033900082608093A1008091A10081608093A10050
:1033A0008091A00081608093A000809121018260C3
:1033B000809321018091210181608093210180917E
:1033C000200181608093200180917A008460809345
:1033D0007A0080917A00826080937A0080917A00EE
:1033E000816080937A0080917A00806880937A006F
:1033F0001092C100E0918007F091810782E0808304
:10340000E0917C07F0917D071082E0917E07F091BA
:103410007F0780E1808310928807E0918407F09114
:10342000850786E08083E0918207F09183078081A1
:1034300080618083E0918207F091830780818860BA
:103440008083E0918207F091830780818068808388
:10345000E0918207F091830780818F7D808364EF04
:1034600071E080E090E00E94B41185E30E944F0B70
:1034700089E00E944F0B86E00E944F0B84E00E947F
:103480004F0B8BE00E944F0B66E373E080E797E001
:1034900004DF60E084E00E94371160E085E30E9471
:1034A000371161E086E00E94371161E089E00E94F7
:1034B000371161E08BE00E94371168EE73E080E025
:1034C00090E00E94B41160E170E080E090E00E9422
:1034D000B4110DE018E0809113080E944F0B61E0D9
:1034E000809113080E94371180910F089091100865
:1034F000DC01ED91FC910680F781E02D199580911A
:103500000F0890911008DC01ED91FC910484F58581
:10351000E02D60E0199580910F0890911008DC0172
:10352000ED91FC910284F385E02D61E01995809185
:103530000F0890911008DC01ED91FC910684F7854D
:10354000E02D61E0199564E670E080E090E00E9473
:10355000B41140E867E0C8010E949A0561E070E09C
:1035600080E090E00E94B41160E0C8010E949D06D6
:10357000809315088750823030F069E573E080E76A
:1035800097E0A0DEA0CF80911408811112C01093A3
:10359000CA040093C90485E19AE0909301028093E4
:1035A000000280916A008C7F826080936A00EC9AAE
:1035B00027C0813091F41093CC040093CB048DE0AC
:1035C0009AE0909303028093020280916A00837FC5
:1035D000886080936A00ED9A13C0823071F6109370
:1035E000CE040093CD0485E09AE090930502809389
:1035F0000402809169008C7F826080936900E89A60
:103600008FB7F89410921808109219098FBF8DE0A7
:1036100098E00E94260544E06DE78DE098E00E9466
:103620009A0547E36EE78DE098E00E949A05409185
:10363000160843704C6860E38DE098E00E949A059C
:1036400048E862E38DE098E00E949A0542E463E373
:103650008DE098E00E949A0548E064E38DE098E0F0
:103660000E949A058DE28B8B84ED8C8B22E0AE015B
:103670004D5E5F4F66E38DE098E00E942F054FEFAF
:1036800063E48DE098E00E949A0540E06FE38DE0EE
:1036900098E00E949A0540E06AE38DE098E00E947D
:1036A0009A0540E06BE38DE098E00E949A0540E0C7
:1036B0006CE38DE098E00E949A0540E06DE38DE0B8
:1036C00098E00E949A0542E16BE08DE098E00E944C
:1036D0009A0545E16CE08DE098E00E949A0547EB81
:1036E00065E08DE098E00E949A0540E466E08DE098
:1036F00098E00E949A0540E063E78DE098E00E9420
:103700009A0540E064E78DE098E00E949A0543E561
:1037100065E78DE098E00E949A0544E666E78DE053
:1037200098E00E949A0540E067E78DE098E00E94EB
:103730009A0540E56AE28DE098E00E949A0562E011
:103740008DE098E00E949D0642E150E06EE371E05A
:10375000CE01019686D6BE016F5F7F4F8DE098E067
:103760000E946F0643E06DE68DE098E00E949A05A6
:10377000409121096FE38DE098E00E949A05409105
:1037800021096BE38DE098E00E949A058EE1809319
:10379000290A6AE673E080E797E094DD44E06DE68D
:1037A0008DE098E00E949A0568E873E180E090E07F
:1037B0000E94B4117CE4C72E72E0D72EECEDAE2E41
:1037C000E5E0BE2EF601819191916F018C3191055A
:1037D00008F003C122E1289FB001299F700D112438
:1037E000685F7E4F42E150E0CE0101963AD6BE01BD
:1037F0006F5F7F4F8DE098E00E946F068A2C8AEF02
:10380000382E80E797E00E94700F8336910509F407
:103810008FC00E94EC112B013C0162E0962E0E94A9
:10382000EC11DC01CB0184199509A609B709843F85
:103830009140A105B10528F738A2CE0101967C017F
:103840008E010D5E1F4F9E01275E3F4FAE01415E10
:103850005F4FBE01605E7F4F8DE098E00E947C0C60
:10386000182F8823E1F298A19923B1F08091D9050E
:10387000811112C0915080913F02981710F49093DB
:103880003F0240913F0250E06AED75E084ED94E024
:103890003ED7112321F2B9C0898D8F3F09F0BFCFE8
:1038A000923008F4BCCF8091D905813009F0B7CFB0
:1038B000809121092F8D281709F4B1CF1DEF190F21
:1038C0005CEDE52E55E0F52EF7019E2F9A19911724
:1038D00020F491919813F9CFA2CF8DE098E00E9447
:1038E000CA06482F6F8D8DE098E00E94230C8E2D24
:1038F0008819811748F48DE098E00E94CA06D70124
:103900006D917D01482FEFCF8091DA05813009F06C
:103910006AC02091DB0580912109281364C0909230
:10392000D9054F8D68A18DE098E00E94EA0B77CF12
:103930006CE773E080E797E0B0DC6091100270E024
:1039400080E090E04AE00E946E0B6DE873E080E753
:1039500097E0A3DC60E973E080E797E09EDC80916C
:10396000D0049091D1040E94B10B69EC73E080E720
:1039700097E093DC6091CF0470E080E090E04AE053
:103980000E946E0B6DE873E080E797E086DC62E0F2
:1039900074E080E797E081DC8091D2049091D304B9
:1039A0000E94B10B1092D3041092D2041092D10451
:1039B0001092D0041092CF04809110028F5F8093F8
:1039C0001002F8E7CF16F2E0DF0609F0FBCE67E55C
:1039D00073E080E797E076DCFFCF60E374E080E798
:1039E00097E070DCFFCF8091290A181708F017CFF5
:1039F000E12FF0E0E752FA4F80912109838368A11B
:103A00006F5F68A32F8D4FEF8ECF64ED74E0CE0112
:103A100049962FDC8091D40480932D028091D504A7
:103A200080932E028091D60480932F028091D70438
:103A3000809330026DE272E0CE0143961ADC2D8D48
:103A40003E8D8F89988D2817390701F5898D9A8DBC
:103A50006B897C89009719F061157105A1F46115D6
:103A6000710549F0232BE1F0DB018C9190E09195F9
:103A70008195910909C0009799F0232B89F0FC01E9
:103A8000808190E001C04CD6892B51F08091D20406
:103A90009091D30401969093D3048093D20461C093
:103AA0008091D404809311028091D50480931202F6
:103AB0008091D604809313028091D70480931402DE
:103AC00061E172E0CE010196D4DB2DE038E080E0C8
:103AD00090E0F901E35EFD4F408141110EC0329646
:103AE0004081442351F09C01220F331F820F931F0A
:103AF000865D954F892BC1F406C001962D5F3F4F1F
:103B00008A30910531F760E08DE098E00E94BF08AF
:103B100081110AC08091D0049091D10401969093B4
:103B2000D1048093D0041AC01092D9058CE1E1E150
:103B3000F2E0AAEDB5E001900D928A95E1F72091AF
:103B4000210940E06DE18DE098E00E94EA0B8111CF
:103B5000E1CF8091CF048F5F8093CF04CE01019697
:103B600083DB8091CF048C3011F480912009CE0149
:103B700043967ADBCE01499677DB40CEFF920F93D6
:103B80001F93CF93DF931092D6061092D50688EE3E
:103B900093E0A0E0B0E08093D7069093D806A0937E
:103BA000D906B093DA0620E932E03093D4062093A8
:103BB000D3064DEC50E05093E0064093DF064CEC0A
:103BC00050E05093E2064093E10608EC10E01093B9
:103BD000E4060093E30649EC50E05093E606409378
:103BE000E5064AEC50E05093E8064093E7064EECB9
:103BF00050E05093EA064093E9061092EC061092CA
:103C0000ED061092EE061092EF06109273071092D6
:103C100072078093740790937507A0937607B0930B
:103C20007707309371072093700725EC30E03093CD
:103C30007D0720937C0724EC30E030937F072093AE
:103C40007E0720EC30E0309381072093800721EC41
:103C500030E0309383072093820722EC30E03093EA
:103C600085072093840726EC30E030938707209364
:103C700086071092890710928A0710928B0710927C
:103C80008C071092170E1092160E22EA32E0309333
:103C9000150E2093140E10921B0E10921A0E809384
:103CA0001C0E90931D0EA0931E0EB0931F0E2EEAB5
:103CB00032E03093190E2093180E29E12093DD0C89
:103CC0001092E00C1092F40C1092FB0C1092FD0C70
:103CD00010922F0C1092300C1092320C1092310C6A
:103CE0001092330C1092340C1092350C1092360C4A
:103CF0001092370C1092390C1092380C10923A0C2A
:103D000010923B0C10923C0C10923D0C10923E0C09
:103D10001092400C10923F0C1092410C1092420CE9
:103D20001092430C1092440C1092450C1092470CC8
:103D30001092460C1092480C1092490C10924A0CAA
:103D400010924B0C10924C0C1092510C1092520C81
:103D50001092530C1092540C1092550C1092560C59
:103D600010925F0C1092600C1092610C1092620C19
:103D70001092630C1092640C10926D0C10926E0CE9
:103D80001092730C1092740C1092750C1092760CA9
:103D900010927B0C10927C0C1092810C1092820C71
:103DA0001092830C1092840C1092890C10928A0C41
:103DB00010928F0C1092900C1092910C1092920C09
:103DC0001092970C1092980C10929D0C10929E0CD1
:103DD00010929F0C1092A00C1092A50C1092A60CA1
:103DE0001092AB0C1092AC0C1092AD0C1092AE0C69
:103DF0001092B30C1092B40C1092B50C22E02093E8
:103E0000C50C1092C60C1092C70C1092C90C1092DF
:103E1000C80C1092CB0C1092CA0C1092CC0C1092C1
:103E2000CD0C1092CE0C1092CF0C1092D00C1092A0
:103E3000D10C1092D20C1092D30C1092D40C109280
:103E4000D50C1092D60C1092D70C1092D80C109260
:103E5000D90C1092DA0C1092DB0C1092B60CC1E067
:103E6000D0E0D0931C0CC0931B0C3DE13093190C97
:103E70003BE630931A0C2093F90BFF24F394F09255
:103E8000FA0B22E22093FE0B24E12093FF0B2BE0A0
:103E90002093000C24E531E03093020C2093010CB8
:103EA0001093040C0093030C2EE630E03093060CC4
:103EB0002093050C1092D40B1092D50B1092D60BB8
:103EC0001092D70B21E430E03093D90B2093D80B1C
:103ED0001092E70B1092E80B1092E90B1092EA0B8C
:103EE0001092EB0B1092EC0B1092ED0B1092EE0B6C
:103EF0004FE852EC65EF7BE34093EF0B5093F00BF0
:103F00006093F10B7093F20B40E050E867ED75E4BD
:103F10004093F30B5093F40B6093F50B7093F60BF7
:103F2000D093E00BC093DF0B1092E10B1092E20BE9
:103F30001092E30B1092E40B1092E60B1092E50B3B
:103F40001092F80B1092F70B1092DE0B1092720A7F
:103F50001092740A1092690A1092680A80936A0A91
:103F600090936B0AA0936C0AB0936D0A80ED92E077
:103F70009093670A8093660A6FE873E089E99AE094
:103F800078D96FE873E082EA9BE073D96FE873E059
:103F900088EA9BE06ED96FE873E08EEA9BE069D90E
:103FA00047E050E060E574E089E99AE01DD940E01F
:103FB00050E06FE873E082EA9BE016D940E050E001
:103FC0006FE873E088EA9BE00FD940E050E06FE8CB
:103FD00073E08EEA9BE008D91092B50B1092B40BF7
:103FE0001092B70B1092B60B1092650A1092640AE9
:103FF0001092BB0B1092BA0B1092BD0B1092BC0B1F
:104000001092BF0B1092BE0BD093C10BC093C00B8C
:104010001092C30B1092C20B84EF91E09093C50BEA
:104020008093C40B84E190E09093C70B8093C60B00
:1040300085E090E09093C90B8093C80BD093CB0B95
:10404000C093CA0B1092CD0B1092CC0B1092CF0BD9
:104050001092CE0B1092D10B1092D00B1092D30B6A
:104060001092D20B80E89FE4A2E1B0E08093500A66
:104070009093510AA093520AB093530A80E496E1B8
:10408000A0E4B0E08093540A9093550AA093560A96
:10409000B093570A88EE90E8A0E0B0E08093580A09
:1040A0009093590AA0935A0AB0935B0A80EA96E863
:1040B000A1E0B0E080935C0A90935D0AA0935E0A51
:1040C000B0935F0A1092600A1092490A1092480A4F
:1040D00085E38093130810921408F092120810924E
:1040E000110810921D0910921C0910921B091092C0
:1040F0001A0910921F0910921E0980E492E0909311
:10410000100880930F08D0931708C093160883E017
:1041100080932109109223091092220910922409F8
:104120001093260900932509809327098EE1809337
:10413000290A80E090E0FC01E45DF54F10820396CF
:104140008E319105C1F780EC92E090930E08809338
:104150000D08DF91CF911F910F91FF900895CF939C
:10416000DF938230910510F482E090E0E09130100E
:10417000F091311020E030E0C0E0D0E0309711F154
:104180004081518148175907C0F04817590761F419
:1041900082819381209719F09B838A832BC090930F
:1041A00031108093301026C02115310519F04217C7
:1041B000530718F49A01BE01DF01EF010280F38179
:1041C000E02DDCCF2115310509F1281B390B2430F6
:1041D000310590F412968D919C911397611571059C
:1041E00021F0FB019383828304C09093311080936C
:1041F0003010FD01329644C0FD01E20FF31F8193A0
:104200009193225031092D933C933AC020912E1066
:1042100030912F10232B41F420914402309145021C
:1042200030932F1020932E102091420230914302A0
:104230002115310541F42DB73EB74091460250910A
:104240004702241B350BE0912E10F0912F10E2173E
:10425000F307A0F42E1B3F0B2817390778F0AC01A9
:104260004E5F5F4F2417350748F04E0F5F1F509386
:104270002F1040932E108193919302C0E0E0F0E064
:10428000CF01DF91CF9108950F931F93CF93DF93C9
:10429000009709F48CC0FC013297138212820091BE
:1042A0003010109131100115110581F420813181F8
:1042B000820F931F20912E1030912F10281739074D
:1042C00079F5F0932F10E0932E1071C0D80140E0E3
:1042D00050E0AE17BF0750F412962D913C91139702
:1042E000AD012115310509F1D901F3CF9D01DA01A5
:1042F0003383228360817181860F971F8217930712
:1043000069F4EC0128813981260F371F2E5F3F4F5A
:10431000318320838A819B8193838283452B29F477
:10432000F0933110E093301042C01396FC93EE935B
:104330001297ED01499159919E01240F351FE21703
:10434000F30771F480819181840F951F0296119675
:104350009C938E938281938113969C938E93129754
:10436000E0E0F0E0D80112968D919C9113970097B0
:1043700019F0F8018C01F6CF8D919C9198012E5F78
:104380003F4F820F931F20912E1030912F1028172E
:10439000390769F4309729F41092311010923010D7
:1043A00002C01382128210932F1000932E10DF91FF
:1043B000CF911F910F9108958F929F92AF92BF92CC
:1043C000CF92DF92EF92FF92CF93DF93EC0168815F
:1043D00079818A819B81611571058105910521F49F
:1043E00064E279ED8BE597E02DE133EF41E050E0B9
:1043F00041D049015A019B01AC01A7EAB1E456D072
:104400006B017C01ACEEB4EFA50194015BD0DC0143
:10441000CB018C0D9D1DAE1DBF1DB7FF03C00197C5
:10442000A109B04888839983AA83BB83BC01CD01CD
:104430009F77DF91CF91FF90EF90DF90CF90BF906B
:10444000AF909F908F900895B7CF88E492E0B4CF5B
:10445000609348027093490280934A0290934B0202
:104460000895FB01DC0102C005900D9241505040BF
:10447000D8F70895052E97FB16F400940FD057FD3A
:1044800005D024D007FC02D046F408C050954095D2
:10449000309521953F4F4F4F5F4F089590958095F0
:1044A000709561957F4F8F4F9F4F089531D0A59F95
:1044B000900DB49F900DA49F800D911D112408951F
:1044C000B7FFF4CFF3DF821B930B0895A1E21A2EFE
:1044D000AA1BBB1BFD010DC0AA1FBB1FEE1FFF1FA8
:1044E000A217B307E407F50720F0A21BB30BE40BF8
:1044F000F50B661F771F881F991F1A9469F760953F
:104500007095809590959B01AC01BD01CF010895F8
:10451000A29FB001B39FC001A39F700D811D112404
:10452000911DB29F700D811D1124911D0895EE0FF4
:10453000FF1F881F8BBF0790F691E02D19946F9293
:104540007F928F929F92AF92BF92CF92DF92EF9223
:10455000FF920F931F93CF93DF93EC01009781F4A9
:10456000CB01DF91CF911F910F91FF90EF90DF90E2
:10457000CF90BF90AF909F908F907F906F90EFCD36
:10458000FC01E60FF71F9C0122503109E217F307E7
:1045900008F4A8C0D9010D911C91119706171707AF
:1045A000A8F00530110508F49BC0C80104978617D0
:1045B000970708F495C002501109061B170B0193C9
:1045C00011936D937C93CF015FDE8AC05B01A01ACB
:1045D000B10A4C01800E911EA0913010B0913110A3
:1045E00040E050E0E12CF12C109709F44AC0A815E6
:1045F000B905D1F56D907C901197630182E0C80EEA
:10460000D11CCA14DB0480F1A3014A195B096A01B9
:1046100082E0C80ED11C1296BC9012971396AC91F2
:10462000B5E0CB16D10440F0B282A383518340831E
:10463000D9016D937C930AC00E5F1F4FC301800F99
:10464000911FF90191838083EB2DFA2FE114F1047E
:1046500031F0D7011396FC93EE93129741C0F0937B
:104660003110E09330103CC08D919C911197481708
:10467000590708F4AC017D0112960D90BC91A02D54
:10468000B3CF80912E1090912F1088159905E1F4E9
:1046900046175707C8F48091420290914302009751
:1046A00041F48DB79EB74091460250914702841B5A
:1046B000950BE817F907B0F4F0932F10E0932E1044
:1046C000F901718360830CC0CB0149DD7C01009747
:1046D00049F0A801BE011BD0CE01D6DDC70104C040
:1046E000CE0102C080E090E0DF91CF911F910F9149
:1046F000FF90EF90DF90CF90BF90AF909F908F9002
:104700007F906F90089581E090E0F89419C0FB01CC
:10471000DC0102C001900D9241505040D8F708953D
:10472000FB01DC018D91019080190110D9F3990BE7
:104730000895FB01DC0101900D920020E1F708953E
:1047400011E0CBEFD1E000E005C0802FFE01EFDEED
:104750002196011DCC3FD10780E00807B1F7F894FE
:02476000FFCF89
:104762009010901090109010901090109010901047
:1047720001303030303A20416E642068656C6C6FD5
:10478200206261636B20746F20796F750030303066
:10479200303A2048656C6C6F20576F726C6400FF72
:1047A2007C020000321080000100000002000300C1
:1047B2000400050006000700080009000C000D00B7
:1047C2000E000F001000110008000900150016006D
:1047D2001700180019001A000000000082027E0271
:1047E2007A02900366025E0259024A020000000049
:1047F200D10FC918610F1710920F700F840F0000AC
:1048020000002E02C9180603050300000000F5028D
:10481200E1020603D302DA02D702D402000000004A
:104822004902480275081008BF083C020000000057
:10483200C303C003060334048902DC03F203547287
:1048420079696E6720746F2064656C697665722081
:104852006D65737361676520746F206E657874206F
:10486200726F757465004D65737361676520646569
:104872006C6976657279206661696C004E6F207290
:104882006F75746520746F2073656E64206D657337
:104892007361676520002A2A2A2A2A53657474697B
:1048A2006E6720436869702053656C65637473207A
:1048B2004C4F572A2A2A2A2A007266323220696EFF
:1048C2006974206661696C656400726632322069BF
:1048D2006E6974207375636365737300466F72202B
:1048E2006D6F64756C6174696F6E3A20000D0A0019
:1048F200546865206E756D626572206F6620666110
:10490200696C6564207472616E736D697373696F2B
:104912006E206D6573736167657320776974686F64
:1049220075742061636B3A2000546865206E756D62
:10493200626572206F662073756363657373667553
:104942006C6C20726563657074696F6E7320616E42
:1049520064207472616E736D697373696F6E733AFA
:104962002000546865206E756D626572206F662046
:10497200696E636F72726563746C792072656369C4
:1049820065766564206D657373616765733A2000AF
:104992004552524F523A207365744D6F64656D43B0
:1049A2006F6E666967206661696C656420342E00EB
:0849B2003030312E74787400DE
:00000001FF
