:1000000002C200000C94140D0C94E90C0C94BE0C6C
:100010000C94930C0C94680C0C943D0C0C94120CE6
:100020000C94E70B21C200001FC200001DC200009B
:100030001BC2000019C2000017C2000015C2000058
:1000400013C2000011C200000FC200000DC2000068
:100050000BC2000009C2000007C200000C949D0BF7
:1000600003C200000C94E2090C941C09FDC10000BD
:10007000FBC10000F9C10000F7C10000F5C100009C
:10008000F3C10000F1C10000EFC10000EDC10000AC
:10009000EBC10000E9C10000E7C100001DC5000080
:1000A000E3C10000E1C10000DFC10000DDC10000CC
:1000B000DBC10000D9C10000D7C10000D5C10000DC
:1000C000D3C10000D1C10000CFC10000CDC10000EC
:1000D000CBC10000C9C10000C7C10000C5C10000FC
:1000E000C3C10000CF0AD20AC10AC50AC90A090B56
:1000F000D60ADA0AE00AE40AE80AEE0AF20AF60A7E
:10010000090BFC0A000B040B2B03F4204189003679
:10011000400A1D806010622C00082B03F4204189E6
:100120000036400A1D806010622C33082B03F42037
:1001300041890036400A1D806010622C22081B0392
:10014000416027520007400A1E806013A92C223A02
:100150001D03A1204EA50013400A1E806027522CCB
:1001600022481E03D0009D490045400A2080604E71
:10017000A52C22482B033402752507FF400A1B805B
:10018000609D492C220F020368013A9304D5400A6E
:100190001E806009D50C221F06034501D7DC076EBF
:1001A000400A2D80600EBF0C222E8A036001555537
:1001B00002AD400A50806020000C22C82B03A1E051
:1001C00010C70009400A1D806004322C2204270356
:1001D000A1E010C70006400A1D806004322C2207EF
:1001E0002B03F42041890036400A1D806010622CE8
:1001F00023081B03416027520007400A1E8060133A
:10020000A92C233A1D03A1204EA50013400A1E80ED
:100210006027522C23481E03D0009D490045400A08
:100220002080604EA52C23482B033402752507FF40
:10023000400A1B80609D492C230F020368013A93FA
:1002400004D5400A1E806009D50C231F0603450112
:10025000D7DC076E400A2D80600EBF0C232E8A0368
:100260006001555502AD400A50806020000C23C843
:10027000510368003A93013D2C1128806009D52C68
:100280002108C803392068DC006B2A082A80601323
:10029000A92C2108C8039C00D1B700D429042980C7
:1002A0006027522C2108B8039C00D1B700D42882C3
:1002B0002980604EA52C2108A8039C00D1B700D44A
:1002C00028412980609D492C210898039C00D1B7C2
:1002D00000D4282029806009D50C210898039600B5
:1002E000DA7400DC281F2980600A3D0C2108000018
:1002F0002100240027002A002D00300033000101D6
:100300000000040107010A01000022002500280066
:100310002B002E003100340002010000050108010D
:100320000B01050505050705080808080202020279
:100330000A0A080804040404010101010101010181
:100340000303030303030303040707070C0C0C0C4C
:100350000C0C0C0C02020202060606060606060635
:100360000B0B0B0B0B0B0B0B0102102020080810C2
:100370002040102040800201020108040201010215
:1003800004081020408080402010080402018004EE
:100390000201804020100804020108040201010249
:1003A0000408102040800102040810204080000052
:1003B0000A0B02090C0D0E080703040100000000DF
:1003C000000000000000000000000000000000002D
:1003D00000000000000000000000121110000000EA
:1003E000000000000000000000000000000000000D
:1003F000000000007C3C3E5E2B3D3F2F5B5D3B2CB4
:100400002A225C00E92011241FBECFEFD1E2DEBF1B
:10041000CDBF00E00CBF14E0A0E0B2E0E2EEF8E4F3
:1004200000E00BBF02C007900D92AA35B107D9F7C3
:100430002AE0AAE5B4E001C01D92A232B207E1F7BA
:1004400012E0C3E0D2E000E006C021970109802F4E
:10045000FE010E945923C230D10780E00807A9F7A6
:100460000E943D1D0C946F24CBCD8CB5962F9370BC
:100470008C7F892B8CBD9DB562FB882780F9692F05
:100480006E7F682B6DBD08958CB5837F682B6CBD26
:1004900008958CB5611102C0806201C08F7D8CBD52
:1004A00008959FB7F8948091CA04882319F0815069
:1004B0008093CA048091CA04811105C08CB58F7BDA
:1004C0008CBD1092C9049FBF08958CB58F778CBDE9
:1004D00008958CB580688CBD08956EBD00000DB484
:1004E00007FEFDCF8EB5089585ED8093BC00809109
:1004F000BC0084FDFCCF1092A304089540917D04BC
:10050000262F30E0240F311D21323105DCF42091FB
:10051000A3042430C9F4FC0180E090E0861758F46D
:1005200030917D042191DC01A55ABB4FA30FB11D71
:100530002C930196F3CF80917D04680F60937D0426
:1005400080E0089581E0089582E0089508958FEF96
:100550009FEF08958FEF9FEF089580915A0490E0E8
:100560009195819591090895CF93DF931F921F92E2
:10057000CDB7DEB7CB01642F49835A83BFDF4981F2
:10058000842F5A81952F0F900F90DF91CF9108956E
:10059000CF93DF931F92CDB7DEB7698361E0CE01C1
:1005A0000196ACDF81E090E00F90DF91CF9108954C
:1005B000FC01868D978DA0A1B1A146895789608DD8
:1005C000718D841B950BA60BB70B811520E8920744
:1005D000A105B10520F08FEF9FE7A0E0B0E00895FE
:1005E000089580E090E00895CF92DF92EF92FF921D
:1005F0000F931F93CF93DF931F921F92CDB7DEB758
:100600008C01D62EF42EEFB6F89460E0DC0116963D
:100610008C9129835A8394D7F80182819381DC01DC
:10062000ED91FC916D2D6F770190F081E02D199582
:10063000CF2C5A81D52E2981F20EFC1479F0F801C5
:1006400082819381DC01ED91FC910190F081E02D9C
:1006500060E01995F60181936F01EFCF61E0D80159
:1006600016968C916DD7EFBE0F900F90DF91CF91C2
:100670001F910F91FF90EF90DF90CF900895CF934F
:10068000CFB7F8948091CA04811123C0E7E5F3E065
:100690008491EDE9F3E09491E82FF0E0EE0FFF1F75
:1006A000E251FD4FA591B491EC91E92319F461E079
:1006B00085E346D761E085E3C0D78CB580618CBD0A
:1006C0008CB580648CBD61E084E3B7D761E083E3DF
:1006D000B4D78091CA048F5F8093CA04CFBFCF91F3
:1006E00008950C960C94EB0FCF93DF931F92CDB728
:1006F000DEB7698341E050E0BE016F5F7F4F0C962B
:100700000E94EB0F21E030E0019711F020E030E093
:10071000C9010F90DF91CF9108950C960C9451145C
:100720008F929F92AF92BF92CF92DF92EF92FF9201
:10073000CF93DF93EC018E889F88A88CB98CCA88F0
:10074000DB88EC88FD880C960E94511497FD08C048
:100750008E8A9F8AA88EB98ECA8ADB8AEC8AFD8A25
:10076000DF91CF91FF90EF90DF90CF90BF90AF904F
:100770009F908F9008950C960C94B50ECF92DF92B7
:10078000EF92FF920F931F93CF93DF931F921F92CD
:10079000CDB7DEB78C01D62EF42EEFB6F89460E01C
:1007A000DC0116968C9129835A83CAD6F80182817E
:1007B0009381DC01ED91FC916D2D60680190F081D9
:1007C000E02D1995CF2C5A81D52E2981F20EFC14DB
:1007D00071F0F80182819381D6016D916D01DC0188
:1007E000ED91FC910190F081E02D1995F0CF61E041
:1007F000F8018681A5D6EFBE0F900F90DF91CF91C3
:100800001F910F91FF90EF90DF90CF900895EF929E
:10081000FF920F931F93CF93DF931F92CDB7DEB755
:100820007C01162F0FB7F89460E0DC0116968C91CE
:10083000498386D6F70182819381DC01ED91FC9199
:10084000612F60680190F081E02D1995F701828198
:100850009381DC01ED91FC910190F081E02D4981C3
:10086000642F199561E0F70186816AD60FBF0F905A
:10087000DF91CF911F910F91FF90EF9008950F930B
:100880001F93CF93DF93EC01162F0FB7F89460E01E
:100890008E8156D68A819B81DC01ED91FC91612F7E
:1008A0006F770190F081E02D19958A819B81DC01A1
:1008B000ED91FC910190F081E02D60E01995182FE9
:1008C00061E08E813DD60FBF812FDF91CF911F91C7
:1008D0000F910895FF920F931F93CF93DF931F9271
:1008E0001F92CDB7DEB78C0122E0AE014F5F5F4FA4
:1008F00063E07ADE898187FF1FC043E068E0C801BA
:1009000086DF40E068E0C80182DFD80114968C9150
:100910001497823051F414961C92F801EF58FF4F4F
:100920001082C8010E94B41807C0F8018481813088
:1009300019F4C8010E94D718898185FF0CC0F801FD
:10094000EF58FF4F9081D8011B968C91981718F49F
:10095000C8010E947818898184FF18C0F801838536
:1009600090E0C7968536910588F4438550E0445F52
:100970005F4F400F511F27E36FE7C80135DED801F5
:100980001B968C911B97895C1B968C93898183FFA6
:1009900008C0D801ED91FC910190F081E02DC801D3
:1009A00019958A8183FF08C0D801ED91FC910280DE
:1009B000F381E02DC8011995298122FF0AC0F801B1
:1009C000EA58FF4F80819181019691838083F801DD
:1009D000148221FF2CC06BE4C80151DFF82EF4E62D
:1009E000F81708F44BC0D8011B968C91F81608F440
:1009F00045C0F801838543852F2D281B50E0445FB7
:100A00005F4F400F511F6FE7C801EEDDF801EC5852
:100A1000FF4F80819181019691838083D8011B963D
:100A2000FC921B9714961C9281E0349780838981F5
:100A300080FF16C0F801EE58FF4F8081918101962A
:100A400091838083C8010E94D718C8010E94A6180C
:100A5000F80114828481813019F0C8010E9499182C
:100A60008A8186FF19C066E2C80109DFF801E858EB
:100A7000FF4F8083C8010E94A6180BC0F801EE58F2
:100A8000FF4F80819181019691838083D8011496D4
:100A90001C92C8010E94D7180F900F90DF91CF9140
:100AA0001F910F91FF9008958091CF049091D004F1
:100AB000009709F00FCF08958091CD049091CE0456
:100AC000009709F007CF08958091CB049091CC0452
:100AD000009709F0FFCE08951F920F920FB60F9264
:100AE00011240BB60F922F933F934F935F936F9305
:100AF0007F938F939F93AF93BF93EF93FF938091D7
:100B0000B900887F803609F49CC068F5883209F402
:100B10005BC090F4803109F454C038F4882309F4A0
:100B2000F6C0883009F44DC0F5C0883109F44CC0D6
:100B3000803209F45DC0EEC0803409F468C048F426
:100B4000803309F455C0883309F0E4C08093A204CF
:100B5000D8C0803509F44FC0883509F45DC08834A9
:100B600009F0D8C0D6C0883909F4C7C0A8F48837BE
:100B700009F467C038F4883609F463C0803709F493
:100B800060C0C8C0883809F4B8C0803909F45FC0B3
:100B9000803809F0BFC05BC0803B09F486C038F4E0
:100BA000803A09F466C0883A09F47FC0B3C0803C3B
:100BB00009F4A7C0883C09F4A4C0883B09F48AC0A2
:100BC000A9C08091C80410C09091C7048091C60448
:100BD000981770F5E091C70481E08E0F8093C704E9
:100BE000F0E0EA55FB4F80818093BB0085EC86C026
:100BF0008093A2048EC0E091C70481E08E0F8093A1
:100C0000C7048091BB00F0E0EA55FB4F80839091D0
:100C1000C7048091C6046EC0E091C70481E08E0FC6
:100C20008093C7048091BB00F0E0EA55FB4F8083BE
:100C30008091A50481116DC081E08093A40484EAB1
:100C400061C083E08093A3041092A104CFCF809170
:100C5000A104803208F051C0E091A10481E08E0F20
:100C60008093A1048091BB00F0E0EF57FB4F80839D
:100C7000BDCF85EC8093BC001092A3048091A104A9
:100C8000803230F4E091A104F0E0EF57FB4F108286
:100C90006091A10470E0E0917F04F091800481E80C
:100CA00094E019951092A10435C084E08093A304C8
:100CB00010927E0410927D04E0917B04F0917C04FC
:100CC000199580917D04811105C081E080937D0498
:100CD00010925B04E0917E0481E08E0F80937E048D
:100CE000F0E0E55AFB4F80818093BB0090917E0439
:100CF00080917D04981708F479CF85E88093BC0033
:100D000009C085EC8093BC001092A30403C010922C
:100D1000A204EADBFF91EF91BF91AF919F918F9178
:100D20007F916F915F914F913F912F910F900BBEEB
:100D30000F900FBE0F901F9018952F923F924F92D9
:100D40005F926F927F928F929F92AF92BF92CF925B
:100D5000DF92EF92FF920F931F93CF93DF93CDB764
:100D6000DEB7CE54D2400FB6F894DEBF0FBECDBF73
:100D700060E085E3E5D361E089E0E2D38FEFC55B16
:100D8000DD4F8883CB54D240BE01655B7D4FCE01E1
:100D900093950E94DE1B882309F42BC2BE01739534
:100DA000CE018C5B9D4F0E94801C65EB72E089EE4A
:100DB00096E00E94C91CBE016C5B7D4F89EE96E0F7
:100DC0000E941F1D6EE072E0CE01825C9D4F0E946A
:100DD000801CBE01625C7D4FCE018C5B9D4F0E94EA
:100DE0004F1C81113BC061E085E3AAD360E089E03C
:100DF000A7D31D861F861C821B8288EE93E0A0E08D
:100E0000B0E08D839E83AF83B88781E892E09A83B8
:100E1000898323E647EC52E065EA77E0CE010D9640
:100E20000E948E178F85882371F0BE016C5B7D4F09
:100E3000CE0101960E941F1DCE010D960E946B12DD
:100E400080ED92E002C08DEF92E00E94811960E097
:100E500085E376D361E089E073D31AC18AE193E038
:100E60000E948119C12CD12C7601D39422242A947A
:100E7000332433942C0E3D1E2CE0220E311C6CE4E6
:100E800073E089EE96E00E94C91C64E673E089EE87
:100E900096E00E94C91C6091D7087091D80880E044
:100EA00090E04AE00E94DE1C6DE673E089EE96E079
:100EB0000E94C91C4AE06EE070E080E090E00E9471
:100EC000DE1C8091D6088F5FC45BDD4F8883CC54D5
:100ED000D2408093D60820E0A1E0A20FC35BDD4F93
:100EE000A883CD54D2408091D908821708F4E4C079
:100EF0000091D7081091D8080E94E722A701960117
:100F00000E94FC229B01AC01D8010E941823A7017A
:100F100096010E94FC22020F131FC45BDD4F488123
:100F2000CC54D2406CE38FEB97E071DC40E06DE392
:100F30008FEB97E06CDC42E06AE38FEB97E067DCD5
:100F40006EE080E092E00E94521BEBD32B013C014B
:100F50004801A12CB12CE5D3DC01CB018419950902
:100F6000A609B70988159905AA05BB0520F4809143
:100F7000C307823081F3C35BDD4F8881CD54D240FB
:100F8000823048F08091D4089091D50801969093D2
:100F9000D5088093D408C5D32B013C01C2D3C35BD1
:100FA000DD4F2881CD54D240DC01CB018419950955
:100FB000A609B70988159905AA05BB0508F08CCFC5
:100FC00080912F08811108C08091C307813021F0E2
:100FD0008FEB97E00E94991880912F088823F1F2F7
:100FE0008FEB97E00E94D71868E48FEB97E047DC1F
:100FF000082F67E48FEB97E042DC282F69E48FEB42
:1010000097E0C25BDD4F2883CE54D24038DC182FE6
:101010006AE48FEB97E033DCC25BDD4F2881CE546E
:10102000D240023069F49091D308291309C087FF98
:1010300007C0C45BDD4F9881CC54D2401917C9F169
:1010400087FDACCFE02FF0E0E652F74F8081181318
:10105000A5CF602F812F0E948B1BA0CFBE01665BA6
:101060007D4FCE0101960E94DE1B811133C059D302
:10107000DC01CB0184199509A609B7098C3291408E
:10108000A105B10558F300E010E0012B09F4F7CEFB
:10109000C25CDD4F88819981CE53D2400E940622E6
:1010A000CC5BDD4F88819981C454D2400E940622D6
:1010B000A0C08FE793E002C083EA93E00E94811909
:1010C0008FEFC65BDD4F8883CA54D2402AD32B01F1
:1010D0003C01CDCFBE016F5F7F4FCE01885C9D4F3D
:1010E0000E94801C65EB72E089EE96E00E94C91CAC
:1010F000BE01685C7D4F89EE96E00E941F1D6EE088
:1011000072E0CE018E5C9D4F0E94801CBE016E5C21
:101110007D4FCE01885C9D4F0E944F1C811166C09F
:1011200061E085E30DD260E089E00AD2C55FDD4F62
:101130001882CB50D240C35FDD4F1882CD50D240D1
:10114000CF5FDD4F19821882C150D24088EE93E004
:10115000A0E0B0E0CD5FDD4F88839983AA83BB8395
:10116000C350D240A1E8B2E0C150DE4FB983A8839A
:10117000CF5FD14023E647EC52E065EA77E0C1015A
:101180000E948E1780ED92E00E948119C35FDD4FAF
:101190008881CD50D240882361F0BE01685C7D4FCC
:1011A000CE0181509E4F0E941F1DC1010E946B12F3
:1011B00004C08DEF92E00E94811960E085E3C0D108
:1011C00061E089E0BDD101E010E0CE5CDD4F8881B7
:1011D0009981C253D2400E940622C85CDD4F8881AB
:1011E0009981C853D2400E9406224FCF00E010E000
:1011F000ECCFC25BDD4F0FB6F894DEBF0FBECDBFA4
:10120000DF91CF911F910F91FF90EF90DF90CF90E2
:10121000BF90AF909F908F907F906F905F904F9016
:101220003F902F90089589EE96E060D021E0892BC1
:1012300009F420E0822F08951F920F920FB60F92AB
:1012400011240BB60F922F933F934F935F936F939D
:101250007F938F939F93AF93BF93EF93FF9389EE09
:1012600096E0E6D0FF91EF91BF91AF919F918F9162
:101270007F916F915F914F913F912F910F900BBE96
:101280000F900FBE0F901F901895FC01538D448D49
:10129000252F30E0842F90E0821B930B541710F021
:1012A000CF96089501970895FC01918D828D98172E
:1012B00061F0828DDF01A80FB11D5D968C91928D3A
:1012C0009F5F9F73928F90E008958FEF9FEF089537
:1012D000FC01918D828D981731F0828DE80FF11D00
:1012E000858D90E008958FEF9FEF0895FC01918D1B
:1012F000228D892F90E0805C9F4F821B91098F7314
:101300009927089580E090E0892B19F08CDF8111F6
:1013100025C080E090E0892B41F080E090E0892BAF
:1013200021F00E94000081111CC080E090E0892B18
:1013300041F080E090E0892B21F00E9400008111B3
:1013400013C080E090E0892BA1F080E090E0892B31
:1013500081F00E94000081110AC008950E940000DF
:10136000D8CF0E940000E1CF0E940000EACF0C9489
:10137000000008953FB7F8948091D8069091D9065F
:10138000A091DA06B091DB0626B5A89B05C02F3FD9
:1013900019F00196A11DB11D3FBFBA2FA92F982F9B
:1013A0008827820F911DA11DB11DBC01CD0142E016
:1013B000660F771F881F991F4A95D1F708950895E2
:1013C0000E9445241F920F920FB60F9211240BB664
:1013D0000F922F938F939F93EF93FF93E091F906D2
:1013E000F091FA068081E091FF06F091000782FDFE
:1013F00012C09081809102078F5F8F732091030745
:10140000821751F0E0910207F0E0E751F94F958F14
:101410008093020701C08081FF91EF919F918F918E
:101420002F910F900BBE0F900FBE0F901F9018952D
:10143000FC01848DDF01A80FB11DA35ABF4F2C9171
:10144000848D90E001968F739927848FA689B78940
:101450002C93A089B1898C9180648C93938D848D19
:10146000981306C00288F389E02D80818F7D8083E8
:101470000895EF92FF920F931F93CF93DF93EC01A8
:1014800081E0888F9B8D8C8D981305C0E889F98940
:10149000808185FD23C0F62E0B8D10E00F5F1F4F5E
:1014A0000F731127E02E8C8DE8120BC00FB607FCCE
:1014B000FACFE889F989808185FFF5CFCE01B8DFC1
:1014C000F2CF8B8DFE01E80FF11DE35AFF4FF08242
:1014D0000B8FEA89FB898081806207C0EE89FF89D2
:1014E0006083E889F98980818064808381E090E06D
:1014F000DF91CF911F910F91FF90EF900895CF93BF
:10150000DF93EC01888D8823C1F0EA89FB89808113
:1015100085FD05C0A889B9898C9186FD0EC00FB6DE
:1015200007FCF5CF808185FFF2CFA889B9898C911E
:1015300085FFEDCFCE017CDFE8CFDF91CF9108951D
:10154000362F90E0FC01E255FC4F4491FC01E85934
:10155000FC4F2491FC01EE5DFC4F9491992309F41A
:101560006BC0442309F455C050E0FA013197E231D1
:10157000F10508F04EC08827EE58FF4F8F4F0C94AE
:101580005923809180008F7707C0809180008F7DE4
:1015900003C080918000877F809380003AC084B52B
:1015A0008F7702C084B58F7D84BD33C08091B00039
:1015B0008F7703C08091B0008F7D8093B00029C0E9
:1015C000809190008F7707C0809190008F7D03C03D
:1015D00080919000877F809390001BC08091A00035
:1015E0008F7707C08091A0008F7D03C08091A000FD
:1015F000877F8093A0000DC0809120018F7707C066
:10160000809120018F7D03C080912001877F80938E
:101610002001E92FF0E0EE0FFF1FE85FFC4FA591DE
:10162000B4918FB7F894EC91311103C020952E231B
:1016300001C02E2B2C938FBF0895CF93DF9390E0A2
:10164000FC01E859FC4F2491FC01EE5DFC4F8491B4
:10165000882361F190E0880F991FFC01E251FD4F52
:10166000C591D491FC01E85FFC4FA591B491611143
:1016700009C09FB7F8948881209582238883EC91D4
:101680002E230BC0623061F49FB7F8943881822F0B
:10169000809583238883EC912E2B2C939FBF06C0CB
:1016A0008FB7F894E8812E2B28838FBFDF91CF91DD
:1016B00008958F929F92AF92BF92CF92DF92EF9256
:1016C000FF926B017C0156DE4B015C01C114D10419
:1016D000E104F104E9F04EDEDC01CB01881999093F
:1016E000AA09BB09883E9340A105B10578F321E022
:1016F000C21AD108E108F10888EE880E83E0981E2E
:10170000A11CB11CC114D104E104F10421F7DECF06
:10171000FF90EF90DF90CF90BF90AF909F908F9011
:1017200008952FB7F8946091D4067091D5068091F2
:10173000D6069091D7062FBF08951F920F920FB62D
:101740000F9211242F933F938F939F93AF93BF9347
:101750008091D4069091D506A091D606B091D70677
:101760003091D30623E0230F2D3720F40196A11DDD
:10177000B11D05C026E8230F0296A11DB11D2093BF
:10178000D3068093D4069093D506A093D606B09343
:10179000D7068091D8069091D906A091DA06B0912B
:1017A000DB060196A11DB11D8093D8069093D90642
:1017B000A093DA06B093DB06BF91AF919F918F9112
:1017C0003F912F910F900FBE0F901F9018951F9271
:1017D0000F920FB60F9211240BB60F922F933F93D7
:1017E0004F935F936F937F938F939F93AF93BF9329
:1017F000EF93FF93E0912B02F0912C021995FF914A
:10180000EF91BF91AF919F918F917F916F915F9178
:101810004F913F912F910F900BBE0F900FBE0F90E5
:101820001F9018951F920F920FB60F9211240BB6AE
:101830000F922F933F934F935F936F937F938F9369
:101840009F93AF93BF93EF93FF93E0912902F091A1
:101850002A021995FF91EF91BF91AF919F918F91BE
:101860007F916F915F914F913F912F910F900BBEA0
:101870000F900FBE0F901F9018951F920F920FB6EA
:101880000F9211240BB60F922F933F934F935F93B8
:101890006F937F938F939F93AF93BF93EF93FF9338
:1018A000E0911F02F09120021995FF91EF91BF91F5
:1018B000AF919F918F917F916F915F914F913F91E8
:1018C0002F910F900BBE0F900FBE0F901F90189589
:1018D0001F920F920FB60F9211240BB60F922F93F7
:1018E0003F934F935F936F937F938F939F93AF93A8
:1018F000BF93EF93FF93E0911D02F0911E021995A3
:10190000FF91EF91BF91AF919F918F917F916F91D7
:101910005F914F913F912F910F900BBE0F900FBE93
:101920000F901F9018951F920F920FB60F921124CF
:101930000BB60F922F933F934F935F936F937F93C9
:101940008F939F93AF93BF93EF93FF93E091270201
:10195000F09128021995FF91EF91BF91AF919F915E
:101960008F917F916F915F914F913F912F910F9048
:101970000BBE0F900FBE0F901F9018951F920F92E5
:101980000FB60F9211240BB60F922F933F934F93E4
:101990005F936F937F938F939F93AF93BF93EF93D7
:1019A000FF93E0912502F09126021995FF91EF91A6
:1019B000BF91AF919F918F917F916F915F914F9167
:1019C0003F912F910F900BBE0F900FBE0F901F9065
:1019D00018951F920F920FB60F9211240BB60F920B
:1019E0002F933F934F935F936F937F938F939F9327
:1019F000AF93BF93EF93FF93E0912302F091240202
:101A00001995FF91EF91BF91AF919F918F917F9128
:101A10006F915F914F913F912F910F900BBE0F905F
:101A20000FBE0F901F9018951F920F920FB60F9236
:101A300011240BB60F922F933F934F935F936F93A5
:101A40007F938F939F93AF93BF93EF93FF93E09117
:101A50002102F09122021995FF91EF91BF91AF9170
:101A60009F918F917F916F915F914F913F912F91B6
:101A70000F900BBE0F900FBE0F901F901895CF9335
:101A80008091E50680FF40C04091E1065091E2065A
:101A90006091E3067091E40623ED34E08091E60660
:101AA0009091E706A9D6C82F811102C0C0E02DC0D1
:101AB0008091E50681FD06C08091E5068E7F8093CA
:101AC000E50623C08091E0068230B0F34091DC0649
:101AD0005091DD066091DE067091DF068091E1068F
:101AE0009091E206A091E306B091E406480F591FD9
:101AF0006A1F7B1F23ED34E08091E6069091E70694
:101B00007BD68111D9CFD2CFC1E08C2FCF91089550
:101B1000CF92DF92EF92FF92CF936B017C01C42FA3
:101B20008091E1069091E206A091E306B091E4066F
:101B30008C159D05AE05BF05F9F0A1DF811103C02D
:101B400080E090E021C0C2FF0BC01092E506C09279
:101B5000E106D092E206E092E306F092E4060CC0C1
:101B600023ED34E0B701A6018091E6069091E706E7
:101B700070D68111EACFE4CFC3708091E506C82BFF
:101B8000C093E50683ED94E0CF91FF90EF90DF9056
:101B9000CF900895CF92DF92EF92FF920F931F9311
:101BA000CF93DF93FC01423051056105710510F4BC
:101BB00080E05DC086819781A085B1850196A11DD9
:101BC000B11D84179507A607B70790F38389803165
:101BD00049F4BB27A72F962F852FC784D088E1888B
:101BE000F2880FC0803221F787859089A189B28958
:101BF0006A017B01C7E0F694E794D794C794CA952D
:101C0000D1F78C0D9D1DAE1DBF1DE9016A017B0141
:101C10008F0142E0BC01CD017BDF009749F2F80162
:101C20002389B701A601203169F455276627772754
:101C3000440F551FFC01E40FF51F80819181A0E046
:101C4000B0E010C04F77552766277727440F551F00
:101C5000440F551FFC01E40FF51F80819181A28183
:101C6000B381BF7088839983AA83BB8381E0DF91AE
:101C7000CF911F910F91FF90EF90DF90CF9008953B
:101C80008F929F92AF92BF92CF92DF92EF92FF928C
:101C90000F931F93CF93DF93EC016A017B014801FF
:101CA0005901423051056105710510F480E050C0C2
:101CB0008E819F81A885B9850196A11DB11D8417CC
:101CC0009507A607B70790F38B89803149F4452F14
:101CD000562F672F77278F859889A989BA890DC0D4
:101CE000803221F78F859889A989BA89E7E07695AE
:101CF000679557954795EA95D1F78A019B01080F9B
:101D0000191F2A1F3B1FC901B80143E001DF0097DB
:101D100069F22B89203159F4DD24EE24FF24CC0C08
:101D2000DD1CFC01EC0DFD1D9182808210C0E89449
:101D3000C7F8DD24EE24FF24CC0CDD1CCC0CDD1C0C
:101D4000FC01EC0DFD1D80829182A282B38281E0B4
:101D5000DF91CF911F910F91FF90EF90DF90CF9087
:101D6000BF90AF909F908F900895CF93DF93EC0139
:101D70008A81882391F1898187FF2CC06E857F85B8
:101D80008889998941E0C4DE009739F1EB8140E20E
:101D9000E49F90011124FC01E20FF31F4081453EB6
:101DA000E1F04A81423040F44A895B896C897D893F
:101DB000448F558F668F778F4E895F89688D798DB7
:101DC000FC01E20FF31F538F428F758B648B898167
:101DD0008F778983DF91CF9152CE81E0888380E035
:101DE000DF91CF910895EF92FF920F931F93CF93BE
:101DF000DF9300D01F92CDB7DEB78C01FC0186893E
:101E00009789A08DB18D89839A83AB83BC83E12CA4
:101E1000F12C49815A816B817C819E012F5F3F4F5C
:101E2000D80114968D919C911597B4DE882399F171
:101E3000D8011496ED91FC9115978481E80EF11C60
:101E4000E114B0E1FB0630F549815A816B817C8158
:101E50008389803139F481E0483F5F4F6105710526
:101E600038F4D7CF81E0483F5F4F6F4F7F4088F213
:101E7000A70160E070E099E0440F551F661F771FCF
:101E80009A95D1F7D80152964D935D936D937C93BB
:101E9000559701C080E00F900F900F900F90DF9149
:101EA000CF911F910F91FF90EF9008958F929F9285
:101EB000AF92BF92CF92DF92EF92FF920F931F9358
:101EC000CF93DF93EC018A81811102C080E076C05C
:101ED0000A891B892C893D890417150726073707AE
:101EE000A8F36A017B01823029F4CA86DB86EC867E
:101EF000FD860DC0C114D104E104F10451F41E8229
:101F00001F82188619861A861B861C861D8681E00C
:101F100055C08A849B84AC84BD84EC81FD8122857C
:101F200030E0275F3F4FB501A401415051096109DD
:101F30007109022E04C076956795579547950A94C6
:101F4000D2F7D701C6010197A109B10904C0B6951E
:101F5000A795979587952A95D2F784179507A60791
:101F6000B70720F089288A288B2849F44E895F8991
:101F7000688D798D4E835F836887798704C0841B61
:101F8000950BA60BB70B4C015D018E010A5F1F4F2D
:101F900081149104A104B10409F4A7CF4E815F819B
:101FA0006885798598018C819D81F4DD91E0891A9D
:101FB0009108A108B1088111EBCF88CFDF91CF91B3
:101FC0001F910F91FF90EF90DF90CF90BF90AF9057
:101FD0009F908F9008952F923F924F925F926F92B1
:101FE0007F928F929F92AF92BF92CF92DF92EF92A9
:101FF000FF920F931F93CF93DF93CDB7DEB729974F
:102000000FB6F894DEBF0FBECDBF8C014B011A0195
:10201000DC0112968C9112978130C1F411968C914B
:1020200081FF14C082FF18C0F80142895389648976
:10203000758982859385A485B58584179507A6073C
:10204000B70751F0C80132DF811106C081E0F80105
:1020500080838FEF9FEFCFC1A10160E070E0F801B6
:1020600082859385A485B58580959095A095B0953A
:1020700084179507A607B70748F3510184C0D80114
:1020800014968D919C9115976A017B01E9E0F69475
:10209000E794D794C794EA95D1F7FC012581F22EF5
:1020A000FC206A01F1E0DF22FF2009F478C0D801AA
:1020B0001496ED91FC91159716964D905D906D904C
:1020C0007C901997B2E04B1A51086108710802849C
:1020D00004C0440C551C661C771C0A94D2F78385F7
:1020E0009485A585B685480E591E6A1E7B1E4F0C29
:1020F000511C611C711CC114D10409F094C0A114BD
:1021000022E0B20608F095C0D8011A964D915D9173
:102110006D917C911D9752968D919D910D90BC91E2
:10212000A02D481759076A077B0708F47CC045E0D3
:10213000C301B201EDDC009709F488CF612C72E095
:10214000772E6C187D0875016A147B0408F47301FE
:10215000A701B4018C0D9D1D0E945624E614F704BE
:1021600009F463C0F80182859385A485B5858E0D39
:102170009F1DA11DB11D82879387A487B5878E0CF3
:102180009F1CAE18BF08D8011A964D915D916D91B4
:102190007C911D97A114B10409F071CF0DC1C11438
:1021A000D10409F084CF16964D915D916D917C918B
:1021B0001997411551056105710509F19E012F5FC0
:1021C0003F4FE8DC882309F441CF89819A81AB81B4
:1021D000BC81F80124813581F9012389203139F44A
:1021E000883FFFEF9F07A105B10590F416C0883F17
:1021F0002FEF9207A2072FE0B20778F009C0F8018D
:1022000086899789A08DB18D0097A105B10529F424
:10221000C80169D181114BCF19CFF801868397830B
:10222000A087B18744CF41E083CF29DC81119ACFC9
:102230000DCFC090E606D090E706A114B4E0BB062F
:1022400030F58091E1069091E206A091E306B0910D
:10225000E40684159505A605B70569F42FEF3FEF51
:10226000A9012093E1063093E2064093E3065093E0
:10227000E4061092E5069401B301A201C601BCD2A6
:10228000882309F4E3CEE12C82E0F82E6BCF848121
:102290008F193B2D36953D83831708F48D8320E0FD
:1022A00030E0A90167E3C6016ED28D81282F30E0AE
:1022B00040E050E067E1C60166D2882311F089E072
:1022C00075C0F6018481A3019201833039F069E081
:1022D000220F331F441F551F6A95D1F769E1C601CC
:1022E00052D2882311F087E061C0C60114D2740174
:1022F0004E825F8268867986C090E606D090E706B7
:102300008E818419BD818B1708F03CC08091E10655
:102310009091E206A091E306B091E4062E813F8100
:1023200048855985281739074A075B0769F48FEFF5
:102330009FEFDC018093E1069093E206A093E30611
:10234000B093E4061092E506C601DAD16ED7882371
:10235000B9F0A7016CEFC601E5D1882389F0C60169
:10236000DAD19EEFF91A2E813F81488559852F5F7A
:102370003F4F4F4F5F4F2E833F8348875987BCCFD6
:1023800085E114C0C601BCD150D7882371F08DEF10
:10239000ABD14BD7882349F0ED81EE2EF12CFE2CEA
:1023A000EE24FF0CC601B7D1DDCE82E1D601119635
:1023B0008C93C601B0D14ACE52968D919D910D90CD
:1023C000BC91A02D84179507A607B70740F4F80124
:1023D000428B538B648B758B818180688183D8019C
:1023E00011968C9183FD02C0C10105C0C801BDDCFE
:1023F0008111FACF2BCE29960FB6F894DEBF0FBE0F
:10240000CDBFDF91CF911F910F91FF90EF90DF90A3
:10241000CF90BF90AF909F908F907F906F905F9084
:102420004F903F902F9008958091C10085FDFCCF83
:102430008091C00085FFF8CF6093C60081E090E0F6
:10244000089508950895CF93DF93FC0122812223FC
:1024500011F080E03DC0FB01EC017D836C8383893A
:10246000803101F18032A9F783E08A8386899789D8
:10247000A08DB18D8E8B9F8BA88FB98FCE01B3DCD1
:10248000882339F381E089831E821F82188619868A
:102490001A861B861C861D861E861F86188A198A28
:1024A0001B8216C082E08A831E8A1F8A188E198EAC
:1024B00084899589A0E0B0E025E0880F991FAA1FC4
:1024C000BB1F2A95D1F78A8B9B8BAC8BBD8BDACF48
:1024D000DF91CF910895CF93DF93EC0146DC1A8210
:1024E000DF91CF9108954F925F926F927F928F927A
:1024F0009F92AF92BF92CF92DF92EF92FF920F9393
:102500001F93CF93DF93CDB7DEB72C970FB6F89418
:10251000DEBF0FBECDBF4C01DC011496AD90BC9068
:102520001597F50186819781A085B1859C01AD0144
:102530002F5F3F4F4F4F5F4F29873A874B875C870D
:10254000D4011696CD90DD90ED90FC901997C114B2
:10255000D104E104F10439F0BFEFCB1ADB0AEB0A36
:10256000FB0A10E006C0F501C080D180E280F38054
:1025700011E0260137011D821E821F821886F50197
:1025800086819781A085B1852D813E814F815885B7
:10259000281739074A075B0708F073C089859A85B1
:1025A000AB85BC858C159D05AE05BF0550F482E05A
:1025B000C82ED12CE12CF12C92E0492E512C612C0B
:1025C000712C9E012F5F3F4FB701A601C501E2DAD2
:1025D000882309F456C089819A81AB81BC81892BFB
:1025E0008A2B8B2B71F04C145D046E047F0409F070
:1025F00010E0260137019FEF491A590A690A790A42
:1026000005C0C414D504E604F70491F02D813E8181
:102610004F8158852F5F3F4F4F4F5F4F2D833E8334
:102620004F8358873FEFC31AD30AE30AF30AA7CFB1
:10263000112351F0D301C2010196A11DB11DF50175
:1026400080839183A283B3830FEF1FEF2FEF3FE0CF
:10265000B301A201C50114DBF82E882391F0D40147
:1026600016964D915D916D917C911997411551058B
:102670006105710541F093018201C50101DB811102
:1026800002C0F12C19C0D40116964D925D926D9244
:102690007C92199756968D919D910D90BC91A02D8D
:1026A000892B8A2B8B2B41F4F401468A578A608E42
:1026B000718E8181806881838F2D2C960FB6F8945E
:1026C000DEBF0FBECDBFDF91CF911F910F91FF9065
:1026D000EF90DF90CF90BF90AF909F908F907F90C2
:1026E0006F905F904F9008958EBD0DB407FEFDCFA3
:1026F00008958FEF8EBD0DB407FEFDCF8EB5089502
:10270000CF93DF93EC018A81A5D560E08881DF91CA
:10271000CF910C94A00A61E0FC0180810E94A00A84
:102720008FEFE2CF0F931F93CF93DF938C01862F10
:10273000EA01DADF88818EBD8981FE013296DE5F93
:102740000DB407FEFDCF8EBDEC17FD0711F0819192
:10275000F7CF0DB407FEFDCF8FEFC6DF8FEFC4DFDD
:10276000C8DFF8018383982F9F71953031F083E1A2
:102770008183C801D0DF80E001C081E0DF91CF918B
:102780001F910F910895EF92FF921F93CF93DF93C4
:1027900000D01F92CDB7DEB77C01162F29833A8374
:1027A0004B835C83ADDF41D5812F80649DDF8C81BD
:1027B0009BDF8B8199DF8A8197DF898195DF1123E8
:1027C00011F087E801C085E98FDF1C3009F491DF43
:1027D00010E08FDFF701838387FF04C01F3F11F0F4
:1027E0001F5FF7CF0F900F900F900F90DF91CF9159
:1027F0001F91FF90EF9008950F931F93CF93DF9356
:10280000EC0189018C81833039F089E0440F551F38
:10281000661F771F8A95D1F79A01AB0168E1CE0157
:10282000B2DF882319F086E089830AC0A8016EEF21
:10283000CE0178DF182F882319F0CE016CDF03C09A
:10284000CE0169DF10E0812FDF91CF911F910F91B1
:1028500008950F931F93CF93DF93EC0189018C812F
:10286000833039F089E0440F551F661F771F8A9522
:10287000D1F79A01AB0161E1CE0185DF811107C07B
:10288000B801CE01DF91CF911F910F91F8C484E080
:102890008983CE0140DF80E0DF91CF911F910F91BE
:1028A00008952F923F924F925F926F927F928F92F4
:1028B0009F92AF92BF92CF92DF92EF92FF920F93CF
:1028C0001F93CF93DF9300D0CDB7DEB7FC01828199
:1028D000882309F455C1818180FF52C1C288D38801
:1028E000E488F58882859385A485B585B701A6011E
:1028F000481B590B6A0B7B0B423051056105710572
:1029000008F095C0C81AD90A8F017601CE01019648
:102910005C01DF011696BB83AA83E114F10409F47C
:102920007FC0F80142855385648575854A01F1E0D1
:102930009F22D80114968D919C9115972A013B01F5
:10294000E9E07694679457944794EA95D1F7FC01AF
:102950002580242012962C91223049F4868997896B
:10296000A08DB18D480E591E6A1E7B1E44C0811475
:102970009104E9F421101BC0452B462B472B51F441
:10298000F80186899789A08DB18D86839783A0876A
:10299000B1870DC0D80116964D915D916D917C91D6
:1029A00019972A813B81F6D8882309F4E9C0D80118
:1029B0001496ED91FC91159716964D905D906D9043
:1029C0007C901997B2E04B1A510861087108028493
:1029D00004C0440C551C661C771C0A94D2F78385EE
:1029E0009485A585B685480E591E6A1E7B1E420C2D
:1029F000511C611C711C81149104E9F4E114E2E0A2
:102A0000FE06C8F08091E1069091E206A091E306EF
:102A1000B091E406481659066A067B06E1F50BC03C
:102A2000CA94CD2809F0ACC0898190E0ABC0CC2419
:102A3000C394D12C69CF40E0C301B20169D800979B
:102A400009F49EC020E032E02819390937012E151B
:102A50003F0508F43901BC01680D791DA301C501CA
:102A60000E94562406C0712C762C6624770CC40173
:102A700052DEA60CB71CF80182859385A485B58526
:102A8000860D971DA11DB11D82879387A487B587E9
:102A9000E618F70842CFE11424E0F20678F4950135
:102AA000B301A2018091E6069091E706D2DE882369
:102AB00009F466C0612C92E0792EDBCF3F2C36946E
:102AC000F8012281223041F024813581F9012481ED
:102AD0002219231508F4322E481659066A067B0679
:102AE00088F48090E6069090E706D40114968C91C5
:102AF000833091F039E0440C551C661C771C3A95E4
:102B0000D1F70AC0830D911DA11DB11D48165906AC
:102B10006A067B0688F1E5CFA301920162E1C40158
:102B200032DE882321F085E0F401818322C0C401D4
:102B3000F2DD2501612C8090E6069090E706631493
:102B400059F0C401DDDDB201C40199D3FEEF5F1A73
:102B50008823B1F06394EFCF20E030E0A9016CE06E
:102B6000C40111DE882309F47ECF83E0D4011196DD
:102B70008C93C401D0DD04C00E943F0D8111B1CF00
:102B80008FEF9FEF0F900F900F90DF91CF911F91DC
:102B90000F91FF90EF90DF90CF90BF90AF909F90FC
:102BA0008F907F906F905F904F903F902F900895FF
:102BB0004F925F926F927F928F929F92BF92CF922D
:102BC000DF92EF92FF920F931F93CF93DF93EC016D
:102BD0007B016A01B22EDB0114968D919C911597B1
:102BE0009D838C8340E050E0BA01C7015FD900E0CB
:102BF000D7011A964D915D916D917C911D975296DA
:102C00008D919D910D90BC91A02D481759076A0791
:102C10007B0708F0A5C0C70144DE97FD50C1F7014E
:102C200082859385A485B58581509E4FAF4FBF4F58
:102C300082879387A487B5874090E1065090E2068B
:102C40006090E3067090E40663ED862E64E0962EB5
:102C500010E0D4018C91882319F0853E79F44BC1A2
:102C6000011105C04E865F86688A798A1B83F4014C
:102C70008081882309F473C001E008C04BE050E074
:102C8000B401C6010E944924892B39F01F5FF0E28C
:102C90008F0E911C1031E9F6ABCFB7FC10C120E2CA
:102CA000129FF00111249F012D523B4FD9011B9619
:102CB0008C91817121F08B2D827109F04EC0809131
:102CC000E1069091E206A091E306B091E4068E87BA
:102CD0009F87A88BB98B1B83ED52FB4F8489958905
:102CE000A0E0B0E0DC01992788278E8B9F8BA88F0E
:102CF000B98F428D538D60E070E0842B952BA62B0D
:102D0000B72B8E8B9F8BA88FB98FD9011B968C9177
:102D1000887151F4848D958DA68DB78D8A8B9B8B90
:102D2000AC8BBD8B81E007C08031B9F4CE015BD89C
:102D3000882399F084E08A838B2D8F7089831E828B
:102D40001F82188619861A861B861C861D86B4FE6D
:102D5000B8C0CE01E7D28111B4C01A82B0C001E080
:102D60008B2D8274823409F0AAC0002399F01B8154
:102D70006E857F858889998941E00E94880D00973A
:102D800009F49DC02B81BC01B0E22B9F600D711D29
:102D9000112476C0F7018281823009F490C08289C3
:102DA0009389A489B589803E9F4FAF41B10508F052
:102DB00086C0C70198DB882309F481C0D701149627
:102DC0002D913C91159716968D919D910D90BC91EA
:102DD000A02D0297A109B109F901028404C0880F4E
:102DE000991FAA1FBB1F0A94D2F743845484658499
:102DF0007684480E591E6A1E7B1E45E0C301B2014F
:102E00000E94880D8C01892B09F459C080E092E062
:102E1000D801FC011D923197E9F799249394D701C9
:102E20001496ED91FC9115978481981680F4980181
:102E3000B301A201490D511D611D711D8091E6066E
:102E40009091E706D9DC8823D1F19394E8CF90E004
:102E5000A0E0B0E059E0880F991FAA1FBB1F5A9548
:102E6000D1F7F7014289538964897589840F951FC9
:102E7000A61FB71F828B938BA48BB58BB80110E074
:102E800080E2DB011D928A95E9F78BE0F601DB0118
:102E900001900D928A95E1F781E298E2FB01918B16
:102EA000808B20E038E037872687938B828B918F49
:102EB000808F378B268B0E943F0D8111F0CE80E0F2
:102EC0001DC0B5FE16C04A895B896C897D89CE011B
:102ED000DF91CF911F910F91FF90EF90DF90CF90F6
:102EE000BF909F908F907F906F905F904F900C94C9
:102EF000560F81E003C00111BFCEB4CEDF91CF9158
:102F00001F910F91FF90EF90DF90CF90BF909F9017
:102F10008F907F906F905F904F9008952F923F9287
:102F20004F925F926F927F928F929F92AF92BF92D9
:102F3000CF92DF92EF92FF920F931F93CF93DF9385
:102F4000CDB7DEB7C354D1090FB6F894DEBF0FBEBC
:102F5000CDBF3C015B018A01322E1B8E1D8E198272
:102F60001B82672B11F480E0A9C0FC0182818111D2
:102F7000FACFFA0180818F3249F175010EC082814A
:102F800082508230D0F364817581CE0101965BDA84
:102F9000882349F3CE0101967C016E019BE1C90EA5
:102FA000D11C26014E01E5E38E0E911CFBE0F80DCD
:102FB0002396FFAF2397CE01019622969FAF8EAF47
:102FC00022972496CFAE24972D2C41C08F0181915A
:102FD0008F32E1F3F5018111D2CF64817581C30194
:102FE00032DA6CC080E2819323969FAD23979E13C3
:102FF000F9CFD80190E027E04A2F3B2F8D91811126
:1030000028C08DA9803209F4AECF842F932F8C0174
:10301000FC01208101962F32D1F3222309F449C00B
:1030200021E0A401B701C601C3DD882309F49BCFC9
:10303000EA14FB0411F0C7014EDAC414D50491F16F
:1030400024969FAD2497822D7601C92ED82EF401A7
:10305000C9CF8F32B1F28E3219F0E4EFF3E00AC03B
:103060002A3009F480CF98E02AE0C6CF319638178D
:1030700009F479CF34913111F9CF291708F473CFBE
:103080003FED380F3E3508F06ECF31E0390FF401D7
:10309000E90FF11D9FE9980F9A3108F4805280835F
:1030A000932FAACF21969FAD219722968FAD22977D
:1030B000CBCF232DA401B701C3017ADDCD5BDF4F58
:1030C0000FB6F894DEBF0FBECDBFDF91CF911F9139
:1030D0000F91FF90EF90DF90CF90BF90AF909F90B7
:1030E0008F907F906F905F904F903F902F900895BA
:1030F0000F931F93CF93FC01C3858C010F581F4F73
:10310000F8012081C21BCC3308F0CBE3F8014081E9
:1031100050E0445F5F4F480F591F2C2F6FE70E940C
:10312000BE03F8018081C80FC083CF911F910F911A
:103130000895CF93DF93EC014D81446067E00E94D6
:10314000070481E08C83DF91CF910895CF93DF93C3
:10315000EC0142E068E00E94070440E068E0CE0134
:10316000DF91CF910C940704CF93DF93EC01FC0126
:10317000EF58FF4F90818B85981710F4CE01B8DF80
:103180004B856EE3CE010E9407048C81823061F092
:103190004D81486067E0CE010E94070482E08C8385
:1031A000CE01DF91CF91D2CFDF91CF9108952FB78C
:1031B000F894FC011386E059FF4F10822FBF089549
:1031C0000F931F93CF93DF938C01EB0148816CE148
:1031D0000E94070449816FE1C8010E940704AE0103
:1031E0004E5F5F4F26E060E2C8010E94BE03AE0161
:1031F000485F5F4F23E06CE2C8010E94BE034B852D
:1032000068E5C8010E9407044C8569E6C8010E9470
:103210000704AE01435F5F4F25E06EE6C801DF9112
:10322000CF911F910F910C94BE03CF93DF930E9417
:10323000910BEB015EDA8F3F49F00E94910B6C1B02
:103240007D0B68357240B0F380E001C081E0DF9112
:10325000CF91089522E090E0281728F4963019F0D5
:10326000220F9F5FF9CF892F806A86958CBD90FDD4
:1032700003C081E0963009F480E08DBD0895EF929F
:10328000FF920F931F93CF93DF93EC017B010E947A
:10329000910B8B012EDA8B838F3F49F40E94910BA7
:1032A000601B710B6D327140A8F381E103C08E3F4A
:1032B00031F08FE08983CE012EDA80E01BC08FEFE2
:1032C0008EBDF701D701A150BE4F9FEF0DB407FE91
:1032D000FDCF8EB59EBD8193EA17FB07B9F70DB4FC
:1032E00007FEFDCF8EB58C931B8203DA02DACE0186
:1032F00012DA81E0DF91CF911F910F91FF90EF9053
:103300000895CF93DF93BC0189EE96E042D3EC01A0
:1033100067E574E089EE96E03CD38C0F9D1FDF914A
:10332000CF9108958F929F92AF92BF92CF92DF92EA
:10333000EF92FF920F931F93CF93DF9300D01F92D2
:10334000CDB7DEB7FC018281813011F080E070C022
:10335000818181FFFBCF82899389A489B589892BDB
:103360008A2B8B2B09F463C07F0140E050E0BA0147
:10337000CF010E94560F882349F3F701868897886A
:10338000A08CB18CC480D5809E012F5F3F4FB501CA
:10339000A401C6010E94CA0D8823C1F200E010E01A
:1033A0009801B501A401C6010E94400E882371F264
:1033B000F60180819181A281B38188169906AA06BF
:1033C000BB0620F480829182A282B38289809A8097
:1033D000AB80BC80F6018389803141F4F8EF8F1611
:1033E000FFEF9F06A104B10448F4CECF88EF881602
:1033F0008FEF9806A8068FE0B80630F2F701168A1C
:10340000178A108E118E128A138A148A158A818166
:1034100080688183C7010E94B50E882309F496CF86
:1034200040E050E0BA01C7010E94560F01C081E0A0
:103430000F900F900F900F90DF91CF911F910F91F0
:10344000FF90EF90DF90CF90BF90AF909F908F90C4
:1034500008958F929F92AF92BF92CF92DF92EF9298
:10346000FF92CF93DF93C82F86E897E09093E7060B
:103470008093E60610929E0782E090E0A0E0B0E024
:1034800080938B0790938C07A0938D07B0938E0742
:103490001092E5068FEF9FEFDC018093E106909399
:1034A000E206A093E306B093E406CC2321F1C530F5
:1034B00008F0D4C040E060E070E0CB010E94880DCD
:1034C000009709F4CBC020E1C29F800D911D11240B
:1034D0004097FC01E254FE4F20812F7709F0BEC0D7
:1034E0003896C080D180E280F380C114D104E10419
:1034F000F10421F4B3C0C12CD12C760140E0C70106
:10350000B6010E94880DFC01892B09F4A7C08385B0
:1035100094858115924009F0A1C0A089AA2309F4DD
:103520009DC0668577856115710509F497C0A093E4
:10353000E006258520938F078FEF820F80939007F9
:1035400080E091E0291751F0990F31E0380F3830C1
:1035500019F48093950782C0832FF4CF8093950749
:10356000268937892115310519F040E050E004C063
:1035700024A135A146A157A12093DC063093DD0696
:103580004093DE065093DF0646015701860E971ED4
:10359000A11CB11C80929A0790929B07A0929C0755
:1035A000B0929D07C189D289D093A007C0939F078D
:1035B000B0E00E941823860E971EA81EB91E8092A6
:1035C000A1079092A207A092A307B092A40785E05A
:1035D000CC0FDD1F8A95E1F7C150DE4FCD2FDD27DF
:1035E000C6958C0E9D1EA11CB11C809296079092D0
:1035F0009707A0929807B0929907238934892115DB
:10360000310521F0A90160E070E004C040A151A1A2
:1036100062A173A1D701C60188199909AA09BB093A
:10362000840F951FA61FB71F0090950704C0B6957D
:10363000A795979587950A94D2F7809391079093D1
:103640009207A0939307B0939407853F2FE09207CA
:10365000A105B10528F48CE080939E0780E017C097
:10366000853F9F4FA105B10510F480E10DC084A5F1
:1036700095A5A6A5B7A58093A1079093A207A093AF
:10368000A307B093A40780E280939E0781E0DF91B7
:10369000CF91FF90EF90DF90CF90BF90AF909F9031
:1036A0008F9008951F93CF93DF932091C30722300B
:1036B000E1F3DFB7F8942FB7F8941092CA0710928D
:1036C00030082FBF662309F12091CA07462F50E02A
:1036D000FA01E20FF11DE536F105B8F4C62FBC0181
:1036E0001FB7F8949091CA07892F90E08553984F9F
:1036F0000E9456246091CA076C0F6093CA071FBFCF
:103700008FEB97E031DD81E001C080E0DFBFDF912A
:10371000CF911F9108951F93CF93DF931F92CDB741
:10372000DEB7162F482F6CE38FEB97E00E9407045B
:1037300040E86DE38FEB97E00E94070481E2898304
:10374000412F6AE38FEB97E00E94070461E0CE010E
:103750000196A8DF8091C3078230E1F30F90DF91DB
:10376000CF911F910895CF92DF92EF92FF920F9326
:103770001F93CF93DF936C017A018B01C0E0D0E0FF
:10378000CE15DF0589F0D8016D918D01D601ED913F
:10379000FC910190F081E02DC6011995892B11F45F
:1037A0007E0102C02196ECCFC701DF91CF911F911E
:1037B0000F91FF90EF90DF90CF900895EF92FF92DE
:1037C0000F931F93CF93DF937C018B0180912F0880
:1037D000811107C08091C307813019F08FEB97E00A
:1037E000A8DC80912F08882309F450C080912F080D
:1037F000811107C08091C307813019F08FEB97E0EA
:1038000098DCC0912F08CC2309F440C0DFB7F894AE
:103810008091CA07F8019081891718F48091CA072E
:103820008083F801408150E06BEC77E0C7010E9493
:1038300056248FEB97E0BBDCDFBF68E48FEB97E0AB
:103840000E943F04182F67E48FEB97E00E943F042B
:10385000082F69E48FEB97E00E943F04D82F6AE4B9
:103860008FEB97E00E943F0487FD10C00F3F19F0D7
:10387000612F8D2F50DFE12FF0E0E652F74F80816E
:10388000D81721F010931D0AD08301C0C0E08C2FFF
:10389000DF91CF911F910F91FF90EF900895FC0160
:1038A00024813581FB01448155812417350719F5A1
:1038B000FC0180819181FB0160817181009719F089
:1038C00061157105A1F46115710549F0232BA9F06B
:1038D000FB01808190E091958195910909C0009745
:1038E00061F0232B51F0FC01808190E001C0E7D70B
:1038F00021E0892B19F020E001C021E0822F0895FA
:10390000EF92FF920F931F93CF93DF93EC011982F5
:1039100018821B821A821D821C826115710591F129
:103920007B01FB0101900020E9F731978F01061B15
:10393000170BB8016F5F7F4F80E090E0C2D6009711
:1039400059F0998388831B830A832C813D81232B23
:1039500079F4FC0110820CC088819981009709F0EC
:1039600055D5198218821D821C821B821A820AC0B8
:103970001D830C83B701DF91CF911F910F91FF90B1
:10398000EF90A6C7DF91CF911F910F91FF90EF901D
:1039900008956115710579F0FB0101900020E9F7A8
:1039A0003197AF01461B570BDC01ED91FC91028072
:1039B000F381E02D199480E090E008958F929F921A
:1039C000AF92BF920F931F93CF93DF93CDB7DEB724
:1039D000A1970FB6F894DEBF0FBECDBF19A242303B
:1039E00008F44AE08E010F5D1F4F842E912CA12C0C
:1039F000B12CA50194012CD6E62FB901CA010150C2
:103A00001109EA3014F4E05D01C0E95CD801EC93DF
:103A1000232B242B252B69F7B80189EE96E0B9DF1B
:103A2000A1960FB6F894DEBF0FBECDBFDF91CF9148
:103A30001F910F91BF90AF909F908F9008950F931B
:103A40001F93CF93DF93EC01E881F981DB0114969A
:103A50004D915C9115976D917C910280F381E02DE1
:103A600019958C0167E574E0CE0193DF800F911FFB
:103A7000DF91CF911F910F910895CF93DF93CDB731
:103A8000DEB76C970FB6F894DEBF0FBECDBF78944B
:103A900084B5826084BD84B5816084BD85B5826053
:103AA00085BD85B5816085BD80916E008160809304
:103AB0006E0010928100809181008260809381006D
:103AC000809181008160809381008091800081607D
:103AD000809380008091B10084608093B1008091D8
:103AE000B00081608093B0008091910082608093EB
:103AF000910080919100816080939100809190006D
:103B00008160809390008091A10082608093A100E9
:103B10008091A10081608093A1008091A0008160CC
:103B20008093A00080912101826080932101809187
:103B30002101816080932101809120018160809327
:103B4000200180917A00846080937A0080917A00CD
:103B5000826080937A0080917A00816080937A00FD
:103B600080917A00806880937A001092C100E09181
:103B7000F906F091FA0682E08083E091F506F09173
:103B8000F6061082E091F706F091F80680E1808356
:103B900010920107E091FD06F091FE0686E0808319
:103BA000E091FB06F091FC06808180618083E091CA
:103BB000FB06F091FC06808188608083E091FB0623
:103BC000F091FC06808180688083E091FB06F09193
:103BD000FC0680818F7D808364EF71E080E090E05F
:103BE0000E94590BE9E0EE2EF0E47F2EAAE06A2E47
:103BF000B2E0FB2E15EAC12E17E0D12E03E0502EC5
:103C000010928A0710928707E09286070E94910B14
:103C10008B0161E0809186070E941D0B61E080911D
:103C200086070E94A00A61E085E30E94A00A61E085
:103C300085E30E941D0B60E082E30E941D0B61E0A2
:103C400083E30E941D0B61E084E30E941D0B7092D0
:103C5000880780E4FFDA7AE0B72E8FEF0E947413B2
:103C6000BA94B110FACF20E030E0A90160E086E814
:103C700097E00E94C313813049F00E94910B601BB2
:103C8000710B613D774078F381E05EC02AEA31E054
:103C900040E050E068E086E897E00E94C31385307A
:103CA00021F481E080938A0718C064E0B62E0E9458
:103CB000791380938907BA94B110F9CF8A3A19F42D
:103CC000F0928A070AC00E94910B601B710B613D44
:103CD0007740E0F2F09287075EC080918A078230D9
:103CE00021F0812C912C540105C0812C912CA12C08
:103CF00050E4B52E20E030E0A90167E386E897E0C4
:103D00000E94C313A501940169E286E897E00E942E
:103D1000C313882351F00E94910B601B710B613D0E
:103D2000774040F36092870736C080918A078230DF
:103D3000D9F420E030E0A9016AE386E897E00E9428
:103D4000C313882321F088E08093870724C00E9452
:103D50007913807C803C11F450928A070E94791379
:103D60000E9479130E94791386E897E00E948B13D2
:103D7000F092880781E06DDB8823A9F0D092D2040D
:103D8000C092D1048091A707882391F085EA97E03B
:103D90000E946B120DC086E897E00E948B138BED9A
:103DA00093E0AFDA2DCF80E054DB8823C1F3E6CF78
:103DB0006BE877E085EA97E00E942312982E88232B
:103DC00071F361E084E00E941D0B60E084E00E94DA
:103DD000A00A64E670E080E090E00E94590B61E088
:103DE00085E30E941D0B61E089E00E941D0B61E0EC
:103DF00086E00E941D0B61E084E00E941D0B61E0E3
:103E00008BE00E941D0B61E074E089EE96E0C1DD5D
:103E100060E084E00E94A00A60E085E30E94A00ABE
:103E200061E086E00E94A00A61E089E00E94A00AA9
:103E300061E08BE00E94A00A0FEB17E08DE2782E84
:103E400094ED892E24E5E22E25E0F22E3CE5C32EEA
:103E500035E0D32E44E6A42E45E0B42E60E170E0B8
:103E600080E090E00E94590B61E08091C5070E94BC
:103E70001D0B61E08091C5070E94A00A8091C107D7
:103E80009091C207DC01ED91FC910680F781E02D55
:103E900019958091C1079091C207DC01ED91FC91C9
:103EA0000484F585E02D60E019958091C10790911B
:103EB000C207DC01ED91FC910284F385E02D61E005
:103EC00019958091C1079091C207DC01ED91FC9199
:103ED0000684F785E02D61E0199564E670E080E0E6
:103EE00090E00E94590B40E867E08FEB97E00E945A
:103EF000070461E070E080E090E00E94590B60E010
:103F00008FEB97E00E943F048093C7078750823071
:103F100020F084E294E0F5D9A1CF8091C607811109
:103F200010C01093CC040093CB04B0921E02A09258
:103F30001D0280916A008C7F826080936A00EC9AF7
:103F400023C0813081F41093CE040093CD04D0922D
:103F50002002C0921F0280916A00837F8860809354
:103F60006A00ED9A11C08230A1F61093D00400933C
:103F7000CF04F0922202E0922102909169009C7F8E
:103F8000926090936900E89A8FB7F8941092CA07EC
:103F9000109230088FBF8FEB97E009D944E06DE7AE
:103FA0008FEB97E00E94070447E36EE78FEB97E003
:103FB0000E9407044091C80743704C6860E38FEB90
:103FC00097E00E94070448E862E38FEB97E00E94C5
:103FD000070442E463E38FEB97E00E94070448E0A4
:103FE00064E38FEB97E00E9407047B8E8C8E22E0C7
:103FF000AE01455E5F4F66E38FEB97E00E94BE0324
:104000004FEF63E48FEB97E00E94070440E06FE31B
:104010008FEB97E00E94070440E06AE38FEB97E0A4
:104020000E94070440E06BE38FEB97E00E940704D7
:1040300040E06CE38FEB97E00E94070440E06DE303
:104040008FEB97E00E94070442E16BE08FEB97E073
:104050000E94070445E16CE08FEB97E00E940704A3
:1040600047EB65E08FEB97E00E94070440E466E0D1
:104070008FEB97E00E94070440E063E78FEB97E047
:104080000E94070440E064E78FEB97E00E9407047A
:1040900043E565E78FEB97E00E94070444E666E797
:1040A0008FEB97E00E94070440E067E78FEB97E013
:1040B0000E94070440E56AE28FEB97E00E94070444
:1040C00062E08FEB97E00E943F0442E150E06EE334
:1040D00071E0CE01019687D2BE016F5F7F4F8FEBFB
:1040E00097E06ED843E06DE68FEB97E00E940704FF
:1040F000992009F40ECF409138086FE38FEB97E0D9
:104100000E940704409138086BE38FEB97E00E9410
:10411000070485E394E0F5D842E150E066E871E0F9
:10412000CE01019660D2BE016F5F7F4F8FEB97E0AB
:1041300047D847E06DE68FEB97E00E94070481E0E7
:104140008093D90882E390E09093D8088093D708B1
:1041500019821B8221E047EC52E065EA77E0CE014C
:1041600001960E948E17882339F119821B8222E062
:1041700047EC52E065EA77E0CE0101960E948E1787
:104180008823D1F0CE010196CDD88823A9F06F8580
:10419000788989899A8941E00E94880D009761F0A9
:1041A0002C81FC01B0E22B9FE00DF11D112425EEC6
:1041B00020831B820E943F0D67E474E089EE96E045
:1041C000E8DB87EC92E09DD80E949D060E94820960
:1041D000FBCFE9EEF6E01382128288EE93E0A0E0D6
:1041E000B0E084839583A683B78321E532E03183F1
:1041F000208325EC30E03587248724EC30E03787B6
:10420000268720EC30E0318B208B21EC30E0338BA3
:10421000228B22EC30E0358B248B26EC30E0378B80
:10422000268B118E128E138E148EEAEDF9E0138216
:10423000128223E632E031832083EEEDF9E013822F
:10424000128284839583A683B7832FE632E031837D
:104250002083EFEBF7E025E32683178221E0258317
:10426000148210923408109233081092320810927F
:10427000310810923608109235084DE252E053830F
:10428000428341E050E0528741872093380821EB78
:1042900032E0318320831092D5081092D408109216
:1042A000D60828EC30E03093D8082093D70823E0D4
:1042B0002093D908E6E8F7E029E121831482108EE3
:1042C000178E11A2EAEEF9E0148616861382128286
:1042D00084839583A683B78381E892E0918380836A
:1042E0000895CF93DF938230910510F482E090E03F
:1042F000E091200AF091210A20E030E0C0E0D0E017
:10430000309711F14081518148175907C0F0481783
:10431000590761F482819381209719F09B838A83E6
:104320002BC09093210A8093200A26C021153105C5
:1043300019F04217530718F49A01BE01DF01EF018B
:104340000280F381E02DDCCF2115310509F1281B16
:10435000390B2430310590F412968D919C9113976E
:104360006115710521F0FB019383828304C0909352
:10437000210A8093200AFD01329644C0FD01E20F1C
:10438000F31F81939193225031092D933C933AC0AE
:1043900020911E0A30911F0A232B41F420913102F3
:1043A0003091320230931F0A20931E0A20912F026F
:1043B000309130022115310541F42DB73EB74091BF
:1043C000330250913402241B350BE0911E0AF09108
:1043D0001F0AE217F307A0F42E1B3F0B281739071B
:1043E00078F0AC014E5F5F4F2417350748F04E0F51
:1043F0005F1F50931F0A40931E0A8193919302C03E
:10440000E0E0F0E0CF01DF91CF9108950F931F938B
:10441000CF93DF93009709F48CC0FC01329713828D
:1044200012820091200A1091210A0115110581F4D0
:1044300020813181820F931F20911E0A30911F0A23
:104440002817390779F5F0931F0AE0931E0A71C007
:10445000D80140E050E0AE17BF0750F412962D91FE
:104460003C911397AD012115310509F1D901F3CF25
:104470009D01DA013383228360817181860F971F4A
:104480008217930769F4EC0128813981260F371FC1
:104490002E5F3F4F318320838A819B819383828368
:1044A000452B29F4F093210AE093200A42C0139689
:1044B000FC93EE931297ED01499159919E01240FBF
:1044C000351FE217F30771F480819181840F951FE6
:1044D000029611969C938E938281938113969C935E
:1044E0008E931297E0E0F0E0D80112968D919C91A6
:1044F0001397009719F0F8018C01F6CF8D919C91DC
:1045000098012E5F3F4F820F931F20911E0A30911A
:104510001F0A2817390769F4309729F41092210AE5
:104520001092200A02C01382128210931F0A009375
:104530001E0ADF91CF911F910F9108958F929F9244
:10454000AF92BF92CF92DF92EF92FF92CF93DF9321
:10455000EC01688179818A819B81611571058105F2
:10456000910521F464E279ED8BE597E02DE133EFDD
:1045700041E050E041D049015A019B01AC01A7EA5A
:10458000B1E456D06B017C01ACEEB4EFA50194010F
:104590005BD0DC01CB018C0D9D1DAE1DBF1DB7FF97
:1045A00003C00197A109B04888839983AA83BB837C
:1045B000BC01CD019F77DF91CF91FF90EF90DF900D
:1045C000CF90BF90AF909F908F900895B7CF85E325
:1045D00092E0B4CF60933502709336028093370235
:1045E000909338020895FB01DC0102C005900D9202
:1045F00041505040D8F70895052E97FB16F40094CB
:104600000FD057FD05D024D007FC02D046F408C0D7
:1046100050954095309521953F4F4F4F5F4F0895EE
:1046200090958095709561957F4F8F4F9F4F08951E
:1046300031D0A59F900DB49F900DA49F800D911D2A
:1046400011240895B7FFF4CFF3DF821B930B089575
:10465000A1E21A2EAA1BBB1BFD010DC0AA1FBB1F86
:10466000EE1FFF1FA217B307E407F50720F0A21BF8
:10467000B30BE40BF50B661F771F881F991F1A9465
:1046800069F760957095809590959B01AC01BD018F
:10469000CF010895A29FB001B39FC001A39F700DE9
:1046A000811D1124911DB29F700D811D1124911D3A
:1046B0000895EE0FFF1F881F8BBF0790F691E02D26
:1046C00019946F927F928F929F92AF92BF92CF92E6
:1046D000DF92EF92FF920F931F93CF93DF93EC0142
:1046E000009781F4CB01DF91CF911F910F91FF9043
:1046F000EF90DF90CF90BF90AF909F908F907F9082
:104700006F90EFCDFC01E60FF71F9C01225031099D
:10471000E217F30708F4A8C0D9010D911C91119775
:1047200006171707A8F00530110508F49BC0C8014B
:1047300004978617970708F495C002501109061BC5
:10474000170B019311936D937C93CF015FDE8AC0A9
:104750005B01A01AB10A4C01800E911EA091200AA3
:10476000B091210A40E050E0E12CF12C109709F4BF
:104770004AC0A815B905D1F56D907C9011976301D9
:1047800082E0C80ED11CCA14DB0480F1A3014A19CF
:104790005B096A0182E0C80ED11C1296BC90129788
:1047A0001396AC91B5E0CB16D10440F0B282A3834E
:1047B00051834083D9016D937C930AC00E5F1F4FD4
:1047C000C301800F911FF90191838083EB2DFA2F94
:1047D000E114F10431F0D7011396FC93EE93129794
:1047E00041C0F093210AE093200A3CC08D919C9136
:1047F00011974817590708F4AC017D0112960D90E6
:10480000BC91A02DB3CF80911E0A90911F0A8815EC
:104810009905E1F446175707C8F480912F0290914B
:104820003002009741F48DB79EB74091330250910A
:104830003402841B950BE817F907B0F4F0931F0AB4
:10484000E0931E0AF901718360830CC0CB0149DD3E
:104850007C01009749F0A801BE0128D0CE01D6DD29
:10486000C70104C0CE0102C080E090E0DF91CF918B
:104870001F910F91FF90EF90DF90CF90BF90AF907E
:104880009F908F907F906F90089581E090E0F894D2
:1048900026C0FB01DC0104C08D910190801921F438
:1048A00041505040C8F7881B990B0895FB01DC016B
:1048B00002C001900D9241505040D8F70895FB017D
:1048C000DC018D91019080190110D9F3990B0895A5
:1048D000FB01DC0101900D920020E1F70895F894AE
:0248E000FFCF08
:1048E2005472616E736665725265616479003A3A18
:1048F200526561647954657374696E6700DF09DF1C
:1049020009DF09DF09DF09DF09DF09DF093D0200ED
:1049120000220A800001000000000000006D026910
:104922000265023F035102490244023502000000BF
:1049320000390AB31B45097F0A7609540968090040
:104942000000001412B31BF102F00200000000C8C4
:1049520002B402F102A602AD02AA02A702000000FE
:104962000074037103F102BB03D8028D03900300AC
:10497200000000E009B31BF102F002E009E009E0E7
:104982000900000000E009B31BF102F00200000080
:104992000022122112726563696576656420737460
:1049A20072696E673A2000746573742E74787400AD
:1049B2004E6F7420657175616C20746F2072656131
:1049C200647920636F6D6D616E64202D207772694A
:1049D20074696E6720746F2066696C650046616950
:1049E2006C656420746F20456E7465722053442098
:1049F200636172642066696C650057534E2072656C
:104A0200616479206D65737361676520726563699E
:104A120065766564212053656E64205472616E73FD
:104A220066657220636F6D6D616E64004265666FCC
:104A320072652053656E642066756E6374696F6E6D
:104A4200202D200074696D656F75743A002C206DFD
:104A52006573736167655F6C656E6774683A00734E
:104A6200656E64746F57616974206661696C656410
:104A7200202D206E6F2041636B2066726F6D205770
:104A8200534E0057616974696E6720666F722057D2
:104A9200534E20746F207265736F6E6420746F20A2
:104AA2005472616E7366657220436F6D6D616E64E0
:104AB20020776974682064617461004552524F52D4
:104AC2003A205344206361726420696E697469619B
:104AD2006C697A6174696F6E206661696C65642EB7
:104AE200002A2A2A2A2A53657474696E6720436849
:104AF20069702053656C65637473204C4F572A2A82
:104B02002A2A2A007266323220696E69742066612E
:104B1200696C6564007266323220696E6974207352
:104B2200756363657373004372656174696E6720B0
:0A4B320066696C653A20000D0A0068
:00000001FF
