:10000000FAC100000C94440D0C94190D0C94EE0CE4
:100010000C94C30C0C94980C0C946D0C0C94420C26
:100020000C94170C19C2000017C2000015C2000082
:1000300013C2000011C200000FC200000DC2000078
:100040000BC2000009C2000007C2000005C2000088
:1000500003C2000001C20000FFC100000C94CD0BE0
:10006000FBC100000C94D60A0C94AD0AF5C1000047
:10007000F3C10000F1C10000EFC10000EDC10000BC
:10008000EBC10000E9C10000E7C10000E5C10000CC
:10009000E3C10000E1C10000DFC10000DDC10000DC
:1000A000DBC10000D9C10000D7C10000D5C10000EC
:1000B000D3C10000D1C10000CFC10000CDC10000FC
:1000C000CBC10000C9C10000C7C10000C5C100000C
:1000D000C3C10000C1C10000BFC10000BDC100001C
:1000E000BBC100003B0B3E0B2D0B310B350B750BD1
:1000F000420B460B4C0B500B540B5A0B5E0B620B16
:10010000750B680B6C0B700B2B03F42041890036C8
:10011000400A1D806010622C00082B03F4204189E6
:100120000036400A1D806010622C33082B03F42037
:1001300041890036400A1D806010622C22081B0392
:10014000416027520007400A1E806013A92C223A02
:100150001D03A1204EA50013400A1E806027522CCB
:1001600022481E03D0009D490045400A2080604E71
:10017000A52C22482B033402752507FF400A1B805B
:10018000609D492C220F020368013A9304D5400A6E
:100190001E806009D50C221F06034501D7DC076EBF
:1001A000400A2D80600EBF0C222E8A036001555537
:1001B00002AD400A50806020000C22C82B03A1E051
:1001C00010C70009400A1D806004322C2204270356
:1001D000A1E010C70006400A1D806004322C2207EF
:1001E0002B03F42041890036400A1D806010622CE8
:1001F00023081B03416027520007400A1E8060133A
:10020000A92C233A1D03A1204EA50013400A1E80ED
:100210006027522C23481E03D0009D490045400A08
:100220002080604EA52C23482B033402752507FF40
:10023000400A1B80609D492C230F020368013A93FA
:1002400004D5400A1E806009D50C231F0603450112
:10025000D7DC076E400A2D80600EBF0C232E8A0368
:100260006001555502AD400A50806020000C23C843
:10027000510368003A93013D2C1128806009D52C68
:100280002108C803392068DC006B2A082A80601323
:10029000A92C2108C8039C00D1B700D429042980C7
:1002A0006027522C2108B8039C00D1B700D42882C3
:1002B0002980604EA52C2108A8039C00D1B700D44A
:1002C00028412980609D492C210898039C00D1B7C2
:1002D00000D4282029806009D50C210898039600B5
:1002E000DA7400DC281F2980600A3D0C2108000018
:1002F0000A0B02090C0D0E080703040100000000A0
:1003000000000000000000000000000000000000ED
:1003100000000000000000000000121110000000AA
:1003200000000000000000000000000000000000CD
:100330000000000000002200250028002B002E00F5
:100340003100340002010000050108010B0100002A
:100350002100240027002A002D0030003300010175
:100360000000040107010A01050505050705080845
:100370000808020202020A0A08080404040401012F
:100380000101010101010303030303030303040744
:1003900007070C0C0C0C0C0C0C0C020202020606DB
:1003A0000606060606060B0B0B0B0B0B0B0B0102CE
:1003B0001020200808102040102040800201020177
:1003C000080402010102040810204080804020102F
:1003D0000804020180040201804020100804020188
:1003E00008040201010204081020408001020408F0
:1003F000102040809C1C11241FBECFEFD1E2DEBF35
:10040000CDBF00E00CBF14E0A0E0B2E0E6E5F1E40F
:1004100000E00BBF02C007900D92A837B107D9F7D3
:1004200022E1A8E7B4E001C01D92A532B207E1F7CE
:1004300011E0CBEFD1E000E006C021970109802F49
:10044000FE010E948C1FCA3FD10780E00807A9F770
:100450000E946F170C94A920D3CD8091C10085FD17
:10046000FCCF8091C00085FFF8CF6093C60081E08B
:1004700090E008950895413041F4FC01EC5EFE4F98
:1004800081E0DB012C919081291380E0089508958B
:1004900008958CB5962F93708C7F892B8CBD9DB55C
:1004A00062FB882780F9692F6E7F682B6DBD0895E8
:1004B0008CB5837F682B6CBD08958CB5611102C02B
:1004C000806201C08F7D8CBD08959FB7F8948091A4
:1004D0007904882319F081508093790480917904FC
:1004E000811105C08CB58F7B8CBD109278049FBFA5
:1004F00008958CB58F778CBD08958CB580688CBDC0
:1005000008956EBD00000DB407FEFDCF8EB50895B1
:10051000FC01868D978DA0A1B1A146895789608D78
:10052000718D841B950BA60BB70B811520E89207E4
:10053000A105B10520F08FEF9FE7A0E0B0E008959E
:10054000089580E090E00895CF92DF92EF92FF92BD
:100550000F931F93CF93DF931F921F92CDB7DEB7F8
:100560008C01D62EF42EEFB6F89460E0DC011696DE
:100570008C9129835A830E940C0BF801828193810C
:10058000DC01ED91FC916D2D6F770190F081E02DF4
:100590001995CF2C5A81D52E2981F20EFC1479F0B1
:1005A000F80182819381DC01ED91FC910190F08151
:1005B000E02D60E01995F60181936F01EFCF61E0C6
:1005C000D80116968C910E940C0BEFBE0F900F90E5
:1005D000DF91CF911F910F91FF90EF90DF90CF901F
:1005E0000895CF93DF93462FFC01E35EFD4F20E09B
:1005F00030E05081B9016F5F7F4F541323C0EC018D
:10060000C901880F991F820F931F835E9D4F49E098
:1006100050E0421B530B9A01220F331F420F531F0E
:100620009B01220F331F620F731F635E7D4F6C0FA0
:100630007D1F8C0F9D1F0E949020C65CDD4F18828D
:1006400081E006C09B0133966A30710591F680E027
:10065000DF91CF910895CF93CFB7F894809179042B
:10066000811123C0EDE9F3E08491E3EEF3E094918E
:10067000E82FF0E0EE0FFF1FE25BFC4FA591B49175
:10068000EC91E92319F461E085E3C6D785E30E9484
:10069000BE148CB580618CBD8CB580648CBD84E348
:1006A0000E94BE1483E30E94BE14809179048F5F80
:1006B00080937904CFBFCF9108950C960C94381095
:1006C000CF93DF931F92CDB7DEB7698341E050E04F
:1006D000BE016F5F7F4F0C960E94381021E030E022
:1006E000019711F020E030E0C9010F90DF91CF9128
:1006F0000895CF93DF931F92CDB7DEB7BE016F5F32
:100700007F4F0C960E942113019719F4898190E084
:1007100002C08FEF9FEF0F90DF91CF9108958F92DE
:100720009F92AF92BF92CF92DF92EF92FF920F9380
:100730001F93CF93DF931F92CDB7DEB78C01FC01DF
:1007400086889788A08CB18CC288D388E488F58885
:10075000BE016F5F7F4F0C960E942113019721F419
:100760009981892F90E002C08FEF9FEF8F3FFFEFBD
:100770009F0749F0F801868A978AA08EB18EC28AB7
:10078000D38AE48AF58A0F90DF91CF911F910F9160
:10079000FF90EF90DF90CF90BF90AF909F908F90A1
:1007A00008950C960C94BC0FFC01828122E090E02D
:1007B000281728F4963019F0220F9F5FF9CF292FC0
:1007C000206A26952CBD90FD03C021E0963009F4E7
:1007D00020E02DBD60E080811FC761E0FC018081C9
:1007E0001BD78FEF0C94FA0FEF92FF921F93CF93CA
:1007F000DF9300D01F92CDB7DEB77C01162F29837F
:100800003A834B835C83D0DF0E94CC12812F8064BB
:100810000E94FA0F8C810E94FA0F8B810E94FA0FBE
:100820008A810E94FA0F89810E94FA0F112311F028
:1008300087E801C085E90E94FA0F1C3011F40E947C
:10084000FF0F10E00E94FF0FF701838387FF04C0B2
:100850001F3F11F01F5FF6CF0F900F900F900F907A
:10086000DF91CF911F91FF90EF9008950F931F9309
:10087000CF93DF93EC0189018C81833039F089E0DB
:10088000440F551F661F771F8A95D1F79A01AB0158
:1008900068E1CE01A9DF882319F086E089830BC0C7
:1008A000A8016EEFCE010E940610182F882319F0C0
:1008B000CE0193DF03C0CE0190DF10E0812FDF91E6
:1008C000CF911F910F9108950F931F93CF93DF93B3
:1008D000EC0189018C81833039F089E0440F551F88
:1008E000661F771F8A95D1F79A01AB0161E1CE01AE
:1008F0007BDF811108C0B801CE01DF91CF911F913C
:100900000F910C94DF1284E08983CE0166DF80E0D2
:10091000DF91CF911F910F9108952FB7F894FC01AB
:100920001386E55FFE4F10822FBF0895CF92DF92AE
:10093000EF92FF920F931F93CF93DF931F921F921B
:10094000CDB7DEB78C01D62EF42EEFB6F89460E06A
:10095000DC0116968C9129835A835ED6F801828138
:100960009381DC01ED91FC916D2D60680190F08127
:10097000E02D1995CF2C5A81D52E2981F20EFC1429
:1009800071F0F80182819381D6016D916D01DC01D6
:10099000ED91FC910190F081E02D1995F0CF61E08F
:1009A000F801868139D6EFBE0F900F90DF91CF917D
:1009B0001F910F91FF90EF90DF90CF9008950F93CC
:1009C0001F93CF93FC01C3858C01045F1E4FF80178
:1009D0002081C21BCC3308F0CBE3F801408150E00A
:1009E000445F5F4F480F591F2C2F6FE79FDFF801BF
:1009F0008081C80FC083CF911F910F910895EF920E
:100A0000FF920F931F93CF93DF931F92CDB7DEB763
:100A10007C01162F0FB7F89460E0DC0116968C91DC
:100A20004983FAD5F70182819381DC01ED91FC9134
:100A3000612F60680190F081E02D1995F7018281A6
:100A40009381DC01ED91FC910190F081E02D4981D1
:100A5000642F199561E0F7018681DED50FBF0F90F5
:100A6000DF91CF911F910F91FF90EF900895CF9359
:100A7000DF93EC014D81446067E0C1DF81E08C834E
:100A8000DF91CF910895CF93DF93EC0142E068E0CE
:100A9000B6DF40E068E0CE01DF91CF91B0CFCF93D9
:100AA000DF93EC01FC01E45FFE4F90818B8598178A
:100AB00010F4CE0184DF4B856EE3CE01A0DF8C8184
:100AC000823059F04D81486067E0CE0198DF82E0C6
:100AD0008C83CE01DF91CF91D6CFDF91CF91089556
:100AE000FF920F931F93CF93DF93EC018C818230A1
:100AF000E9F30FB7F8948FB7F8941B86FE01E45F13
:100B0000FE4F10828FBF4423E9F08B85242F30E005
:100B1000F901E80FF11DEF3FF10509F098F4142FEA
:100B2000FFB6F8948B8590E00C96A9018C0F9D1F61
:100B30000E9490204B85410F4B87FFBECE01AFDF57
:100B400081E001C080E00FBFDF91CF911F910F9135
:100B5000FF900895FF920F931F93CF93DF931F92FF
:100B6000CDB7DEB78C01F42E462F6CE348DF40E8AA
:100B70006DE3C80144DF81E289834F2D6AE3C80138
:100B80003EDF41E0BE016F5F7F4FC801A9DFF80182
:100B900084818230E1F30F90DF91CF911F910F910B
:100BA000FF9008950F931F93CF93DF938C01EB0178
:100BB00048816CE124DF49816FE1C80120DFAE018B
:100BC0004E5F5F4F26E060E2C801B0DEAE01485FD5
:100BD0005F4F23E06CE2C801A9DE4B8568E5C801E0
:100BE0000EDF4C8569E6C8010ADFAE01435F5F4F47
:100BF00025E06EE6C801DF91CF911F910F9196CE4F
:100C00000F931F93CF93DF93EC01162F0FB7F89438
:100C100060E08E8101D58A819B81DC01ED91FC91A0
:100C2000612F6F770190F081E02D19958A819B816A
:100C3000DC01ED91FC910190F081E02D60E01995CF
:100C4000182F61E08E81E8D40FBF812FDF91CF9103
:100C50001F910F91089568E4D3CF2F923F924F9246
:100C60005F926F927F928F929F92AF92BF92CF923C
:100C7000DF92EF92FF920F931F93CF93DF93CDB745
:100C8000DEB761970FB6F894DEBF0FBECDBFFB0194
:100C900050815F3F49F1FC01E15EFD4F20E030E013
:100CA000DF011297AC91A51318C0A081AA23A9F067
:100CB000F901EE0FFF1F2E0F3F1FF901E35EFD4FFD
:100CC000E80FF91FEF2B09F4ECC0280F391FF901C9
:100CD000E25EFD4F2081298309C02F5F3F4F33968D
:100CE0002A303105E9F6DDC0EFEFE9834E877D87D5
:100CF0006C87998B888BFC01E95EFE4FF080F39442
:100D0000FA82F08220E0865E9E4F9F838E838889E0
:100D10009989885E9E4F99878887812C912C5401F0
:100D20009394E889F989EB5EFE4FFD83EC83288874
:100D30003988F5EF2F1AFEEF3F0A888999898C5E72
:100D40009E4F9B878A8781E0820F8B83EE81FF8194
:100D50009081921708F4A3C0E885F985008111817C
:100D60000E94CA1EA50194010E941C1F9B01AC0198
:100D7000D8010E94381FA50194010E941C1F020F78
:100D8000131F4A816CE38889998939DE40E06DE35D
:100D90008889998934DE49816AE3888999892FDEB7
:100DA0004E856C857D85888999899ADEEAD42B01E8
:100DB0003C016801E12CF12CE4D4DC01CB01841965
:100DC0009509A609B7098C159D05AE05BF0528F440
:100DD000E889F9898481823079F3F981FF3F09F448
:100DE00062C02B81223038F0EC81FD8180819181BD
:100DF000019691838083C5D42B013C01C2D42B8101
:100E0000AB01BC0144195509660977094C155D050C
:100E10006E057F0508F097CFF1018081811107C031
:100E2000E889F9898481813011F0CF0120DEF10158
:100E30008081882319F3888999896FDD8889998948
:100E40000ADF482F67E4888999894F87D9DE082F00
:100E500069E488899989D4DE182F6AE48889998998
:100E6000CFDE4F85F9814F130AC0EA85FB8590815B
:100E7000091305C087FF03C0FA811F17A1F087FD82
:100E8000BDCFE889F989E40FF11DE55EFE4F808151
:100E90001813B4CF612F888999895CDEAFCF85E0C4
:100EA00003C082E001C080E061960FB6F894DEBF17
:100EB0000FBECDBFDF91CF911F910F91FF90EF90AB
:100EC000DF90CF90BF90AF909F908F907F906F906A
:100ED0005F904F903F902F900895AF92BF92CF9226
:100EE000DF92EF92FF920F931F93CF93DF931F92A6
:100EF000CDB7DEB75C018B0160ED72E08AED9DE05D
:100F000049830E941D17C501A6DEE82E4981B8015C
:100F1000C501A3DEF82E82E0F81631F0E5E0FE12FE
:100F200036C068EF72E002C06EE073E08AED9DE0CB
:100F30000E941D17F8016081C50153DBF801618132
:100F40006501FCEECF1AFEEFDF0AF601808168171B
:100F5000F1F083E08093DA0CF80180818093DB0C60
:100F60004E2DC5010E949B15F6012081F80141819B
:100F700062E0C5010F90DF91CF911F910F91FF901B
:100F8000EF90DF90CF90BF90AF900C9462158F2DB3
:100F90000F90DF91CF911F910F91FF90EF90DF9015
:100FA000CF90BF90AF900895EF92FF920F931F9351
:100FB000CF93DF93423008F43CC0FB0125812230FF
:100FC00069F5F42E8B01EC0146DE482FF8016781AC
:100FD000CE010E949B15F8EFFF0EF801389690E0C5
:100FE000DE01AC5EBE4F81E0890F9F1530F4219188
:100FF0009C91291711F0982FF6CFEE24E394E80E78
:101000008F15B8F4CE0127DEF801EE0DF11D482F43
:101010006085CE010E949B158E2DEFCF233049F4C1
:10102000FB016681DF91CF911F910F91FF90EF90AF
:10103000D8CADF91CF911F910F91FF90EF90089543
:101040004F925F926F927F92BF92CF92DF92EF9218
:10105000FF920F931F93CF93DF931F92CDB7DEB70D
:101060006C01B62E81E08093DA0C8093DB0C6093E8
:10107000DC0CF601EC5EFE4F20814FEF63E0C60111
:101080000E946215882311F010E030C08AEF898336
:1010900078D32B013C0175D3DC01CB018419950970
:1010A000A609B709803A9F40A105B10568F7E12C70
:1010B000F12C00E010E020E030E040E050E0BE0124
:1010C0006F5F7F4FC6010E94F415182F882319F314
:1010D0008981823000F38091DA0C8230E1F6C6011A
:1010E000BADD482F6B2DC6010E949B15812F0F90F2
:1010F000DF91CF911F910F91FF90EF90DF90CF90F4
:10110000BF907F906F905F904F900895FF920F93E4
:101110001F93CF93DF931F921F92CDB7DEB78C0141
:1011200022E0AE014F5F5F4F63E00EDA898187FFF7
:101130001DC043E068E0C80162DC40E068E0C8012F
:101140005EDCD80114968C911497823049F4149681
:101150001C92F801E45FFE4F1082C801A0DC06C0BB
:10116000F8018481813011F4C801D7DB898185FFC2
:101170000BC0F801E45FFE4F9081D8011B968C9163
:10118000981710F4C8011BDC898184FF19C0F8018D
:10119000838590E0C7968F3F910509F088F44385D9
:1011A00050E0445F5F4F400F511F27E36FE7C801D6
:1011B000CBD9D8011B968C911B97895C1B968C937D
:1011C000898183FF08C0D801ED91FC910190F081E5
:1011D000E02DC80119958A8183FF08C0D801ED91DF
:1011E000FC910280F381E02DC8011995298122FF2D
:1011F0000AC0F801EF5EFE4F8081918101969183D4
:101200008083F801148221FF33C06BE4C801F8DC4D
:10121000F82ED8011B968C91F81658F4F801E35F6C
:10122000FE4F80819181019691838083F801148221
:1012300044C0D8011B968C911B971B964C912F2D67
:10124000281B50E0445F5F4F400F511F6FE7C801FC
:101250007BD9F801E15FFE4F8081918101969183F6
:101260008083F801F386148281E0E55FFE4F80837E
:10127000898180FF16C0F801E35FFE4F8081918174
:10128000019691838083C80148DBC801FCDBD8014B
:1012900014961C92149714968C91813011F0C80109
:1012A000E6DB8A8186FF0BC066E2C801A9DCF80193
:1012B000ED5EFE4F8083C801E6DBC8012EDB0F9098
:1012C0000F90DF91CF911F910F91FF900895809122
:1012D0007E0490917F04009709F018CF08958091C3
:1012E0007C0490917D04009709F010CF08958091BF
:1012F0007A0490917B04009709F008CF0895FC01CF
:10130000538D448D252F30E0842F90E0821B930B6A
:10131000541710F0CF96089501970895FC01918D10
:10132000828D981761F0828DDF01A80FB11D5D9647
:101330008C91928D9F5F9F73928F90E008958FEFB5
:101340009FEF0895FC01918D828D981731F0828D69
:10135000E80FF11D858D90E008958FEF9FEF0895C0
:10136000FC01918D228D892F90E0805C9F4F821B24
:1013700091098F73992708958AED9DE0F1DF21E0AF
:10138000892B09F420E0822F0895FC01848DDF0170
:10139000A80FB11DA35ABF4F2C91848D90E00196E8
:1013A0008F739927848FA689B7892C93A089B189D7
:1013B0008C9180648C93938D848D981306C00288E1
:1013C000F389E02D80818F7D80830895EF92FF92D5
:1013D0000F931F93CF93DF93EC0181E0888F9B8D58
:1013E0008C8D981305C0E889F989808185FD23C01B
:1013F000F62E0B8D10E00F5F1F4F0F731127E02E9D
:101400008C8DE8120BC00FB607FCFACFE889F9897A
:10141000808185FFF5CFCE01B8DFF2CF8B8DFE0145
:10142000E80FF11DE35AFF4FF0820B8FEA89FB8929
:101430008081806207C0EE89FF896083E889F9892D
:1014400080818064808381E090E0DF91CF911F9163
:101450000F91FF90EF900895CF93DF93EC01888D6B
:101460008823C1F0EA89FB89808185FD05C0A889B0
:10147000B9898C9186FD0EC00FB607FCF5CF80812F
:1014800085FFF2CFA889B9898C9185FFEDCFCE0178
:101490007CDFE8CFDF91CF91089580E090E0892B49
:1014A00019F06ADF811125C080E090E0892B41F0BE
:1014B00080E090E0892B21F00E94000081111CC087
:1014C00080E090E0892B41F080E090E0892B21F0D2
:1014D0000E940000811113C080E090E0892BA1F0F0
:1014E00080E090E0892B81F00E94000081110AC009
:1014F00008950E940000D8CF0E940000E1CF0E9412
:101500000000EACF0C94000008953FB7F894809152
:10151000D60C9091D70CA091D80CB091D90C26B5CF
:10152000A89B05C02F3F19F00196A11DB11D3FBF1B
:10153000BA2FA92F982F8827820F911DA11DB11DA9
:10154000BC01CD0142E0660F771F881F991F4A95A5
:10155000D1F7089508950E948C201F920F920FB624
:101560000F9211240BB60F922F933F934F935F93DB
:101570006F937F938F939F93AF93BF93EF93FF935B
:101580008AED9DE002DFFF91EF91BF91AF919F91B6
:101590008F917F916F915F914F913F912F910F901C
:1015A0000BBE0F900FBE0F901F9018951F920F92B9
:1015B0000FB60F9211240BB60F922F938F939F9318
:1015C000EF93FF93E091EA0DF091EB0D8081E091B4
:1015D000F00DF091F10D82FD12C090818091F30D1C
:1015E0008F5F8F732091F40D821751F0E091F30D0E
:1015F000F0E0E652F24F958F8093F30D01C08081A9
:10160000FF91EF919F918F912F910F900BBE0F90B3
:101610000FBE0F901F901895362F90E0FC01E251FD
:10162000FD4F4491FC01E255FC4F2491FC01E85927
:10163000FC4F9491992309F46BC0442309F455C0DD
:1016400050E0FA013197E231F10508F04EC08827E9
:10165000EE58FF4F8F4F0C948C1F809180008F7736
:1016600007C0809180008F7D03C080918000877FBC
:10167000809380003AC084B58F7702C084B58F7D97
:1016800084BD33C08091B0008F7703C08091B000DB
:101690008F7D8093B00029C0809190008F7707C024
:1016A000809190008F7D03C080919000877F809310
:1016B00090001BC08091A0008F7707C08091A00090
:1016C0008F7D03C08091A000877F8093A0000DC014
:1016D000809120018F7707C0809120018F7D03C00A
:1016E00080912001877F80932001E92FF0E0EE0FA9
:1016F000FF1FEC5CFC4FA591B4918FB7F894EC916F
:10170000311103C020952E2301C02E2B2C938FBFA7
:1017100008958F929F92AF92BF92CF92DF92EF92F5
:10172000FF926B017C01F1DE4B015C01C114D1041D
:10173000E104F104E9F0E9DEDC01CB018819990943
:10174000AA09BB09883E9340A105B10578F321E0C1
:10175000C21AD108E108F10888EE880E83E0981ECD
:10176000A11CB11CC114D104E104F10421F7DECFA6
:10177000FF90EF90DF90CF90BF90AF909F908F90B1
:1017800008952FB7F8946091D20C7091D30C80918A
:10179000D40C9091D50C2FBF08951F920F920FB6C5
:1017A0000F9211242F933F938F939F93AF93BF93E7
:1017B0008091D20C9091D30CA091D40CB091D50C07
:1017C0003091D10C23E0230F2D3720F40196A11D79
:1017D000B11D05C026E8230F0296A11DB11D20935F
:1017E000D10C8093D20C9093D30CA093D40CB093D3
:1017F000D50C8091D60C9091D70CA091D80CB091BB
:10180000D90C0196A11DB11D8093D60C9093D70CD5
:10181000A093D80CB093D90CBF91AF919F918F91A9
:101820003F912F910F900FBE0F901F9018951F9210
:101830000F920FB60F9211240BB60F922F933F9376
:101840004F935F936F937F938F939F93AF93BF93C8
:10185000EF93FF93E0910E02F0910F021995FF9123
:10186000EF91BF91AF919F918F917F916F915F9118
:101870004F913F912F910F900BBE0F900FBE0F9085
:101880001F9018951F920F920FB60F9211240BB64E
:101890000F922F933F934F935F936F937F938F9309
:1018A0009F93AF93BF93EF93FF93E0910C02F0915E
:1018B0000D021995FF91EF91BF91AF919F918F917B
:1018C0007F916F915F914F913F912F910F900BBE40
:1018D0000F900FBE0F901F9018951F920F920FB68A
:1018E0000F9211240BB60F922F933F934F935F9358
:1018F0006F937F938F939F93AF93BF93EF93FF93D8
:10190000E0910202F09103021995FF91EF91BF91CE
:10191000AF919F918F917F916F915F914F913F9187
:101920002F910F900BBE0F900FBE0F901F90189528
:101930001F920F920FB60F9211240BB60F922F9396
:101940003F934F935F936F937F938F939F93AF9347
:10195000BF93EF93FF93E0910002F091010219957C
:10196000FF91EF91BF91AF919F918F917F916F9177
:101970005F914F913F912F910F900BBE0F900FBE33
:101980000F901F9018951F920F920FB60F9211246F
:101990000BB60F922F933F934F935F936F937F9369
:1019A0008F939F93AF93BF93EF93FF93E0910A02BE
:1019B000F0910B021995FF91EF91BF91AF919F911B
:1019C0008F917F916F915F914F913F912F910F90E8
:1019D0000BBE0F900FBE0F901F9018951F920F9285
:1019E0000FB60F9211240BB60F922F933F934F9384
:1019F0005F936F937F938F939F93AF93BF93EF9377
:101A0000FF93E0910802F09109021995FF91EF917F
:101A1000BF91AF919F918F917F916F915F914F9106
:101A20003F912F910F900BBE0F900FBE0F901F9004
:101A300018951F920F920FB60F9211240BB60F92AA
:101A40002F933F934F935F936F937F938F939F93C6
:101A5000AF93BF93EF93FF93E0910602F0910702DB
:101A60001995FF91EF91BF91AF919F918F917F91C8
:101A70006F915F914F913F912F910F900BBE0F90FF
:101A80000FBE0F901F9018951F920F920FB60F92D6
:101A900011240BB60F922F933F934F935F936F9345
:101AA0007F938F939F93AF93BF93EF93FF93E091B7
:101AB0000402F09105021995FF91EF91BF91AF914A
:101AC0009F918F917F916F915F914F913F912F9156
:101AD0000F900BBE0F900FBE0F901F901895CF93D5
:101AE000C091D00CC0FF16C04091D60D5091D70DBB
:101AF0006091D80D7091D90D20ED3AE08091D40D10
:101B00009091D50D0E943604882329F0CE7FC09392
:101B1000D00C01C081E0CF910895CF92DF92EF9277
:101B2000FF92CF936B017C01C42F8091D60D9091D1
:101B3000D70DA091D80DB091D90D8C159D05AE058E
:101B4000BF0501F1CCDF811103C080E090E022C02D
:101B5000C2FF0BC01092D00CC092D60DD092D70D00
:101B6000E092D80DF092D90D0DC020ED3AE0B7010A
:101B7000A6018091D40D9091D50D0E94640481112D
:101B8000E9CFE3CFC3708091D00CC82BC093D00CA9
:101B900080ED9AE0CF91FF90EF90DF90CF90089585
:101BA000CF92DF92EF92FF920F931F93CF93DF9329
:101BB000FC01423051056105710510F480E05DC003
:101BC00086819781A085B1850196A11DB11D8417DD
:101BD0009507A607B70790F38389803149F4BB279F
:101BE000A72F962F852FC784D088E188F2880FC051
:101BF000803221F787859089A189B2896A017B01AA
:101C0000C7E0F694E794D794C794CA95D1F78C0DA2
:101C10009D1DAE1DBF1DE9016A017B018F0142E0E0
:101C2000BC01CD017ADF009749F2F8012389B701A1
:101C3000A601203169F4552766277727440F551FE1
:101C4000FC01E40FF51F80819181A0E0B0E010C09D
:101C50004F77552766277727440F551F440F551F89
:101C6000FC01E40FF51F80819181A281B381BF70D7
:101C700088839983AA83BB8381E0DF91CF911F91F1
:101C80000F91FF90EF90DF90CF9008958F929F92E9
:101C9000AF92BF92CF92DF92EF92FF920F931F937A
:101CA000CF93DF93EC016A017B0148015901423077
:101CB00051056105710510F480E050C08E819F814F
:101CC000A885B9850196A11DB11D84179507A607A2
:101CD000B70790F38B89803149F4452F562F672F32
:101CE00077278F859889A989BA890DC0803221F715
:101CF0008F859889A989BA89E7E076956795579580
:101D00004795EA95D1F78A019B01080F191F2A1FF1
:101D10003B1FC901B80143E000DF009769F22B893E
:101D2000203159F4DD24EE24FF24CC0CDD1CFC0111
:101D3000EC0DFD1D9182808210C0E894C7F8DD246F
:101D4000EE24FF24CC0CDD1CCC0CDD1CFC01EC0DC6
:101D5000FD1D80829182A282B38281E0DF91CF91CA
:101D60001F910F91FF90EF90DF90CF90BF90AF90B9
:101D70009F908F9008954F925F926F927F928F9273
:101D80009F92AF92BF92CF92DF92EF92FF920F930A
:101D90001F93CF93DF93CDB7DEB72C970FB6F89490
:101DA000DEBF0FBECDBF4C01DC011496AD90BC90E0
:101DB0001597F50186819781A085B1859C01AD01BC
:101DC0002F5F3F4F4F4F5F4F29873A874B875C8785
:101DD000D4011696CD90DD90ED90FC901997C1142A
:101DE000D104E104F10439F0BFEFCB1ADB0AEB0AAE
:101DF000FB0A10E006C0F501C080D180E280F380CC
:101E000011E0260137011D821E821F821886F5010E
:101E100086819781A085B1852D813E814F8158852E
:101E2000281739074A075B0708F073C089859A8528
:101E3000AB85BC858C159D05AE05BF0550F482E0D1
:101E4000C82ED12CE12CF12C92E0492E512C612C82
:101E5000712C9E012F5F3F4FB701A601C501A0DE87
:101E6000882309F456C089819A81AB81BC81892B72
:101E70008A2B8B2B71F04C145D046E047F0409F0E7
:101E800010E0260137019FEF491A590A690A790AB9
:101E900005C0C414D504E604F70491F02D813E81F9
:101EA0004F8158852F5F3F4F4F4F5F4F2D833E83AC
:101EB0004F8358873FEFC31AD30AE30AF30AA7CF29
:101EC000112351F0D301C2010196A11DB11DF501ED
:101ED00080839183A283B3830FEF1FEF2FEF3FE047
:101EE000B301A201C501D2DEF82E882391F0D401FE
:101EF00016964D915D916D917C9119974115510503
:101F00006105710541F093018201C501BFDE8111B8
:101F100002C0F12C19C0D40116964D925D926D92BB
:101F20007C92199756968D919D910D90BC91A02D04
:101F3000892B8A2B8B2B41F4F401468A578A608EB9
:101F4000718E8181806881838F2D2C960FB6F894D5
:101F5000DEBF0FBECDBFDF91CF911F910F91FF90DC
:101F6000EF90DF90CF90BF90AF909F908F907F9039
:101F70006F905F904F900895CF93DF93EC018A812B
:101F8000882391F1898187FF2CC06E857F858889A0
:101F9000998941E0C2DD009739F1EB8140E2E49F8D
:101FA00090011124FC01E20FF31F4081453EE1F056
:101FB0004A81423040F44A895B896C897D89448F2B
:101FC000558F668F778F4E895F89688D798DFC017B
:101FD000E20FF31F538F428F758B648B89818F774C
:101FE0008983DF91CF917BCD81E0888380E0DF9191
:101FF000CF9108958EBD0DB407FEFDCF08958FEFEC
:102000008EBD0DB407FEFDCF8EB508950F931F93BF
:10201000CF93DF938C01862FEA01ECDF88818EBDA0
:102020008981FE013296DE5F0DB407FEFDCF8EBDC5
:10203000EC17FD0711F08191F7CF0DB407FEFDCF2E
:102040008FEFD8DF8FEFD6DFDADFF8018383982FA9
:102050009F71953039F083E18183C8010E94ED03BF
:1020600080E001C081E0DF91CF911F910F91089531
:102070002F923F924F925F926F927F928F929F9298
:10208000AF92BF92CF92DF92EF92FF920F931F9386
:10209000CF93DF93CDB7DEB729970FB6F894DEBFA5
:1020A0000FBECDBF8C011B015F834E83DC011296F6
:1020B0008C911297813009F054C011968C9181FF58
:1020C00050C055C00480F581E02D228530E0275FA7
:1020D0003F4FDB01CA010197A109B109022E04C0DB
:1020E000B695A795979587950A94D2F773016201E3
:1020F000E1E0CE1AD108E108F10804C0F694E794B3
:10210000D794C7942A95D2F7C816D906EA06FB06D3
:1021100008F04CC0F80186899789A08DB18D86831F
:102120009783A087B1875801E6E0AE0EB11CD801B5
:10213000C114D104E104F10409F442C016964D9192
:102140005D916D917C911997950114968D919C915B
:10215000159726DDB1E0CB1AD108E108F10881110D
:10216000E6CF81E0F80180838FEF9FEFFCC182FF13
:102170002DC0F80142855385648575854288538852
:10218000648875884415550566057705F9F041148E
:1021900051046104710409F095CF168217821086EC
:1021A0001186128613861486158610C0452B462B81
:1021B000472B09F4AFCFC81AD90AEA0AFB0AB3CFF2
:1021C0001A964D925D926D927C921D97EE81FF81E1
:1021D000AF0160E070E0F80182859385A485B58544
:1021E00080959095A095B09584179507A607B70799
:1021F00008F4B7CF8E809F80E090D40DF090D50D7D
:10220000D8011A964D915D916D917C911D97811425
:10221000910409F488C1D80114968D919C91159769
:102220002A013B01E9E07694679457944794EA9534
:10223000D1F7FC01D580D4205A01F1E0BF22D110A2
:1022400043C0A114B10409F03FC016964D915D91B1
:102250006D917C911997411551056105710509F141
:102260009E012F5F3F4F9CDC882309F47ACF898140
:102270009A81AB81BC81F80124813581F9012389E0
:10228000203139F4883FFFEF9F07A105B10590F495
:1022900016C0883F2FEF9207A2072FE0B20778F011
:1022A00009C0F80186899789A08DB18D0097A10595
:1022B000B10529F4C8015FDD811106C052CFF801D4
:1022C00086839783A087B187D8011496ED91FC91FE
:1022D000159716964D905D906D907C901997B2E091
:1022E0004B1A510861087108028404C0440C551C43
:1022F000661C771C0A94D2F783859485A585B685DC
:10230000480E591E6A1E7B1E4D0C511C611C711C0F
:10231000A114B104C1F4811422E0920698F5D80109
:102320001A964D915D916D917C911D9752968D916C
:102330009D910D90BC91A02D481759076A077B0706
:1023400010F045E001C041E0C301B201E6DB0097B7
:1023500009F407CF612C72E0772E6A187B086401BC
:102360006814790408F46301A601B1018A0D9B1D6C
:102370000E949020C614D70409F0C3C0B0DB8111BD
:10238000C0C0EFCE8114B4E09B0638F58091D60D25
:102390009091D70DA091D80DB091D90D84159505C8
:1023A000A605B70569F48FEF9FEFDC018093D60D8A
:1023B0009093D70DA093D80DB093D90D1092D00C57
:1023C0009101B301A201C7010E943604882309F4D8
:1023D000C8CEC12C82E0D82E94C084818D19992D4D
:1023E00096959D83891708F48D8320E030E0A9013C
:1023F00067E3C7010E94F403AD812A2F30E040E07B
:1024000050E067E1C7010E94F403882311F089E0DE
:1024100015C0D70114968C91A3019201833039F035
:1024200069E0220F331F441F551F6A95D1F769E1F8
:10243000C7010E94F403882321F087E0F70181831C
:102440005CC0C7010E94ED033986288663015201F2
:102450008A2D8419FD818F17B8F58091D60D909142
:10246000D70DA091D80DB091D90DA816B906CA06FE
:10247000DB0669F48FEF9FEFDC018093D60D90931C
:10248000D70DA093D80DB093D90D1092D00CC701E1
:102490000E94D40381D08823A9F0488559856CEF28
:1024A000C701B4DD882371F0C7010E94ED03A88540
:1024B000B985BE5FB987A887BFEFAB1ABB0ACB0A45
:1024C000DB0AC6CF85E1BACFC7010E94D40364D02E
:1024D000882379F08DEF8EDD5FD0882351F02D8138
:1024E000C22ED12CDC2CCC24DD0CC7010E94ED03C4
:1024F00008C082E1D70111968C93C7010E94ED03B9
:1025000030CEF80182859385A485B5858C0D9D1DFF
:10251000A11DB11D82879387A487B5872C0C3D1C14
:102520008C189D086DCE52968D919D910D90BC9109
:10253000A02D84179507A607B70740F4F801428B32
:10254000538B648B758B818180688183D801119650
:102550008C9183FD03C08E819F8105C0C8010CDD75
:102560008111F9CFFECD29960FB6F894DEBF0FBECC
:10257000CDBFDF91CF911F910F91FF90EF90DF9032
:10258000CF90BF90AF909F908F907F906F905F9013
:102590004F903F902F900895CF93DF93F2D8EB01A7
:1025A0002EDD8F3F41F0EDD86C1B7D0B68357240FE
:1025B000B8F380E001C081E0DF91CF910895EF9200
:1025C000FF920F931F93CF93DF93EC017B01D9D838
:1025D0008B0115DD8B838F3F41F4D3D8601B710BCA
:1025E0006D327140B0F381E103C08E3F39F08FE06E
:1025F0008983CE010E94ED0380E01CC08FEF8EBD69
:10260000F701D701A150BE4F9FEF0DB407FEFDCFDC
:102610008EB59EBD8193EA17FB07B9F70DB407FE8F
:10262000FDCF8EB58C931B82EADCE9DCCE010E94E3
:10263000ED0381E0DF91CF911F910F91FF90EF901B
:1026400008952F923F924F925F926F927F928F9256
:102650009F92AF92BF92CF92DF92EF92FF920F9331
:102660001F93CF93DF9300D01F921F92CDB7DEB799
:102670009D838C835B01DC0112968C91882399F0F9
:10268000EC81FD81818180FF0EC010C0AC81BD81D5
:1026900016964D915D916D917C91199729813A81A2
:1026A0007FDA81116EC08FEF9FEF50C1AC81BD8189
:1026B0005296CD90DD90ED90FC9055971A968D91A5
:1026C0009D910D90BC91A02DB701A601481B590BFF
:1026D0006A0B7B0B423051056105710508F08DC016
:1026E000C81AD90A76018C819D8106969A838983BE
:1026F0000091D40D1091D50D0B83212EE114F1041E
:1027000009F479C0AC81BD811A964D915D916D91AE
:102710007C911D974A01B1E09B22EC81FD8184816F
:1027200095812A013B01A9E07694679457944794D8
:10273000AA95D1F7DC0115963C901597342022819B
:10274000223059F456968D919D910D90BC91A02DFB
:10275000480E591E6A1E7B1E39C08114910489F4EB
:1027600031100FC0452B462B472B09F08FCFEC8142
:10277000FD8186899789A08DB18D86839783A087F7
:10278000B187AC81BD811496ED91FC911597169699
:102790004D905D906D907C901997B2E04B1A510866
:1027A00061087108028404C0440C551C661C771C27
:1027B0000A94D2F783859485A585B685480E591E5F
:1027C0006A1E7B1E430C511C611C711C81149104F8
:1027D000C1F4E114E2E0FE06A0F08091D60D9091E4
:1027E000D70DA091D80DB091D90D481659066A069B
:1027F0007B06C9F506C0C601A9C0CC24C394D12C60
:1028000071CF40E0C301B20188D9009709F44BCFE2
:1028100020E032E02819390937012E153F0508F468
:102820003901BC01680D791DA301C5010E949020EA
:1028300007C0712C762C6624770CC8010E94ED032A
:10284000A60CB71CEC81FD8182859385A485B58596
:10285000860D971DA11DB11D82879387A487B5871B
:10286000E618F7084BCFE114E4E0FE0670F495019A
:10287000B301A2018B81922D0E946404882309F484
:1028800012CF612C92E0792EDBCF9F2C9694EC81B5
:10289000FD812281223041F024813581F90124819A
:1028A0002319291508F4922E481659066A067B0644
:1028B00068F4D80114968C91833091F039E0440C7F
:1028C000551C661C771C3A95D1F70AC0890D911DDD
:1028D000A11DB11D481659066A067B0698F1E9CF7D
:1028E000A301920162E1C8010E94F403882321F050
:1028F00085E0F801818322C0C8010E94ED03250113
:10290000612C691469F0C8010E94D403B201C801A6
:1029100056DEFEEF5F1A882309F4C5CE6394F1CF2B
:1029200020E030E0A9016CE0C8010E94F403882394
:1029300009F47FCF83E0D80111968C93C8010E94DF
:10294000ED03B1CECCD88111B4CFADCE0F900F90A6
:102950000F900F900F90DF91CF911F910F91FF90EB
:10296000EF90DF90CF90BF90AF909F908F907F902F
:102970006F905F904F903F902F90089590E0FC01F2
:10298000E255FC4F2491FC01E859FC4F84918823C7
:1029900099F090E0880F991FFC01E25BFC4FA59134
:1029A000B491FC01EC5CFC4F859194918FB7F89445
:1029B000EC91E22BEC938FBF08958F929F92AF9290
:1029C000BF92CF92DF92EF92FF920F931F93CF931C
:1029D000DF93CDB7DEB7A1970FB6F894DEBF0FBE79
:1029E000CDBF6C01990FEE08FF08F7FE32C0E091F1
:1029F000DA0DF091DB0D0190F081E02D6DE28AEDB2
:102A00009DE019958C0122273327A9012C193D0936
:102A10004E095F0919A2CE0181967C019AE0892EA8
:102A2000912CA12CB12CCA01B901A50194010E94DD
:102A3000481F605DF70162937F0121153105410553
:102A4000510589F7BF018AED9DE034D2080F191FA7
:102A50001FC0A701960119A28E010F5D1F4F8AE0CA
:102A6000C82ED12CE12CF12CCA01B901A701960185
:102A70000E94481F605DF80162938F0121153105A6
:102A80004105510589F7BF018AED9DE013D28C0104
:102A900065E774E08AED9DE00DD2800F911FA1964D
:102AA0000FB6F894DEBF0FBECDBFDF91CF911F915F
:102AB0000F91FF90EF90DF90CF90BF90AF909F90DD
:102AC0008F9008950F931F93CF938C01E62FF0E022
:102AD000CF0105968F3F910509F040F5C62F209351
:102AE000B3104093B2101092B410D801A55EBD4F40
:102AF0008C9191E0980F9C938093B5101092B61032
:102B0000AF016AED7CE087EB90E10E949020D80154
:102B1000ED91FC9145E04C0F0680F781E02D62EBD2
:102B200070E1C801CF911F910F91199481E0CF916D
:102B30001F910F910895CF93DF93EC01C35EDD4F9A
:102B4000E0E0F0E0DE012881261309C09F01220F9A
:102B5000331FE20FF31F9C012E0F3F1F15C031964C
:102B60002396EA30F10579F7EC01C15EDD4FFE01F5
:102B700020E030E05081511111C0F901EE0FFF1F2C
:102B80002E0F3F1F280F391FF901E35EFD4F6083B1
:102B900031964083319682E0808323C02F5F3F4F80
:102BA00033962A30310531F7FC01E05EFD4F2BE111
:102BB00001900D922A95E1F7FC01E65CFD4F108231
:102BC0009C01235C3D4F82E09881911106C0FE017B
:102BD000329760833196408388832396C217D30748
:102BE00099F7DF91CF9108953F924F925F926F9244
:102BF0007F928F929F92AF92BF92CF92DF92EF928D
:102C0000FF920F931F93CF93DF93EC015B014A0177
:102C100039016C0185EFC81A8EEFD80AF601808160
:102C2000811106C08C81813019F0CE010E943705D8
:102C3000F6018081882309F4A1C08081811106C03A
:102C40008C81813019F0CE010E943705F601C080D9
:102C5000CC2009F493C05FB6F8948B858F3F11F0B8
:102C6000DB8402C0DD24DA944D2D50E0BE01645FA8
:102C70007F4F82EB90E10E949020CE010E948D0454
:102C80005FBECE010E942B06482E67E4CE010E9453
:102C90000006382E69E4CE010E940006582E6AE430
:102CA000CE010E94000687FD69C0FFEF3F1629F0A4
:102CB000442D652DCE010E94AA05FE01E40DF11DF3
:102CC000E55EFE4F8081581609F458C05082E881B5
:102CD000F9810480F581E02D4D2D62EB70E1CE018C
:102CE00019958091B210FE01EC5EFE4F908189171C
:102CF00011F08F3F69F58114910421F08091B31098
:102D0000F40180836114710421F08091B210F30109
:102D100080830115110521F08091B510F8018083A1
:102D2000E114F10421F08091B610F70180838BEF5C
:102D30008D0DF5019081891708F48083F50140819C
:102D400050E067EB70E18AED9CE00E94902017C094
:102D50008091B41091E0980F9093B410FE01E45E5E
:102D6000FD4F9081891750F4E881F9810680F78141
:102D7000E02D4D2D62EB70E1CE011995C12C8C2D0B
:102D8000DF91CF911F910F91FF90EF90DF90CF9047
:102D9000BF90AF909F908F907F906F905F904F907B
:102DA0003F900895EF92FF920F931F93CF93DF937D
:102DB000EC01198218821B821A821D821C82611505
:102DC0007105A1F17B01FB0101900020E9F731972A
:102DD0008F01061B170BB8016F5F7F4F80E090E0FB
:102DE0000E94A81F009759F0998388831B830A8348
:102DF0002C813D81232B79F4FC0110820CC0888149
:102E00009981009709F0E5D6198218821D821C82EB
:102E10001B821A820BC01D830C83B701DF91CF91F7
:102E20001F910F91FF90EF900C94A220DF91CF9112
:102E30001F910F91FF90EF9008950F931F93CF93E1
:102E4000DF93EC0137D08C0165E774E0CE0132D01E
:102E5000800F911FDF91CF911F910F910895CF9215
:102E6000DF92EF92FF920F931F93CF93DF936C014A
:102E70007A018B01C0E0D0E0CE15DF0589F0D801E2
:102E80006D918D01D601ED91FC910190F081E02DC5
:102E9000C6011995892B11F47E0102C02196ECCF51
:102EA000C701DF91CF911F910F91FF90EF90DF90BD
:102EB000CF9008956115710579F0FB010190002014
:102EC000E9F73197AF01461B570BDC01ED91FC91FF
:102ED0000280F381E02D199480E090E00895CF9373
:102EE000DF93CDB7DEB7E2970FB6F894DEBF0FBE23
:102EF000CDBF789484B5826084BD84B5816084BD83
:102F000085B5826085BD85B5816085BD80916E0087
:102F1000816080936E0010928100809181008260B8
:102F200080938100809181008160809381008091F5
:102F300080008160809380008091B10084608093E4
:102F4000B1008091B00081608093B00080919100C9
:102F500082608093910080919100816080939100C4
:102F6000809190008160809390008091A1008260A8
:102F70008093A1008091A10081608093A100809145
:102F8000A00081608093A0008091210182608093E5
:102F90002101809121018160809321018091200194
:102FA00081608093200180917A00846080937A0010
:102FB00080917A00826080937A0080917A008160AB
:102FC00080937A0080917A00806880937A001092D2
:102FD000C100E091EA0DF091EB0D82E08083E09179
:102FE000E60DF091E70D1082E091E80DF091E90D0A
:102FF00080E180831092F20DE091EE0DF091EF0DE3
:1030000086E08083E091EC0DF091ED0D8081806190
:103010008083E091EC0DF091ED0D808188608083DC
:10302000E091EC0DF091ED0D808180688083E0915E
:10303000EC0DF091ED0D80818F7D808364EF71E068
:1030400080E090E00E94890B84E098DC60E084E0FE
:103050000E940C0B64E670E080E090E00E94890B17
:1030600060E170E080E090E00E94890B07E71EE0DD
:1030700080917D0E83DC61E080917D0E0E940C0BBF
:103080008091790E90917A0EDC01ED91FC91068091
:10309000F781E02D19958091790E90917A0EDC01DF
:1030A000ED91FC910484F585E02D60E01995809107
:1030B000790E90917A0EDC01ED91FC910284F385FA
:1030C000E02D61E019958091790E90917A0EDC01E6
:1030D000ED91FC910684F785E02D61E0199564E699
:1030E00070E080E090E00E94890B40E867E0C80152
:1030F0000E94FF0461E070E080E090E00E94890B94
:1031000060E0C8010E94000680937F0E87508230E5
:1031100030F068E273E08AED9DE08FDEA1CF809110
:103120007E0E811112C010937B0400937A0487E70E
:1031300099E0909301028093000280916A008C7F55
:10314000826080936A00EC9A27C0813091F41093DA
:103150007D0400937C048FE699E0909303028093B2
:10316000020280916A00837F886080936A00ED9AF2
:1031700013C0823071F610937F0400937E0487E6BB
:1031800099E09093050280930402809169008C7FFE
:10319000826080936900E89A8FB7F8941092820E4B
:1031A0001092830F8FBF87E79EE00E948D0444E05A
:1031B0006DE787E79EE00E94FF0447E36EE787E73D
:1031C0009EE00E94FF044091800E43704C6860E3D3
:1031D00087E79EE00E94FF0448E862E387E79EE0FD
:1031E0000E94FF0442E463E387E79EE00E94FF043D
:1031F00048E064E387E79EE00E94FF048DE28B8B4A
:1032000084ED8C8B22E0AE014D5E5F4F66E387E775
:103210009EE00E9496044FEF63E487E79EE00E94E1
:10322000FF0440E06FE387E79EE00E94FF0440E078
:103230006AE387E79EE00E94FF0440E06BE387E7D4
:103240009EE00E94FF0440E06CE387E79EE00E945E
:10325000FF0440E06DE387E79EE00E94FF0442E147
:103260006BE087E79EE00E94FF0445E16CE087E7A2
:103270009EE00E94FF0447EB65E087E79EE00E9426
:10328000FF0440E466E087E79EE00E94FF0440E020
:1032900063E787E79EE00E94FF0440E064E787E77A
:1032A0009EE00E94FF0443E565E787E79EE00E94F9
:1032B000FF0444E666E787E79EE00E94FF0440E0E3
:1032C00067E787E79EE00E94FF0440E56AE287E740
:1032D0009EE00E94FF0462E087E79EE00E940006F5
:1032E00042E150E06EE371E0CE0101965FD5BE0190
:1032F0006F5F7F4F87E79EE00E94D20543E06DE657
:1033000087E79EE00E94FF0440918B0F6FE387E701
:103310009EE00E94FF0440918B0F6BE387E79EE0E5
:103320000E94FF048EE18093931069E373E08AEDBD
:103330009DE083DD47E06DE687E79EE00E94FF04A5
:1033400081E08093910F8CE291E09093900F8093B5
:103350008F0FE0E5F2E0FCA7EBA7212C312C612CCC
:10336000712C46EC5AE05AA349A38CEB9AE09CA33B
:103370008BA3A2EBBAE0BAA7A9A7E8EAFAE0FEA3FA
:10338000EDA39F01CD016CEB7AE0FA01119211924D
:10339000DB011D921D92BD01DC011D921D92CD012C
:1033A000D9011D921D929D01BAE0E03DFB0771F726
:1033B000EBA5FCA581919191FCA7EBA78C31910520
:1033C00008F027C222E1289FB001299F700D112427
:1033D000685F7E4F42E150E0CE010196E7D4BE0126
:1033E0006F5F7F4F87E79EE00E94D205ABE4B2E0BB
:1033F000B8A7AFA39CEB892E9AE0992EE2EBFAE0F6
:10340000F8A3EF8F26ECA22E2AE0B22E38EAC32EC4
:103410003AE0D32E412C512CD6012D913C912436EB
:103420003105F4F0EAE0F0E0C901BF0162D5B0E394
:10343000B80FBE8FA901481B590BCA01BF0159D54E
:103440009B01CB01BF0155D550E3580F5D8FD901CA
:10345000A81BB90BCD01BF014CD5605D6C8F1DC0A1
:103460002A3031059CF0EAE0F0E0C901BF0141D506
:10347000B0E3B80FBE8FA901481B590BCA01BF01A9
:1034800038D5605D6D8F50E35C8F07C080E3820F9D
:103490008E8F90E39D8FA0E3AC8F80E380932D020D
:1034A000BC8DB0932E02ED8DE0932F02FE8DF09334
:1034B00030022DED3CE029AB4114510409F0EBC082
:1034C000D4018D919C91119701968D939C93EFA1BE
:1034D000F8A5408127E73EE080E090E0F901E35E57
:1034E000FD4F508154130EC032965081552351F038
:1034F0009C01220F331F820F931F8C569F4E892BE6
:10350000C1F406C001962D5F3F4F8A30910531F717
:10351000642F87E79EE04AAB0E9420084AA98111E8
:1035200008C0D5018D919C91119701968D939C9324
:103530002AC01092DA0C82E1EDE2F2E0ABEDBCE0E1
:1035400001900D928A95E1F720918B0F63E187E757
:103550009EE0B8DA8111E5CF0E94C10B6DA77EA76E
:103560008FA798AB0E94C10BDC01CB012DA53EA516
:103570004FA558A9821B930BA40BB50B8C3291401D
:10358000A105B10518F000E010E078C0BAEFBB8FDC
:10359000FE0131967F018E010D5E1F4F9E01275E59
:1035A0003F4FAE01465E5F4FBE01655E7F4F87E7CE
:1035B0009EE01ADB182F8823A9F29B8D992309F42A
:1035C0002EC18091DA0C81112AC18A8D8093A809BD
:1035D000915080912C02981710F490932C024091F6
:1035E0002C0250E06BED7CE089EA99E099D511233B
:1035F00009F4B8CF69EA79E0CE014396D3DB80E3E2
:10360000809310022C8D209311023D8D3093120275
:103610004E8D4093130260E172E0CE010196C2DB51
:103620002F89388D8D819E8128173907B9F48B89B0
:103630009C8969817A81009709F050C161157105F3
:1036400009F450C1232B09F457C1DB018C9190E0A0
:10365000919581959109892B09F44EC1AF8DB8A13F
:103660008D919C91119701968D939C9300E010E0B1
:1036700089819A81AED28B899C89ABD28AED9DE0FB
:103680000E948E098336910519F444244394512CE9
:10369000012B09F411CF22E0C20ED11C32E0A30E9F
:1036A000B11C4F8D58A14E5F5F4F58A34F8F52E012
:1036B000850E911C8FA198A5019698A78FA392EBD8
:1036C000C9169AE0D90609F0A7CE452809F48ECE8E
:1036D00065E773E08AED9DE0EDDBFFEF6F1A7F0A8F
:1036E000C3016BD9A12CB12CE12CF12C84E6582E0E
:1036F000ADA1BEA1CD90DC908501020D131DF80196
:10370000E051F84F4F01ABA1BCA16D917C91C60176
:10371000F0D3CB01589EB001599E700D1124072E95
:10372000000C880B990B4DD3F40160837183828365
:1037300093839801285C394F4901B601DD0C880B51
:10374000990B3FD3D4016D937D938D939C931397E5
:1037500000581B4FE9A1FAA160817181072E000C6E
:10376000880B990B2ED3D8016D937D938D939C93E9
:10377000139765E873E08AED9DE09CDBC7011DD9D6
:103780006FE873E08AED9DE095DBEBA1FCA18191F0
:103790009191FCA3EBA311D96DEB73E08AED9DE051
:1037A00089DBA9A1BAA18D919D91BAA3A9A305D93D
:1037B0006EEE73E08AED9DE07DDBEDA1FEA18191CF
:1037C0009191FEA3EDA3F9D865E274E08AED9DE046
:1037D00071DBA9A5BAA58D919D91BAA7A9A7EDD82E
:1037E000BFEFEB1AFB0AE4E0AE0EB11CF5E0EF16FA
:1037F000F10409F07DCF24E1220E311C36E163167D
:10380000710409F0AECD63E574E08AED9DE015DB4F
:10381000FFCF65E574E08AED9DE00FDBFFCF898D7A
:103820008F3F09F09FCE923008F49CCE8091DA0C45
:10383000813009F097CE80918B0F2A8D281709F4DB
:1038400091CE1DEF190F6DEDE62E6CE0F62EF7010F
:103850009E2F2DED3CE0921B911720F4919198132F
:10386000F7CF80CE87E79EE00E942B06482F6A8D17
:1038700087E79EE060D98E2DB9A98B1B811748F48C
:1038800087E79EE00E942B06D7016D917D01482FAE
:10389000EFCF8091DB0C813079F42091DC0C8091AA
:1038A0008B0F281309C0F2E0F093DA0C4A8D6B8D70
:1038B00087E79EE007D956CE80919310181708F03D
:1038C00051CEE12FF0E0E652F34F80918B0F8383CE
:1038D0006B8D6F5F6B8F2A8D4FEFEACF611571058E
:1038E00049F4ACCE009741F0232B31F0FC018081EC
:1038F00090E0B1CE1ED4AFCEF601808191810196C9
:1039000091838083883E93407CF06BE473E08AED82
:103910009DE093DA8AED9DE00E948E098336910541
:10392000C9F744244394512C66E287E79EE00E9445
:10393000000601E010E09CCE1092DD0D1092DC0D2F
:1039400088EE93E0A0E0B0E08093DE0D9093DF0D71
:10395000A093E00DB093E10D84E992E09093DB0D2C
:103960008093DA0D85EC90E09093E70D8093E60D5F
:1039700084EC90E09093E90D8093E80D80EC90E06A
:103980009093EB0D8093EA0D81EC90E09093ED0D18
:103990008093EC0D82EC90E09093EF0D8093EE0D10
:1039A00086EC90E09093F10D8093F00D1092F30D62
:1039B0001092F40D1092F50D1092F60D1092B411B4
:1039C0001092B31186EA92E09093B2118093B111F4
:1039D00085E380937D0E10927E0E81E080937C0EB5
:1039E00010927B0E1092870F1092860F1092850F07
:1039F0001092840F1092890F1092880F8FE392E03B
:103A000090937A0E8093790E81E090E09093810EEE
:103A10008093800E10928B0F10928D0F10928C0F4E
:103A200010928E0F88EC90E09093900F80938F0F00
:103A300083E08093910F8EE18093931080E090E07B
:103A4000FC01EA56FF4E108203968E319105C1F7B4
:103A500084EC92E09093780E8093770E89E18093C6
:103A6000E9111092EC1110920012109207121092AC
:103A700009121092C1111092C3111092B811109234
:103A8000B71188EE93E0A0E0B0E08093B911909375
:103A9000BA11A093BB11B093BC1182EB92E090934A
:103AA000B6118093B5110895CF93DF9382309105BD
:103AB00010F482E090E0E0912312F091241220E0D3
:103AC00030E0C0E0D0E0309711F1408151814817DB
:103AD0005907C0F04817590761F4828193812097F4
:103AE00019F09B838A832BC0909324128093231216
:103AF00026C02115310519F04217530718F49A0111
:103B0000BE01DF01EF010280F381E02DDCCF211542
:103B1000310509F1281B390B2430310590F4129638
:103B20008D919C9113976115710521F0FB01938391
:103B3000828304C09093241280932312FD01329655
:103B400044C0FD01E20FF31F81939193225031098C
:103B50002D933C933AC02091211230912212232BB5
:103B600041F4209143023091440230932212209379
:103B7000211220914102309142022115310541F478
:103B80002DB73EB74091450250914602241B350B9C
:103B9000E0912112F0912212E217F307A0F42E1BFC
:103BA0003F0B2817390778F0AC014E5F5F4F2417A1
:103BB000350748F04E0F5F1F509322124093211299
:103BC0008193919302C0E0E0F0E0CF01DF91CF91CB
:103BD00008950F931F93CF93DF93009709F48CC040
:103BE000FC01329713821282009123121091241249
:103BF0000115110581F420813181820F931F2091DD
:103C00002112309122122817390779F5F0932212E8
:103C1000E093211271C0D80140E050E0AE17BF0719
:103C200050F412962D913C911397AD012115310559
:103C300009F1D901F3CF9D01DA0133832283608139
:103C40007181860F971F8217930769F4EC01288111
:103C50003981260F371F2E5F3F4F318320838A81A2
:103C60009B8193838283452B29F4F0932412E09364
:103C7000231242C01396FC93EE931297ED014991E3
:103C800059919E01240F351FE217F30771F48081CB
:103C90009181840F951F029611969C938E93828139
:103CA000938113969C938E931297E0E0F0E0D801F5
:103CB00012968D919C911397009719F0F8018C0141
:103CC000F6CF8D919C9198012E5F3F4F820F931FED
:103CD00020912112309122122817390769F4309768
:103CE00029F4109224121092231202C0138212821D
:103CF0001093221200932112DF91CF911F910F9107
:103D000008958F929F92AF92BF92CF92DF92EF92DF
:103D1000FF92CF93DF93EC01688179818A819B8147
:103D2000611571058105910521F464E279ED8BE55A
:103D300097E02DE133EF41E050E07ED049015A0198
:103D40009B01AC01A7EAB1E493D06B017C01ACEE1E
:103D5000B4EFA501940198D0DC01CB018C0D9D1D21
:103D6000AE1DBF1DB7FF03C00197A109B0488883EE
:103D70009983AA83BB83BC01CD019F77DF91CF914B
:103D8000FF90EF90DF90CF90BF90AF909F908F907B
:103D90000895B7CF87E492E0B4CF60934702709361
:103DA00048028093490290934A020895FB01DC0186
:103DB00002C005900D9241505040D8F70895E89404
:103DC00009C097FB3EF490958095709561957F4F63
:103DD0008F4F9F4F9923A9F0F92F96E9BB27939511
:103DE000F695879577956795B795F111F8CFFAF421
:103DF000BB0F11F460FF1BC06F5F7F4F8F4F9F4F52
:103E000016C0882311F096E911C0772321F09EE8AF
:103E1000872F762F05C0662371F096E8862F70E015
:103E200060E02AF09A95660F771F881FDAF7880FEF
:103E30009695879597F90895052E97FB16F40094AB
:103E40000FD057FD05D024D007FC02D046F408C09F
:103E500050954095309521953F4F4F4F5F4F0895B6
:103E600090958095709561957F4F8F4F9F4F0895E6
:103E700031D0A59F900DB49F900DA49F800D911DF2
:103E800011240895B7FFF4CFF3DF821B930B08953D
:103E9000A1E21A2EAA1BBB1BFD010DC0AA1FBB1F4E
:103EA000EE1FFF1FA217B307E407F50720F0A21BC0
:103EB000B30BE40BF50B661F771F881F991F1A942D
:103EC00069F760957095809590959B01AC01BD0157
:103ED000CF010895A29FB001B39FC001A39F700DB1
:103EE000811D1124911DB29F700D811D1124911D02
:103EF000089597FB072E16F4009406D077FD08D09E
:103F000013D007FC05D03EF4909581959F4F0895FE
:103F1000709561957F4F0895EE0FFF1F881F8BBF2F
:103F20000790F691E02D1994AA1BBB1B51E107C025
:103F3000AA1FBB1FA617B70710F0A61BB70B881F39
:103F4000991F5A95A9F780959095BC01CD010895C8
:103F50006F927F928F929F92AF92BF92CF92DF9299
:103F6000EF92FF920F931F93CF93DF93EC01009793
:103F700081F4CB01DF91CF911F910F91FF90EF90D2
:103F8000DF90CF90BF90AF909F908F907F906F9079
:103F90008BCDFC01E60FF71F9C0122503109E2177F
:103FA000F30708F4A8C0D9010D911C9111970617C9
:103FB0001707A8F00530110508F49BC0C801049745
:103FC0008617970708F495C002501109061B170BB6
:103FD000019311936D937C93CF01FBDD8AC05B014C
:103FE000A01AB10A4C01800E911EA0912312B0912B
:103FF000241240E050E0E12CF12C109709F44AC063
:10400000A815B905D1F56D907C901197630182E0F8
:10401000C80ED11CCA14DB0480F1A3014A195B0944
:104020006A0182E0C80ED11C1296BC9012971396BA
:10403000AC91B5E0CB16D10440F0B282A38351839A
:104040004083D9016D937C930AC00E5F1F4FC3015B
:10405000800F911FF90191838083EB2DFA2FE114DA
:10406000F10431F0D7011396FC93EE93129741C0FF
:10407000F0932412E09323123CC08D919C911197F0
:104080004817590708F4AC017D0112960D90BC91B8
:10409000A02DB3CF809121129091221288159905FD
:1040A000E1F446175707C8F480914102909142020B
:1040B000009741F48DB79EB740914502509146025A
:1040C000841B950BE817F907B0F4F0932212E093E4
:1040D0002112F901718360830CC0CB01E5DC7C0106
:1040E000009749F0A801BE011BD0CE0172DDC701C7
:1040F00004C0CE0102C080E090E0DF91CF911F911B
:104100000F91FF90EF90DF90CF90BF90AF909F9076
:104110008F907F906F90089581E090E0F89419C09F
:10412000FB01DC0102C001900D9241505040D8F7D4
:104130000895FB01DC018D91019080190110D9F3E4
:10414000990B0895FB01DC0101900D920020E1F72D
:064150000895F894FFCF72
:10415600AA0AAA0AAA0AAA0AAA0AAA0AAA0AAA0AB9
:10416600303030303A20416E642068656C6C6F20C8
:104176006261636B20746F20796F7500FF30303099
:10418600303A2048656C6C6F20576F726C64008003
:104196000200002512800001000000010203040550
:1041A60002000300040005000600070008000900DD
:1041B6000C000D000E000F00100011000800090091
:1041C600150016001700180019001A00000000005C
:1041D60081027D0279022B0365025D0258024902C3
:1041E60000000000E6092F177F092C0AB0098E0986
:1041F600A209000000002D022F17A102A002000054
:10420600000060035D03A102D103880279038F03D6
:104216000000000048024702D4076D0720083B0251
:10422600547279696E6720746F2064656C6976656F
:1042360072206D65737361676520746F206E657893
:104246007420726F757465004D65737361676520C0
:1042560064656C6976657279206661696C004E6F7B
:1042660020726F75746520746F2073656E64206D9F
:1042760065737361676520007266323220696E6904
:1042860074206661696C6564007266323220696EFC
:104296006974207375636365737300776169746904
:1042A6006E6720746F20636F6E74696E7565207417
:1042B6006F206E657874206D6F64756C6174696FBC
:1042C6006E2E2E2E00466F72206D6F64756C6174B3
:1042D600696F6E2000466F72206E6F646520005411
:1042E600686520746F74616C206E756D62657220EE
:1042F6006F6620617474656D707465642074726194
:104306006E736D697373696F6E733A2000546865D6
:10431600206E756D626572206F66206661696C65D8
:1043260064207472616E736D697373696F6E732046
:10433600776974686F75742061636B3A20005468FE
:1043460065206E756D626572206F66207375636594
:10435600737366756C20726563657074696F6E73CE
:1043660020616E64207472616E736D697373696F18
:104376006E733A2000546865206E756D6265722012
:104386006F6620696E636F72726563746C792072F2
:1043960065636965766564206D65737361676573CA
:1043A6003A20002A004552524F523A207365744D06
:1043B6006F64656D436F6E666967206661696C65DB
:0843C6006420342E000D0A00F2
:00000001FF
