:1000000007C1000063C6000036C6000009C6000034
:10001000DCC50000AFC5000082C5000055C500006A
:1000200028C5000026C1000024C1000022C1000034
:1000300020C100001EC100001CC100001AC1000048
:1000400018C1000016C1000014C1000012C1000058
:1000500010C100000EC100000CC10000C0C40000AF
:1000600008C10000D5C30000AAC3000002C10000FF
:1000700000C10000FEC00000FCC00000FAC000008B
:10008000F8C00000F6C00000F4C00000F2C000009C
:100090006DC3000042C30000ECC0000049C6000070
:1000A000E8C00000E6C00000E4C00000E2C00000BC
:1000B000E0C00000DEC00000DCC00000DAC00000CC
:1000C000D8C00000D6C00000D4C00000FDC20000AF
:1000D000D2C20000CEC00000CCC00000CAC00000E8
:1000E000C8C0000060046304520456045A049A0411
:1000F00067046B047104750479047F048304870426
:100100009A048D049104950400000A0B02090C0D59
:100110000E080703040100000000000000000000BA
:1001200000000000000000000000000000000000CF
:10013000000000001211100000000000000000008C
:1001400000000000000000000000000000000000AF
:100150002200250028002B002E003100340002016F
:100160000000050108010B01000021002400270008
:100170002A002D00300033000101000004010701B6
:100180000A0105050505070508080808020202021C
:100190000A0A080804040404010101010101010123
:1001A0000303030303030303040707070C0C0C0CEE
:1001B0000C0C0C0C020202020606060606060606D7
:1001C0000B0B0B0B0B0B0B0B010210202008081064
:1001D00020401020408002010201080402010102B7
:1001E0000408102040808040201008040201800490
:1001F00002018040201008040201080402010102EB
:100200000408102040800102040810204080FE0DE8
:1002100011241FBECFEFD1E2DEBFCDBF00E00CBF87
:1002200012E0A0E0B2E0EEEAF1E200E00BBF02C0B3
:1002300007900D92AE39B107D9F725E0AEE9B2E0EB
:1002400001C01D92A138B207E1F711E0C8E0D1E08A
:1002500000E006C021970109802FFE010E948D0E4B
:10026000C730D10780E00807A9F70E942B0B0C9438
:10027000D510C6CECF92DF92EF92FF920F931F93CD
:10028000CF93DF936C017A018B01C0E0D0E0CE15F3
:10029000DF0589F0D8016D918D01D601ED91FC91BA
:1002A0000190F081E02DC6011995892B11F47E0192
:1002B00002C02196ECCFC701DF91CF911F910F9122
:1002C000FF90EF90DF90CF9008958091EF0290E043
:1002D0002091F002821B91090895FC01A089B18947
:1002E0008C91A689B78982FD0FC09C91818D8F5F0B
:1002F0008F73228D821749F0218DDF01A20FB11D6E
:100300005D969C93818F08958C910895FC01918D49
:10031000828D981761F0828DDF01A80FB11D5D9667
:100320008C91928D9F5F9F73928F90E008958FEFD5
:100330009FEF0895FC01918D828D981731F0828D89
:10034000E80FF11D858D90E008958FEF9FEF0895E0
:10035000FC01918D228D892F90E0805C9F4F821B44
:1003600091098F73992708958CE593E0F1DF21E0DF
:10037000892B09F420E0822F089589EF93E0E8DFCC
:1003800021E0892B09F420E0822F089586E994E08A
:10039000DFDF21E0892B09F420E0822F0895FC01A2
:1003A000848DDF01A80FB11DA35ABF4F2C91848DFE
:1003B00090E001968F739927848FA689B7892C9333
:1003C000A089B1898C9180648C93938D848D9813CE
:1003D00006C00288F389E02D80818F7D8083089597
:1003E000EF92FF920F931F93CF93DF93EC0181E085
:1003F000888F9B8D8C8D981305C0E889F989808141
:1004000085FD23C0F62E0B8D10E00F5F1F4F0F737D
:100410001127E02E8C8DE8120BC00FB607FCFACF27
:10042000E889F989808185FFF5CFCE01B8DFF2CF69
:100430008B8DFE01E80FF11DE35AFF4FF0820B8F09
:10044000EA89FB898081806207C0EE89FF89608329
:10045000E889F98980818064808381E090E0DF9180
:10046000CF911F910F91FF90EF900895CF93DF935D
:10047000EC01888D8823C1F0EA89FB89808185FDA4
:1004800005C0A889B9898C9186FD0EC00FB607FCFE
:10049000F5CF808185FFF2CFA889B9898C9185FF3E
:1004A000EDCFCE017CDFE8CFDF91CF91089580E0E2
:1004B00090E0892B19F06ADF81111BC080E090E089
:1004C000892B19F05ADF811117C080E090E0892B49
:1004D00019F04ADF811113C080E090E0892BA1F070
:1004E00080E090E0892B81F00E94000081110AC019
:1004F00008950E940000E2CF0E940000E6CF0E9413
:100500000000EACF0C9400000895089585ED8093D3
:10051000BC008091BC0084FDFCCF1092370308958D
:100520004091C002262F30E0240F311D21323105C9
:10053000DCF4209137032430C9F4FC0180E090E022
:10054000861758F43091C0022191DC01A256BD4FAC
:10055000A30FB11D2C930196F3CF8091C002680FB9
:100560006093C00280E0089581E0089582E00895DC
:100570000895E091F0028091EF02E81730F4F0E086
:10058000EF50FD4F808190E008958FEF9FEF089529
:100590009091F0028091EF02981750F4E92FF0E06B
:1005A000EF50FD4F208130E09F5F9093F00202C03A
:1005B0002FEF3FEFC9010895CF92DF92EF92FF92A4
:1005C0000F931F93CF93DF937C01262F972F8A01E0
:1005D00080913803882391F0C62FD72F6E01C40E67
:1005E000D51ECC15DD0569F06991D701ED91FC911F
:1005F0000190F081E02DC7011995F3CF642F822F70
:100600008FDFC801DF91CF911F910F91FF90EF9085
:10061000DF90CF900895CF93DF931F92CDB7DEB7D1
:100620006983209138032223D1F020915B0320328B
:1006300040F021E030E0FC013383228380E090E051
:1006400014C080913903E82FF0E0E65CFC4F9981FB
:1006500090838F5F8093390380935B0304C061E0D4
:10066000CE0101965DDF81E090E00F90DF91CF91A8
:1006700008950E94960F1F920F920FB60F921124A9
:100680000BB60F922F933F934F935F936F937F938C
:100690008F939F93AF93BF93EF93FF938CE593E07A
:1006A0007EDEFF91EF91BF91AF919F918F917F91EE
:1006B0006F915F914F913F912F910F900BBE0F90D3
:1006C0000FBE0F901F9018951F920F920FB60F92AA
:1006D00011240BB60F922F933F934F935F936F9319
:1006E0007F938F939F93AF93BF93EF93FF938CE58B
:1006F00093E0F3DDFF91EF91BF91AF919F918F91C7
:100700007F916F915F914F913F912F910F900BBE11
:100710000F900FBE0F901F9018951F920F920FB65B
:100720000F9211240BB60F922F933F934F935F9329
:100730006F937F938F939F93AF93BF93EF93FF93A9
:1007400089EF93E02CDEFF91EF91BF91AF919F91E4
:100750008F917F916F915F914F913F912F910F906A
:100760000BBE0F900FBE0F901F9018951F920F9207
:100770000FB60F9211240BB60F922F933F934F9306
:100780005F936F937F938F939F93AF93BF93EF93F9
:10079000FF9389EF93E0A1DDFF91EF91BF91AF91BE
:1007A0009F918F917F916F915F914F913F912F9189
:1007B0000F900BBE0F900FBE0F901F9018951F92B9
:1007C0000F920FB60F9211240BB60F922F933F93F7
:1007D0004F935F936F937F938F939F93AF93BF9349
:1007E000EF93FF9386E994E0DADDFF91EF91BF91FB
:1007F000AF919F918F917F916F915F914F913F91B9
:100800002F910F900BBE0F900FBE0F901F90189559
:100810001F920F920FB60F9211240BB60F922F93C7
:100820003F934F935F936F937F938F939F93AF9378
:10083000BF93EF93FF9386E994E04FDDFF91EF9133
:10084000BF91AF919F918F917F916F915F914F91E8
:100850003F912F910F900BBE0F900FBE0F901F90E6
:100860001895362F90E0FC01E85FFE4F4491FC01A3
:10087000E853FE4F2491FC01EE57FE4F94919923CB
:1008800009F46BC0442309F455C050E0FA013197D4
:10089000E231F10508F04EC08827EE58FF4F8F4F28
:1008A0000C948D0E809180008F7707C0809180001E
:1008B0008F7D03C080918000877F809380003AC045
:1008C00084B58F7702C084B58F7D84BD33C080919D
:1008D000B0008F7703C08091B0008F7D8093B0000F
:1008E00029C0809190008F7707C0809190008F7D04
:1008F00003C080919000877F809390001BC08091FF
:10090000A0008F7707C08091A0008F7D03C08091E9
:10091000A000877F8093A0000DC0809120018F7779
:1009200007C0809120018F7D03C080912001877FC7
:1009300080932001E92FF0E0EE0FFF1FE25BFE4FF6
:10094000A591B4918FB7F894EC91311103C0209523
:100950002E2301C02E2B2C938FBF089510923703A6
:1009600081E0809336031092110361E084E179DF26
:1009700061E085E176DFE9EBF0E080818E7F8083C6
:1009800080818D7F808388E48093B80085E48093A4
:10099000BC0008953FB7F8948091EA029091EB0271
:1009A000A091EC02B091ED0226B5A89B05C02F3FA7
:1009B00019F00196A11DB11D3FBFBA2FA92F982F85
:1009C0008827820F911DA11DB11DBC01CD0142E000
:1009D000660F771F881F991F4A95D1F708951F92B8
:1009E0000F920FB60F9211242F933F938F939F93E3
:1009F000AF93BF938091E6029091E702A091E80245
:100A0000B091E9023091E50223E0230F2D3720F465
:100A10000196A11DB11D05C026E8230F0296A11D58
:100A2000B11D2093E5028093E6029093E702A09324
:100A3000E802B093E9028091EA029091EB02A09162
:100A4000EC02B091ED020196A11DB11D8093EA0266
:100A50009093EB02A093EC02B093ED02BF91AF91A3
:100A60009F918F913F912F910F900FBE0F901F90EC
:100A700018951F920F920FB60F9211240BB60F927A
:100A80002F933F934F935F936F937F938F939F9396
:100A9000AF93BF93EF93FF93E0910E02F0910F029B
:100AA0001995FF91EF91BF91AF919F918F917F9198
:100AB0006F915F914F913F912F910F900BBE0F90CF
:100AC0000FBE0F901F9018951F920F920FB60F92A6
:100AD00011240BB60F922F933F934F935F936F9315
:100AE0007F938F939F93AF93BF93EF93FF93E09187
:100AF0000C02F0910D021995FF91EF91BF91AF910A
:100B00009F918F917F916F915F914F913F912F9125
:100B10000F900BBE0F900FBE0F901F9018951F9255
:100B20000F920FB60F9211240BB60F922F933F9393
:100B30004F935F936F937F938F939F93AF93BF93E5
:100B4000EF93FF93E0910202F09103021995FF9158
:100B5000EF91BF91AF919F918F917F916F915F9135
:100B60004F913F912F910F900BBE0F900FBE0F90A2
:100B70001F9018951F920F920FB60F9211240BB66B
:100B80000F922F933F934F935F936F937F938F9326
:100B90009F93AF93BF93EF93FF93E0910002F09187
:100BA00001021995FF91EF91BF91AF919F918F91A4
:100BB0007F916F915F914F913F912F910F900BBE5D
:100BC0000F900FBE0F901F9018951F920F920FB6A7
:100BD0000F9211240BB60F922F933F934F935F9375
:100BE0006F937F938F939F93AF93BF93EF93FF93F5
:100BF000E0910A02F0910B021995FF91EF91BF91DC
:100C0000AF919F918F917F916F915F914F913F91A4
:100C10002F910F900BBE0F900FBE0F901F90189545
:100C20001F920F920FB60F9211240BB60F922F93B3
:100C30003F934F935F936F937F938F939F93AF9364
:100C4000BF93EF93FF93E0910802F0910902199589
:100C5000FF91EF91BF91AF919F918F917F916F9194
:100C60005F914F913F912F910F900BBE0F900FBE50
:100C70000F901F9018951F920F920FB60F9211248C
:100C80000BB60F922F933F934F935F936F937F9386
:100C90008F939F93AF93BF93EF93FF93E0910602DF
:100CA000F09107021995FF91EF91BF91AF919F913C
:100CB0008F917F916F915F914F913F912F910F9005
:100CC0000BBE0F900FBE0F901F9018951F920F92A2
:100CD0000FB60F9211240BB60F922F933F934F93A1
:100CE0005F936F937F938F939F93AF93BF93EF9394
:100CF000FF93E0910402F09105021995FF91EF91A5
:100D0000BF91AF919F918F917F916F915F914F9123
:100D10003F912F910F900BBE0F900FBE0F901F9021
:100D200018958EBD00000DB407FEFDCF8EB5089559
:100D30001F920F920FB60F9211240BB60F922F93A2
:100D40003F934F935F936F937F938F939F93AF9353
:100D5000BF93EF93FF938091B900887F803609F4A9
:100D60009CC068F5883209F45BC090F4803109F4C6
:100D700054C038F4882309F4F6C0883009F44DC013
:100D8000F5C0883109F44CC0803209F45DC0EEC072
:100D9000803409F468C048F4803309F455C08833BE
:100DA00009F0E4C080933503D8C0803509F44FC002
:100DB000883509F45DC0883409F0D8C0D6C08839B8
:100DC00009F4C7C0A8F4883709F467C038F4883636
:100DD00009F463C0803709F460C0C8C0883809F4DA
:100DE000B8C0803909F45FC0803809F0BFC05BC06B
:100DF000803B09F486C038F4803A09F466C0883A2A
:100E000009F47FC0B3C0803C09F4A7C0883C09F452
:100E1000A4C0883B09F48AC0A9C08091120310C005
:100E20009091340380913303981770F5E091340367
:100E300081E08E0F80933403F0E0ED5EFC4F808103
:100E40008093BB0085EC86C0809335038EC0E09113
:100E5000340381E08E0F809334038091BB00F0E077
:100E6000ED5EFC4F808390913403809133036EC01C
:100E7000E091340381E08E0F809334038091BB00B6
:100E8000F0E0ED5EFC4F80838091360381116DC0F0
:100E900081E08093110384EA61C083E0809337038B
:100EA0001092E402CFCF8091E402803208F051C06A
:100EB000E091E40281E08E0F8093E4028091BB0018
:100EC000F0E0EC53FD4F8083BDCF85EC8093BC00F8
:100ED000109237038091E402803230F4E091E40212
:100EE000F0E0EC53FD4F10826091E40270E0E0917D
:100EF000C202F091C30284EC92E019951092E402D0
:100F000035C084E0809337031092C1021092C00272
:100F1000E091BE02F091BF0219958091C00281114B
:100F200005C081E08093C00210929E02E091C10250
:100F300081E08E0F8093C102F0E0E256FD4F808188
:100F40008093BB009091C1028091C002981708F471
:100F500079CF85E88093BC0009C085EC8093BC0004
:100F60001092370303C010923503D0DAFF91EF914E
:100F7000BF91AF919F918F917F916F915F914F91B1
:100F80003F912F910F900BBE0F900FBE0F901F90AF
:100F90001895E6E9F4E0A089B18982E08C93A485F4
:100FA000B5851C92A685B78580E18C93108EA489A7
:100FB000B58986E08C93A289B3898C9180618C93EA
:100FC000A289B3898C9188608C93A289B3898C9112
:100FD00080688C930288F389E02D80818F7D8083E7
:100FE0000895009761F0FC0101900020E9F7319726
:100FF000AF01481B590BBC0186E994E03BC980E076
:1010000090E008958F929F92AF92BF920F931F939B
:10101000CF93DF93CDB7DEB7A1970FB6F894DEBFBD
:101020000FBECDBF19A2423008F44AE08E010F5D19
:101030001F4F842E912CA12CB12CA50194010E944C
:10104000B310E62FB901CA0101501109EA3014F4B6
:10105000E05D01C0E95CD801EC93232B242B252B08
:1010600061F7C801BEDFA1960FB6F894DEBF0FBED0
:10107000CDBFDF91CF911F910F91BF90AF909F9007
:101080008F900895CF93DF93ACDFEC0185E792E07A
:10109000A8DF8C0F9D1FDF91CF910895382F2091ED
:1010A0005B0390915A03213208F049C080913703C5
:1010B0008111FCCF42E040933703309336033FEF7A
:1010C000309335031092340320933303AAE3B3E043
:1010D00043E153E0FA013E2F341B321718F43D91DF
:1010E0003193F9CF1092120320911203990F922B92
:1010F0009093120390911103913061F410921103B7
:10110000909112039093BB009091BC0093FDF8CF97
:1011100095EC01C095EE9093BC009091370392300E
:10112000E1F3909135039F3F79F080913503803250
:1011300041F080913503803331F084E005C081E0D7
:1011400003C082E001C083E01092390310925B0378
:10115000109238030895CF93DF931F92CDB7DEB777
:1011600091E09093380380935A03109239031092C0
:101170005B0383E395E049834EDA4981642F83E37F
:1011800095E049DA81E00F90DF91CF9187CF1F93EF
:10119000CF93DF93462F20916D0530916E0521305E
:1011A000310539F4682F80916B05DF91CF911F9144
:1011B000D2CF232B91F4C62FD82F10916B0560E06E
:1011C000812F4FDB8D2F8F73ACDD8C2FAADD61E07B
:1011D000812FDF91CF911F9144CBDF91CF911F9150
:1011E0000895CF92DF92FF920F931F93CF93DF93D7
:1011F000F82ED62F6A01C22F60E033DB8D2FC2306C
:1012000028F0806C8EDD8601D0E003C08F7380688B
:10121000F9CFC8018C199D098C179D0734F480E023
:1012200080DDF80181938F01F4CF61E08F2DDF9194
:10123000CF911F910F91FF90DF90CF9012CB9091A3
:1012400037039111FCCF91E09093370390933603CD
:101250002FEF2093350310923403260F209333038E
:101260009093120390911203880F892B809312039D
:1012700080911103813061F4109211038091120367
:101280008093BB008091BC0083FDF8CF85EC01C04A
:1012900085EE8093BC00809137038130E1F380912B
:1012A0003403861710F460913403A3E1B3E021EF17
:1012B00032E0F9018E2F821B861718F48D918193ED
:1012C000F9CF862F0895CF93C82F81E080933803FC
:1012D000C0935A031092390310925B0383E395E0A5
:1012E0009AD980E0DBDE61E08C2FA9DF1092F0025A
:1012F0008093EF0283E395E04BD9CF910895CF938C
:10130000DF931F92CDB7DEB7682F80916D05909166
:101310006E058130910521F480916B05D4DF0BC0FF
:10132000892B49F421E0AE014F5F5F4F80916B053F
:1013300058DF898100C00F90DF91CF91089580918F
:101340006F05909170058130910551F082309105C3
:1013500061F0892BB1F480E090E0A5EFBBE309C018
:1013600080E090E0AAE7BCE304C080E090E0AAE758
:10137000BDE38093750590937605A0937705B093B0
:10138000780508951F93CF93DF93462F20916D0525
:1013900030916E052130310539F4682F80916C054C
:1013A000DF91CF911F91D7CE232B91F4C62FD82F49
:1013B00010916C0560E0812F54DA8D2F8F73B1DCB2
:1013C0008C2FAFDC61E0812FDF91CF911F9149CA53
:1013D000DF91CF911F910895CF93DF931F92CDB7E7
:1013E000DEB7682F80916D0590916E058130910573
:1013F00021F480916C0567DF0BC0892B49F421E053
:10140000AE014F5F5F4F80916C05EBDE898100C0BC
:101410000F90DF91CF91089590E0FC01E853FE4FCB
:101420002491FC01EE57FE4F8491882399F090E0BF
:10143000880F991FFC01E859FE4FA591B491FC015A
:10144000E25BFE4F859194918FB7F894EC91E22B7B
:10145000EC938FBF08958F929F92AF92BF92CF92DD
:10146000DF92EF92FF9296DA4B015C0184EFC82E77
:10147000DD24D394E12CF12C8DDADC01CB01881929
:101480009909AA09BB09883E9340A105B10558F006
:1014900021E0C21AD108E108F10888EE880E83E045
:1014A000981EA11CB11CC114D104E104F10421F760
:1014B000FF90EF90DF90CF90BF90AF909F908F9074
:1014C00008954F925F926F927F928F929F92AF9208
:1014D000BF92CF92DF92EF92FF926B017C01B42E0C
:1014E0009B01AC011FD5882319F081E992E024C04B
:1014F00026013701E89477F82FEF3FEF4FE75FE7DA
:10150000C301B2010FD581110CC02FEF3FEF4FE7A0
:101510005FE7C301B2010ED518161CF485E992E00D
:101520000BC02FEF3FEF4FE75FE4C701B601F6D4E2
:1015300018167CF489E992E0FF90EF90DF90CF904D
:10154000BF90AF909F908F907F906F905F904F90E3
:1015500048CD2FEF3FEF4FE75FECC701B601EAD46C
:1015600087FDE8CF20E030E0A901C701B601E2D451
:1015700087FF11C0E0919604F09197040190F081EB
:10158000E02D6DE286E994E019954C01F7FAF094AC
:10159000F7F8F09402C0812C912CA12C60E070E04F
:1015A00080E09FE3AB1439F020E030E040E251E40A
:1015B00021D4A394F7CF9B01AC01C701B601B6D3E8
:1015C0002B013C017FD46B017C01B8D49B01AC01A1
:1015D000C301B201AAD32B013C014AE0C701B60105
:1015E00011DD7C01E80CF91CBB2029F088E492E0B5
:1015F000F8DCE80EF91EDB2CDD20F9F020E030E00D
:1016000040E251E4C301B201FAD42B013C015AD4A7
:101610004B01A12CB12C4AE0C501B401F3DCE80E6A
:10162000F91EC501B4018AD49B01AC01C301B2010A
:101630007CD32B013C01DA94DFCFC701FF90EF9000
:10164000DF90CF90BF90AF909F908F907F906F90E2
:101650005F904F900895CF93DF9300D000D0CDB727
:10166000DEB7789484B5826084BD84B5816084BD22
:1016700085B5826085BD85B5816085BD80916E0030
:10168000816080936E001092810080918100826061
:10169000809381008091810081608093810080919E
:1016A00080008160809380008091B100846080938D
:1016B000B1008091B00081608093B0008091910072
:1016C000826080939100809191008160809391006D
:1016D000809190008160809390008091A100826051
:1016E0008093A1008091A10081608093A1008091EE
:1016F000A00081608093A00080912101826080938E
:10170000210180912101816080932101809120013C
:1017100081608093200180917A00846080937A00B8
:1017200080917A00826080937A0080917A00816053
:1017300080937A0080917A00806880937A0010927A
:10174000C10027DC8DE068DE61E08DE08AD8109270
:10175000700510926F05109272051092710510922B
:10176000740510927305EBDD60917305709174053B
:101770006115710579F0660F771F660F771F072EC9
:10178000000C880B990BDCD320E030E040E058E3FC
:1017900036D404C060E070E080E898E360937D0593
:1017A00070937E0580937F0590938005609171050D
:1017B000709172056430710589F080E090E0BED3CD
:1017C00020E030E040E85FE3B1D29B01AC01AED253
:1017D00020E030E040E058E312D404C060E070E064
:1017E00080E09AE36093790570937A0580937B0596
:1017F00090937C0580916D0590916E0581309105E7
:1018000051F41092F0021092EF02109239031092EC
:101810005B03A4D84BC0892B09F048C080916C05AC
:10182000FBDD61E080916C051CD880916B05F4DDD7
:1018300061E080916B0515D81FB7F8948091EE0296
:10184000811121C0E7EBF1E08491EDEFF1E094919B
:10185000E82FF0E0EE0FFF1FE859FE4FA591B4917D
:10186000EC91E92321F461E085E30E94310485E3F2
:10187000D3DD8CB580618CBD8CB580648CBD84E378
:10188000CBDD83E3C9DD8091EE028F5F8093EE02B2
:101890001FBF8CB58C7F8CBD8DB58E7F8DBD8CB5FB
:1018A0008F7D8CBD8CB5837F84608CBD8FE094DD93
:1018B0008FE025DD6FE080E265DD60E081E262DDE2
:1018C00068E882E25FDD60E083E25CDD60E084E2A4
:1018D00059DD6AE280E356DD60E082E353DD60E0DB
:1018E00083E350DD60E084E34DDD60E085E34ADDC5
:1018F00060E086E347DD60E087E344DD60E088E3A5
:1019000041DD80E269DD682F6F7080E23BDD009190
:101910006F051091700583E25FDD8F7C980174E0A4
:10192000220F331F7A95E1F7682F622B83E22ADDBD
:101930001093700500936F0502DD60E08FE127DCF6
:1019400067E580E224DC60E081E221DC64E082E2A1
:101950001EDC80E2D4DC8F70682F606580E217DCCB
:10196000009171051091720581E2C9DC877E9801B2
:10197000E3E0220F331FEA95E1F7682F622B81E243
:1019800006DC10937205009371050430110591F087
:10199000B80180E090E0D2D220E030E040E85FE3A0
:1019A000C5D19B01AC01C2D120E030E040E058E35A
:1019B00026D304C060E070E080E09AE3609379058C
:1019C00070937A0580937B0590937C0564E984E2AB
:1019D000DEDB60E085E2DBDB60E086E2D8DB64E052
:1019E00083E2D5DB69E082E1D2DB84E288DC837EBE
:1019F000682F606184E2CBDB009173051091740560
:101A000085E27DDC8F79980165E0220F331F6A95AE
:101A1000E1F7682F622B85E2BADB1093740500931F
:101A200073050115110581F0B801660F771F660F68
:101A3000771F072E000C880B990B82D220E030E034
:101A400040E058E3DCD204C060E070E080E898E356
:101A500060937D0570937E0580937F05909380054C
:101A60001092F0021092EF021092390310925B0371
:101A70000E94AE0460E08DE00E94310484E392E0B5
:101A800001DB8AE492E0FEDA61E08DE00E9431043D
:101A900080916D0590916E058130910579F51091D9
:101AA0006C0581E08093380310935A031092390338
:101AB00010925B0368EA83E395E00E940B0380E0E9
:101AC000EDDA66E0812FBBDB1092F0028093EF022B
:101AD00010E09091EF028091F0029817C9F001E0B8
:101AE000010F83E395E00E94C802E1E0F0E0EC0F13
:101AF000FD1FE10FF11D8083102FEBCF892B41F4E7
:101B000026E0AE014F5F5F4F68E280916C0569DBB4
:101B10008A8190E0982F88272981822B9093400515
:101B200080933F058C8190E0982F88272B81822B12
:101B300090934205809341058E8190E0982F8827ED
:101B40002D81822B909344058093430522DA80E611
:101B500092E098DA80E792E044DA60913F05709174
:101B60004005072E000C880B990BEAD120917505D2
:101B700030917605409177055091780540D242E04A
:101B8000A0DC83E792E02DDA609141057091420577
:101B9000072E000C880B990BD3D12091750530913D
:101BA0007605409177055091780529D242E089DC8D
:101BB00083E792E016DA6091430570914405072EA1
:101BC000000C880B990BBCD12091750530917605DE
:101BD000409177055091780512D242E072DC85E79A
:101BE00092E0FFD988E792E0FCD935DC60E08DE037
:101BF0000E94310430DC0E94570246CFECE5F3E04E
:101C00001382128288EE93E0A0E0B0E08483958393
:101C1000A683B78328E132E03183208345ED50E08D
:101C20005587448744ED50E05787468740ED50E0A4
:101C3000518B408B41ED50E0538B428B42ED50E095
:101C4000558B448B46ED50E0578B468B118E128E90
:101C5000138E148EE9EFF3E013821282848395834E
:101C6000A683B783318320834DEC50E055874487AA
:101C70004CEC50E05787468748EC50E0518B408B46
:101C800049EC50E0538B428B4AEC50E0558B448B2F
:101C90004EEC50E0578B468B118E128E138E148EA5
:101CA000E6E9F4E01382128284839583A683B783E6
:101CB0003183208325EC30E03587248724EC30E025
:101CC0003787268720EC30E0318B208B21EC30E009
:101CD000338B228B22EC30E0358B248B26EC30E0EA
:101CE000378B268B118E128E138E148EE3E3F5E064
:101CF0001382128284839583A683B78388E292E05D
:101D000091838083EFE3F5E081E090E097A786A7D9
:101D10008DE184A78BE685A70895EE0FFF1F881F2E
:101D20008BBF0790F691E02D19945058BB27AA2736
:101D30000ED0DFC1D0D130F0D5D120F031F49F3FAB
:101D400011F41EF4C5C10EF4E095E7FBBBC1E92F09
:101D5000E1D180F3BA17620773078407950718F07B
:101D600071F49EF5F9C10EF4E0950B2EBA2FA02D5B
:101D70000B01B90190010C01CA01A0011124FF2738
:101D8000591B99F0593F50F4503E68F11A16F04033
:101D9000A22F232F342F4427585FF3CF4695379532
:101DA0002795A795F0405395C9F77EF41F16BA0BF7
:101DB000620B730B840BBAF09150A1F0FF0FBB1FA5
:101DC000661F771F881FC2F70EC0BA0F621F731FEE
:101DD000841F48F4879577956795B795F7959E3F4B
:101DE00008F0B3CF9395880F08F09927EE0F9795D9
:101DF000879508950CD07DC175D140F06CD130F03D
:101E000021F45F3F19F05EC15111A7C161C182D1B8
:101E100098F39923C9F35523B1F3951B550BBB27B1
:101E2000AA2762177307840738F09F5F5F4F220F5E
:101E3000331F441FAA1FA9F333D00E2E3AF0E0E857
:101E400030D091505040E695001CCAF729D0FE2FA3
:101E500027D0660F771F881FBB1F26173707480735
:101E6000AB07B0E809F0BB0B802DBF01FF279358EB
:101E70005F4F2AF09E3F510568F024C16EC15F3F5D
:101E8000ECF3983EDCF3869577956795B795F795D3
:101E90009F5FC9F7880F911D9695879597F90895CB
:101EA000E1E0660F771F881FBB1F62177307840767
:101EB000BA0720F0621B730B840BBA0BEE1F88F776
:101EC000E09508952FD188F09F5790F0B92F99276A
:101ED000B751A0F0D1F0660F771F881F991F1AF035
:101EE000BA95C9F712C0B13081F036D1B1E008958A
:101EF00033C1672F782F8827B85F39F0B93FCCF30B
:101F0000869577956795B395D9F73EF4909580952A
:101F1000709561957F4F8F4F9F4F08954CD008F477
:101F20008FEF089548D0880B990B089581E090E0D9
:101F3000F8943BC140D008F481E00895E89409C0CA
:101F400097FB3EF490958095709561957F4F8F4FEC
:101F50009F4F9923A9F0F92F96E9BB279395F69502
:101F6000879577956795B795F111F8CFFAF4BB0F80
:101F700011F460FF1BC06F5F7F4F8F4F9F4F16C0E4
:101F8000882311F096E911C0772321F09EE8872F6E
:101F9000762F05C0662371F096E8862F70E060E02A
:101FA0002AF09A95660F771F881FDAF7880F9695A3
:101FB000879597F90895990F0008550FAA0BE0E847
:101FC000FEEF16161706E807F907C0F012161306FB
:101FD000E407F50798F0621B730B840B950B39F43B
:101FE0000A2661F0232B242B252B21F408950A26A1
:101FF00009F4A140A6958FEF811D811D08950BD096
:1020000078C069D028F06ED018F0952309F05AC036
:102010005FC01124A2C07ED0A0F3959FD1F3950F8D
:1020200050E0551F629FF001729FBB27F00DB11D5C
:10203000639FAA27F00DB11DAA1F649F6627B00DEC
:10204000A11D661F829F2227B00DA11D621F739FD5
:10205000B00DA11D621F839FA00D611D221F749FE3
:102060003327A00D611D231F849F600D211D822F2A
:10207000762F6A2F11249F5750408AF0E1F0882371
:102080004AF0EE0FFF1FBB1F661F771F881F91507E
:102090005040A9F79E3F510570F014C05EC05F3FED
:1020A000ECF3983EDCF3869577956795B795F795B1
:1020B000E7959F5FC1F7FE2B880F911D9695879539
:1020C00097F9089597F99F6780E870E060E00895B8
:1020D0009FEF80EC089500240A9416161706180640
:1020E0000906089500240A9412161306140605061C
:1020F0000895092E0394000C11F4882352F0BB0FAD
:1021000040F4BF2B11F460FF04C06F5F7F4F8F4F0F
:102110009F4F089557FD9058440F551F59F05F3F4A
:1021200071F04795880F97FB991F61F09F3F79F0F9
:1021300087950895121613061406551FF2CF46957B
:10214000F1DF08C0161617061806991FF1CF8695FD
:102150007105610508940895E894BB2766277727E1
:10216000CB0197F90895A1E21A2EAA1BBB1BFD0112
:102170000DC0AA1FBB1FEE1FFF1FA217B307E40766
:10218000F50720F0A21BB30BE40BF50B661F771FBE
:10219000881F991F1A9469F760957095809590959E
:0E21A0009B01AC01BD01CF010895F894FFCF63
:1021AE0085028502850285028502850285028502E9
:1021BE000100000000000000F0013A01A8018601B4
:1021CE009A013602000000000B03DC026501C80212
:1021DE00B902B802446F6E652077697468206D612C
:1021EE00696E2073657475702E003D3D3D3D3D3D1D
:1021FE003D3D3D3D3D3D3D3D3D3D3D3D3D3D3D003E
:10220E00636F6C6C656374696E67206779726F00BB
:10221E00473A002C000D0A004F6E6520736574203E
:10222E006F662072656164696E6720646F6E6521EA
:0E223E00006E616E00696E66006F76660000CD
:020000023000CC
:10E000000D9489F10D94B2F10D94B2F10D94B2F129
:10E010000D94B2F10D94B2F10D94B2F10D94B2F1F0
:10E020000D94B2F10D94B2F10D94B2F10D94B2F1E0
:10E030000D94B2F10D94B2F10D94B2F10D94B2F1D0
:10E040000D94B2F10D94B2F10D94B2F10D94B2F1C0
:10E050000D94B2F10D94B2F10D94B2F10D94B2F1B0
:10E060000D94B2F10D94B2F10D94B2F10D94B2F1A0
:10E070000D94B2F10D94B2F10D94B2F10D94B2F190
:10E080000D94B2F10D94B2F10D94B2F10D94B2F180
:10E090000D94B2F10D94B2F10D94B2F10D94B2F170
:10E0A0000D94B2F10D94B2F10D94B2F10D94B2F160
:10E0B0000D94B2F10D94B2F10D94B2F10D94B2F150
:10E0C0000D94B2F10D94B2F10D94B2F10D94B2F140
:10E0D0000D94B2F10D94B2F10D94B2F10D94B2F130
:10E0E0000D94B2F141546D656761323536300041AF
:10E0F000726475696E6F206578706C6F72657220DE
:10E1000073746B3530305632206279204D4C530099
:10E11000426F6F746C6F616465723E004875683F52
:10E1200000436F6D70696C6564206F6E203D200048
:10E130004350552054797065202020203D20005FF9
:10E140005F4156525F415243485F5F3D2000415658
:10E1500052204C696243205665723D20004743437C
:10E160002056657273696F6E203D20004350552024
:10E1700049442020202020203D20004C6F7720663D
:10E18000757365202020203D20004869676820665F
:10E190007573652020203D200045787420667573D6
:10E1A00065202020203D20004C6F636B2066757336
:10E1B000652020203D20004D617220203720323024
:10E1C000313300312E362E3800342E332E350056A2
:10E1D00023202020414444522020206F7020636F70
:10E1E00064652020202020696E73747275637469E1
:10E1F0006F6E2061646472202020496E74657272B3
:10E20000757074006E6F20766563746F7200726A49
:10E210006D702020006A6D70200057686174207056
:10E220006F72743A00506F7274206E6F7420737541
:10E2300070706F72746564004D7573742062652030
:10E2400061206C6574746572002000577269747483
:10E25000696E672045450052656164696E672045B7
:10E26000450045452065727220636E743D00504F35
:10E27000525400303D5A65726F2061646472003FF1
:10E280003D43505520737461747300403D454550C3
:10E29000524F4D207465737400423D426C696E6B41
:10E2A000204C454400453D44756D70204545505215
:10E2B0004F4D00463D44756D7020464C415348001B
:10E2C000483D48656C70004C3D4C69737420492F83
:10E2D0004F20506F72747300513D51756974005234
:10E2E0003D44756D702052414D00563D73686F7707
:10E2F00020696E7465727275707420566563746FF0
:10E30000727300593D506F727420626C696E6B00BD
:10E310002A0011241FBECFEFD1E2DEBFCDBF01E046
:10E320000CBF12E0A0E0B2E0EEE1FDEF03E00BBFB6
:10E3300002C007900D92A030B107D9F712E0A0E01B
:10E34000B2E001C01D92AE30B107E1F70F9460F367
:10E350000D948DFE01E20EBF0FEF0DBF11241FBE05
:10E360000D9460F30D9400F020E030E040ED57E0B4
:10E3700005C0FA013197F1F72F5F3F4F2817390792
:10E38000C0F308959C01260F311DC901A0E0B0E043
:10E390002F5F3F4FABBFFC018791882361F08093D3
:10E3A000C6008091C00086FFFCCF8091C0008064D1
:10E3B0008093C000EACF08958DE08093C6008091DD
:10E3C000C00086FFFCCF8091C00080648093C000B5
:10E3D0008AE08093C6008091C00086FFFCCF8091C8
:10E3E000C00080648093C00008950F94C2F10F9420
:10E3F000DCF10895FC019081992359F09093C600B7
:10E400008091C00086FFFCCF8091C0008064809323
:10E41000C0003196992379F70895282F982F929567
:10E420009F70892F805D8A3308F0895F8093C600D2
:10E430008091C00086FFFCCF8091C00080648093F3
:10E44000C000822F8F70982F905D9A3308F0995FEB
:10E450009093C6008091C00086FFFCCF8091C000E1
:10E4600080648093C00008959C01FB01853691056E
:10E470001CF46330710594F0C90164E670E00F94F8
:10E480002EFE605D7F4F6093C6008091C00086FFC6
:10E49000FCCF8091C00080648093C0002B30310598
:10E4A00014F43297B4F0C90164E670E00F942EFEC4
:10E4B0006AE070E00F942EFE605D7F4F6093C600AF
:10E4C0008091C00086FFFCCF8091C0008064809363
:10E4D000C000C9016AE070E00F942EFEC0968093E0
:10E4E000C6008091C00086FFFCCF8091C000806490
:10E4F0008093C00008951F93182F8EE692EE60E07F
:10E500000F94C2F11093C6008091C00086FFFCCF2B
:10E510008091C00080648093C0000F94DCF11F9153
:10E5200008952F923F924F925F926F927F928F92B7
:10E530009F92AF92BF92CF92DF92EF92FF920F9392
:10E540001F93DF93CF93CDB7DEB762970FB6F894E2
:10E55000DEBF0FBECDBF382E622ECA01DB015C01CB
:10E560006D01772420E2222E2E010894411C511CBB
:10E570008BC081E0A81680E0B80681E0C80680E084
:10E58000D80628F0C601AA27BB270F940DF2BB2797
:10E59000AD2D9C2D8B2D0F940DF28A2D0F940DF225
:10E5A0002092C6008091C00086FFFCCF8091C00001
:10E5B00080648093C0009DE29093C6008091C0006B
:10E5C00086FFFCCF8091C00080648093C0002092C1
:10E5D000C6008091C00086FFFCCF8091C00080649F
:10E5E0008093C00019828601750188249924A1E0D6
:10E5F0003A1651F03A1620F0B2E03B1661F409C029
:10E600000BBFF701779007C0C7010F9477FE782EF4
:10E6100002C0F7017080872D0F940DF22092C60082
:10E620008091C00086FFFCCF8091C0008064809301
:10E63000C000872D8052F401EF70F0708F3520F408
:10E64000E40DF51D708204C0E40DF51D8EE280839B
:10E650000894E11CF11C011D111D0894811C911CE2
:10E6600090E18916910409F0C2CF80E190E0A0E02A
:10E67000B0E0A80EB91ECA1EDB1E198AC2010F9493
:10E68000FAF10F94DCF16A94662009F072CF629679
:10E690000FB6F894DEBF0FBECDBFCF91DF911F91B3
:10E6A0000F91FF90EF90DF90CF90BF90AF909F9031
:10E6B0008F907F906F905F904F903F902F90089534
:10E6C0002F923F924F925F926F927F928F929F9282
:10E6D000AF92BF92CF92DF92EF92FF920F931F9370
:10E6E000DF93CF93CDB7DEB7CD53D1400FB6F894BB
:10E6F000DEBF0FBECDBF01E20EBF0FEF0DBF94B75F
:10E70000F894A89514BE80916000886180936000A1
:10E7100010926000789493FF05C0E0910002F091A0
:10E7200001021995279A2F9A8091C00082608093E8
:10E73000C00080E18093C40088E18093C1000000A4
:10E74000EE24FF24870144E0A42EB12CCC24DD2448
:10E7500024C0C5010197F1F70894E11CF11C011DCB
:10E76000111D21E2E2162EE4F20620E0020720E06D
:10E77000120718F031E0C32ED12CC801B70127ECE5
:10E780003BE140E050E00F9441FE611571058105C9
:10E79000910519F485B1805885B98091C00087FD35
:10E7A00003C0C114D104A9F2A6014F5F5F4FC25E3E
:10E7B000DE4F59834883CE51D140C25EDE4F8881FF
:10E7C0009981CE51D140019711F00D9410FEC05D9A
:10E7D000DE4F19821882C053D14060E0C15DDE4F28
:10E7E0001882CF52D14088249924C35DDE4F19820C
:10E7F0001882CD52D140C05EDE4F188219821A8233
:10E800001B82C052D140CE5CDE4F188219821A8220
:10E810001B82C253D140EE24FF2487010BBFF701B6
:10E8200007911691C45CDE4F19830883CC53D14005
:10E830000D940BFEC25EDE4F28813981CE51D1404E
:10E840002130310509F52091C600C25EDE4F1982E4
:10E850001882CE51D14022C02F5F3F4F4F4F5F4FA4
:10E86000213082E138078AE7480780E0580780F0C6
:10E87000C45CDE4FE881F981CC53D140EF5FFF4F9C
:10E8800019F0EE27FF27099420E030E040E050E047
:10E890008091C00087FFE0CF2091C600C35DDE4FAE
:10E8A00048815981CD52D1404F5F5F4FC35DDE4FEC
:10E8B00059834883CD52D140213209F063C64A3092
:10E8C000510508F05FC60894811C911C53E0851621
:10E8D000910409F059C600E010E018C081E280936D
:10E8E000C6008091C00086FFFCCF8091C00080648C
:10E8F0008093C0002F5F3F4F2931310579F70F9486
:10E90000DCF10F5F1F4F0530110519F020E030E0FA
:10E91000E5CF10920A0210920B0210920C02109294
:10E920000D02109206021092070210920802109235
:10E930000902109202021092030210920402109235
:10E9400005028FEE90EE60E00F94F5F180E191EE1C
:10E9500060E00F94C2F18091C00087FFFCCF9091DE
:10E96000C600903608F09F759032B8F09093C600BC
:10E970008091C00086FFFCCF8091C00080648093AE
:10E98000C000A0E2A093C6008091C00086FFFCCF2B
:10E990008091C00080648093C000983409F4D7C18E
:10E9A0009934B8F4923409F459C1933458F490333B
:10E9B00019F1903308F4E3C59F33A1F1903409F0C5
:10E9C000DEC5BDC0953409F470C1963409F0D7C5D1
:10E9D00098C1923509F42BC2933538F49C3409F46C
:10E9E000F5C1913509F0CBC518C2963509F445C279
:10E9F000993509F0C4C567C483E792EE62E00F94CD
:10EA0000F5F110920602109207021092080210927D
:10EA1000090210920A0210920B0210920C0210923C
:10EA20000D0213C18FE792EE62E00F94F5F18FEEC5
:10EA300090EE60E00F94F5F181E291EE60E00F94CA
:10EA4000C2F187EB91EE60E00F94F5F180E391EE77
:10EA500060E00F94C2F184EE90EE60E00F94F5F167
:10EA60008FE391EE60E00F94C2F186E090E061E008
:10EA700070E00F9434F20F94DCF18DE591EE60E0DC
:10EA80000F94C2F189EC91EE60E00F94F5F18EE401
:10EA900091EE60E00F94C2F183EC91EE60E00F9490
:10EAA000F5F18CE691EE60E00F94C2F18EE10F94E7
:10EAB0000DF288E90F940DF281E00F940DF20F949E
:10EAC000DCF18BE791EE60E00F94C2F119E0E0E039
:10EAD000F0E010935700E4918E2F0F940DF20F94F5
:10EAE000DCF18AE891EE60E00F94C2F1E3E0F0E03F
:10EAF00010935700E4918E2F0F940DF20F94DCF1D8
:10EB000089E991EE60E00F94C2F1E2E0F0E0109349
:10EB10005700E4918E2F0F940DF20F94DCF188EAE8
:10EB200091EE60E00F94C2F1E1E0F0E01093570045
:10EB30001491812F0F940DF20F94DCF107CF8BE825
:10EB400092EE62E00F94F5F18BE492EE60E00F94A8
:10EB5000F5F10F94DCF100E010E019C0C8016F2D51
:10EB60000F947FFEFF2031F489E492EE60E00F9471
:10EB7000C2F10BC0F092C6008091C00086FFFCCFAE
:10EB80008091C00080648093C0000F5F1F4FC80158
:10EB900081519F41A0E0B0E0ABBFFC01F790BAE229
:10EBA000FB1621F0E2E000301E07C1F60F94DCF105
:10EBB0000F94DCF187E592EE60E00F94F5F10F948D
:10EBC000DCF1CC24DD2400E010E01EC0C8010F946D
:10EBD00077FEF82E882331F489E492EE60E00F94FA
:10EBE000C2F10BC08093C6008091C00086FFFCCFAD
:10EBF0008091C00080648093C000FE1419F00894D6
:10EC0000C11CD11C0F5F1F4FC80181519F41A0E063
:10EC1000B0E0ABBFFC01E790FAE2EF1621F022E092
:10EC20000030120799F60F94DCF10F94DCF182E6C4
:10EC300092EE60E00F94C2F1C60161E070E00F94C3
:10EC400034F20F94DCF10F94DCF110920202109276
:10EC50000302109204021092050278CE89E992EE26
:10EC600062E00F94F5F1279A2F9A16C02F9880E052
:10EC700090E0E0EDF7E03197F1F7019684369105E9
:10EC8000C1F72F9A80E090E0E0EDF7E03197F1F7DF
:10EC9000019684369105C1F78091C00087FFE6CFC9
:10ECA0008091C00087FFFCCF64C485EA92EE62E0E9
:10ECB0000F94F5F140910202509103026091040219
:10ECC0007091050281E020E10F9491F2809102029F
:10ECD00090910302A0910402B091050280509F4FD1
:10ECE000AF4FBF4F8093020290930302A0930402A0
:10ECF000B093050280509041A040B04008F426CE69
:10ED0000A4CF83EB92EE62E00F94F5F140910602FE
:10ED100050910702609108027091090280E020E1A1
:10ED20000F9491F28091060290910702A09108023F
:10ED3000B091090280509F4FAF4FBF4F80930602A2
:10ED400090930702A0930802B0930902FFCD80ECD4
:10ED500092EE62E00F94F5F183E792EE60E00F949B
:10ED6000F5F18FE792EE60E00F94F5F18BE892EE0B
:10ED700060E00F94F5F189E992EE60E00F94F5F10F
:10ED800085EA92EE60E00F94F5F183EB92EE60E09D
:10ED90000F94F5F180EC92EE60E00F94F5F187ECC2
:10EDA00092EE60E00F94F5F188ED92EE60E00F9442
:10EDB000F5F18FED92EE60E00F94F5F18AEE92EEB0
:10EDC00060E00F94F5F183E093EEBDCD87EC92EE19
:10EDD00062E00F94F5F181E40F947BF282E40F94EA
:10EDE0007BF283E40F947BF284E40F947BF285E45E
:10EDF0000F947BF286E40F947BF287E40F947BF20E
:10EE000088E40F947BF28AE40F947BF28BE40F94F6
:10EE10007BF28CE40F947BF299CD88ED92EE62E068
:10EE20000F94F5F1772473948824992409C48FED05
:10EE300092EE62E00F94F5F140910A0250910B02BC
:10EE400060910C0270910D0282E020E10F9491F22A
:10EE500080910A0290910B02A0910C02B0910D02D8
:10EE600080509F4FAF4FBF4F80930A0290930B0289
:10EE7000A0930C02B0930D0269CD8AEE92EE62E08F
:10EE80000F94F5F184EE90EE60E00F94F5F18FECC5
:10EE900091EE60E00F94F5F1662477244301CC5D98
:10EEA000DE4F19821882C452D140D401C301B695F5
:10EEB000A79597958795CA5DDE4F88839983AA8326
:10EEC000BB83C652D140CC5DDE4FA881B981C4520C
:10EED000D1401196CC5DDE4FB983A883C452D14096
:10EEE000CD0162E070E00F9434F2B0E2B093C6005E
:10EEF0008091C00086FFFCCF8091C0008064809329
:10EF0000C000EDE2E093C6008091C00086FFFCCF18
:10EF10008091C00080648093C000F0E2F093C6004E
:10EF20008091C00086FFFCCF8091C00080648093F8
:10EF3000C000CA5DDE4FE880F9800A811B81C6529D
:10EF4000D140BB27A12F902F8F2D0F940DF2CA5DBA
:10EF5000DE4F8881C652D1400F940DF2B0E2FB2EF5
:10EF6000F092C6008091C00086FFFCCF8091C00067
:10EF700080648093C0000DE30093C6008091C000C0
:10EF800086FFFCCF8091C00080648093C00010E2B7
:10EF90001093C6008091C00086FFFCCF8091C00016
:10EFA00080648093C0008BBEF3012791C65DDE4F65
:10EFB0002883CA52D140A22EBB24CC24DD2408943D
:10EFC000611C711C811C911C8BBEF3018791282E42
:10EFD0003324442455240894611C711C811C911C09
:10EFE0008BBEF3013791C55DDE4F3883CB52D140E4
:10EFF0000894611C711C811C911C8BBEF30147910C
:10F00000C45DDE4F4883CC52D140ADEFEA2EAFEF66
:10F01000FA2EAFEF0A2FAFEF1A2F6E0C7F1C801E57
:10F02000911E142D032DF22CEE24EA0CFB1C0C1D5A
:10F030001D1D0F940DF220E22093C6008091C000A8
:10F0400086FFFCCF8091C00080648093C000C65DC5
:10F05000DE4F8881CA52D1400F940DF230E23093D6
:10F06000C6008091C00086FFFCCF8091C000806404
:10F070008093C000C45DDE4F8881CC52D1400F9494
:10F080000DF240E24093C6008091C00086FFFCCFA5
:10F090008091C00080648093C000C55DDE4F888190
:10F0A000CB52D1400F940DF250E25093C6008091A4
:10F0B000C00086FFFCCF8091C00080648093C000B8
:10F0C0008FEFE8168FEFF80680E0080780E018075A
:10F0D00031F484E092EE60E00F94C2F1DFC0D80119
:10F0E000C7018070907CA070B0708050904CA040A0
:10F0F000B040D1F52FEF3FE340E050E0E222F322B1
:10F1000004231523CA5DDE4FA880B980CA80DB8046
:10F11000C652D140AE0CBF1CC01ED11EAA0CBB1CD7
:10F12000CC1CDD1C8EE092EE60E00F94C2F1BB2798
:10F13000A12F902F8F2D0F940DF28E2D0F940DF285
:10F1400030E23093C6008091C00086FFFCCF8091F2
:10F15000C00080648093C0004EE34093C60080915D
:10F16000C00086FFFCCF87C08EE09EEFA0E0B0E03D
:10F17000E822F9220A231B239CE0E91694E9F90608
:10F1800090E0090790E0190709F088C0C45DDE4FE0
:10F19000A881CC52D140EA2EFF2400E010E0102FCD
:10F1A0000F2DFE2CEE24C55DDE4FB881CB52D14031
:10F1B000EB0EF11C011D111DD601C501817090706F
:10F1C000A070B070DC0199278827E80EF91E0A1F8D
:10F1D0001B1F20EF30E040E050E0A222B322C42207
:10F1E000D52241E1AA0CBB1CCC1CDD1C4A95D1F7F1
:10F1F000EA0CFB1C0C1D1D1D81E090E0A0E0B0E0BE
:10F20000282239224A225B2235E1220C331C441C7D
:10F21000551C3A95D1F7E20CF31C041D151D57013E
:10F220006801AA0CBB1CCC1CDD1C85E192EE60E0E1
:10F230000F94C2F1C801AA27BB270F940DF2BB2778
:10F24000A12F902F8F2D0F940DF28E2D0F940DF274
:10F2500090E29093C6008091C00086FFFCCF809121
:10F26000C00080648093C000AEE3A093C60080918C
:10F27000C00086FFFCCF8091C00080648093C000F6
:10F28000C601AA27BB270F940DF2BB27AD2D9C2DDD
:10F290008B2D0F940DF28A2D0F940DF20F94DCF14B
:10F2A000CC5DDE4FE881F981C452D140F99709F471
:10F2B0004DCBF4E0EF2EF12C012D112D6E0C7F1CA7
:10F2C000801E911EF2CD83E093EE62E00F94F5F183
:10F2D0008AE192EE60E00F94C2F18091C00087FF56
:10F2E000FCCF1091C6001F751093C6008091C0001E
:10F2F00086FFFCCF8091C00080648093C0000F9493
:10F30000DCF1812F81548A3108F036C1163409F4BA
:10F3100095C0173490F4133409F44EC0143430F40B
:10F320001134F1F0123409F01DC130C0143409F465
:10F3300059C0153409F016C16BC01A3409F4C4C0A1
:10F340001B3438F4173409F48FC0183409F00AC19B
:10F35000A1C01B3409F4D2C01C3409F003C1E8C0B9
:10F360008FEF81B90DC082B1809582B980E090E0C5
:10F37000E0EDF7E03197F1F70196883C9105C1F790
:10F380008091C00087FFEFCF12B8EFC08FEF84B934
:10F390000DC085B1809585B980E090E0E0EDF7E0A3
:10F3A0003197F1F70196883C9105C1F78091C00033
:10F3B00087FFEFCF15B8D9C08FEF87B90DC088B1DF
:10F3C000809588B980E090E0E0EDF7E03197F1F7C3
:10F3D0000196883C9105C1F78091C00087FFEFCF6F
:10F3E00018B8C3C08FEF8AB90DC08BB180958BB9A7
:10F3F00080E090E0E0EDF7E03197F1F70196883C8E
:10F400009105C1F78091C00087FFEFCF1BB8ADC059
:10F410008FEF8DB90DC08EB180958EB980E090E0F0
:10F42000E0EDF7E03197F1F70196883C9105C1F7DF
:10F430008091C00087FFEFCF1EB897C08FEF80BBD1
:10F440000DC081B3809581BB80E090E0E0EDF7E0F6
:10F450003197F1F70196883C9105C1F78091C00082
:10F4600087FFEFCF11BA81C08FEF83BB0DC084B38C
:10F47000809584BB80E090E0E0EDF7E03197F1F714
:10F480000196883C9105C1F78091C00087FFEFCFBE
:10F4900014BA6BC08FEF809301010FC080910201FD
:10F4A00080958093020180E090E0E0EDF7E03197F5
:10F4B000F1F70196883C9105C1F78091C00087FF64
:10F4C000EDCF1092020151C08FEF809304010FC065
:10F4D0008091050180958093050180E090E0E0ED4A
:10F4E000F7E03197F1F70196883C9105C1F78091DB
:10F4F000C00087FFEDCF1092050137C08FEF8093DA
:10F5000007010FC08091080180958093080180E079
:10F5100090E0E0EDF7E03197F1F70196883C910536
:10F52000C1F78091C00087FFEDCF109208011DC088
:10F530008FEF80930A010FC080910B01809580931B
:10F540000B0180E090E0E0EDF7E03197F1F70196F4
:10F55000883C9105C1F78091C00087FFEDCF1092E4
:10F560000B0103C085E292EEEEC98091C00087FFD7
:10F57000FCCF8091C600EAC988E392EEE4C98CE131
:10F5800091EEE1C988249924933011F1943028F444
:10F59000913089F09230B8F408C0953061F195301F
:10F5A000F0F0963009F048C043C02B3109F042C951
:10F5B00091E06BE13FC96227C15DDE4F2883CF52E6
:10F5C000D14092E037C9B22FA0E0622793E032C960
:10F5D000822F90E0A82BB92B622794E02BC92E3004
:10F5E00009F039C3622795E0C05DDE4F19821882A9
:10F5F000C053D1401FC9E1E0F0E0EC0FFD1FC05D3A
:10F60000DE4F08811981C053D140E00FF11F2083E4
:10F610000F5F1F4FC05DDE4F19830883C053D14079
:10F6200062270A171B0709F005C9D80196E002C92D
:10F63000261709F010C303C0973009F0FBC87724E0
:10F640009981933109F412C19431C8F4963009F4C8
:10F65000D8C0973050F4923009F406C1933009F4C1
:10F660006DC0913009F059C253C0913109F477C08F
:10F67000923108F0BBC0903109F04FC2F5C098310B
:10F6800009F487C0993150F4953109F4EFC09531F0
:10F6900008F4C6C1963109F040C2C2C19A3109F4DA
:10F6A0006CC09A3108F491C09B3109F45BC09D3164
:10F6B00009F033C29D81903359F48F81882311F46E
:10F6C0009EE11CC0813011F091E018C098E916C08D
:10F6D000892F807591F0903539F4E0E0F0E089E011
:10F6E0008093570094910AC0983539F4E3E0F0E034
:10F6F00089E080935700949101C090E01A821B82A8
:10F700008D818C831D829E831F8227E030E009C299
:10F710001A8288E08B8381E48C8386E58D8382E581
:10F720008E8389E48F8383E5888780E589878FE5E9
:10F730008A8782E38B872BE030E0F3C18A818139AD
:10F7400041F0823941F0803911F48FE005C080E04A
:10F7500003C082E001C08AE01A828B8344C0772410
:10F76000739482C08D81882311F48EE12CC0813086
:10F7700011F081E028C088E926C01A82E1E0F0E0BB
:10F7800089E08093570084918B831C8224E030E0D1
:10F79000C8C18B81803589F48C81883039F4E2E0EE
:10F7A000F0E089E08093570084910DC0E0E0F0E044
:10F7B00089E080935700849106C0E3E0F0E089E09F
:10F7C0008093570084911A82DFCF8D81836C99E0FA
:10F7D000E1E0F0E0082E90935700E89507B600FCB2
:10F7E000FDCF1A821B8223E030E09BC180EC8A832C
:10F7F000CE5CDE4F188219821A821B82C253D1401E
:10F800008EC18A8190E0A0E0B0E0582F44273327D2
:10F8100022278B8190E0A0E0B0E0DC0199278827C7
:10F82000282B392B4A2B5B2B8D8190E0A0E0B0E098
:10F83000282B392B4A2B5B2B8C8190E0A0E0B0E089
:10F84000BA2FA92F982F8827282B392B4A2B5B2BCF
:10F85000220F331F441F551FC05EDE4F288339839C
:10F860004A835B83C052D1401A8259C13A81C95C34
:10F87000DE4F3883C753D140CA5CDE4F1882C6536F
:10F88000D1408B81C82EDD24CA5CDE4F488159816E
:10F89000C653D140C42AD52A933109F082C0CE5C28
:10F8A000DE4F88819981AA81BB81C253D1408050AB
:10F8B000904CA340B04030F583E0CE5CDE4FE88052
:10F8C000F9800A811B81C253D140F70100935B008C
:10F8D00080935700E89507B600FCFDCFCE5CDE4F65
:10F8E000088119812A813B81C253D14000501F4FAA
:10F8F0002F4F3F4FCE5CDE4F088319832A833B8313
:10F90000C253D140C05EDE4F488159816A817B81FC
:10F91000C052D140DE011B9631E08C9111962C91A2
:10F9200011971296C75CDE4F2883C953D140C85C3B
:10F93000DE4F1882C853D14090E0C85CDE4FE881AA
:10F94000F981C853D1408E2B9F2B0C01FA01609393
:10F950005B0030935700E89511244E5F5F4F6F4F67
:10F960007F4F0EEFE02E0FEFF02ECE0CDF1CC114F8
:10F97000D10499F685E0C05EDE4F088119812A81A5
:10F980003B81C052D140F80120935B008093570027
:10F99000E89507B600FCFDCF81E180935700E8951C
:10F9A00035C0C05EDE4F88819981AA81BB81C0527B
:10F9B000D140B695A795979587957C018601ABE0D8
:10F9C000AA2EB12CAC0EBD1E0BC0D5016D915D01F0
:10F9D000C7010F947FFE0894E11CF11C01501040F8
:10F9E0000115110591F7A60160E070E0440F551F65
:10F9F000661F771FC05EDE4FE880F9800A811B8199
:10FA0000C052D1404E0D5F1D601F711F1A82C05E33
:10FA1000DE4F488359836A837B83C052D1407FC0C5
:10FA2000FA80C55CDE4FF882CB53D140C65CDE4F16
:10FA30001882CA53D1408B81C82EDD24C65CDE4FAC
:10FA400008811981CA53D140C02AD12A1A828981DA
:10FA5000BE016D5F7F4F843121F59601C05EDE4FA0
:10FA6000E880F9800A811B81C052D1400BBFF701A9
:10FA700087919691DB018C9311969C936E5F7F4FDB
:10FA8000D801C7010296A11DB11DC05EDE4F88835B
:10FA90009983AA83BB83C052D14022503040F1F6F3
:10FAA00036C0C05EDE4F288139814A815B81C052F9
:10FAB000D1400894C108D108760100E010E0089414
:10FAC000C11CD11C0894E11CF11C011D111DE20E8A
:10FAD000F31E041F151F21BDBB27A52F942F832FB5
:10FAE00082BD2F5F3F4F4F4F5F4FF89A80B5DB01CC
:10FAF0008D93BD012E153F054007510761F7C05E8C
:10FB0000DE4F288339834A835B83C052D1409601FC
:10FB10002D5F3F4FFB01108204C080EC8A8322E0FE
:10FB200030E08BE18093C6008091C00086FFFCCF5F
:10FB30008091C00080648093C000C15DDE4FF88179
:10FB4000CF52D140F093C6008091C00086FFFCCF19
:10FB50008091C00080648093C000432F3093C60022
:10FB60008091C00086FFFCCF8091C00080648093AC
:10FB7000C000922F2093C6008091C00086FFFCCF6A
:10FB80008091C00080648093C0008EE08093C600A6
:10FB90008091C00086FFFCCF8091C000806480937C
:10FBA000C00065E1C15DDE4FE880CF52D1406E25D7
:10FBB00069276427FE01319610C090819093C6009A
:10FBC0008091C00086FFFCCF31968091C000806498
:10FBD0008093C0006927215030402115310569F715
:10FBE0006093C6008091C00086FFFCCF8091C0006A
:10FBF00080648093C00085B1805885B9772081F4F6
:10FC0000C15DDE4F0881CF52D1400F5FC15DDE4F35
:10FC10000883CF52D14090E0A0E0B0E00D941AF4F8
:10FC200027982F9880E090E020ED37E0F901319798
:10FC3000F1F7019684369105C9F700008091C00064
:10FC40008D7F8093C00081E180935700E895EE2777
:10FC5000FF270994FFCF90E00D941AF497FB092E2B
:10FC600007260AD077FD04D02ED006D000201AF443
:10FC7000709561957F4F0895F6F7909581959F4F08
:10FC80000895A1E21A2EAA1BBB1BFD010DC0AA1FDD
:10FC9000BB1FEE1FFF1FA217B307E407F50720F0F5
:10FCA000A21BB30BE40BF50B661F771F881F991F70
:10FCB0001A9469F760957095809590959B01AC01B9
:10FCC000BD01CF010895AA1BBB1B51E107C0AA1FAC
:10FCD000BB1FA617B70710F0A61BB70B881F991FED
:10FCE0005A95A9F780959095BC01CD010895F99991
:10FCF000FECF92BD81BDF89A992780B50895262F31
:10FD0000F999FECF1FBA92BD81BD20BD0FB6F89400
:0EFD1000FA9AF99A0FBE01960895F894FFCF63
:040000033000E000E9
:00000001FF