:1000000014C1000040C100003EC100003CC100001E
:100010003AC1000038C1000036C1000034C1000000
:1000200032C1000030C100002EC100002CC1000010
:100030002AC1000028C1000026C1000024C1000020
:1000400022C1000020C100001EC100001CC1000030
:100050001AC1000018C1000016C100005DC30000F5
:1000600012C1000023C30000F8C200000CC1000050
:100070000AC1000008C1000006C1000004C1000060
:1000800002C1000000C10000FEC00000FCC0000072
:10009000FAC00000F8C00000F6C00000F4C0000084
:1000A000F2C00000F0C00000EEC00000ECC0000094
:1000B000EAC00000E8C00000E6C00000E4C00000A4
:1000C000E2C00000E0C00000DEC00000DCC00000B4
:1000D000DAC00000D8C00000D6C00000D4C00000C4
:1000E000D2C0000080028302720276027C02BA0251
:1000F00087028B029102950299029F02A302A70236
:10010000BA02AD02B102B5020000210024002700AE
:100110002A002D0030003300010100000401070116
:100120000A01000020002300260029002C002F00D7
:100130003200000100000301060109010000220055
:10014000250028002B002E003100340002010000A1
:10015000050108010B010505050507050808080844
:10016000020202020A0A080804040404010101014F
:10017000010101010303030303030303040707074A
:100180000C0C0C0C0C0C0C0C0202020206060606EF
:10019000060606060B0B0B0B0B0B0B0B01021020BC
:1001A00020080810204010204080020102010804AD
:1001B0000201010204081020408080402010080441
:1001C000020180040201804020100804020108049A
:1001D00002010102040810204080010204081020DE
:1001E000408000000A0B02090C0D0E0807030401F1
:1001F00000000000000000000000000000000000FF
:1002000000000000000000000000000000001211CB
:1002100010000000000000000000000000000000CE
:100220000000000000000000EC0411241FBECFEF0E
:10023000D1E2DEBFCDBF00E00CBF12E0A0E0B2E033
:10024000EEE4FAE000E00BBF02C007900D92A2338B
:10025000B107D9F722E0A2E3B2E001C01D92A83DA8
:10026000B207E1F711E0C5E1D1E000E005C0219758
:100270000109802FFE01DDD3C431D10780E00807DA
:10028000B1F794D2E2C3BCCECF92DF92EF92FF924D
:100290000F931F93CF93DF936C017A018B01C0E022
:1002A000D0E0CE15DF0589F0D8016D918D01D60122
:1002B000ED91FC910190F081E02DC6011995892BFB
:1002C00011F47E0102C02196ECCFC701DF91CF91DE
:1002D0001F910F91FF90EF90DF90CF900895FC0158
:1002E000918D828D981761F0828DDF01A80FB11D6D
:1002F0005D968C91928D9F5F9F73928F90E0089591
:100300008FEF9FEF0895FC01918D828D981731F04A
:10031000828DE80FF11D858D90E008958FEF9FEF9E
:100320000895FC01918D228D892F90E0805C9F4F74
:10033000821B91098F73992708958BE392E0F1DF77
:1003400021E0892B09F420E0822F0895FC01848D9F
:10035000DF01A80FB11DA35ABF4F2C91848D90E0EF
:1003600001968F739927848FA689B7892C93A089CA
:10037000B1898C9180648C93938D848D981306C081
:100380000288F389E02D80818F7D80830895EF922C
:10039000FF920F931F93CF93DF93EC0181E0888F3F
:1003A0009B8D8C8D981305C0E889F989808185FD26
:1003B00023C0F62E0B8D10E00F5F1F4F0F73112718
:1003C000E02E8C8DE8120BC00FB607FCFACFE8893F
:1003D000F989808185FFF5CFCE01B8DFF2CF8B8D13
:1003E000FE01E80FF11DE35AFF4FF0820B8FEA89FF
:1003F000FB898081806207C0EE89FF896083E8897C
:10040000F98980818064808381E090E0DF91CF91E1
:100410001F910F91FF90EF900895CF93DF93EC0120
:10042000888D8823C1F0EA89FB89808185FD05C01C
:10043000A889B9898C9186FD0EC00FB607FCF5CF4F
:10044000808185FFF2CFA889B9898C9185FFEDCF96
:10045000CE017CDFE8CFDF91CF91089580E090E07E
:10046000892B19F06ADF811125C080E090E0892B8B
:1004700041F080E090E0892B21F00E940000811182
:100480001CC080E090E0892B41F080E090E0892B57
:1004900021F00E940000811113C080E090E0892BC0
:1004A000A1F080E090E0892B81F00E940000811192
:1004B0000AC008950E940000D8CF0E940000E1CF3A
:1004C0000E940000EACF0C940000089590E0FC0127
:1004D0003197E231F10508F04DC08827EE58FF4F03
:1004E0008F4FA7C2809180008F7703C080918000DA
:1004F0008F7D80938000089580918000877FF9CF61
:1005000084B58F7702C084B58F7D84BD08958091B6
:10051000B0008F7703C08091B0008F7D8093B000D2
:100520000895809190008F7707C0809190008F7D13
:1005300003C080919000877F809390000895809100
:10054000A0008F7707C08091A0008F7D03C08091AD
:10055000A000877F8093A0000895809120018F776D
:1005600007C0809120018F7D03C080912001877F8B
:100570008093200108951F93CF93DF93EFEEF1E076
:100580009491E9EAF1E0D491E3E6F1E0C491CC235F
:10059000D1F0182F992311F0892F98DFEC2FF0E07C
:1005A000EE0FFF1FE45CFE4FA591B4918FB7F89456
:1005B000111105C09C91ED2FE095E92302C0EC914B
:1005C000ED2BEC938FBFDF91CF911F9108953FB733
:1005D000F8948091370290913802A0913902B0913D
:1005E0003A0226B5A89B05C02F3F19F00196A11D20
:1005F000B11D3FBFBA2FA92F982F8827820F911DB9
:10060000A11DB11DBC01CD0142E0660F771F881FFF
:10061000991F4A95D1F70895CF93DF93009771F012
:10062000FC0101900020E9F73197AF01481B590BFD
:10063000BC018BE392E028DEEC0102C0C0E0D0E018
:1006400042E050E060E172E08BE392E01DDE8C0F4F
:100650009D1FDF91CF910895F4D11F920F920FB695
:100660000F9211240BB60F922F933F934F935F93EA
:100670006F937F938F939F93AF93BF93EF93FF936A
:100680008BE392E063DEFF91EF91BF91AF919F9179
:100690008F917F916F915F914F913F912F910F902B
:1006A0000BBE0F900FBE0F901F9018951F920F92C8
:1006B0000FB60F9211240BB60F922F938F939F9327
:1006C000EF93FF93E0914B02F0914C028081E09117
:1006D0005102F091520282FD12C090818091540229
:1006E0008F5F8F7320915502821751F0E091540271
:1006F000F0E0E55CFD4F958F8093540201C080814E
:10070000FF91EF919F918F912F910F900BBE0F90C2
:100710000FBE0F901F9018951F920F920FB60F9259
:1007200011242F933F938F939F93AF93BF93809107
:10073000330290913402A0913502B091360230918B
:10074000320223E0230F2D3720F40196A11DB11DA5
:1007500005C026E8230F0296A11DB11D2093320289
:100760008093330290933402A0933502B093360203
:100770008091370290913802A0913902B0913A02EB
:100780000196A11DB11D8093370290933802A0936A
:100790003902B0933A02BF91AF919F918F913F91EF
:1007A0002F910F900FBE0F901F901895789484B5DD
:1007B000826084BD84B5816084BD85B5826085BD5D
:1007C00085B5816085BD80916E00816080936E00EB
:1007D00010928100809181008260809381008091DD
:1007E000810081608093810080918000816080938E
:1007F00080008091B10084608093B1008091B0004E
:1008000081608093B000809191008260809391001C
:10081000809191008160809391008091900081602F
:10082000809390008091A10082608093A1008091CC
:10083000A10081608093A1008091A00081608093DD
:10084000A00080912101826080932101809121018B
:10085000816080932101809120018160809320013B
:1008600080917A00846080937A0080917A0082601F
:1008700080937A0080917A00816080937A008091E1
:100880007A00806880937A001092C100E0914B0258
:10089000F0914C0282E08083E0914702F09148029F
:1008A0001082E0914902F0914A0280E18083109227
:1008B0005302E0914F02F091500286E08083E09174
:1008C0004D02F0914E02808180618083E0914D0263
:1008D000F0914E02808188608083E0914D02F0911A
:1008E0004E02808180688083E0914D02F0914E023B
:1008F00080818F7D8083C9EAD1E0FE01249103E6E7
:1009000011E0F8018491882399F090E0880F991FF5
:10091000FC01E85FFE4FA591B491845C9E4FFC0101
:10092000459154918FB7F8949C91292B2C938FBFAC
:1009300081E021DE83E192E06FDE3FEEE32E31E0E5
:10094000F32EF7018491FE01B490F801D490DD20DC
:10095000A1F08111BBDD8D2D90E0880F991F8E5D78
:100960009E4FFC01A591B4918C91B82231E020E01A
:1009700009F430E0832F922F02C080E090E0F1E094
:100980008F27F9DD24DE2B013C0188EE882E83E0E1
:10099000982EA12CB12C1BDEDC01CB01841995090A
:1009A000A609B709883E9340A105B10558F021E09A
:1009B000821A9108A108B10888EE480E83E0581EFB
:1009C000611C711C81149104A104B10421F78CE213
:1009D00092E022DE43DDB5CFEBE3F2E01382128238
:1009E00088EE93E0A0E0B0E084839583A683B7838C
:1009F00084E092E09183808385EC90E09587848702
:100A000084EC90E09787868780EC90E0918B808BD8
:100A100081EC90E0938B828B82EC90E0958B848BC1
:100A200086EC90E0978B868B118E128E138E148E2F
:100A30000895EE0FFF1F881F8BBF0790F691E02DE2
:0E0A4000199481E090E0F89400C0F894FFCF84
:100A4E0000000000C701440191016F0183010D02F6
:100A5E000D0A004E6F742074686520636F6D2062FE
:100A6E006F6172642065697468657200626C696E8C
:020A7E006B000B
:00000001FF
