:1000000099C300000C94AA250C947F250C945425C8
:100010000C9429250C94FE240C94D3240C94A8242D
:100020000C947D24B8C30000B6C30000B4C3000024
:10003000B2C30000B0C30000AEC30000ACC30000F8
:10004000AAC300000C94700AA6C30000A4C3000059
:10005000A2C30000A0C300009EC300000C94332480
:100060009AC300000C94E8220C94BF2294C30000B1
:1000700092C3000090C300008EC300008CC3000038
:100080008AC3000088C3000086C3000084C3000048
:100090000C9496220C946D227EC300000C943F09B0
:1000A0007AC3000078C3000076C3000074C3000068
:1000B00072C3000070C300006EC300006CC3000078
:1000C0006AC3000068C3000066C3000064C3000088
:1000D00062C3000060C300005EC300005CC3000098
:1000E0005AC30000071519151C1523152A15581594
:1000F0005F156C157915851585158515851585157B
:10010000851585158515851585158515851585151F
:10011000851585158515851585158515851585150F
:10012000851585150715141519151C1523152A1580
:1001300031153E154B1540234323322336233A23F2
:100140007A2347234B235123552359235F236323CA
:1001500067237A236D237123752300407A10F35AA5
:1001600000A0724E18090010A5D4E80000E87648F7
:10017000170000E40B54020000CA9A3B000000E1A3
:10018000F505000080969800000040420F00000036
:10019000A08601000000102700000000E803000016
:1001A00000006400000000000A00000000000100E0
:1001B000000000002C76D888DC674F0823DFC1DF01
:1001C000AE59E1B1B796E5E3E453C63AE651997604
:1001D00096E8E6C28426EB898C9B62ED407C6FFC3E
:1001E000EFBC9C9F40F2BAA56FA5F490055A2AF780
:1001F0005C936B6CF9676DC11BFCE0E40D47FEF589
:1002000020E6B500D0ED902E0300943577050080F0
:10021000841E080000204E0A000000C80C3333334F
:10022000330F986E12831141EF8D2114893BE655EF
:1002300016CFFEE6DB18D1844B381BF77C1D901DD2
:10024000A4BBE424203284725E228100C9F124EC34
:10025000A1E53D27005EBCE2613FDD83C29C7E20BC
:10026000A3FD1F419DC3217FFCA2401E5F01E3BD92
:100270003E6082DC237D9FC1421CFEA0E1BF5D0386
:1002800080DE3C62BEE0025CDF81633D7C22C09E7A
:100290001D43A1FF4618FAA427799BC584DA386666
:1002A000E5BB5907DB856739BAE406581947A5FB52
:1002B0007826C49A653BD987045AB8E6A7F91B4546
:1002C000C6987A24F8A6441A99C7257B3A6486D83A
:1002D0005B05E7B98CD2306EEDB3510F4E10F2AC26
:1002E0002F7193CD114FADF3702ECC92D38D6F3112
:1002F000B2EC0E50AFF1134DCE90722C6D33D18F06
:100300000C52B0EE326C8ED0530DEFB1F0AE4C12F9
:1003100091CF2D73CA947628ABF517490856B4EAE5
:100320006937D58B5709EBB536688AD495CB2977D1
:10033000F4AA4816E9B7550B88D6346A2B7597C9C5
:100340004A14F6A8742AC896154BA9F7B6E80A54B9
:10035000D7896B352C3058005344206572726F7208
:10036000436F64653A203058004E6F2063617264B9
:100370002C2077726F6E6720636869702073656CDC
:100380006563742070696E2C206F72205350492071
:1003900070726F626C656D3F0043616E27742061FF
:1003A000636365737320534420636172642E204439
:1003B0006F206E6F74207265666F726D61742E00AF
:1003C0004E6F206572726F7220666F756E642E00BC
:1003D00043616E2774206F70656E20726F6F74209A
:1003E0006469726563746F72792E00496E76616C10
:1003F000696420666F726D61742C207265666F721D
:100400006D61742053442E007C3C3E5E2B3D3F2F9B
:100410005B5D3B2C2A225C0053656E64696E67202D
:1004200064617461202D2D2000000021002400272C
:10043000002A002D003000330001010000040107F4
:10044000010A0100002200250028002B002E0031A7
:1004500000340002010000050108010B0100000A40
:100460000B02090C0D0E0807030401000000000038
:10047000000000000000000000000000000000007C
:100480000000000000000000001211100000000039
:10049000000000000000000000000000000000005C
:1004A0000000002B03F42041890036400A1D8060C3
:1004B00010622C00082B03F42041890036400A1DED
:1004C000806010622C33082B03F4204189003640F1
:1004D0000A1D806010622C22081B03416027520015
:1004E00007400A1E806013A92C223A1D03A1204E4A
:1004F000A50013400A1E806027522C22481E03D0FC
:10050000009D490045400A2080604EA52C22482BC2
:10051000033402752507FF400A1B80609D492C2289
:100520000F020368013A9304D5400A1E806009D582
:100530000C221F06034501D7DC076E400A2D8060A0
:100540000EBF0C222E8A036001555502AD400A50A1
:10055000806020000C22C82B03A1E010C7000940D6
:100560000A1D806004322C22042703A1E010C7007A
:1005700006400A1D806004322C22072B03F4204120
:10058000890036400A1D806010622C23081B03413D
:100590006027520007400A1E806013A92C233A1DD1
:1005A00003A1204EA50013400A1E806027522C2371
:1005B000481E03D0009D490045400A2080604EA59A
:1005C0002C23482B033402752507FF400A1B80604B
:1005D0009D492C230F020368013A9304D5400A1E5B
:1005E000806009D50C231F06034501D7DC076E4048
:1005F0000A2D80600EBF0C232E8A03600155550220
:10060000AD400A50806020000C23C8510368003AB6
:1006100093013D2C1128806009D52C2108C803398D
:100620002068DC006B2A082A806013A92C2108C8E6
:10063000039C00D1B700D4290429806027522C21C3
:1006400008B8039C00D1B700D428822980604EA549
:100650002C2108A8039C00D1B700D4284129806030
:100660009D492C210898039C00D1B700D42820294B
:10067000806009D50C210898039600DA7400DC2804
:100680001F2980600A3D0C2108000020002300265D
:100690000029002C002F0032000001000003010699
:1006A00001090105050505070508080808020202F9
:1006B000020A0A08080404040401010101010101FD
:1006C000010303030303030303040707070C0C0CD4
:1006D0000C0C0C0C0C0202020206060606060606AC
:1006E000060B0B0B0B0B0B0B0B0102102020080849
:1006F0001020401020408002010201080402010184
:10070000020408102040808040201008040201806C
:1007100004020180402010080402010804020101C3
:1007200002040810204080010204081020408000CC
:100730003C42343B11241FBECFEFD1E2DEBFCDBF20
:1007400000E00CBF1AE0A0E0B2E0E2E2FCE900E069
:100750000BBF02C007900D92A83AB107D9F723E169
:10076000A8EABAE001C01D92A53CB207E1F713E088
:10077000C9E9D3E000E006C021970109802FFE01FE
:100780000E94DA4CC839D10780E00807A9F70E9417
:10079000403B0C94004E34CC8CB5962F93708C7FDC
:1007A000892B8CBD9DB562FB882780F9692F6E7FF0
:1007B000682B6DBD08958CB5837F682B6CBD089543
:1007C0008CB5611102C0806201C08F7D8CBD08951F
:1007D0009FB7F89480911B0B882319F08150809368
:1007E0001B0B80911B0B811105C08CB58F7B8CBDC1
:1007F00010921A0B9FBF08958CB58F778CBD08950A
:100800008CB580688CBD08950895FC01608971895C
:100810008289938908950F931F93FB0100811181B1
:1008200022813381FC01008B118B228B338BFB01E6
:100830004481558166817781FC01448755876687AD
:1008400077871F910F9108950F931F93FC010089E3
:10085000118922893389FB01008311832283338329
:10086000FC0184859585A685B785FB0184839583E6
:10087000A683B7831F910F910895FC01868D978DF4
:10088000A0A1B1A146895789608D718D841B950BFC
:10089000A60BB70B811520E89207A105B10520F042
:1008A0008FEF9FE7A0E0B0E0089585ED8093BC0056
:1008B0008091BC0084FDFCCF1092F30A0895409112
:1008C000CD0A262F30E0240F311D21323105DCF412
:1008D0002091F30A2430C9F4FC0180E090E08617EF
:1008E00058F43091CD0A2191DC01A555B54FA30FE5
:1008F000B11D2C930196F3CF8091CD0A680F6093C0
:10090000CD0A80E0089581E0089582E00895089579
:100910008FEF9FEF08958FEF9FEF08958091AA0AC0
:1009200090E09195819591090895CF93DF931F925F
:100930001F92CDB7DEB7CB01642F49835A83BFDF47
:100940004981842F5A81952F0F900F90DF91CF917D
:100950000895CF93DF931F92CDB7DEB7698361E02F
:10096000CE010196ACDF81E090E00F90DF91CF9156
:100970000895089580E090E00895FF920F931F93EB
:10098000CF93DF931F921F92CDB7DEB78C0122E089
:10099000AE014F5F5F4F63E00E94F111898187FFD5
:1009A00021C043E068E0C8010E943E1240E068E0D8
:1009B000C8010E943E12D80114968C91149782307F
:1009C00051F414961C92F801E45FFE4F1082C801A6
:1009D0000E94901207C0F8018481813019F4C80187
:1009E0000E947D11898185FF0CC0F801E45FFE4FF4
:1009F0009081D8011B968C91981718F4C8010E9419
:100A0000D111898184FF1AC0F801838590E0C796CF
:100A10008F3F910509F090F4438550E0445F5F4FAC
:100A2000400F511F27E36FE7C8010E94F111D80161
:100A30001B968C911B97895C1B968C93898183FFF5
:100A400008C0D801ED91FC910190F081E02DC80122
:100A500019958A8183FF08C0D801ED91FC9102802D
:100A6000F381E02DC8011995298122FF0AC0F80100
:100A7000EF5EFE4F80819181019691838083F80122
:100A8000148221FF35C06BE4C8010E94DF12F82EEA
:100A9000D8011B968C91F81658F4F801E35FFE4FCD
:100AA00080819181019691838083F80114824AC0EC
:100AB000D8011B968C911B971B964C912F2D281BB0
:100AC00050E0445F5F4F400F511F6FE7C8010E9425
:100AD000F111F801E15FFE4F8081918101969183D0
:100AE0008083F801F386148281E0E55FFE4F808306
:100AF000898180FF19C0F801E35FFE4F80819181F9
:100B0000019691838083C8010E947D11C8010E94D3
:100B10008412D80114961C92149714968C918130EB
:100B200019F0C8010E9478128A8186FF0EC066E221
:100B3000C8010E94DF12F801ED5EFE4F8083C801FC
:100B40000E948412C8010E947D110F900F90DF91C6
:100B5000CF911F910F91FF9008958091580D909122
:100B6000590D009709F009CF08958091560D909185
:100B7000570D009709F001CF08958091540D909181
:100B8000550D009709F0F9CE08950696A7C50F9365
:100B90001F932130310531F02230310549F0232BEC
:100BA000A1F40FC0FC01008911892289338905C095
:100BB000FC01008D118D228D338D400F511F621F5E
:100BC000731F06961F910F9189C580E01F910F91A9
:100BD000089504960C9447280C960C94BC28CF9347
:100BE000DF931F92CDB7DEB7698341E050E0BE01CD
:100BF0006F5F7F4F0C960E94BC2821E030E0019788
:100C000011F020E030E0C9010F90DF91CF910895FD
:100C10000C96FAC58F929F92AF92BF92CF92DF92BD
:100C2000EF92FF92CF93DF93EC018E889F88A88C80
:100C3000B98CCA88DB88EC88FD880C96E5D597FDD1
:100C400008C08E8A9F8AA88EB98ECA8ADB8AEC8AEF
:100C5000FD8ADF91CF91FF90EF90DF90CF90BF9012
:100C6000AF909F908F9008950C96F8C4DC01E0E05F
:100C7000615038F08D91E827F0E0EC5AFD4FE49197
:100C8000F7CF8E2F0895FC0190810180F281E02D35
:100C9000F8948181892B81832281892F8095282353
:100CA0002283A7E0B0E01197F1F7218182238183AD
:100CB000A3E2B0E01197F1F780817894EFECF0E0D7
:100CC0003197F1F7982381E009F480E00895EF92DD
:100CD000FF920F931F93CF93DF937C0108E010E006
:100CE000C0E0D1E0C701CFDF8111CD2BDD0F015076
:100CF0001109C1F78C2FDF91CF911F910F91FF90B8
:100D0000EF900895FC0190810180F281E02D892F00
:100D1000809560FF12C0F8942281822382838181B2
:100D2000892B8183A3E2B0E01197F1F78281982BA0
:100D30009283789487ED90E011C0F8942281822309
:100D400082838181892B8183AFEFB0E01197F1F726
:100D50008281982B928378948FE090E00197F1F74D
:100D60000895CF92DF92EF92FF920F931F93CF934C
:100D7000DF931F92CDB7DEB76C01E62E08E010E0DE
:100D8000FF24F39461E08F2D8E2109F460E0C60109
:100D90004983B8DFFF0C0150110949810115110584
:100DA00089F7411115C0F894D6011196ED91FC9187
:100DB000129791818C918095892381831196ED9171
:100DC000FC91129792818C918095892382837894EB
:100DD0000F90DF91CF911F910F91FF90EF90DF90D7
:100DE000CF900895CF92DF92EF92FF920F931F93CF
:100DF000CF93DF931F92CDB7DEB78C01F62E40E084
:100E000065E57983AEDFCF2C7981D72E760188E036
:100E1000E80EF11CF60161916F0140E0C801A1DF0D
:100E2000CE14DF04B9F70F90DF91CF911F910F918E
:100E3000FF90EF90DF90CF900895FC0190810180AA
:100E4000F281E02DF8948181292F209582238183DE
:100E500078948DE743E050E0815021F1DA01119759
:100E6000F1F730813923C1F3F894828182238283A0
:100E70008181892B81837894ABE7B7E01197F1F7F3
:100E8000F894818128232183A3E1B1E01197F1F740
:100E90008081982381E009F080E07894E3E6F6E031
:100EA0003197F1F70895CF93DF93EC018AE1FB01CD
:100EB0003C96DE011C9601900D928A95E1F7FB01AC
:100EC000828193819B838A8384819581A681B78166
:100ED0008C839D83AE83BF8380859185A285B385F6
:100EE00088879987AA87BB8780E292E09983888365
:100EF0008DE0B696DE01969601900D928A95E1F707
:100F0000DF91CF910895CF93DF93EB012AE1FB01AD
:100F10003C96DC011C9601900D922A95E1F72A81FE
:100F20003B81FC01338322834C815D816E817F8113
:100F30004483558366837783488559856A857B8595
:100F400040875187628773872DE0FE01B696DC01EA
:100F5000969601900D922A95E1F7DF91CF91089531
:100F6000FC0112821482DB018D919C91918380831C
:100F70000895FB0120813181FC0131832083089594
:100F8000CF93DF93EC0180E289A38AE090E19BA3F9
:100F90008AA382E08CA31EA21DA21FA260E672E0BB
:100FA000CE01E7DF62E672E0CE010496D9DF8CE481
:100FB00092E0998388838EE592E09D838C83DF9114
:100FC000CF910895FC01148616861382128288EE52
:100FD00093E0A0E0B0E084839583A683B78380E2AA
:100FE00092E09183808308954F925F926F927F92F7
:100FF0008F929F92AF92BF92CF92DF92EF92FF9229
:101000000F931F93CF93DF93CDB7DEB7ED970FB656
:10101000F894DEBF0FBECDBF8C014AAF5BAF6CAFA3
:101020007DAF60EC79E00E940A3588E00E94032BD6
:101030006B017C0185E20E94032B4B015C018AE17C
:101040000E94032B2B013C011DAA1CAA1FAA1EAA49
:1010500019AE18AE26E0AE014F5F5F4F6AAD7BADB3
:101060008CAD9DAD0E947447BE016F5F7F4FCE0176
:10107000C4960E941534C301B2010E94334A20E095
:1010800030E040E255E30E94924A20E030E040E840
:101090005CE30E94924AAB01BC0126E0CE018E9631
:1010A0000E947D34C501B4010E94334A20E030E043
:1010B00040E255E30E94924A20E030E040E85CE3E1
:1010C0000E94924AAB01BC0126E0CE0188960E94A4
:1010D0007D34C701B6010E94334A20E030E040E28F
:1010E00055E30E94924A20E030E040E85CE30E9431
:1010F000924AAB01BC0126E0CE0182960E947D346B
:1011000062ED72E0CE0101960E940A35BE016E5D6D
:101110007F4FCE0101960E94FE3364ED72E00E9483
:10112000E733BE01685D7F4F0E94FE3364ED72E0DD
:101130000E94E733BE01625D7F4F0E94FE3364ED83
:1011400072E00E94E733BE016C5C7F4F0E94FE3369
:10115000BC01C8010E942A34CE0101960E94783455
:10116000CE0182960E947834CE0188960E9478340F
:10117000CE018E960E947834CE01C4960E947834B7
:10118000C801ED960FB6F894DEBF0FBECDBFDF915C
:10119000CF911F910F91FF90EF90DF90CF90BF9074
:1011A000AF909F908F907F906F905F904F90089539
:1011B00080911A0B882361F09FB7F89420911A0B45
:1011C0008091190B213019F48DBB9FBF08958FBFFB
:1011D00008958EBD00000DB407FEFDCF8EB50895B5
:1011E000862FF7CF20911A0B222379F02FB7F8948E
:1011F00030911A0B313039F43DB33093190B3DB3B4
:101200003DBB2FBF02C02093190B8CBD9DBD08951F
:10121000CF93CFB7F89480911B0B811127C0E8EDD5
:10122000F6E08491EEE1F7E09491E82FF0E0EE0F24
:10123000FF1FE75DFB4FA591B491EC91E92321F4E9
:1012400061E085E30E94112361E085E30E948E2323
:101250008CB580618CBD8CB580648CBD61E084E30D
:101260000E948E2361E083E30E948E2380911B0BFA
:101270008F5F80931B0BCFBFCF910895C9CF1F9273
:101280000F920FB60F9211240BB60F922F933F932C
:101290004F935F936F937F938F939F93AF93BF937E
:1012A000EF93FF938091B900887F803609F49CC04A
:1012B00068F5883209F45BC090F4803109F454C0B9
:1012C00038F4882309F4F6C0883009F44DC0F5C01D
:1012D000883109F44CC0803209F45DC0EEC080341E
:1012E00009F468C048F4803309F455C0883309F024
:1012F000E4C08093F20AD8C0803509F44FC0883525
:1013000009F45DC0883409F0D8C0D6C0883909F422
:10131000C7C0A8F4883709F467C038F4883609F4E0
:1013200063C0803709F460C0C8C0883809F4B8C009
:10133000803909F45FC0803809F0BFC05BC0803BD2
:1013400009F486C038F4803A09F466C0883A09F492
:101350007FC0B3C0803C09F4A7C0883C09F4A4C096
:10136000883B09F48AC0A9C08091180B10C09091E5
:10137000170B8091160B981770F5E091170B81E011
:101380008E0F8093170BF0E0EA50F54F8081809329
:10139000BB0085EC86C08093F20A8EC0E091170BEB
:1013A00081E08E0F8093170B8091BB00F0E0EA5034
:1013B000F54F80839091170B8091160B6EC0E091D2
:1013C000170B81E08E0F8093170B8091BB00F0E02C
:1013D000EA50F54F80838091F50A81116DC081E05C
:1013E0008093F40A84EA61C083E08093F30A109248
:1013F000F10ACFCF8091F10A803208F051C0E0911C
:10140000F10A81E08E0F8093F10A8091BB00F0E039
:10141000EF52F54F8083BDCF85EC8093BC001092D6
:10142000F30A8091F10A803230F4E091F10AF0E0A1
:10143000EF52F54F10826091F10A70E0E091CF0A0F
:10144000F091D00A81ED9AE019951092F10A35C019
:1014500084E08093F30A1092CE0A1092CD0AE091B4
:10146000CB0AF091CC0A19958091CD0A811105C063
:1014700081E08093CD0A1092AB0AE091CE0A81E020
:101480008E0F8093CE0AF0E0E555F54F8081809372
:10149000BB009091CE0A8091CD0A981708F479CFBD
:1014A00085E88093BC0009C085EC8093BC00109255
:1014B000F30A03C01092F20AF8D9FF91EF91BF919D
:1014C000AF919F918F917F916F915F914F913F91DC
:1014D0002F910F900BBE0F900FBE0F901F9018957D
:1014E0001F920F920FB60F9211242F933F935F9389
:1014F0006F937F938F939F93AF93BF9381E090E01F
:101500009093AD0E8093AC0E2091A80A3091A90A59
:101510008091AE0E9091AF0E2817390759F483E0F1
:1015200090E09093AD0E8093AC0E1092A90A1092A9
:10153000A80A13C0C90163E070E00E94C74C2F5F86
:101540003F4F892B31F482E090E09093AD0E809371
:10155000AC0E3093A90A2093A80ABF91AF919F9136
:101560008F917F916F915F913F912F910F900FBE5F
:101570000F901F9018958091C10085FDFCCF809140
:10158000C00085FFF8CF6093C60081E090E0089529
:1015900008950895EF92FF920F931F93CF93DF93D7
:1015A00000D01F92CDB7DEB78C01FC0186899789E8
:1015B000A08DB18D89839A83AB83BC83E12CF12C00
:1015C00049815A816B817C819E012F5F3F4FD801F9
:1015D00014968D919C9115970E945C27882399F110
:1015E000D8011496ED91FC9115978481E80EF11CB9
:1015F000E114B0E1FB0630F549815A816B817C81B1
:101600008389803139F481E0483F5F4F610571057E
:1016100038F4D6CF81E0483F5F4F6F4F7F4080F274
:10162000A70160E070E099E0440F551F661F771F27
:101630009A95D1F7D80152964D935D936D937C9313
:10164000559701C080E00F900F900F900F90DF91A1
:10165000CF911F910F91FF90EF900895CF93DF935B
:10166000EC018A818823A1F1898187FF2DC06E85D5
:101670007F858889998941E00E941927009741F167
:10168000EB8140E2E49F90011124FC01E20FF31F83
:101690004081453EE9F04A81423040F44A895B8905
:1016A0006C897D89448F558F668F778F4E895F89CE
:1016B000688D798DFC01E20FF31F538F428F758B7C
:1016C000648B89818F778983DF91CF910C94CE26AB
:1016D00081E0888380E0DF91CF9108958F929F927F
:1016E000AF92BF92CF92DF92EF92FF920F931F9330
:1016F000CF93DF93EC018A81811102C080E077C033
:101700000A891B892C893D89041715072607370785
:10171000A8F36A017B01823029F4CA86DB86EC8655
:10172000FD860DC0C114D104E104F10451F41E8200
:101730001F82188619861A861B861C861D8681E0E4
:1017400056C08A849B84AC84BD84EC81FD81228553
:1017500030E0275F3F4FB501A401415051096109B5
:101760007109022E04C076956795579547950A949E
:10177000D2F7D701C6010197A109B10904C0B695F6
:10178000A795979587952A95D2F784179507A60769
:10179000B70720F089288A288B2849F44E895F8969
:1017A000688D798D4E835F836887798704C0841B39
:1017B000950BA60BB70B4C015D018E010A5F1F4F05
:1017C00081149104A104B10409F4A7CF4E815F8173
:1017D0006885798598018C819D810E945C2791E0C4
:1017E000891A9108A108B1088111EACF87CFDF914A
:1017F000CF911F910F91FF90EF90DF90CF90BF900E
:10180000AF909F908F900895CF93DF931F92CDB7A5
:10181000DEB7BE016F5F7F4F0E945C18019719F41D
:10182000898190E002C08FEF9FEF0F90DF91CF9101
:101830000895CF93DF93FC012281222311F080E0F1
:101840003DC0FB01EC017D836C838389803101F114
:101850008032A9F783E08A8386899789A08DB18D2C
:101860008E8B9F8BA88FB98FCE0194DE882339F39E
:1018700081E089831E821F82188619861A861B863C
:101880001C861D861E861F86188A198A1B8216C012
:1018900082E08A831E8A1F8A188E198E8489958910
:1018A000A0E0B0E025E0880F991FAA1FBB1F2A9572
:1018B000D1F78A8B9B8BAC8BBD8BDACFDF91CF912D
:1018C0000895CF93DF93EC01C9DE1A82DF91CF91A7
:1018D00008954F925F926F927F928F929F92AF92F4
:1018E000BF92CF92DF92EF92FF920F931F93CF930D
:1018F000DF93CDB7DEB72C970FB6F894DEBF0FBEDF
:10190000CDBF4C01DC011496AD90BC901597F5014C
:1019100086819781A085B1859C01AD012F5F3F4FE6
:101920004F4F5F4F29873A874B875C87D4011696C4
:10193000CD90DD90ED90FC901997C114D104E10495
:10194000F10439F0BFEFCB1ADB0AEB0AFB0A10E017
:1019500006C0F501C080D180E280F38011E026014D
:1019600037011D821E821F821886F50186819781AC
:10197000A085B1852D813E814F8158852817390773
:101980004A075B0708F076C089859A85AB85BC85D8
:101990008C159D05AE05BF0550F482E0C82ED12CF4
:1019A000E12CF12C92E0492E512C612C712C9E01DE
:1019B0002F5F3F4FB701A601C5010E945C27882316
:1019C00009F458C089819A81AB81BC81892B8A2B0B
:1019D0008B2B71F04C145D046E047F0409F010E051
:1019E000260137019FEF491A590A690A790A05C089
:1019F000C414D504E604F70491F02D813E814F8193
:101A000058852F5F3F4F4F4F5F4F2D833E834F834E
:101A100058873FEFC31AD30AE30AF30AA6CF11236C
:101A200051F0D301C2010196A11DB11DF5018083C2
:101A30009183A283B3830FEF1FEF2FEF3FE0B3013A
:101A4000A201C5010E94D227F82E882399F0D40163
:101A500016964D915D916D917C91199741155105A7
:101A60006105710549F093018201C5010E94D227E9
:101A7000811102C0F12C19C0D40116964D925D92CD
:101A80006D927C92199756968D919D910D90BC9177
:101A9000A02D892B8A2B8B2B41F4F401468A578A7F
:101AA000608E718E8181806881838F2D2C960FB618
:101AB000F894DEBF0FBECDBFDF91CF911F910F9184
:101AC000FF90EF90DF90CF90BF90AF909F908F905E
:101AD0007F906F905F904F9008958EBD0DB407FE7C
:101AE000FDCF08958FEF8EBD0DB407FEFDCF8EB5EF
:101AF0000895CF93DF93EC018A810E94951660E0F0
:101B00008881DF91CF910C94112361E0FC018081E9
:101B10000E9411238FEFE1CF0F931F93CF93DF9399
:101B20008C01862FEA01D9DF88818EBD8981FE0173
:101B30003296DE5F0DB407FEFDCF8EBDEC17FD07BC
:101B400011F08191F7CF0DB407FEFDCF8FEFC5DF08
:101B50008FEFC3DFC7DFF8018383982F9F71953024
:101B600031F083E18183C801D0DF80E001C081E0F2
:101B7000DF91CF911F910F910895EF92FF921F93E4
:101B8000CF93DF9300D01F92CDB7DEB77C01162F25
:101B900029833A834B835C83ACDF0E947F16812FBD
:101BA00080649BDF8C8199DF8B8197DF8A8195DF51
:101BB000898193DF112311F087E801C085E98DDF6A
:101BC0001C3009F48FDF10E08DDFF701838387FF7E
:101BD00004C01F3F11F01F5FF7CF0F900F900F90C1
:101BE0000F90DF91CF911F91FF90EF9008950F9389
:101BF0001F93CF93DF93EC0189018C81833039F0FF
:101C000089E0440F551F661F771F8A95D1F79A0107
:101C1000AB0168E1CE01B1DF882319F086E089834A
:101C20000AC0A8016EEFCE0177DF182F882319F0C4
:101C3000CE016BDF03C0CE0168DF10E0812FDF91A2
:101C4000CF911F910F9108952F923F924F925F92E3
:101C50006F927F929F92AF92BF92CF92DF92EF925C
:101C6000FF920F931F93CF93DF9300D01F92CDB7B6
:101C7000DEB77C015B016A01922EDB0114968D9127
:101C80009C911597F7019583848340E050E0BA0159
:101C9000C50124DD00E0F501428553856485758525
:101CA00082899389A489B589481759076A077B07F0
:101CB00008F031C1C501A8DD97FDE8C1F5018285B5
:101CC0009385A485B58581509E4FAF4FBF4F8287C6
:101CD0009387A487B58720901E0B30901F0B4090F0
:101CE000200B5090210B65E2662E6BE0762E10E003
:101CF000D3018C91882319F0853E81F4D3C1011161
:101D000006C0F70126863786408A518A1383D3019D
:101D10008C91882309F4FEC001E008C04BE050E03C
:101D2000B301C6010E94CB4D892B39F01F5FB0E291
:101D30006B0E711C1031E1F6AECF97FCA7C1F0E23B
:101D40001F9FA00111249A012B5D344FD9011B96CE
:101D50008C91817121F0892D827109F0D6C080911A
:101D60001E0B90911F0BA091200BB091210BF7013E
:101D700086879787A08BB18B13838A010B5D144FE5
:101D8000D80154968D919C915597A0E0B0E0DC016C
:101D900099278827868B978BA08FB18FF801428D6A
:101DA000538D60E070E0842B952BA62BB72BF701A9
:101DB000868B978BA08FB18FD9011B968C918871E0
:101DC00069F4F801848D958DA68DB78DF701828B0E
:101DD000938BA48BB58B81E082830CC0803109F09A
:101DE00094C0C701D7DB882309F48FC084E0D701F2
:101DF00012968C93892D8F70F7018183168217823A
:101E000010861186128613861486158694FE71C07C
:101E10008281813009F079C091FE77C0F701828913
:101E20009389A489B589892B8A2B8B2B09F461C0EE
:101E300040E050E0BA01C70151DC882309F465C0D5
:101E4000D70156964D905D906D907C905997149661
:101E5000CD90DC9015979E012F5F3F4FB301A201FB
:101E6000C6010E945C27882309F44FC000E010E0FF
:101E70009801B301A201C6010E94D227882309F468
:101E800044C0F60180819181A281B3814816590630
:101E90006A067B0620F44082518262827382498006
:101EA0005A806B807C80F6018389803109F0F0C014
:101EB000F8EF4F16FFEF5F066104710460F2D7017F
:101EC00056961D921D921D921C925997F701128AE7
:101ED000138A148A158A818180688183C701BEDBD9
:101EE000882399F040E050E0BA01C701F7DB88236E
:101EF00061F095FE0DC0D70152964D915D916D91A7
:101F00007C915597C701EADBD0C0F7011282BEC0B1
:101F100081E0CBC001E0892D8274823409F0B6C023
:101F20000023C9F0D70113961C9113971E966D914B
:101F30007D918D919C91519741E00E9419270097C6
:101F400009F4A4C0F7012381BC01F0E22F9F600DCA
:101F5000711D11247CC0D50112968C91129782308C
:101F600009F494C052968D919D910D90BC91A02D35
:101F7000803E9F4FAF41B10508F088C0C501A9DC84
:101F8000882309F483C0D50114962D913C911597AF
:101F900016968D919D910D90BC91A02D0297A1094F
:101FA000B109F901028404C0880F991FAA1FBB1F41
:101FB0000A94D2F743855485658576851C012D01E9
:101FC000240E351E461E571E45E0C201B1010E9477
:101FD00019278C01892B09F459C080E092E0D801BF
:101FE000FC011D923197E9F777247394D50114967B
:101FF000ED91FC9115978481781680F49801B201D7
:10200000A101470D511D611D711D80911C0B909107
:102010001D0BEDDD8823D1F17394E8CF90E0A0E0B3
:10202000B0E059E0880F991FAA1FBB1F5A95D1F73E
:10203000F5014289538964897589840F951FA61F0C
:10204000B71F828B938BA48BB58BB80110E080E215
:10205000DB011D928A95E9F78BE0F601DB01019027
:102060000D928A95E1F781E298E2FB01918B808BDA
:1020700020E038E037872687938B828B918F808F83
:10208000378B268B0E94CE26811159CE80E00DC061
:1020900028EF42162FEF520662062FE0720608F470
:1020A000DACE0DCF011138CE2CCE0F900F900F90BD
:1020B0000F90DF91CF911F910F91FF90EF90DF90E4
:1020C000CF90BF90AF909F907F906F905F904F9018
:1020D0003F902F9008952F923F924F925F926F9270
:1020E0007F928F929F92AF92BF92CF92DF92EF92A8
:1020F000FF920F931F93CF93DF93CDB7DEB7C354F7
:10210000D1090FB6F894DEBF0FBECDBF3C015B0115
:102110008A01322E1B8E1D8E19821B82672B11F4B1
:1021200080E0A9C0FC0182818111FACFFA0180818F
:102130008F3249F175010EC0828182508230D0F316
:1021400064817581CE01019674DB882349F3CE0149
:1021500001967C016E019BE1C90ED11C26014E0146
:10216000E5E38E0E911CFBE0F80D2396FFAF23975D
:10217000CE01019622969FAF8EAF22972496CFAEC6
:1021800024972D2C41C08F0181918F32E1F3F5010D
:102190008111D2CF64817581C3014BDB6CC080E2B9
:1021A000819323969FAD23979E13F9CFD80190E09A
:1021B00027E04A2F3B2F8D91811128C08DA98032B5
:1021C00009F4AECF842F932F8C01FC01208101965E
:1021D0002F32D1F3222309F449C021E0A401B70131
:1021E000C60132DD882309F49BCFEA14FB0411F009
:1021F000C70167DBC414D50491F124969FAD2497E1
:10220000822D7601C92ED82EF401C9CF8F32B1F2BA
:102210008E3219F0E8E0F4E00AC02A3009F480CFE9
:1022200098E02AE0C6CF3196381709F479CF349177
:102230003111F9CF291708F473CF3FED380F3E3530
:1022400008F06ECF31E0390FF401E90FF11D9FE97D
:10225000980F9A3108F480528083932FAACF219649
:102260009FAD219722968FAD2297CBCF232DA4012E
:10227000B701C301E9DCCD5BDF4F0FB6F894DEBFD9
:102280000FBECDBFDF91CF911F910F91FF90EF90C7
:10229000DF90CF90BF90AF909F908F907F906F9086
:1022A0005F904F903F902F9008950F931F93CF937F
:1022B000DF93EC0189018C81833039F089E0440F90
:1022C000551F661F771F8A95D1F79A01AB0161E10F
:1022D000CE0153DC811107C0B801CE01DF91CF914F
:1022E0001F910F9137C584E08983CE010EDC80E019
:1022F000DF91CF911F910F9108952FB7F894FC01B2
:102300001386E55FFE4F10822FBF0895CF92DF92B4
:10231000EF92FF920F931F93CF93DF931F921F9221
:10232000CDB7DEB78C01D62EF42EEFB6F89460E070
:10233000DC0116968C9129835A830E941123F8019F
:1023400082819381DC01ED91FC916D2D606801909B
:10235000F081E02D1995CF2C5A81D52E2981F20ECE
:10236000FC1471F0F80182819381D6016D916D01A9
:10237000DC01ED91FC910190F081E02D1995F0CFF9
:1023800061E0F80186810E941123EFBE0F900F904B
:10239000DF91CF911F910F91FF90EF90DF90CF9041
:1023A00008950F931F93CF93FC01C3858C01045FA5
:1023B0001E4FF8012081C21BCC3308F0CBE3F8019B
:1023C000408150E0445F5F4F480F591F2C2F6FE74B
:1023D0009DDFF8018081C80FC083CF911F910F91BD
:1023E0000895CF92DF92EF92FF920F931F93CF93B6
:1023F000DF931F921F92CDB7DEB78C01D62EF42E3D
:10240000EFB6F89460E0DC0116968C9129835A832C
:102410000E941123F80182819381DC01ED91FC91EE
:102420006D2D6F770190F081E02D1995CF2C5A8199
:10243000D52E2981F20EFC1479F0F8018281938166
:10244000DC01ED91FC910190F081E02D60E01995A7
:10245000F60181936F01EFCF61E0D80116968C9160
:102460000E941123EFBE0F900F90DF91CF911F912B
:102470000F91FF90EF90DF90CF900895EF92FF9231
:102480000F931F93CF93DF931F92CDB7DEB77C01DD
:10249000162F0FB7F89460E0DC0116968C914983F3
:1024A0000E941123F70182819381DC01ED91FC915F
:1024B000612F60680190F081E02D1995F70182810C
:1024C0009381DC01ED91FC910190F081E02D498137
:1024D000642F199561E0F70186810E9411230FBFD7
:1024E0000F90DF91CF911F910F91FF90EF90089582
:1024F000CF93DF93EC014D81446067E0BFDF81E063
:102500008C83DF91CF910895CF93DF93EC0142E06C
:1025100068E0B4DF40E068E0CE01DF91CF91AECF5C
:10252000CF93DF93EC01FC01E45FFE4F90818B853C
:10253000981710F4CE0135DF4B856EE3CE019EDF98
:102540008C81823059F04D81486067E0CE0196DF82
:1025500082E08C83CE01DF91CF91D6CFDF91CF91F6
:1025600008950F931F93CF93DF938C01EB01488164
:102570006CE184DF49816FE1C80180DFAE014E5F0D
:102580005F4F26E060E2C801C1DEAE01485F5F4FE9
:1025900023E06CE2C801BADE4B8568E5C8016EDF56
:1025A0004C8569E6C8016ADFAE01435F5F4F25E0F5
:1025B0006EE6C801DF91CF911F910F91A7CE0F93C7
:1025C0001F93CF93DF93EC01162F0FB7F89460E0C1
:1025D0008E810E9411238A819B81DC01ED91FC9107
:1025E000612F6F770190F081E02D19958A819B8191
:1025F000DC01ED91FC910190F081E02D60E01995F6
:10260000182F61E08E810E9411230FBF812FDF916F
:10261000CF911F910F910895EF92FF920F931F9307
:10262000CF93DF934091301150913111609132116D
:10263000709133114F5F5F4F6F4F7F4F4093301159
:10264000509331116093321170933311843209F435
:1026500096C2E0912B11853234F48A3071F08D30BE
:1026600009F09BC20AC08A3241F08C3209F095C24F
:1026700090911811982790931811082FEF3008F0B7
:1026800074C1F0E0E65EFE4E10828091191188233D
:1026900009F46DC120911A113FEB320F822F022EE7
:1026A000000C990B363010F4C79707C0215626301E
:1026B00018F48755910901C0C097282F2295207FD3
:1026C00030911B114FEB430F832F032E000C990BFE
:1026D000463010F4C79707C03156363018F4875586
:1026E000910901C0C097820F9091181189132AC1D6
:1026F00080913C1190913D11A0913E11B0913F11FC
:102700000196A11DB11D80933C1190933D11A093A2
:102710003E11B0933F1180911711882399F0809159
:10272000341190913511A0913611B0913711019665
:10273000A11DB11D8093341190933511A0933611D2
:10274000B093371110912911112309F46BC0113086
:1027500009F0D2C08091BB109091BC10A091BD1027
:10276000B091BE108093B7109093B810A093B91099
:10277000B093BA100E9427246093BF107093C010CA
:102780008093C1109093C2101093B6101093B5109F
:102790008091C9109091CA10A091CB10B091CC102B
:1027A0008093C5109093C610A093C710B093C81023
:1027B0000E9427246093CD107093CE108093CF1089
:1027C0009093D0101093C4101093C31080911711E0
:1027D000882309F491C087E0E3EAF0E1A5E9B0E1DC
:1027E00001900D928A95E1F787E0EAEAF0E1ACE921
:1027F000B0E101900D928A95E1F70E942724609341
:10280000B1107093B2108093B3109093B4101093E2
:1028100094101093931081ED90E10E94D5258FEDD7
:1028200090E168C08091C9109091CA10A091CB101E
:10283000B091CC108093C5109093C610A093C71090
:10284000B093C8100E9427246093CD107093CE10CF
:102850008093CF109093D01011E01093C410109378
:10286000C31080911711882321F187E0E3EAF0E19A
:10287000A5E9B0E101900D928A95E1F787E0EAEAD7
:10288000F0E1ACE9B0E101900D928A95E1F70E9488
:1028900027246093B1107093B2108093B31090937B
:1028A000B41010939410109393108DEE90E10E9449
:1028B000D5258091051190910611A0910711B09135
:1028C00008118093011190930211A0930311B0930A
:1028D00004110E9427246093FD107093FE108093D2
:1028E000FF109093001181E08093FC108093FB1007
:1028F00089E091E10E94D525C0912E11D0912F1130
:1029000011E0209709F42CC1E0912E11F0912F11C4
:1029100066A177A18EA19FA10E94E14D892B09F0AC
:102920001FC1BE01CE0140960E94EA4D0E9427249D
:1029300068A379A38AA39BA31DA31CA30AA4DBA558
:10294000C02DDFCF8091381190913911A0913A11AB
:10295000B0913B110196A11DB11D80933811909348
:102960003911A0933A11B0933B1190E0FAC08091D5
:102970002A11811132C06CE776E08AE191E10E9470
:10298000E14D892B11F481E00CC062E876E08AE128
:1029900091E10E94E14D892B19F41092291103C095
:1029A00082E08093291180912C1190912D119093A8
:1029B0002F1180932E11C0912E11D0912F1120979D
:1029C000A1F2EEA0FFA06AE171E1C7010E94E14D12
:1029D00097FFF9C08AA59BA5EACFE0912911E230C3
:1029E00009F493C090911A11992309F48EC020E242
:1029F000E29FF0011124E82B3197E932F10508F04C
:102A000084C08827EE58FF4F8F4F0C94DA4C8AE130
:102A100091E10E9473266093C9107093CA1080934D
:102A2000CB109093CC1071C081E0913409F043C079
:102A300043C063EA70E109C081E0933509F080E0AA
:102A40008093A91062C06AEA70E18AE191E10E9474
:102A5000EB255BC081E0973509F080E08093B010F2
:102A600054C08AE191E10E9473266093DB10709359
:102A7000DC108093DD109093DE1047C08AE191E175
:102A80000E9473266093E9107093EA108093EB1014
:102A90009093EC103AC08AE191E10E941C47609348
:102AA000BB107093BC108093BD109093BE102DC0CE
:102AB00081E091330CF480E08093171126C08AE105
:102AC00091E10E941C476093051170930611809359
:102AD00007119093081119C08AE191E10E947326B1
:102AE0006093131170931411809315119093161124
:102AF0000CC08AE191E10E9473266093F7107093F5
:102B0000F8108093F9109093FA10C0912E11D09183
:102B10002F11209709F429CFE0912E11F0912F1158
:102B200066A177A18EA19FA10E94E14D892B09F09A
:102B30001CCF28A539A580912A1190E08217930710
:102B40000CF413CF2817390739F440E150E06AE15B
:102B500071E1CE010E94F14D0AA4DBA5C02DD9CFB1
:102B600091E080912A118F5F80932A1110922B118E
:102B700081E00A3209F080E08093191132C010928E
:102B80002B1110922A111092181182E080932911B2
:102B9000109219111092171114C0EE3040F491E008
:102BA0009E0F90932B11F0E0E65EFE4E8083909195
:102BB0001911911106C020911811822780931811C4
:102BC00010C090E00EC06AE171E1C7010E94E14DC2
:102BD000181619060CF0C9CE10922F1110922E1152
:102BE000C4CE892FDF91CF911F910F91FF90EF906D
:102BF0000895CF92DF92EF92FF920E9427246B01FB
:102C00007C018AE59DE00E949121181619060CF0BE
:102C100058C08AE59DE00E946F2187FDF2CFFCDC61
:102C2000882379F30E9467396093381070933910C4
:102C300080933A1090933B100E942724C0904F102D
:102C4000D0905010E0905110F09052106C197D0906
:102C50008E099F0960934F1070935010809351100C
:102C6000909352100E94314A209153103091541089
:102C700040915510509156100E94924A2091571041
:102C8000309158104091591050915A100E94084CA0
:102C900020E030E044E353E40E94924A2BED3FE011
:102CA00049E450E40E94084C60934B1070934C1020
:102CB00080934D1090934E10809117118093421085
:102CC00019C00E942724DC01CB018C199D09AE0993
:102CD000BF09883E9340A105B10508F492CF0E9438
:102CE0006739609338107093391080933A1090933D
:102CF0003B1080E0FF90EF90DF90CF900895CF934E
:102D0000DF930E942724EB010E94720D8F3F49F050
:102D10000E9427246C1B7D0B68357240A8F380E06D
:102D200001C081E0DF91CF91089522E090E0281763
:102D300028F4963019F0220F9F5FF9CF892F806A0F
:102D400086958CBD90FD03C081E0963009F480E04B
:102D50008DBD0895EF92FF920F931F93CF93DF9352
:102D6000EC017B010E9427248B010E94720D8B8352
:102D70008F3F49F40E942724601B710B6D32714014
:102D8000A0F381E103C08E3F39F08FE08983CE014B
:102D90000E94850D80E01EC08FEF8EBDF701D70128
:102DA000A150BE4F9FEF0DB407FEFDCF8EB59EBD67
:102DB0008193EA17FB07B9F70DB407FEFDCF8EB577
:102DC0008C931B820E94720D0E94720DCE010E9494
:102DD000850D81E0DF91CF911F910F91FF90EF90D2
:102DE0000895CF93DF93AC0160E070E02AE087EFB5
:102DF0009DE00E949B35EC0187EF9DE00E94E3354A
:102E00008C0F9D1FDF91CF9108959F92AF92BF923B
:102E1000CF92DF92EF92FF920F931F93CF93DF93A6
:102E2000CDB7DEB7E9970FB6F894DEBF0FBECDBFC2
:102E30005C0168E876E087EF9DE00E9406374091EC
:102E400043105091441060E070E02AE087EF9DE06D
:102E50000E949B3564ED72E087EF9DE00E9406378B
:102E60004091451050914610609147107091481064
:102E70002AE087EF9DE00E949B3564ED72E087EFCA
:102E80009DE00E9406378091491090914A10A9DF79
:102E9000D5011E968C91811108C065E976E087EF17
:102EA0009DE00E94E63580E0F5C06091431070918E
:102EB00044104AE0CE018E960E94AC3460914510D9
:102EC00070914610809147109091481019A618A64D
:102ED0001BA61AA61DA61CA62AE0AE014F5F5F4FD7
:102EE0000E947447BE016F5F7F4FCE0188960E949B
:102EF00015346091491070914A104AE0CE018296D3
:102F00000E94AC340091431010914410C0904510C1
:102F1000D0904610E0904710F09048100115110530
:102F200011F401E010E0C114D104E104F10421F432
:102F3000C12CD12C7601C3948AE0982EF8019E9E74
:102F400080019F9E100D1124B80180E090E00E9446
:102F5000314A20E030E04AE754E40E942D4A87FFDE
:102F600017C062EB76E0CE0101960E940A35BE01E1
:102F7000625D7F4FCE0101960E94FE33BC01CE01FF
:102F80008E960E942A34CE0101960E947834D6CFC4
:102F9000AAE0B0E0A70196010E94624B6B017C01A0
:102FA0000E94314A20E836E948E15BE40E942D4A5C
:102FB00087FF17C062EB76E0CE0101960E940A35CA
:102FC000BE01685D7F4FCE0101960E94FE33BC01B9
:102FD000CE0188960E942A34CE0101960E94783450
:102FE000D7CFBE01625D7F4FCE0101960E940235B0
:102FF00064ED72E0CE0101960E94E733BE01685D88
:103000007F4F0E94FE3364ED72E00E94E733BE0101
:103010006E5D7F4F0E94FE3364EB76E00E94E733E3
:10302000BC01CE01C4960E940235CE0101960E94D9
:103030007834CE0182960E947834CE0188960E9420
:103040007834CE018E960E94783466EB76E087EF76
:103050009DE00E940637BE016C5C7F4F87EF9DE0CC
:103060000E94873640E050E0BA01C5010C960E94EC
:103070006E0BD501ED91FC9148AD59AD6CA97DA9C0
:103080000280F381E02DC5011995CE01C4960E94FE
:10309000783481E0E9960FB6F894DEBF0FBECDBF5D
:1030A000DF91CF911F910F91FF90EF90DF90CF9024
:1030B000BF90AF909F9008952F923F924F925F9252
:1030C0006F927F928F929F92AF92BF92CF92DF9238
:1030D000EF92FF920F931F93CF93DF93EC014B017D
:1030E0008A81882369F0898180FF0AC00CC04E81E3
:1030F0005F816885798591010E945C27811156C0A6
:103100008FEF9FEF2FC14A895B896C897D898A8502
:103110009B85AC85BD858A019B01081B190B2A0B79
:103120003B0B023011052105310508F075C05A012D
:10313000A81AB90A65011E0126E0220E311CC1142D
:10314000D10409F467C04A855B856C857D857A0169
:1031500081E0F8228C819D812A013B0139E076943F
:103160006794579447943A95D1F7FC01058104215F
:103170002A81223049F486899789A08DB18D480E25
:10318000591E6A1E7B1E31C0E114F10479F401114D
:103190000DC0452B462B472B09F0A9CF8E899F895F
:1031A000A88DB98D8E839F83A887B987EC81FD8117
:1031B0008E819F81A885B9850297A109B1090284F2
:1031C00004C0880F991FAA1FBB1F0A94D2F743851A
:1031D000548565857685840F951FA61FB71F2C0122
:1031E0003D01400E511C611C711CE114F104C1F43D
:1031F000C114F2E0DF06A0F080911E0B90911F0B2E
:10320000A091200BB091210B481659066A067B0647
:10321000C1F506C0C501A6C0AA24A394B12C8ACFCB
:1032200040E0C301B2010E941927009709F468CF5A
:1032300020E032E02E193F0986012C153D0508F4E7
:103240008901BC016E0D7F1DA801C4010E94D84DEB
:1032500007C010E0102F0027110FC7010E94850D35
:10326000800E911E8A859B85AC85BD85800F911F40
:10327000A11DB11D8A879B87AC87BD87C01AD10A63
:103280005ECFC114F4E0DF0670F49401B301A20133
:1032900080911C0B90911D0B08D8882309F430CF26
:1032A00000E012E0DDCF1D2D16952A81223039F085
:1032B000EC81FD812481201B211708F4122F481670
:1032C00059066A067B0680F4E0901C0BF0901D0BFB
:1032D000F7018481833091F029E0440C551C661C71
:1032E000771C2A95D1F70AC0810F911DA11DB11D30
:1032F000481659066A067B0680F1E6CFA3019201C3
:1033000062E1C7010E94BD0D882311F085E01FC056
:10331000C7010E94850D340100E0011769F0C70163
:103320000E94790DB301C70115DDFEEF7F1A8823D6
:1033300009F4E6CE0F5FF1CF20E030E0A9016CE0A8
:10334000C7010E94BD0D882309F483CF83E0F701F4
:103350008183C7010E94850DD3CE0E94CE268111A4
:10336000B3CFCECEDF91CF911F910F91FF90EF9011
:10337000DF90CF90BF90AF909F908F907F906F9095
:103380005F904F903F902F9008954F925F926F9271
:103390007F928F929F92AF92BF92CF92DF92EF92E5
:1033A000FF926B017C01B42E9B01AC010E94A04CEA
:1033B000882319F064ED76E027C026013701E894F0
:1033C00077F82FEF3FEF4FE75FE7C301B2010E94AD
:1033D000A04C81110DC02FEF3FEF4FE75FE7C30116
:1033E000B2010E942D4A18161CF468ED76E00CC05C
:1033F0002FEF3FEF4FE75FE4C701B6010E949C4CFF
:10340000181694F46CED76E087EF9DE0FF90EF9056
:10341000DF90CF90BF90AF909F908F907F906F90F4
:103420005F904F900C941F3B2FEF3FEF4FE75FEC07
:10343000C701B6010E942D4A87FDE4CF20E030E0AD
:10344000A901C701B6010E942D4A87FF0BC06DE29A
:1034500087EF9DE00E94A3364C01F7FAF094F7F84D
:10346000F09402C0812C912CA12C60E070E080E0EF
:103470009FE3AB1441F020E030E040E251E40E94D1
:10348000084CA394F6CF9B01AC01C701B6010E9482
:10349000A44B2B013C010E94704C6B017C010E94EB
:1034A000314A9B01AC01C301B2010E94A34B2B0125
:1034B0003C012AE0B701A60187EF9DE00E949B3501
:1034C0007C01E80CF91CBB2039F06EE287EF9DE02F
:1034D0000E94A336E80EF91EDB2CDD2031F120E03E
:1034E00030E040E251E4C301B2010E94924A2B0154
:1034F0003C010E94704C4B01A12CB12C2AE0B5017B
:10350000A40187EF9DE00E949B35E80EF91EC501DE
:10351000B4010E94314A9B01AC01C301B2010E9477
:10352000A34B2B013C01DA94D8CFC701FF90EF9059
:10353000DF90CF90BF90AF909F908F907F906F90D3
:103540005F904F9008951F93CF93DF9320917D114B
:103550002230E1F3DFB7F8942FB7F894109284117A
:10356000109285122FBF662319F120918411462FE6
:1035700050E0FA01E20FF11DEF3FF10509F0C0F450
:10358000C62FBC011FB7F89490918411892F90E049
:103590008B579E4E0E94D84D609184116C0F6093A2
:1035A00084111FBF89E791E10E94901281E001C060
:1035B00080E0DFBFDF91CF911F9108952F923F925E
:1035C0004F925F926F927F928F929F92AF92BF9233
:1035D000CF92DF92EF92FF920F931F93CF93DF93DF
:1035E000CDB7DEB7C757D1400FB6F894DEBF0FBED8
:1035F000CDBF60E084E00E9411230E9427244B018C
:103600005C010E94BF37892B61F065EC73E087EFA6
:103610009DE00E94E63560E177E280E090E00E9464
:10362000EF2360EE76E087EF9DE00E94E6358FE0C5
:10363000E4E5F8E0DE01A35DBE4F01900D928A95AE
:10364000E1F76FE0CE01835D9E4F0E94D13A892B56
:1036500049F462E675E087EF9DE00E94E63500E000
:1036600010E008C063E177E087EF9DE00E94E63557
:1036700001E010E080914210882331F1BADA811123
:1036800006C062E975E087EF9DE00E94E635609133
:103690003C1070913D10072E000C880B990B0E9476
:1036A000334A9B01AC0160913810709139108091C0
:1036B0003A1090913B100E942D4A181694F4012B59
:1036C00009F4BFCFD12C15C00E942724DC01CB0107
:1036D00088199909AA09BB0980349641A044B1050B
:1036E00070F360EA75E087EF9DE00E94E635DD2427
:1036F000D3946AE277E087EF9DE00E94E635CE0141
:1037000001967C018E0106501F4FD8011496CA58AD
:10371000DE4FB983A883C657D140D1106DC460E095
:1037200085E37FD761E086E07CD761E089E079D7E7
:1037300089EFF70111928A95E9F7F701E017F10790
:1037400011F01192FBCF0E9427242B013C0139EF8D
:10375000332E0E942724DC01CB0184199509A60988
:10376000B7090A97A105B10508F0D4C28091841267
:10377000811108C080917D11813021F089E791E1AC
:103780000E94781280918412882319F38091841208
:10379000811108C080917D11813021F089E791E18C
:1037A0000E94781280918412882399F2DFB6F894EF
:1037B00080918411831510F430908411432D50E0D2
:1037C00065E871E1C7010E94D84D89E791E10E9447
:1037D0007D11DFBE68E489E791E10E94DF12C82E07
:1037E00067E489E791E10E94DF12D82E69E489E756
:1037F00091E10E94DF12282E6AE489E791E10E949C
:10380000DF1287FDA6CFFFEFDF1621F06C2D822D92
:103810000E9496392C2D30E0F901EC56FD4E808146
:10382000281609F496CF69012082F0926010E09288
:103830005F10309261102981022E000C330B8091B1
:103840005E1090E02817390719F0612C712C10C018
:1038500065E677E087EF9DE00E94E63561E085E36D
:10386000E0D6C0905E10D12CD194C194D10829C06B
:103870008091611090E0AC014150510920915F109E
:10388000309160106416750664F4F901E60DF71DB9
:10389000608187EF9DE00E94A3362FEF621A720AC3
:1038A000E7CF820F931FFC013197608187EF9DE086
:1038B0000E94A33687EF9DE00E94E33561E085E337
:1038C000B0D6CA94CD2809F0E9C18EE0E3E6F8E06D
:1038D000DE01A45CBE4F01900D928A95E1F76091E4
:1038E0005F1070916010CE0188599E4F0E940A357A
:1038F00064E777E087EF9DE00E940637BE016859D4
:103900007E4F87EF9DE00E948736BE01645C7E4F4C
:10391000CE018E599E4F0E940A35C459DE4F288130
:103920003981CC56D140CA59DE4F88819981C6561B
:10393000D1402817390709F0A1C1C859DE4F888145
:103940009981C856D140009749F0CE59DE4F688121
:103950007981C256D14061157105C1F4CE59DE4F4F
:10396000E881F981C256D140309741F0232B99F07C
:10397000808190E09195819591090AC0009759F056
:10398000232B49F0DC018C9190E002C00E94E14DB4
:10399000892B09F073C166E877E087EF9DE00E940C
:1039A000E63555D70E94314A2B013C0110921B107D
:1039B00010921A1010921D1010921C10C8010E9433
:1039C000C007C090FD0ED090FE0E20E2322E3AA22B
:1039D0008AE090E19CA38BA382E08DA31FA21EA28C
:1039E00018A660E672E0C7010E94B90762E672E0BD
:1039F000CE0105960E94B0078CE492E09A838983F9
:103A00008EE592E09E838D836091230B7091240B51
:103A100021E0A601CE0107960E946B10882379F061
:103A200039A2ED81FE8136970190F081E02D85E08D
:103A300090E08C0F9D1FE80FF91F168213C0CE0176
:103A400007960E94610CED81FE8136970190F0810E
:103A5000E02DA5E0B0E0AC0FBD1FEA0FFB1F868193
:103A600084608683D801ED91FC913697A081B18165
:103A7000A00FB11FE981FA8136970190F081E02D06
:103A8000EE0DFF1D87E001900D928A95E1F78B8185
:103A90009C81F801938382838AE1FE013796D801E5
:103AA000169601900D928A95E1F7D8011496ED9142
:103AB000FC9115973697A081B181EEEFF0E0EC0F05
:103AC000FD1FAE0FBF1FED81FE8136970190F08183
:103AD000E02D85E090E08C0F9D1FE80FF91F87E037
:103AE00001900D928A95E1F789A1D80190968C9367
:103AF0008091451090914610A0914710B0914810C8
:103B00008093021090930310A0930410B0930510BB
:103B100063EA77E087EF9DE00E94E63562EC77E0AC
:103B200087EF9DE00E9406376091021070910310AC
:103B300080910410909105100E940E3B409102105C
:103B4000509103106091041070910510C8010E94FB
:103B5000F73AD80113961C921E9212971092030FF7
:103B6000D80150968D919D910D90BC91A02DCE586D
:103B7000DE4F88839983AA83BB83C257D140D80183
:103B80001C968D919D910D90BC91A02DC259DE4F38
:103B900088839983AA83BB83CE56D140CA58DE4F0F
:103BA00088819981C657D1400E94472897FD42C01D
:103BB000F801428153818A30910529F44F5F5F4FAC
:103BC0005383428337C09A012F5F3F4F2F3F310508
:103BD00030F1CE58DE4F88819981AA81BB81C257CE
:103BE000D140F801808B918BA28BB38BC259DE4FF1
:103BF00088819981AA81BB81CE56D14084879587DF
:103C0000A687B7870190F081E02D36970190F0816B
:103C1000E02DE00FF11F8681846086830BC0338323
:103C20002283FA01ED5FF04F8083F901ED5FF04FE1
:103C3000108296CFF80182819381009761F4019000
:103C4000F081E02D36970190F081E02DE00FF11F1B
:103C5000268124602683D801ED91FC91369701904E
:103C6000F081E02DE00FF11F2681257019F4EF2B74
:103C700009F0F0C0892B09F0EDC052C068E278E08D
:103C800087EF9DE00E94E635CE018E599E4F0E943F
:103C90007834CE0188599E4F0E947834809142102A
:103CA000882351F10E94F915811106C062E975E07F
:103CB00087EF9DE00E94E63560913C1070913D10C9
:103CC000072E000C880B990B0E94334A9B01AC0114
:103CD000609138107091391080913A1090913B109A
:103CE0000E942D4A18160CF41ACD60EA75E087EF91
:103CF0009DE00E94E63580C1AAD5DC01CB01881980
:103D00009909AA09BB0980349641A044B10508F479
:103D100006CDEBCF61E085E384D4C12CD12CD1CD8D
:103D200080911A1090911B10892B89F56BED77E02B
:103D300087EF9DE00E9406374091010F5091020FDE
:103D40006091FD0E7091FE0E87EF9DE00E94A23102
:103D500069EE77E087EF9DE00E94E63580912610BE
:103D6000909127100196909327108093261086ED4E
:103D70009EE00E94610C61E08EE590E10E94D13AE4
:103D800010924A1010924910C12CD12C18C069EF22
:103D900077E087EF9DE00E94E63586ED9EE00E9489
:103DA000610C61E08EE590E10E94D13A81E090E003
:103DB00090934A1080934910CC24C394D12C6FE087
:103DC00078E087EF9DE00E94063741D50E94314A96
:103DD000A30192010E94A34B20E030E04AE754E4A3
:103DE0000E94084C42E0D1DA6FE178E087EF9DE075
:103DF0000E94063764E278E087EF9DE00E94063774
:103E00004AE050E0B60187EF9DE00E94F1366DEF89
:103E10007EE0C7010E940235C980DA80C8010E9495
:103E2000E20722E0A6016FE571E16801BCE0CB0E7C
:103E3000D11CC6010E946B10C7010E947834B801E2
:103E4000C7010E945307C7010E940517C6010E94BF
:103E5000610C1ACF81E090E090931B1080931A10B0
:103E6000D80197968C91982F957019F08B7FF80157
:103E700087A360E085E3D5D361E089E0D2D363E036
:103E80007FE0CE018A5A9E4F0E940A35609143100E
:103E9000709144104AE0CE01805B9E4F0E94AC348A
:103EA0004AE061E070E0C7010E94D734B701CE015B
:103EB000865B9E4F0E940235BE01605B7E4FCE0145
:103EC000865B9E4F0E94FE33BE016A5A7E4F0E945F
:103ED000FE33BC01CE01845A9E4F0E940235CE01B2
:103EE000865B9E4F0E947834C7010E947834CE01D1
:103EF000805B9E4F0E947834CE018A5A9E4F0E946A
:103F00007834C45ADE4FC880D980CC55D140D8010E
:103F100012968C918C5FC259DE4F8883CE56D14069
:103F200098E1292E94E0392EF1016491611153C07A
:103F3000B60187EF9DE00E94E63566EE72E087EFFE
:103F40009DE00E94063760E085E36BD361E086E088
:103F500068D361E089E065D361E08BE062D3C25948
:103F6000DE4F6881CE56D140C6010E94BF3961E064
:103F700085E357D360E089E054D3F80180899189C3
:103F8000A289B3898093021090930310A093041028
:103F9000B09305108093451090934610A09347105E
:103FA000B09348106AEC7EE0C7010E945307C70136
:103FB0000E94051740910210509103106091041067
:103FC00070910510C8010E94F73ACE01845A9E4FA5
:103FD0000E947834BECDE091F70DF091F80D01907C
:103FE000F081E02D87EF9DE01995FFEF2F1A3F0A32
:103FF000892B09F099CF9CCF80E0C958DE4F0FB6CE
:10400000F894DEBF0FBECDBFDF91CF911F910F910E
:10401000FF90EF90DF90CF90BF90AF909F908F90E8
:104020007F906F905F904F903F902F900895EF9208
:10403000FF920F931F93CF93DF937C018B01C4E911
:10404000D3E18D819E810E941D07B7018D819E81E4
:104050000E94F20640E06EEB8D819E810E94B106C7
:104060008D819E810E946706F80180838D819E81EB
:104070000E946706F80181838D819E810E946706F8
:10408000F80182838D819E810E946706F8018383F7
:104090008D819E810E946706F80184838D819E81B7
:1040A0000E946706F80185838D819E810E946706C4
:1040B000F80186838D819E810E946706F8018783BF
:1040C0008D819E810E946706F80180878D819E8187
:1040D000DF91CF911F910F91FF90EF900C941D07EE
:1040E0004F925F926F927F928F929F92AF92BF9208
:1040F000CF92DF92EF92FF92CF93DF93CDB7DEB7EF
:1041000029970FB6F894DEBF0FBECDBF5C01BE018C
:104110006F5F7F4F8CDF68E0CE0101960E9436060C
:104120009985891390C099818A81292F30E0382B95
:10413000F50180818232F1F1A8F5803109F090C05B
:10414000F884B90175956795072E000C880B990BBB
:104150000E94334A20E030E040E85EE30E94A34B37
:104160004B015C018F2D90E02F81821B9109BC01D6
:10417000990F880B990B0E94334A2B013C016F2D3C
:1041800070E080E090E00E94314A9B01AC01C301E5
:10419000B2010E94084C9B01AC01C501B4010E9410
:1041A000A44B3EC0883231F08B3309F059C090FDEA
:1041B00051C01CC08D818F33B1F1A0F48F3109F053
:1041C0004FC0B90133E0759567953A95E1F7072E31
:1041D000000C880B990B0E94334A20E030E040E04D
:1041E0005FE31CC08F3569F08F37D1F5B901330F0C
:1041F000880B990B0E94334A20E030E040E85DE3F1
:104200000DC0B90175956795072E000C880B990BA9
:104210000E94334A20E030E040E05EE30E94924A90
:104220006B017C011DC0B901759567957595679502
:10423000072E000C880B990B0E94334A20E030E0D7
:1042400040E85EE3EBCFC12CD12C9EEFE92E92EC3F
:10425000F92E06C0C12CD12C80ECE82E8FE7F82E69
:10426000C701B60129960FB6F894DEBF0FBECDBFC9
:10427000DF91CF91FF90EF90DF90CF90BF90AF9004
:104280009F908F907F906F905F904F900895FC016A
:10429000A089B1898C91A689B78982FD0FC09C91B4
:1042A000818D8F5F8F73228D821749F0218DDF0101
:1042B000A20FB11D5D969C93818F08958C910895F6
:1042C000FC01538D448D252F30E0842F90E0821B1C
:1042D000930B541710F0CF96089501970895FC01A1
:1042E000918D828D981761F0828DDF01A80FB11D2D
:1042F0005D968C91928D9F5F9F73928F90E0089551
:104300008FEF9FEF0895FC01918D828D981731F00A
:10431000828DE80FF11D858D90E008958FEF9FEF5E
:104320000895FC01918D228D892F90E0805C9F4F34
:10433000821B91098F73992708958AE59DE0F1DF2B
:1043400021E0892B09F420E0822F089587EF9DE07A
:10435000E8DF21E0892B09F420E0822F0895FC0199
:10436000848DDF01A80FB11DA35ABF4F2C91848DFE
:1043700090E001968F739927848FA689B7892C9333
:10438000A089B1898C9180648C93938D848D9813CE
:1043900006C00288F389E02D80818F7D8083089597
:1043A000EF92FF920F931F93CF93DF93EC0181E085
:1043B000888F9B8D8C8D981305C0E889F989808141
:1043C00085FD23C0F62E0B8D10E00F5F1F4F0F737E
:1043D0001127E02E8C8DE8120BC00FB607FCFACF28
:1043E000E889F989808185FFF5CFCE01B8DFF2CF6A
:1043F0008B8DFE01E80FF11DE35AFF4FF0820B8F0A
:10440000EA89FB898081806207C0EE89FF89608329
:10441000E889F98980818064808381E090E0DF9180
:10442000CF911F910F91FF90EF900895CF93DF935D
:10443000EC01888D8823C1F0EA89FB89808185FDA4
:1044400005C0A889B9898C9186FD0EC00FB607FCFE
:10445000F5CF808185FFF2CFA889B9898C9185FF3E
:10446000EDCFCE017CDFE8CFDF91CF91089580E0E2
:1044700090E0892B19F06ADF811120C080E090E084
:10448000892B19F05ADF81111CC080E090E0892B44
:1044900041F080E090E0892B21F00E940000811122
:1044A00013C080E090E0892BA1F080E090E0892BA0
:1044B00081F00E94000081110AC008950E9400004E
:1044C000DDCF0E940000E1CF0E940000EACF0C94F3
:1044D0000000089508950E94C74D1F920F920FB6D5
:1044E0000F9211240BB60F922F933F934F935F932C
:1044F0006F937F938F939F93AF93BF93EF93FF93AC
:104500008AE59DE02CDFFF91EF91BF91AF919F91E4
:104510008F917F916F915F914F913F912F910F906C
:104520000BBE0F900FBE0F901F9018951F920F9209
:104530000FB60F9211240BB60F922F933F934F9308
:104540005F936F937F938F939F93AF93BF93EF93FB
:10455000FF938AE59DE09BDEFF91EF91BF91AF91C4
:104560009F918F917F916F915F914F913F912F918B
:104570000F900BBE0F900FBE0F901F9018951F92BB
:104580000F920FB60F9211240BB60F922F933F93F9
:104590004F935F936F937F938F939F93AF93BF934B
:1045A000EF93FF9387EF9DE0DADEFF91EF91BF91EC
:1045B000AF919F918F917F916F915F914F913F91BB
:1045C0002F910F900BBE0F900FBE0F901F9018955C
:1045D0001F920F920FB60F9211240BB60F922F93CA
:1045E0003F934F935F936F937F938F939F93AF937B
:1045F000BF93EF93FF9387EF9DE049DEFF91EF912B
:10460000BF91AF919F918F917F916F915F914F91EA
:104610003F912F910F900BBE0F900FBE0F901F90E8
:104620001895362F90E0FC01E35AFB4F4491FC01B2
:10463000E751F94F2491FC01ED55F94F94919923DD
:1046400009F46BC0442309F455C050E0FA013197D6
:10465000E231F10508F04EC08827E556FF4F8F4F35
:104660000C94DA4C809180008F7707C08091800095
:104670008F7D03C080918000877F809380003AC047
:1046800084B58F7702C084B58F7D84BD33C080919F
:10469000B0008F7703C08091B0008F7D8093B00011
:1046A00029C0809190008F7707C0809190008F7D06
:1046B00003C080919000877F809390001BC0809101
:1046C000A0008F7707C08091A0008F7D03C08091EC
:1046D000A000877F8093A0000DC0809120018F777C
:1046E00007C0809120018F7D03C080912001877FCA
:1046F00080932001E92FF0E0EE0FFF1FED5BFB4FF1
:10470000A591B4918FB7F894EC91311103C0209525
:104710002E2301C02E2B2C938FBF0895CF93DF93B0
:1047200090E0FC01E751F94F2491FC01ED55F94F60
:104730008491882361F190E0880F991FFC01E75D67
:10474000FB4FC591D491FC01ED5BFB4FA591B4915A
:10475000611109C09FB7F8948881209582238883CE
:10476000EC912E230BC0623061F49FB7F89438812E
:10477000822F809583238883EC912E2B2C939FBFCF
:1047800006C08FB7F894E8812E2B28838FBFDF9166
:10479000CF9108953FB7F89480912A0D90912B0DF9
:1047A000A0912C0DB0912D0D26B5A89B05C02F3FD3
:1047B00019F00196A11DB11D3FBFBA2FA92F982F47
:1047C0008827820F911DA11DB11DBC01CD0142E0C2
:1047D000660F771F881F991F4A95D1F708958F920A
:1047E0009F92AF92BF92CF92DF92EF92FF926B01B6
:1047F0007C01D0DF4B015C01C114D104E104F10460
:10480000E9F0C8DFDC01CB0188199909AA09BB09C5
:10481000883E9340A105B10578F321E0C21AD10882
:10482000E108F10888EE880E83E0981EA11CB11CF7
:10483000C114D104E104F10421F7DECFFF90EF9021
:10484000DF90CF90BF90AF909F908F9008952FB73B
:10485000F8946091260D7091270D8091280D90910C
:10486000290D2FBF08951F920F920FB60F9211249A
:104870002F933F938F939F93AF93BF938091260D78
:104880009091270DA091280DB091290D3091250D03
:1048900023E0230F2D3720F40196A11DB11D05C083
:1048A00026E8230F0296A11DB11D2093250D8093AC
:1048B000260D9093270DA093280DB093290D80917C
:1048C0002A0D90912B0DA0912C0DB0912D0D0196DC
:1048D000A11DB11D80932A0D90932B0DA0932C0D3B
:1048E000B0932D0DBF91AF919F918F913F912F91DB
:1048F0000F900FBE0F901F9018951F920F920FB63A
:104900000F9211240BB60F922F933F934F935F9307
:104910006F937F938F939F93AF93BF93EF93FF9387
:10492000E0910E02F0910F021995FF91EF91BF9166
:10493000AF919F918F917F916F915F914F913F9137
:104940002F910F900BBE0F900FBE0F901F901895D8
:104950001F920F920FB60F9211240BB60F922F9346
:104960003F934F935F936F937F938F939F93AF93F7
:10497000BF93EF93FF93E0910C02F0910D02199514
:10498000FF91EF91BF91AF919F918F917F916F9127
:104990005F914F913F912F910F900BBE0F900FBEE3
:1049A0000F901F9018951F920F920FB60F9211241F
:1049B0000BB60F922F933F934F935F936F937F9319
:1049C0008F939F93AF93BF93EF93FF93E091020276
:1049D000F09103021995FF91EF91BF91AF919F91D3
:1049E0008F917F916F915F914F913F912F910F9098
:1049F0000BBE0F900FBE0F901F9018951F920F9235
:104A00000FB60F9211240BB60F922F933F934F9333
:104A10005F936F937F938F939F93AF93BF93EF9326
:104A2000FF93E0910002F09101021995FF91EF913F
:104A3000BF91AF919F918F917F916F915F914F91B6
:104A40003F912F910F900BBE0F900FBE0F901F90B4
:104A500018951F920F920FB60F9211240BB60F925A
:104A60002F933F934F935F936F937F938F939F9376
:104A7000AF93BF93EF93FF93E0910A02F0910B0283
:104A80001995FF91EF91BF91AF919F918F917F9178
:104A90006F915F914F913F912F910F900BBE0F90AF
:104AA0000FBE0F901F9018951F920F920FB60F9286
:104AB00011240BB60F922F933F934F935F936F93F5
:104AC0007F938F939F93AF93BF93EF93FF93E09167
:104AD0000802F09109021995FF91EF91BF91AF91F2
:104AE0009F918F917F916F915F914F913F912F9106
:104AF0000F900BBE0F900FBE0F901F9018951F9236
:104B00000F920FB60F9211240BB60F922F933F9373
:104B10004F935F936F937F938F939F93AF93BF93C5
:104B2000EF93FF93E0910602F09107021995FF9130
:104B3000EF91BF91AF919F918F917F916F915F9115
:104B40004F913F912F910F900BBE0F900FBE0F9082
:104B50001F9018951F920F920FB60F9211240BB64B
:104B60000F922F933F934F935F936F937F938F9306
:104B70009F93AF93BF93EF93FF93E0910402F09163
:104B800005021995FF91EF91BF91AF919F918F9180
:104B90007F916F915F914F913F912F910F900BBE3D
:104BA0000F900FBE0F901F901895CF93DF93EC01DD
:104BB0008A859B85AC85BD858E839F83A887B987B1
:104BC00046DE6A837B838C839D8381E0898388832F
:104BD000DF91CF9108952F923F924F925F926F9203
:104BE0007F928F929F92AF92BF92CF92DF92EF927D
:104BF000FF920F931F93CF93DF93D82FC92F8B0171
:104C00000E941C4724E630E040E050E00E94724BD6
:104C100049015A019B01AC0160E876E988E990E01E
:104C20000E94A44C6B017C01F80191828082ED2FDF
:104C3000FC2F2191822F022E000C990BC0970A970E
:104C4000C0F32E3239F51F0180E8882E86E9982EB0
:104C500088E9A82EB12C9AE0492E512C612C712C98
:104C6000F101C1911F010C2E000CDD0BE097CA3041
:104C7000D10580F4C501B401A30192010E94724BD9
:104C800049015A01DE010E946C4BC60ED71EE81E78
:104C9000F91EE6CFA5E0B0E0A70196010E94624BA5
:104CA0006F5F7F4F8F4F9F4F23E030E040E050E039
:104CB0000E94724BF801228333834483558316820A
:104CC000DF91CF911F910F91FF90EF90DF90CF90E8
:104CD000BF90AF909F908F907F906F905F904F901C
:104CE0003F902F900895FF920F931F93CF93DF93E0
:104CF000EC01FF24F39488818D3211F0F12C01C076
:104D00002196CE010E941C479B01AC01A4E6B0E0B5
:104D10000E94624BFE014991242F042E000C330B9C
:104D2000205331092A303105A8F34E3241F5218153
:104D3000022E000C330B205331092A303105F8F4D0
:104D40004AE0429F8001439F100D1124012E000C68
:104D5000220B330B600F711F821F931F0281002EE5
:104D6000000C110B005311090A30110540F4012EFB
:104D7000000C220B330B600F711F821F931FFF204B
:104D800039F090958095709561957F4F8F4F9F4F2B
:104D9000DF91CF911F910F91FF900895CF93809154
:104DA000530D80FF42C040911E0B50911F0B60912C
:104DB000200B7091210B25E23BE080911C0B909120
:104DC0001D0B0E94F70DC82F811102C0C0E02EC03C
:104DD0008091530D81FD06C08091530D8E7F80938D
:104DE000530D24C08091520D8230B0F340914E0D8E
:104DF00050914F0D6091500D7091510D80911E0B8F
:104E000090911F0BA091200BB091210B480F591FBF
:104E10006A1F7B1F25E23BE080911C0B90911D0BCC
:104E20000E94F70D8111D8CFD1CFC1E08C2FCF9147
:104E30000895CF92DF92EF92FF92CF936B017C01A6
:104E4000C42F80911E0B90911F0BA091200BB0914D
:104E5000210B8C159D05AE05BF0501F19FDF81116A
:104E600003C080E090E022C0C2FF0BC01092530D3F
:104E7000C0921E0BD0921F0BE092200BF092210BE0
:104E80000DC025E23BE0B701A60180911C0B90917B
:104E90001D0B0E9455118111E9CFE3CFC3708091A2
:104EA000530DC82BC093530D85E29BE0CF91FF902B
:104EB000EF90DF90CF900895CF92DF92EF92FF9224
:104EC0000F931F93CF93DF93FC014230510561058F
:104ED000710510F480E05DC086819781A085B18561
:104EE0000196A11DB11D84179507A607B70790F37A
:104EF0008389803149F4BB27A72F962F852FC7843C
:104F0000D088E188F2880FC0803221F787859089A8
:104F1000A189B2896A017B01C7E0F694E794D7942E
:104F2000C794CA95D1F78C0D9D1DAE1DBF1DE9011B
:104F30006A017B018F0142E0BC01CD017ADF00975D
:104F400049F2F8012389B701A601203169F45527F8
:104F500066277727440F551FFC01E40FF51F80815A
:104F60009181A0E0B0E010C04F77552766277727E2
:104F7000440F551F440F551FFC01E40FF51F80819E
:104F80009181A281B381BF7088839983AA83BB83F7
:104F900081E0DF91CF911F910F91FF90EF90DF9013
:104FA000CF9008958F929F92AF92BF92CF92DF924F
:104FB000EF92FF920F931F93CF93DF93EC016A015F
:104FC0007B0148015901423051056105710510F41A
:104FD00080E050C08E819F81A885B9850196A11D72
:104FE000B11D84179507A607B70790F38B89803109
:104FF00049F4452F562F672F77278F859889A989E0
:10500000BA890DC0803221F78F859889A989BA891C
:10501000E7E07695679557954795EA95D1F78A0128
:105020009B01080F191F2A1F3B1FC901B80143E04C
:1050300000DF009769F22B89203159F4DD24EE243A
:10504000FF24CC0CDD1CFC01EC0DFD1D9182808247
:1050500010C0E894C7F8DD24EE24FF24CC0CDD1C3E
:10506000CC0CDD1CFC01EC0DFD1D80829182A28226
:10507000B38281E0DF91CF911F910F91FF90EF906C
:10508000DF90CF90BF90AF909F908F900895EF9258
:10509000FF920F931F93CF93DF931F92CDB7DEB78D
:1050A0008C017C0182E0E80EF11CBE016F5F7F4F36
:1050B000C7010E945C188130A9F0F801208131817C
:1050C000F90136970190F081E02DE00FF11F87FF85
:1050D00003C08681816002C08681826086838FEFF3
:1050E0009FEF27C099819D3021F4F801848D84FFC2
:1050F00003C0892F90E01DC0BE016F5F7F4FC701C5
:105100000E945C18813099F489818A3069F0F80135
:105110004485558566857785415051096109710936
:10512000C7010E946E0B03C08AE090E002C08DE0D0
:1051300090E00F90DF91CF911F910F91FF90EF9032
:105140000895CF93DF93EC01FE016491662361F033
:10515000E091940EF091950E0190F081E02D84E99C
:105160009EE019952196F0CFDF91CF910895E9DF68
:1051700084E99EE00C94E3352F923F924F925F9228
:105180006F927F928F929F92AF92BF92CF92DF9257
:10519000EF92FF920F931F93CF93DF93CDB7DEB7BC
:1051A00029970FB6F894DEBF0FBECDBF8C014B011F
:1051B0001A01DC0112968C9112978130C9F4119674
:1051C0008C9181FF15C082FF19C0F8014289538973
:1051D0006489758982859385A485B585841795072B
:1051E000A607B70759F0C8010E946E0B811106C0CF
:1051F00081E0F80180838FEF9FEFE0C1A10160E0C3
:1052000070E0F80182859385A485B5858095909599
:10521000A095B09584179507A607B70748F35101E5
:1052200084C0D80114968D919C9115976A017B01D9
:10523000E9E0F694E794D794C794EA95D1F7FC0196
:105240002581F22EFC206A01F1E0DF22FF2009F423
:1052500078C0D8011496ED91FC91159716964D9053
:105260005D906D907C901997B2E04B1A51086108DF
:105270007108028404C0440C551C661C771C0A94F7
:10528000D2F783859485A585B685480E591E6A1E7A
:105290007B1E4F0C511C611C711CC114D10409F000
:1052A00095C0A11422E0B20608F096C0D8011A9663
:1052B0004D915D916D917C911D9752968D919D912F
:1052C0000D90BC91A02D481759076A077B0708F479
:1052D0007DC045E0C301B201ACDD009709F488CF81
:1052E000612C72E0772E6C187D0875016A147B04BE
:1052F00008F47301A701B4018C0D9D1D0E94D84DC7
:10530000E614F70409F464C0F80182859385A48546
:10531000B5858E0D9F1DA11DB11D82879387A48722
:10532000B5878E0C9F1CAE18BF08D8011A964D91F8
:105330005D916D917C911D97A114B10409F071CF1D
:105340001DC1C114D10409F084CF16964D915D9111
:105350006D917C911997411551056105710509F110
:105360009E012F5F3F4FA8DD882309F441CF89813B
:105370009A81AB81BC81F80124813581F9012389AF
:10538000203139F4883FFFEF9F07A105B10590F464
:1053900017C0883F2FEF9207A2072FE0B20780F0D7
:1053A00009C0F80186899789A08DB18D0097A10564
:1053B000B10531F4C8010E94690C81114ACF18CFA0
:1053C000F80186839783A087B18743CF41E082CFDE
:1053D000E5DC811199CF0CCFC0901C0BD0901D0B38
:1053E000A114B4E0BB0638F580911E0B90911F0B01
:1053F000A091200BB091210B84159505A605B7054A
:1054000069F42FEF3FEFA90120931E0B30931F0B80
:105410004093200B5093210B1092530D9401B30134
:10542000A201C6010E94F70D882309F4E1CEE12C08
:1054300082E0F82E69CF84818F193B2D36953D830C
:10544000831708F48D8320E030E0A90167E3C601EB
:105450000E94BD0D8D81282F30E040E050E067E1D3
:10546000C6010E94BD0D882311F089E080C0F601BD
:105470008481A3019201833039F069E0220F331F48
:10548000441F551F6A95D1F769E1C6010E94BD0D01
:10549000882311F087E06BC0C6010E94850D74015E
:1054A0004E825F8268867986C0901C0BD0901D0B5F
:1054B0008E818419BD818B1708F040C080911E0B2E
:1054C00090911F0BA091200BB091210B2E813F8159
:1054D00048855985281739074A075B0769F48FEF14
:1054E0009FEFDC0180931E0B90931F0BA093200B6A
:1054F000B093210B1092530DC6010E94790D0E94AA
:105500007F168823C9F0A7016CEFC6010E948C0D9D
:10551000882391F0C6010E94850D9EEFF91A2E8115
:105520003F81488559852F5F3F4F4F4F5F4F2E83F7
:105530003F8348875987B8CF85E119C0C6010E94CB
:10554000790D0E947F16882389F08DEF0E946D0DE2
:105550000E947F16882351F0ED81EE2EF12CFE2C57
:10556000EE24FF0CC6010E94850DCECE82E1D6014D
:1055700011968C93C6010E94850D3ACE52968D915C
:105580009D910D90BC91A02D84179507A607B70794
:1055900040F4F801428B538B648B758B818180685A
:1055A0008183D80111968C9183FD02C0C10106C090
:1055B000C8010E942E0B8111F9CF1ACE29960FB681
:1055C000F894DEBF0FBECDBFDF91CF911F910F9139
:1055D000FF90EF90DF90CF90BF90AF909F908F9013
:1055E0007F906F905F904F903F902F900895CF9352
:1055F000DF93C0EADEE060E0888513D861E088854B
:10560000DF91CF910EC8CF92DF92EF92FF920F936E
:105610001F93CF93DF93C82F60E08091A20E01D833
:105620008091AA0E9091AB0E0E94F20880E40E9435
:10563000E90880E00E94E9088C2F0E94E9088BEFBE
:1056400091E30197F1F782E10E94E90880E00E946E
:10565000E908182F80E00E94E908C82F80E00E9426
:10566000E908D82F0E94D80861E08091A20E0E941C
:105670001123812F90E0A0E0B0E07C01DD24CC2458
:105680008C2F90E0A0E0B0E0BA2FA92F982F8827A8
:105690004D2F50E060E070E017FF05C000E010E023
:1056A00020E03FEF03C000E010E09801842B952B31
:1056B000A62BB72B8C299D29AE29BF29BC01CD0172
:1056C000602B712B822B932BDF91CF911F910F9128
:1056D000FF90EF90DF90CF9008952F923F924F92DE
:1056E0005F926F927F928F929F92AF92BF92CF9272
:1056F000DF92EF92FF920F931F93CF93DF93CDB77B
:10570000DEB7C159D1090FB6F894DEBF0FBECDBFC9
:10571000C757DF4F8883C958D040882349F08EE1AE
:1057200090E09093AF0E8093AE0E61E778E008C0F2
:1057300080EE93E99093AF0E8093AE0E64E878E02C
:1057400087EF9DE00E94E63582E390E0909392120D
:105750008093911261E08091A00E0E948E2361E0FF
:105760008091A20E0E948E2360E08091A40E0E9480
:105770008E2361E08091A60E0E948E2361E08091CD
:10578000A80E0E948E2361E08DE00E948E2361E0CE
:105790008091A00E0E94112361E08091A20E0E94D0
:1057A000112361E086E00E94112361E08091A80E40
:1057B0000E9411231CDF62E370E080E090E00FD8CC
:1057C00016DF61E08091A60E0E9411230BE71AE11B
:1057D000C8010197F1F760E08091A60E0E941123A5
:1057E000C8010197F1F761E08091A60E0E94112394
:1057F000C8010197F1F760E08091A20E0E94112389
:105800008091AA0E9091AB0E0E94F20886E00E9451
:10581000E9080BE31CE9C8010197F1F786E10E9452
:10582000E908C8010197F1F783E40E94E90880E0E4
:105830000E94E90886E60E94E908C8010197F1F78D
:105840000E94D80861E08091A20E0E941123CFDE51
:1058500068E978E087EF9DE00E94E6356E0124E379
:10586000C20ED11CC6010E94E2075E0133E7A30EFF
:10587000B11C60EC79E0C5010E940A350E94CA2380
:10588000C457DF4F688379838A839B83CC58D04089
:105890000E942724ED966CAF7DAF8EAF9FAFED9742
:1058A0000E942724CB57DF4F688379838A839B83A9
:1058B000C558D0400E94272480916F008260809359
:1058C0006F00E090FD0EF090FE0E8E010F5F1F4FF7
:1058D000C8010E94E2074E014DE0840E911C26E4AF
:1058E000A7016FE571E1C4010E946B10B801C60108
:1058F0000E94830764EB78E087EF9DE00E94063703
:105900006DEF7EE0C8010E940235B80187EF9DE08F
:105910000E948736C801ECD723968FAD239781115B
:105920000DC066EC78E087EF9DE00E94E635C60189
:105930000C960E94610CC501DBD748C369ED78E085
:1059400087EF9DE00E94E635C358DF4F1882198229
:105950001A821B82CD57D040CF57DF4F1882198251
:105960001A821B82C158D040412C512C3201F02E9A
:10597000E12E1501C6010C96C657DF4F9983888327
:10598000CA58D040C057DF4F8882C059D040CF5648
:10599000DF4F9882C159D0408091AC0E9091AD0EEE
:1059A0008230910541F18330910509F4EBC00197F4
:1059B00009F0EDC10E9427244B015C01AB01BC0141
:1059C000ED968CAD9DADAEADBFADED97481B590BBF
:1059D0006A0B7B0B8F2D9E2D0E94F4076F2D7E2D61
:1059E000C1014DD78F2D9E2D83D79FEF491A590A9C
:1059F000690A790ABEC10E9427244B015C01AB01F0
:105A0000BC01ED968CAD9DADAEADBFADED97481B25
:105A1000590B6A0B7B0B8F2D9E2D0E94F4076F2D67
:105A20007E2DC1012CD78F2D9E2D62D79FEF491A55
:105A3000590A690A790A80914210882309F48EC0B4
:105A40006BEE78E0CE0183599F4FE4D70E94272464
:105A5000ED966CAF7DAF8EAF9FAFED978AE59DE081
:105A60000E946F210E940C138823C1F10E946739A4
:105A7000A9961FAE1EAEA997AB961FAE1EAEAB97F2
:105A8000AD961FAE1EAEAD970F2D1E2D22E044E049
:105A90000E947B45BC01CE0189599F4FC6D667E065
:105AA00073E08F2D9E2DB6D7BE0169597F4F8F2D84
:105AB0009E2DA4D6BC01CE0183599F4FCBD68F2DEE
:105AC0009E2D16D7CE0189599F4F12D7BE0163591B
:105AD0007F4F87EF9DE00E94873637C00E942724C2
