:10000000FAC10000E0C60000B3C6000086C60000CA
:1000100059C600002CC60000FFC50000D2C5000074
:10002000A5C5000019C2000017C2000015C20000DB
:1000300013C2000011C200000FC200000DC2000078
:100040000BC2000009C2000007C2000005C2000088
:1000500003C2000001C20000FFC100003DC5000056
:10006000FBC10000C8C300009DC30000F5C1000033
:10007000F3C10000F1C10000EFC10000EDC10000BC
:10008000EBC10000E9C10000E7C10000E5C10000CC
:10009000E3C10000E1C10000DFC10000DDC10000DC
:1000A000DBC10000D9C10000D7C10000D5C10000EC
:1000B000D3C10000D1C10000CFC10000CDC10000FC
:1000C000CBC10000C9C10000C7C10000C5C100000C
:1000D000C3C10000C1C10000BFC10000BDC100001C
:1000E000BBC1000060046304520456045A049A041D
:1000F00067046B047104750479047F048304870426
:100100009A048D049104950400000A0B02090C0D59
:100110000E080703040100000000000000000000BA
:1001200000000000000000000000000000000000CF
:10013000000000001211100000000000000000008C
:1001400000000000000000000000000000002B0381
:10015000F42041890036400A1D806010622C00089E
:100160002B03F42041890036400A1D806010622C68
:1001700033082B03F42041890036400A1D806010AB
:10018000622C22081B03416027520007400A1E8090
:100190006013A92C223A1D03A1204EA50013400A8A
:1001A0001E806027522C22481E03D0009D49004526
:1001B000400A2080604EA52C22482B03340275256E
:1001C00007FF400A1B80609D492C220F0203680133
:1001D0003A9304D5400A1E806009D50C221F0603FD
:1001E0004501D7DC076E400A2D80600EBF0C222E21
:1001F0008A036001555502AD400A50806020000C12
:1002000022C82B03A1E010C70009400A1D8060042A
:10021000322C22042703A1E010C70006400A1D80EB
:100220006004322C22072B03F42041890036400A57
:100230001D806010622C23081B03416027520007B9
:10024000400A1E806013A92C233A1D03A1204EA54D
:100250000013400A1E806027522C23481E03D00042
:100260009D490045400A2080604EA52C23482B0361
:100270003402752507FF400A1B80609D492C230F1F
:10028000020368013A9304D5400A1E806009D50C28
:10029000231F06034501D7DC076E400A2D80600E40
:1002A000BF0C232E8A036001555502AD400A5080D1
:1002B0006020000C23C8510368003A93013D2C11C3
:1002C00028806009D52C2108C803392068DC006B20
:1002D0002A082A806013A92C2108C8039C00D1B7E2
:1002E00000D4290429806027522C2108B8039C00DF
:1002F000D1B700D428822980604EA52C2108A803FC
:100300009C00D1B700D428412980609D492C210848
:1003100098039C00D1B700D4282029806009D50C0F
:10032000210898039600DA7400DC281F2980600AEF
:100330003D0C210800002200250028002B002E0083
:100340003100340002010000050108010B0100002A
:100350002100240027002A002D0030003300010175
:100360000000040107010A01050505050705080845
:100370000808020202020A0A08080404040401012F
:100380000101010101010303030303030303040744
:1003900007070C0C0C0C0C0C0C0C020202020606DB
:1003A0000606060606060B0B0B0B0B0B0B0B0102CE
:1003B0001020200808102040102040800201020177
:1003C000080402010102040810204080804020102F
:1003D0000804020180040201804020100804020188
:1003E00008040201010204081020408001020408F0
:1003F00010204080841211241FBECFEFD1E2DEBF57
:10040000CDBF00E00CBF13E0A0E0B2E0EEE4FCE200
:1004100000E00BBF02C007900D92AA38B107D9F7D0
:1004200027E0AAE8B3E001C01D92A930B207E1F7C6
:1004300011E0CBEFD1E000E006C021970109802F49
:10044000FE010E942013CA3FD10780E00807A9F7E8
:100450000E94350E0C942516D3CDFC01918D828D12
:10046000981761F0828DDF01A80FB11D5D968C9108
:10047000928D9F5F9F73928F90E008958FEF9FEF13
:100480000895FC01918D828D981731F0828DE80FCF
:10049000F11D858D90E008958FEF9FEF0895FC0189
:1004A000918D228D892F90E0805C9F4F821B910956
:1004B0008F739927089588EC94E0F1DF21E0892B70
:1004C00009F420E0822F0895FC01848DDF01A80F3C
:1004D000B11DA35ABF4F2C91848D90E001968F736C
:1004E0009927848FA689B7892C93A089B1898C918B
:1004F00080648C93938D848D981306C00288F38951
:10050000E02D80818F7D80830895EF92FF920F937D
:100510001F93CF93DF93EC0181E0888F9B8D8C8DAF
:10052000981305C0E889F989808185FD23C0F62EDE
:100530000B8D10E00F5F1F4F0F731127E02E8C8D76
:10054000E8120BC00FB607FCFACFE889F989808161
:1005500085FFF5CFCE01B8DFF2CF8B8DFE01E80F1E
:10056000F11DE35AFF4FF0820B8FEA89FB898081EE
:10057000806207C0EE89FF896083E889F9898081FC
:100580008064808381E090E0DF91CF911F910F9193
:10059000FF90EF900895CF93DF93EC01888D88232F
:1005A000C1F0EA89FB89808185FD05C0A889B989E8
:1005B0008C9186FD0EC00FB607FCF5CF808185FFBC
:1005C000F2CFA889B9898C9185FFEDCFCE017CDF70
:1005D000E8CFDF91CF91089580E090E0892B19F06A
:1005E0006ADF811125C080E090E0892B41F080E036
:1005F00090E0892B21F00E94000081111CC080E056
:1006000090E0892B41F080E090E0892B21F00E945E
:100610000000811113C080E090E0892BA1F080E000
:1006200090E0892B81F00E94000081110AC008959A
:100630000E940000D8CF0E940000E1CF0E9400007D
:10064000EACF0C94000008953FB7F894809191038D
:1006500090919203A0919303B091940326B5A89B27
:1006600005C02F3F19F00196A11DB11D3FBFBA2F44
:10067000A92F982F8827820F911DA11DB11DBC01A4
:10068000CD0142E0660F771F881F991F4A95D1F769
:10069000089508950895413041F4FC01E95BFF4F4E
:1006A00081E0DB012C919081291380E00895089569
:1006B00008958CB5962F93708C7F892B8CBD9DB53A
:1006C00062FB882780F9692F6E7F682B6DBD0895C6
:1006D0008CB5837F682B6CBD08958CB5611102C009
:1006E000806201C08F7D8CBD08959FB7F894809182
:1006F0008B03882319F0815080938B0380918B03A7
:10070000811105C08CB58F7B8CBD10928A039FBF71
:1007100008958CB58F778CBD08958CB580688CBD9D
:1007200008956EBD00000DB407FEFDCF8EB508958F
:10073000CF93DF93462FFC01E05BFE4F20E030E0DB
:100740005081B9016F5F7F4F541323C0EC01C90181
:10075000880F991F820F931F805B9E4F49E050E0E6
:10076000421B530B9A01220F331F420F531F9B0151
:10077000220F331F620F731F605B7E4F6C0F7D1F54
:100780008C0F9D1F0E945115C359DE4F188281E0C6
:1007900006C09B0133966A30710591F680E0DF91C7
:1007A000CF9108951F920F920FB60F9211240BB69E
:1007B0000F922F933F934F935F936F937F938F93FA
:1007C0009F93AF93BF93EF93FF9388EC94E07CDE0D
:1007D000FF91EF91BF91AF919F918F917F916F9119
:1007E0005F914F913F912F910F900BBE0F900FBED5
:1007F0000F901F9018951F920F920FB60F92112411
:100800000BB60F922F938F939F93EF93FF93E091EB
:10081000D804F091D9048081E091DE04F091DF04E6
:1008200082FD12C090818091E1048F5F8F732091CF
:10083000E204821751F0E091E104F0E0E853FB4F4D
:10084000958F8093E10401C08081FF91EF919F918A
:100850008F912F910F900BBE0F900FBE0F901F9096
:100860001895362F90E0FC01E85FFE4F4491FC01A3
:10087000E255FC4F2491FC01E859FC4F94919923D7
:1008800009F46BC0442309F455C050E0FA013197D4
:10089000E231F10508F04EC08827EE58FF4F8F4F28
:1008A0000C942013809180008F7707C08091800086
:1008B0008F7D03C080918000877F809380003AC045
:1008C00084B58F7702C084B58F7D84BD33C080919D
:1008D000B0008F7703C08091B0008F7D8093B0000F
:1008E00029C0809190008F7707C0809190008F7D04
:1008F00003C080919000877F809390001BC08091FF
:10090000A0008F7707C08091A0008F7D03C08091E9
:10091000A000877F8093A0000DC0809120018F7779
:1009200007C0809120018F7D03C080912001877FC7
:1009300080932001E92FF0E0EE0FFF1FEC5CFC4FED
:10094000A591B4918FB7F894EC91311103C0209523
:100950002E2301C02E2B2C938FBF0895CF92DF92B0
:10096000EF92FF920F931F93CF93DF931F921F92EB
:10097000CDB7DEB78C01D62EF42EEFB6F89460E03A
:10098000DC0116968C9129835A836BDFF8018281F2
:100990009381DC01ED91FC916D2D6F770190F081D9
:1009A000E02D1995CF2C5A81D52E2981F20EFC14F9
:1009B00079F0F80182819381DC01ED91FC91019045
:1009C000F081E02D60E01995F60181936F01EFCF82
:1009D00061E0D80116968C9144DFEFBE0F900F9026
:1009E000DF91CF911F910F91FF90EF90DF90CF900B
:1009F0000895CF93CFB7F89480918B03811120C0D5
:100A0000EDE9F3E08491E3EEF3E09491E82FF0E078
:100A1000EE0FFF1FE25BFC4FA591B491EC91E9232F
:100A200019F461E085E31DDF85E3E2D68CB58061D2
:100A30008CBD8CB580648CBD84E3DAD683E3D8D6D4
:100A400080918B038F5F80938B03CFBFCF910895ED
:100A50008F929F92AF92BF92CF92DF92EF92FF92CE
:100A60006B017C01F1DD4B015C01C114D104E10497
:100A7000F104E9F0E9DDDC01CB0188199909AA0943
:100A8000BB09883E9340A105B10578F321E0C21A65
:100A9000D108E108F10888EE880E83E0981EA11CB9
:100AA000B11CC114D104E104F10421F7DECFFF90A1
:100AB000EF90DF90CF90BF90AF909F908F90089570
:100AC0002FB7F89460918D0370918E0380918F03FE
:100AD000909190032FBF08951F920F920FB60F921F
:100AE00011242F933F938F939F93AF93BF93809144
:100AF0008D0390918E03A0918F03B091900330915C
:100B00008C0323E0230F2D3720F40196A11DB11D86
:100B100005C026E8230F0296A11DB11D20938C036A
:100B200080938D0390938E03A0938F03B0939003D3
:100B30008091910390919203A0919303B0919403BB
:100B40000196A11DB11D8093910390939203A093F0
:100B50009303B0939403BF91AF919F918F913F9175
:100B60002F910F900FBE0F901F9018951F920F920C
:100B70000FB60F9211240BB60F922F933F934F9302
:100B80005F936F937F938F939F93AF93BF93EF93F5
:100B9000FF93E0910E02F0910F021995FF91EF91F2
:100BA000BF91AF919F918F917F916F915F914F9185
:100BB0003F912F910F900BBE0F900FBE0F901F9083
:100BC00018951F920F920FB60F9211240BB60F9229
:100BD0002F933F934F935F936F937F938F939F9345
:100BE000AF93BF93EF93FF93E0910C02F0910D024E
:100BF0001995FF91EF91BF91AF919F918F917F9147
:100C00006F915F914F913F912F910F900BBE0F907D
:100C10000FBE0F901F9018951F920F920FB60F9254
:100C200011240BB60F922F933F934F935F936F93C3
:100C30007F938F939F93AF93BF93EF93FF93E09135
:100C40000202F09103021995FF91EF91BF91AF91CC
:100C50009F918F917F916F915F914F913F912F91D4
:100C60000F900BBE0F900FBE0F901F9018951F9204
:100C70000F920FB60F9211240BB60F922F933F9342
:100C80004F935F936F937F938F939F93AF93BF9394
:100C9000EF93FF93E0910002F09101021995FF910B
:100CA000EF91BF91AF919F918F917F916F915F91E4
:100CB0004F913F912F910F900BBE0F900FBE0F9051
:100CC0001F9018951F920F920FB60F9211240BB61A
:100CD0000F922F933F934F935F936F937F938F93D5
:100CE0009F93AF93BF93EF93FF93E0910A02F0912C
:100CF0000B021995FF91EF91BF91AF919F918F9149
:100D00007F916F915F914F913F912F910F900BBE0B
:100D10000F900FBE0F901F9018951F920F920FB655
:100D20000F9211240BB60F922F933F934F935F9323
:100D30006F937F938F939F93AF93BF93EF93FF93A3
:100D4000E0910802F09109021995FF91EF91BF918E
:100D5000AF919F918F917F916F915F914F913F9153
:100D60002F910F900BBE0F900FBE0F901F901895F4
:100D70001F920F920FB60F9211240BB60F922F9362
:100D80003F934F935F936F937F938F939F93AF9313
:100D9000BF93EF93FF93E0910602F091070219953C
:100DA000FF91EF91BF91AF919F918F917F916F9143
:100DB0005F914F913F912F910F900BBE0F900FBEFF
:100DC0000F901F9018951F920F920FB60F9211243B
:100DD0000BB60F922F933F934F935F936F937F9335
:100DE0008F939F93AF93BF93EF93FF93E091040290
:100DF000F09105021995FF91EF91BF91AF919F91ED
:100E00008F917F916F915F914F913F912F910F90B3
:100E10000BBE0F900FBE0F901F9018952FB7F89430
:100E2000FC01138616AE2FBF0895CF92DF92EF928A
:100E3000FF920F931F93CF93DF931F921F92CDB713
:100E4000DEB78C01D62EF42EEFB6F89460E0DC010C
:100E500016968C9129835A8304DDF801828193814F
:100E6000DC01ED91FC916D2D60680190F081E02D29
:100E70001995CF2C5A81D52E2981F20EFC1471F0D0
:100E8000F80182819381D6016D916D01DC01ED91B4
:100E9000FC910190F081E02D1995F0CF61E0F8010F
:100EA0008681DFDCEFBE0F900F90DF91CF911F9115
:100EB0000F91FF90EF90DF90CF9008951F93CF9305
:100EC000DF93EC011B858FAD181B1C3308F01BE36F
:100ED0004FAD50E0445F5F4F4C0F5D1F212F6FE718
:100EE000CE01A3DF8FAD180F1FAFDF91CF911F9100
:100EF0000895EF92FF920F931F93CF93DF931F926A
:100F0000CDB7DEB77C01162F0FB7F89460E0DC0197
:100F100016968C914983A5DCF70182819381DC01CF
:100F2000ED91FC91612F60680190F081E02D1995A1
:100F3000F70182819381DC01ED91FC910190F081B8
:100F4000E02D4981642F199561E0F701868189DCE4
:100F50000FBF0F90DF91CF911F910F91FF90EF90F6
:100F60000895CF93DF93EC014D81446067E0C1DFCA
:100F700081E08C83DF91CF910895CF93DF93EC01D3
:100F800042E068E0B6DF40E068E0CE01DF91CF915B
:100F9000B0CFCF93DF93EC019FAD8B85981710F402
:100FA000CE018CDF4B856EE3CE01A3DF8C818230D6
:100FB00059F04D81486067E0CE019BDF82E08C8371
:100FC000CE01DF91CF91D9CFDF91CF910895FF92DC
:100FD0000F931F93CF93DF93EC018C818230E9F361
:100FE0000FB7F8948FB7F8941B861FAE8FBF4423BA
:100FF000D9F08B85242F30E0F901E80FF11DF3972C
:1010000098F4142FFFB6F8948B8590E00C96A90104
:101010008C0F9D1F0E9451154B85410F4B87FFBEC2
:10102000CE01B7DF81E001C080E00FBFDF91CF913B
:101030001F910F91FF900895FF920F931F93CF93ED
:10104000DF931F92CDB7DEB78C01F42E462F6CE3F1
:1010500050DF40E86DE3C8014CDF81E289834F2D0A
:101060006AE3C80146DF41E0BE016F5F7F4FC80100
:10107000AEDFF80184818230E1F30F90DF91CF91F0
:101080001F910F91FF9008950F931F93CF93DF93BC
:101090008C01EB0148816CE12CDF49816FE1C801D3
:1010A00028DFAE014E5F5F4F26E060E2C801BDDE83
:1010B000AE01485F5F4F23E06CE2C801B6DE4B85AE
:1010C00068E5C80116DF4C8569E6C80112DFAE018C
:1010D000435F5F4F25E06EE6C801DF91CF911F911E
:1010E0000F91A3CE0F931F93CF93DF93EC01162F95
:1010F0000FB7F89460E08E81B4DB8A819B81DC01BC
:10110000ED91FC91612F6F770190F081E02D1995A1
:101110008A819B81DC01ED91FC910190F081E02DB1
:1011200060E01995182F61E08E819BDB0FBF812F46
:10113000DF91CF911F910F91089568E4D3CF2F9243
:101140003F924F925F926F927F928F929F92AF9257
:10115000BF92CF92DF92EF92FF920F931F93CF93A4
:10116000DF93CDB7DEB72F970FB6F894DEBF0FBE73
:10117000CDBFDB015C915F3F41F1FC01EE5AFE4FB8
:1011800020E030E0DF011297AC91A51317C0A081D9
:10119000AA23A1F0F901EE0FFF1F2E0F3F1FF90147
:1011A000E05BFE4FE80FF91FEF2B09F4DBC0280FBF
:1011B000391FF901EF5AFE4F008108C02F5F3F4FE2
:1011C00033962A303105F1F6CDC00FEFE42E7C873F
:1011D0006B879F878E87FC01E65BFF4F10811F5F47
:1011E000108320E0835B9F4F9E838D832E843F84FA
:1011F000B8E42B0E311CEE85FF85E55BFF4FF887C9
:10120000EF83812C912C540193948E859F85895B6B
:101210009F4F9A878987FF24F394F20EAD81BE8198
:101220009C91921708F49CC0412F6CE38E859F859A
:1012300060DE40E06DE38E859F855BDE402F6AE3D4
:101240008E859F8556DE4E2D6B857C858E859F8590
:10125000BEDEAE85BF8514968C918230D1F30F3FF0
:1012600009F482C0B1E0BF1530F4F10180819181B1
:1012700001969183808324DC2B013C01AF81B885EA
:10128000CD90DC900E94B315A50194010E94C81571
:101290009B01AC01D6010E94E415A50194010E94B6
:1012A000C8152C0D3D1DC901A0E0B0E089839A83CB
:1012B000AB83BC8305DC2F2DAB01BC014419550960
:1012C0006609770989819A81AB81BC8148175907E2
:1012D0006A077B0708F09FCFAE85BF85DE968C91AD
:1012E000DE97811107C014968C911497813011F00C
:1012F000CD0137DEEE85FF8586AD8823D9F2CF019B
:101300008DDD8E859F8519DF482F67E48E859F854B
:101310004D87E8DEC82E69E48E859F85E3DED82EF2
:101320006AE48E859F85DEDE4D85401309C0A98560
:10133000BA859C91C91204C087FF02C0D116A1F0E2
:1013400087FDB8CFEE85FF85E40FF11DE25BFF4F0F
:101350008081D812AFCF6D2D8E859F856DDEAACF8F
:1013600085E003C082E001C080E02F960FB6F894BC
:10137000DEBF0FBECDBFDF91CF911F910F91FF90C8
:10138000EF90DF90CF90BF90AF909F908F907F9025
:101390006F905F904F903F902F900895AF92BF92C3
:1013A000DF92EF92FF920F931F93CF93DF931F92E1
:1013B000CDB7DEB75C018B014983BFDED82E4981F2
:1013C000B801C501BCDE282F823011F0853059F5F7
:1013D000F8016081C5012983ABD9F80161817501EC
:1013E000F7E4EF0EF11CF701808129816817D9F02D
:1013F00083E080939B04F801808180939C044D2DB1
:10140000C501C5D2F7012081F801418162E0C50123
:101410000F90DF91CF911F910F91FF90EF90DF9090
:10142000BF90AF907DC2822F0F90DF91CF911F911F
:101430000F91FF90EF90DF90BF90AF900895EF92E3
:10144000FF920F931F93CF93DF93423008F43AC07B
:10145000FB012581223059F5F42E8B01EC016DDE64
:10146000482FF8016781CE0192D2F8EFFF0EF80104
:10147000389690E0DE01A95BBF4F81E0890F9F1590
:1014800030F421919C91291711F0982FF6CFEE247A
:10149000E394E80E8F15B0F4CE014FDEF801EE0DA7
:1014A000F11D482F6085CE0172D28E2DF0CF2330F2
:1014B00049F4FB016681DF91CF911F910F91FF905D
:1014C000EF9036C9DF91CF911F910F91FF90EF9070
:1014D00008954F925F926F927F92BF92CF92DF9268
:1014E000EF92FF920F931F93CF93DF931F92CDB78D
:1014F000DEB76C01B62E81E080939B0480939C0440
:1015000060939D04F601E95BFF4F20814FEF63E09C
:10151000C60106D2882311F010E02EC08DE2898327
:10152000CFDA2B013C01CCDADC01CB01841995091F
:10153000A609B709803A9F40A105B10568F7E12CDB
:10154000F12C00E010E020E030E040E050E0BE018F
:101550006F5F7F4FC60174D2182F882321F38981D2
:10156000823008F380919B048230E9F6C601E5DD04
:10157000482F6B2DC6010BD2812F0F90DF91CF9199
:101580001F910F91FF90EF90DF90CF90BF907F90D1
:101590006F905F904F900895FF920F931F93CF939A
:1015A000DF931F921F92CDB7DEB78C0122E0AE0110
:1015B0004F5F5F4F63E0D2D9898187FF1CC043E052
:1015C00068E0C80196DC40E068E0C80192DCD80120
:1015D00014968C911497823041F414961C921497AF
:1015E000DF961C92C801D5DC06C0F80184818130E9
:1015F00011F4C80113DC898185FF0AC0D801DF9688
:101600009C91DF971B968C91981710F4C80156DCBB
:10161000898184FF02C0F801938583FF08C0D80147
:10162000ED91FC910190F081E02DC80119958A811E
:1016300083FF08C0D801ED91FC910280F381E02D79
:10164000C8011995298122FF0AC0F801EC5BFF4F00
:1016500080819181019691838083F801148221FF1A
:101660002DC06BE4C8013EDDF82EF2E3F81708F454
:1016700048C0D8011B968C91F81608F442C0F801B6
:10168000838543852F2D281B50E0445F5F4F400F1B
:10169000511F6FE7C80162D9F801EE5BFF4F8081EF
:1016A0009181019691838083D8011B96FC921B97B0
:1016B00014961C92149781E0DE968C93898180FFAA
:1016C00013C0F801E05CFF4F808191810196918306
:1016D0008083C801A3DBC80150DCF8011482848137
:1016E000813011F0C8013DDC8A8186FF17C066E2B7
:1016F000C801F8DCF801EA5BFF4F8083C8013DDCDC
:101700000BC0F801E05CFF4F8081918101969183CD
:101710008083D80114961C92C80180DB0F900F9033
:10172000DF91CF911F910F91FF90089580919903C0
:1017300090919A03009709F02FCF08958091970315
:1017400090919803009709F027CF08958091950311
:1017500090919603009709F01FCF0895CF92DF92E2
:10176000EF92FF920F931F93CF93DF936C017A0157
:101770008B01C0E0D0E0CE15DF0589F0D8016D9176
:101780008D01D601ED91FC910190F081E02DC60113
:101790001995892B11F47E0102C02196ECCFC70167
:1017A000DF91CF911F910F91FF90EF90DF90CF903D
:1017B00008950E944D15009761F0FC0101900020F2
:1017C000E9F73197AF01481B590BBC0188EC94E055
:1017D000C5CF80E090E00895CF93DF93ECDFEC017C
:1017E00080ED92E0E8DF8C0F9D1FDF91CF9108958F
:1017F00090E0FC01E255FC4F2491FC01E859FC4FBC
:101800008491882399F090E0880F991FFC01E25B96
:10181000FC4FA591B491FC01EC5CFC4F8591949137
:101820008FB7F894EC91E22BEC938FBF08958F92D1
:101830009F92AF92BF920F931F93CF93DF93CDB739
:10184000DEB7A1970FB6F894DEBF0FBECDBF19A2C9
:10185000423008F44AE08E010F5D1F4F842E912C18
:10186000A12CB12CA50194010E94F415E62FB90119
:10187000CA0101501109EA3014F4E05D01C0E95CCD
:10188000D801EC93232B242B252B61F7C80193DF80
:10189000A1960FB6F894DEBF0FBECDBFDF91CF91FA
:1018A0001F910F91BF90AF909F908F900895E091FE
:1018B000C804F091C9040190F081E02D682F88ECF4
:1018C00094E01994CF92DF92EF92FF92CF93DF933F
:1018D0006C01990FEE08FF08F7FE10C08DE2E7DFFC
:1018E000EC0166277727CB016C197D098E099F09CA
:1018F0004AE09DDF7C01EC0EFD1E05C04AE0C701F9
:10190000B60195DF7C0180ED92E055DF8E0D9F1DC5
:10191000DF91CF91FF90EF90DF90CF9008954BCF64
:101920000F931F93CF938C01E62FF0E0CF01059624
:10193000C39740F5C62F2093D4064093D306109248
:10194000D506D801A25BBE4F8C9191E0980F9C9375
:101950008093D6061092D706AF016BE974E088ED4C
:1019600096E00E945115D801ED91FC9145E04C0F95
:101970000680F781E02D63ED76E0C801CF911F91DD
:101980000F91199481E0CF911F910F910895CF93FA
:10199000DF93EC01C05BDE4FE0E0F0E0DE01288188
:1019A000261309C09F01220F331FE20FF31F9C0172
:1019B0002E0F3F1F15C031962396EA30F10579F7B7
:1019C000EC01CE5ADE4FFE0120E030E05081511193
:1019D00011C0F901EE0FFF1F2E0F3F1F280F391FF7
:1019E000F901E05BFE4F608331964083319682E0DF
:1019F000808323C02F5F3F4F33962A30310531F764
:101A0000FC01ED5AFE4F2BE101900D922A95E1F772
:101A1000FC01E359FE4F10829C0120593E4F82E0A9
:101A20009881911106C0FE01329760833196408300
:101A300088832396C217D30799F7DF91CF91089532
:101A40003F924F925F926F927F928F929F92AF924E
:101A5000BF92CF92DF92EF92FF920F931F93CF939B
:101A6000DF93EC016B014A0159018EAD811105C074
:101A70008C81813011F0CE0174DA8EAD882309F4A7
:101A800097C08EAD811105C08C81813011F0CE01DF
:101A900068DA6EAC662009F48BC05FB6F8948B856B
:101AA000823310F47B8402C082E3782E472D50E00D
:101AB000BE01645F7F4F83ED96E0F3D7CE01AED9D0
:101AC0005FBECE013ADB482E67E4CE010BDB382E39
:101AD00069E4CE0107DB582E6AE4CE0103DB87FD03
:101AE00067C08FEF381621F0442D652DCE01A4DAA2
:101AF000FE01E40DF11DE25BFF4F8081581609F4F1
:101B000057C05082E881F9810480F581E02D472D8E
:101B100063ED76E0CE0119958091D306FE01E95B75
:101B2000FF4F9081891711F08F3F61F58114910467
:101B300021F08091D406F4018083A114B10421F036
:101B40008091D306F50180830115110521F0809164
:101B5000D606F8018083E114F10421F08091D706C4
:101B6000F70180838BEF870DF6019081891708F4C8
:101B70008083F601408150E068ED76E08BE994E0E7
:101B800090D717C08091D50691E0980F9093D50615
:101B9000FE01E15BFE4F9081891750F4E881F981E5
:101BA0000680F781E02D472D63ED76E0CE01199593
:101BB000612C862DDF91CF911F910F91FF90EF90B7
:101BC000DF90CF90BF90AF909F908F907F906F905D
:101BD0005F904F903F900895EF92FF920F931F9365
:101BE000CF93DF93EC01198218821B821A821D8227
:101BF0001C826115710591F17B01FB0101900020B0
:101C0000E9F731978F01061B170BB8016F5F7F4F04
:101C100080E090E05ED6009759F0998388831B831B
:101C20000A832C813D81232B79F4FC0110820CC0A6
:101C300088819981009709F0B4D5198218821D8294
:101C40001C821B821A820AC01D830C83B701DF919C
:101C5000CF911F910F91FF90EF9035C7DF91CF91FA
:101C60001F910F91FF90EF900895CF93DF93CDB721
:101C7000DEB7A1970FB6F894DEBF0FBECDBF789444
:101C800084B5826084BD84B5816084BD85B5826081
:101C900085BD85B5816085BD80916E008160809332
:101CA0006E0010928100809181008260809381009B
:101CB00080918100816080938100809180008160AB
:101CC000809380008091B10084608093B100809106
:101CD000B00081608093B000809191008260809319
:101CE000910080919100816080939100809190009B
:101CF0008160809390008091A10082608093A10018
:101D00008091A10081608093A1008091A0008160FA
:101D10008093A000809121018260809321018091B5
:101D20002101816080932101809120018160809355
:101D3000200180917A00846080937A0080917A00FB
:101D4000826080937A0080917A00816080937A002B
:101D500080917A00806880937A001092C100E091AF
:101D6000D804F091D90482E08083E091D404F0910A
:101D7000D5041082E091D604F091D70480E18083ED
:101D80001092E004E091DC04F091DD0486E08083B1
:101D9000E091DA04F091DB04808180618083E0913E
:101DA000DA04F091DB04808188608083E091DA04BA
:101DB000F091DB04808180688083E091DA04F09107
:101DC000DB0480818F7D808364EF71E080E090E0B0
:101DD0000E94280585E30CDD84E00ADD60E084E0F4
:101DE0000E94310464E670E080E090E00E942805E3
:101DF00060E170E080E090E00E94280505E615E0D3
:101E000080916B05F5DC61E080916B050E943104E7
:101E10008091670590916805DC01ED91FC91068049
:101E2000F781E02D19958091670590916805DC0197
:101E3000ED91FC910484F585E02D60E01995809189
:101E4000670590916805DC01ED91FC910284F385B2
:101E5000E02D61E019958091670590916805DC019E
:101E6000ED91FC910684F785E02D61E0199564E61B
:101E700070E080E090E00E94280540E867E0C8013B
:101E800038D861E070E080E090E00E94280560E0D2
:101E9000C80128D980936D058750823020F080E8F2
:101EA00092E09ADCA5CF80916C05811112C010934D
:101EB00096030093950386EA9BE09093010280933A
:101EC000000280916A008C7F826080936A00EC9AA5
:101ED00027C0813091F410939803009397038EE903
:101EE0009BE0909303028093020280916A00837FBB
:101EF000886080936A00ED9A13C0823081F6109357
:101F00009A030093990386E99BE0909305028093DE
:101F10000402809169008C7F826080936900E89A56
:101F20008FB7F894109270051092A4058FBF85E6C4
:101F300095E00E940E0744E06DE785E695E00E947B
:101F4000790747E36EE785E695E00E9479074091BF
:101F50006E0543704C6860E385E695E00E94790762
:101F600048E862E385E695E00E94790742E463E38E
:101F700085E695E00E94790748E064E385E695E010
:101F80000E9479078DE28B8B84ED8C8B22E0AE0171
:101F90004D5E5F4F66E385E695E00E9415074FEFC3
:101FA00063E485E695E00E94790740E06FE385E60B
:101FB00095E00E94790740E06AE385E695E00E949B
:101FC000790740E06BE385E695E00E94790740E001
:101FD0006CE385E695E00E94790740E06DE385E6D5
:101FE00095E00E94790742E16BE085E695E00E946A
:101FF000790745E16CE085E695E00E94790747EBBB
:1020000065E085E695E00E94790740E466E085E6B4
:1020100095E00E94790740E063E785E695E00E943D
:10202000790740E064E785E695E00E94790743E59B
:1020300065E785E695E00E94790744E666E785E670
:1020400095E00E94790740E067E785E695E00E9409
:10205000790740E56AE285E695E00E94790762E04B
:1020600085E695E03FD842E150E064E871E0CE01BA
:10207000019685D5BE016F5F7F4F85E695E004D858
:1020800043E06DE685E695E00E9479074091AC0556
:102090006FE385E695E00E9479074091AC056BE31C
:1020A00085E695E00E9479078EE18093B40681E988
:1020B00092E092DB47E06DE685E695E00E947907C5
:1020C0005BE9A52E53E0B52EF50111921192B4E013
:1020D000E336FB07D1F768E873E180E090E00E9407
:1020E000280542E150E06CEC71E0CE01019647D545
:1020F000BE016F5F7F4F85E695E00E944408812C0A
:10210000912CC12CD12C4EE9642E44E0742E69A28E
:1021100088EC94E00E942D028336910509F48DC06D
:102120000E9460051B012C010E946005DC01CB01AF
:1021300082199309A409B509843F9140A105B1050D
:1021400038F7EDE2E8A3CE0101967C018E010D5E29
:102150001F4F9E01275E3F4FAE01415E5F4FBE01A4
:10216000605E7F4F85E695E06BDC182F8823E1F2F7
:1021700098A19923B1F080919B04811112C09150D4
:1021800080913F02981710F490933F0240913F02D4
:1021900050E06CE974E089E694E083D4112321F2E5
:1021A000CBC0898D8F3F09F0BFCF923008F4BCCFF0
:1021B00080919B04813009F0B7CF8091AC052F8DC1
:1021C000281709F4B1CF1DEF190F3EE9E32E34E0D3
:1021D000F32EF7019E2F9619911720F491919813E1
:1021E000F9CFA2CF85E695E00E949D08482F6F8D1C
:1021F00085E695E0CCDB8E2DB9A18B1B811748F4C9
:1022000085E695E00E949D08D7016D917D01482FDC
:10221000EFCF80919C04813009F07CC020919D0417
:102220008091AC05281376C082E080939B044F8D8B
:1022300068A185E695E074DB77CF8FEB92E06FDBEA
:102240006091100270E080E090E04AE0F0DA80ED0A
:1022500092E0B1DA83ED92E062DB809165049091C7
:10226000660430DB8CE093E05ADB8091630490914C
:10227000640428DB85E493E052DB8091670490914D
:10228000680420DB83E793E04ADB0BE913E0D80125
:102290004D905D908D01052C000C6608770877FE47
:1022A0000BC08DE204DB66277727CB016419750923
:1022B000860997094AE003C04AE0C301B201B7DAD0
:1022C0008DEB92E02CDBB4E001361B0701F7809127
:1022D000610490916204F6DAF501119211925F01A6
:1022E000F3E6AF16F4E0BF06B9F710926804109257
:1022F00067041092660410926504109264041092B0
:102300006304809110028F5F8093100287E893E04E
:1023100063DAFFCF8091B406181708F005CFE12FDC
:10232000F0E0E556FB4F8091AC05838368A16F5FB9
:1023300068A32F8D4FEF7DCF69E674E0CE014996FB
:102340004BDC8091690480932D0280916A04809314
:102350002E0280916B0480932F0280916C048093F5
:1023600030026DE272E0CE01439636DC2D8D3E8D5B
:102370008F89988D2817390701F5898D9A8D6B897A
:102380007C89009719F061157105A1F4611571053B
:1023900049F0232BE1F0DB018C9190E09195819540
:1023A000910909C0009799F0232B89F0FC018081E5
:1023B00090E001C07FD3892B51F080916704909108
:1023C0006804019690936804809367047DC08091AF
:1023D00069048093110280916A04809312028091B3
:1023E0006B048093130280916C048093140261E16A
:1023F00072E0CE010196F0DB83EA92E090DA809100
:10240000110255DA8091120252DA809113024FDAEA
:10241000809114024CDA85EB92E081DA25E635E012
:1024200040E050E0F901E05BFE4F808181110EC079
:1024300032968081882351F0CA01880F991F840F3A
:10244000951F8B54994F892BC1F407C04F5F5F4F85
:102450002D5F3F4F4A30510529F760E085E695E052
:1024600038D881110AC08091650490916604019664
:10247000909366048093650424C010929B048CE1C1
:10248000E1E1F2E0ACE9B4E001900D928A95E1F768
:102490002091AC0540E06DE185E695E041DA8111DF
:1024A000E2CF809163049091640401969093640458
:1024B000809363040091AB0510E0C80103DAC00EFD
:1024C000D11E89819A816DD18091630490916404B9
:1024D0002AE030E0B901A1D0892B79F4F401EE0FA4
:1024E000FF1FE556FC4FC601B90197D07183608389
:1024F000FFEF8F1A9F0AC12CD12C8B899C8951D157
:10250000898D9A8D4ED103CE1092CB041092CA04BD
:1025100088EE93E0A0E0B0E08093CC049093CD04EB
:10252000A093CE04B093CF0484E692E09093C904C4
:102530008093C80485EC90E09093D5048093D404F4
:1025400084EC90E09093D7048093D60480EC90E0E4
:102550009093D9048093D80481EC90E09093DB04AD
:102560008093DA0482EC90E09093DD048093DC04A5
:1025700086EC90E09093DF048093DE041092E104F7
:102580001092E2041092E3041092E40485E3809335
:102590006B0510926C0581E080936A0510926905C5
:1025A0001092A8051092A7051092A6051092A505F5
:1025B0001092AA051092A90520E432E03093680534
:1025C0002093670521E030E030936F0520936E057E
:1025D0008093AC051092AE051092AD051092AF0538
:1025E00088EC90E09093B1058093B00583E08093F0
:1025F000B2058EE18093B40680E090E0FC01E954DE
:10260000F94F108203968E319105C1F784E792E06D
:102610009093660580936505089597FB072E16F441
:10262000009406D077FD08D013D007FC05D03EF407
:10263000909581959F4F0895709561957F4F08956E
:10264000EE0FFF1F881F8BBF0790F691E02D1994A6
:10265000AA1BBB1B51E107C0AA1FBB1FA617B707C8
:1026600010F0A61BB70B881F991F5A95A9F78095E4
:102670009095BC01CD010895CF93DF9382309105F1
:1026800010F482E090E0E0910707F091080720E065
:1026900030E0C0E0D0E0309711F14081518148171F
:1026A0005907C0F04817590761F482819381209738
:1026B00019F09B838A832BC09093080780930707A8
:1026C00026C02115310519F04217530718F49A0155
:1026D000BE01DF01EF010280F381E02DDCCF211587
:1026E000310509F1281B390B2430310590F412967D
:1026F0008D919C9113976115710521F0FB019383D6
:10270000828304C09093080780930707FD013296E7
:1027100044C0FD01E20FF31F8193919322503109D0
:102720002D933C933AC02091050730910607232B47
:1027300041F42091440230914502309306072093E2
:10274000050720914202309143022115310541F4E1
:102750002DB73EB74091460250914702241B350BDE
:10276000E0910507F0910607E217F307A0F42E1B8E
:102770003F0B2817390778F0AC014E5F5F4F2417E5
:10278000350748F04E0F5F1F50930607409305072B
:102790008193919302C0E0E0F0E0CF01DF91CF910F
:1027A00008950F931F93CF93DF93009709F48CC084
:1027B000FC013297138212820091070710910807DB
:1027C0000115110581F420813181820F931F209121
:1027D0000507309106072817390779F5F0930607A2
:1027E000E093050771C0D80140E050E0AE17BF0785
:1027F00050F412962D913C911397AD01211531059E
:1028000009F1D901F3CF9D01DA013383228360817D
:102810007181860F971F8217930769F4EC01288155
:102820003981260F371F2E5F3F4F318320838A81E6
:102830009B8193838283452B29F4F0930807E093CF
:10284000070742C01396FC93EE931297ED0149914E
:1028500059919E01240F351FE217F30771F480810F
:102860009181840F951F029611969C938E9382817D
:10287000938113969C938E931297E0E0F0E0D80139
:1028800012968D919C911397009719F0F8018C0185
:10289000F6CF8D919C9198012E5F3F4F820F931F31
:1028A00020910507309106072817390769F43097FA
:1028B00029F4109208071092070702C013821282AF
:1028C0001093060700930507DF91CF911F910F9199
:1028D00008956F927F928F929F92AF92BF92CF9204
:1028E000DF92EF92FF920F931F93CF93DF93EC0150
:1028F000009781F4CB01DF91CF911F910F91FF9051
:10290000EF90DF90CF90BF90AF909F908F907F908F
:102910006F90B2CEFC01E60FF71F9C0122503109E7
:10292000E217F30708F4A8C0D9010D911C91119783
:1029300006171707A8F00530110508F49BC0C80159
:1029400004978617970708F495C002501109061BD3
:10295000170B019311936D937C93CF0122DF8AC0F3
:102960005B01A01AB10A4C01800E911EA0910707CD
:10297000B091080740E050E0E12CF12C109709F4E9
:102980004AC0A815B905D1F56D907C9011976301E7
:1029900082E0C80ED11CCA14DB0480F1A3014A19DD
:1029A0005B096A0182E0C80ED11C1296BC90129796
:1029B0001396AC91B5E0CB16D10440F0B282A3835C
:1029C00051834083D9016D937C930AC00E5F1F4FE2
:1029D000C301800F911FF90191838083EB2DFA2FA2
:1029E000E114F10431F0D7011396FC93EE931297A2
:1029F00041C0F0930807E09307073CC08D919C917C
:102A000011974817590708F4AC017D0112960D90F3
:102A1000BC91A02DB3CF8091050790910607881532
:102A20009905E1F446175707C8F480914202909146
:102A30004302009741F48DB79EB7409146025091F2
:102A40004702841B950BE817F907B0F4F0930607CB
:102A5000E0930507F901718360830CC0CB010CDEA4
:102A60007C01009749F0A801BE011BD0CE0199DE80
:102A7000C70104C0CE0102C080E090E0DF91CF9199
:102A80001F910F91FF90EF90DF90CF90BF90AF908C
:102A90009F908F907F906F90089581E090E0F894E0
:102AA000D4C0FB01DC0102C001900D9241505040A6
:102AB000D8F70895FB01DC018D9101908019011078
:102AC000D9F3990B0895FB01DC0101900D920020D0
:102AD000E1F708958F929F92AF92BF92CF92DF92CB
:102AE000EF92FF92CF93DF93EC01688179818A8125
:102AF0009B81611571058105910521F464E279EDF1
:102B00008BE597E02DE133EF41E050E041D0490102
:102B10005A019B01AC01A7EAB1E456D06B017C01DC
:102B2000ACEEB4EFA50194015BD0DC01CB018C0DC0
:102B30009D1DAE1DBF1DB7FF03C00197A109B04881
:102B400088839983AA83BB83BC01CD019F77DF91E2
:102B5000CF91FF90EF90DF90CF90BF90AF909F907C
:102B60008F900895B7CF88E492E0B4CF6093480285
:102B70007093490280934A0290934B020895FB019F
:102B8000DC0102C005900D9241505040D8F70895E5
:102B9000052E97FB16F400940FD057FD05D024D0D6
:102BA00007FC02D046F408C0509540953095219519
:102BB0003F4F4F4F5F4F0895909580957095619569
:102BC0007F4F8F4F9F4F089531D0A59F900DB49F99
:102BD000900DA49F800D911D11240895B7FFF4CF8F
:102BE000F3DF821B930B0895A1E21A2EAA1BBB1BD5
:102BF000FD010DC0AA1FBB1FEE1FFF1FA217B307C9
:102C0000E407F50720F0A21BB30BE40BF50B661FDE
:102C1000771F881F991F1A9469F7609570958095A2
:102C200090959B01AC01BD01CF010895A29FB00119
:102C3000B39FC001A39F700D811D1124911DB29FF0
:0E2C4000700D811D1124911D0895F894FFCF91
:102C4E004903490349034903490349034903490316
:102C5E0001303030303A20416E642068656C6C6F04
:102C6E00206261636B20746F20796F750030303095
:102C7E00303A2048656C6C6F20576F726C6400326E
:102C8E005002000009078000010000000000000053
:102C9E0091038D038903F90475036D0368035903CA
:102CAE00000000008502AE0B4F022D024102CB0246
:102CBE0000000000580357031F0ACE09690A4B0390
:102CCE007266323220696E6974206661696C656461
:102CDE00007266323220696E6974207375636365A3
:102CEE0073730073656E64696E6720726573706FBF
:102CFE006E736520003A3A20525353493A200046EB
:102D0E006F72206D6F64756C6174696F6E3A20001E
:102D1E000D0A00546865206E756D626572206F66CF
:102D2E00206661696C6564207472616E736D69737F
:102D3E0073696F6E206D6573736167657320776954
:102D4E0074686F75742061636B3A20005468652057
:102D5E006E756D626572206F662073756363657341
:102D6E007366756C6C20726563657074696F6E73D3
:102D7E0020616E64207472616E736D697373696F16
:102D8E006E733A2000546865206E756D6265722010
:102D9E006F6620696E636F72726563746C792072F0
:102DAE0065636965766564206D65737361676573C8
:102DBE003A200054686520727373692061766572DB
:0A2DCE00616765733A20002A0000D7
:00000001FF
